{
	"contracts/Freelance_Marketplace.sol": {
		"FreelanceMarketplace": {
			"abi": [
				{
					"inputs": [
						{
							"internalType": "uint256",
							"name": "_minimumVotingPower",
							"type": "uint256"
						},
						{
							"internalType": "uint256",
							"name": "_votingDeadline",
							"type": "uint256"
						}
					],
					"stateMutability": "nonpayable",
					"type": "constructor"
				},
				{
					"anonymous": false,
					"inputs": [
						{
							"indexed": false,
							"internalType": "uint256",
							"name": "projectId",
							"type": "uint256"
						},
						{
							"indexed": false,
							"internalType": "address",
							"name": "freelancer",
							"type": "address"
						},
						{
							"indexed": false,
							"internalType": "string",
							"name": "reason",
							"type": "string"
						}
					],
					"name": "ApplicationRejected",
					"type": "event"
				},
				{
					"anonymous": false,
					"inputs": [
						{
							"indexed": false,
							"internalType": "uint256",
							"name": "projectId",
							"type": "uint256"
						}
					],
					"name": "DisputeRaised",
					"type": "event"
				},
				{
					"anonymous": false,
					"inputs": [
						{
							"indexed": false,
							"internalType": "uint256",
							"name": "projectId",
							"type": "uint256"
						},
						{
							"indexed": false,
							"internalType": "address",
							"name": "winner",
							"type": "address"
						}
					],
					"name": "DisputeResolved",
					"type": "event"
				},
				{
					"anonymous": false,
					"inputs": [
						{
							"indexed": false,
							"internalType": "uint256",
							"name": "projectId",
							"type": "uint256"
						},
						{
							"indexed": false,
							"internalType": "uint256",
							"name": "milestoneIndex",
							"type": "uint256"
						}
					],
					"name": "MilestoneCompleted",
					"type": "event"
				},
				{
					"anonymous": false,
					"inputs": [
						{
							"indexed": false,
							"internalType": "uint256",
							"name": "projectId",
							"type": "uint256"
						},
						{
							"indexed": false,
							"internalType": "address",
							"name": "client",
							"type": "address"
						},
						{
							"indexed": false,
							"internalType": "address",
							"name": "freelancer",
							"type": "address"
						}
					],
					"name": "ProjectAwarded",
					"type": "event"
				},
				{
					"anonymous": false,
					"inputs": [
						{
							"indexed": false,
							"internalType": "uint256",
							"name": "projectId",
							"type": "uint256"
						}
					],
					"name": "ProjectCompleted",
					"type": "event"
				},
				{
					"anonymous": false,
					"inputs": [
						{
							"indexed": false,
							"internalType": "uint256",
							"name": "projectId",
							"type": "uint256"
						},
						{
							"indexed": false,
							"internalType": "address",
							"name": "client",
							"type": "address"
						},
						{
							"indexed": false,
							"internalType": "string",
							"name": "title",
							"type": "string"
						}
					],
					"name": "ProjectCreated",
					"type": "event"
				},
				{
					"anonymous": false,
					"inputs": [
						{
							"indexed": false,
							"internalType": "uint256",
							"name": "disputeId",
							"type": "uint256"
						},
						{
							"indexed": false,
							"internalType": "address",
							"name": "voter",
							"type": "address"
						},
						{
							"indexed": false,
							"internalType": "bool",
							"name": "voteForA",
							"type": "bool"
						}
					],
					"name": "VoteCast",
					"type": "event"
				},
				{
					"inputs": [
						{
							"internalType": "uint256",
							"name": "_projectId",
							"type": "uint256"
						},
						{
							"internalType": "uint256",
							"name": "_applicationIndex",
							"type": "uint256"
						}
					],
					"name": "acceptApplication",
					"outputs": [],
					"stateMutability": "nonpayable",
					"type": "function"
				},
				{
					"inputs": [
						{
							"internalType": "uint256",
							"name": "_projectId",
							"type": "uint256"
						},
						{
							"internalType": "string",
							"name": "_proposal",
							"type": "string"
						},
						{
							"internalType": "uint256",
							"name": "_bid",
							"type": "uint256"
						}
					],
					"name": "applyForProject",
					"outputs": [],
					"stateMutability": "nonpayable",
					"type": "function"
				},
				{
					"inputs": [
						{
							"internalType": "uint256",
							"name": "_projectId",
							"type": "uint256"
						},
						{
							"internalType": "uint256",
							"name": "_milestoneId",
							"type": "uint256"
						}
					],
					"name": "approveMilestone",
					"outputs": [],
					"stateMutability": "nonpayable",
					"type": "function"
				},
				{
					"inputs": [
						{
							"internalType": "uint256",
							"name": "_projectId",
							"type": "uint256"
						}
					],
					"name": "completeProject",
					"outputs": [],
					"stateMutability": "nonpayable",
					"type": "function"
				},
				{
					"inputs": [
						{
							"internalType": "string",
							"name": "_title",
							"type": "string"
						},
						{
							"internalType": "string",
							"name": "_description",
							"type": "string"
						},
						{
							"internalType": "uint256",
							"name": "_budget",
							"type": "uint256"
						},
						{
							"internalType": "uint256",
							"name": "_deadline",
							"type": "uint256"
						}
					],
					"name": "createProject",
					"outputs": [],
					"stateMutability": "payable",
					"type": "function"
				},
				{
					"inputs": [],
					"name": "disputeCount",
					"outputs": [
						{
							"internalType": "uint256",
							"name": "",
							"type": "uint256"
						}
					],
					"stateMutability": "view",
					"type": "function"
				},
				{
					"inputs": [
						{
							"internalType": "uint256",
							"name": "",
							"type": "uint256"
						}
					],
					"name": "disputeDeadlines",
					"outputs": [
						{
							"internalType": "uint256",
							"name": "",
							"type": "uint256"
						}
					],
					"stateMutability": "view",
					"type": "function"
				},
				{
					"inputs": [
						{
							"internalType": "uint256",
							"name": "",
							"type": "uint256"
						}
					],
					"name": "disputes",
					"outputs": [
						{
							"internalType": "uint256",
							"name": "projectId",
							"type": "uint256"
						},
						{
							"internalType": "address",
							"name": "partyA",
							"type": "address"
						},
						{
							"internalType": "address",
							"name": "partyB",
							"type": "address"
						},
						{
							"internalType": "uint256",
							"name": "votesForA",
							"type": "uint256"
						},
						{
							"internalType": "uint256",
							"name": "votesForB",
							"type": "uint256"
						},
						{
							"internalType": "bool",
							"name": "resolved",
							"type": "bool"
						}
					],
					"stateMutability": "view",
					"type": "function"
				},
				{
					"inputs": [],
					"name": "minimumVotingPower",
					"outputs": [
						{
							"internalType": "uint256",
							"name": "",
							"type": "uint256"
						}
					],
					"stateMutability": "view",
					"type": "function"
				},
				{
					"inputs": [
						{
							"internalType": "uint256",
							"name": "",
							"type": "uint256"
						},
						{
							"internalType": "uint256",
							"name": "",
							"type": "uint256"
						}
					],
					"name": "projectApplications",
					"outputs": [
						{
							"internalType": "address",
							"name": "freelancer",
							"type": "address"
						},
						{
							"internalType": "string",
							"name": "proposal",
							"type": "string"
						},
						{
							"internalType": "uint256",
							"name": "bid",
							"type": "uint256"
						},
						{
							"internalType": "bool",
							"name": "isAccepted",
							"type": "bool"
						}
					],
					"stateMutability": "view",
					"type": "function"
				},
				{
					"inputs": [
						{
							"internalType": "uint256",
							"name": "",
							"type": "uint256"
						}
					],
					"name": "projectEscrow",
					"outputs": [
						{
							"internalType": "uint256",
							"name": "",
							"type": "uint256"
						}
					],
					"stateMutability": "view",
					"type": "function"
				},
				{
					"inputs": [
						{
							"internalType": "uint256",
							"name": "",
							"type": "uint256"
						},
						{
							"internalType": "uint256",
							"name": "",
							"type": "uint256"
						}
					],
					"name": "projectMilestones",
					"outputs": [
						{
							"internalType": "string",
							"name": "",
							"type": "string"
						}
					],
					"stateMutability": "view",
					"type": "function"
				},
				{
					"inputs": [
						{
							"internalType": "uint256",
							"name": "",
							"type": "uint256"
						}
					],
					"name": "projects",
					"outputs": [
						{
							"internalType": "address",
							"name": "client",
							"type": "address"
						},
						{
							"internalType": "string",
							"name": "title",
							"type": "string"
						},
						{
							"internalType": "string",
							"name": "description",
							"type": "string"
						},
						{
							"internalType": "uint256",
							"name": "budget",
							"type": "uint256"
						},
						{
							"internalType": "uint256",
							"name": "deadline",
							"type": "uint256"
						},
						{
							"internalType": "enum FreelanceMarketplace.ProjectStatus",
							"name": "status",
							"type": "uint8"
						},
						{
							"internalType": "address payable",
							"name": "freelancer",
							"type": "address"
						}
					],
					"stateMutability": "view",
					"type": "function"
				},
				{
					"inputs": [
						{
							"internalType": "uint256",
							"name": "_projectId",
							"type": "uint256"
						}
					],
					"name": "raiseDispute",
					"outputs": [],
					"stateMutability": "nonpayable",
					"type": "function"
				},
				{
					"inputs": [
						{
							"internalType": "enum FreelanceMarketplace.UserRole",
							"name": "_role",
							"type": "uint8"
						},
						{
							"internalType": "string",
							"name": "_name",
							"type": "string"
						}
					],
					"name": "registerUser",
					"outputs": [],
					"stateMutability": "nonpayable",
					"type": "function"
				},
				{
					"inputs": [
						{
							"internalType": "uint256",
							"name": "_projectId",
							"type": "uint256"
						},
						{
							"internalType": "uint256",
							"name": "_applicationIndex",
							"type": "uint256"
						},
						{
							"internalType": "string",
							"name": "_rejectionReason",
							"type": "string"
						}
					],
					"name": "rejectApplication",
					"outputs": [],
					"stateMutability": "nonpayable",
					"type": "function"
				},
				{
					"inputs": [
						{
							"internalType": "uint256",
							"name": "_disputeId",
							"type": "uint256"
						}
					],
					"name": "resolveDispute",
					"outputs": [],
					"stateMutability": "nonpayable",
					"type": "function"
				},
				{
					"inputs": [
						{
							"internalType": "uint256",
							"name": "_projectId",
							"type": "uint256"
						},
						{
							"internalType": "uint256",
							"name": "_milestoneId",
							"type": "uint256"
						},
						{
							"internalType": "string",
							"name": "_milestoneData",
							"type": "string"
						}
					],
					"name": "submitMilestone",
					"outputs": [],
					"stateMutability": "nonpayable",
					"type": "function"
				},
				{
					"inputs": [
						{
							"internalType": "address",
							"name": "",
							"type": "address"
						}
					],
					"name": "userReputation",
					"outputs": [
						{
							"internalType": "uint256",
							"name": "",
							"type": "uint256"
						}
					],
					"stateMutability": "view",
					"type": "function"
				},
				{
					"inputs": [
						{
							"internalType": "address",
							"name": "",
							"type": "address"
						}
					],
					"name": "users",
					"outputs": [
						{
							"internalType": "enum FreelanceMarketplace.UserRole",
							"name": "role",
							"type": "uint8"
						},
						{
							"internalType": "string",
							"name": "name",
							"type": "string"
						},
						{
							"internalType": "uint256",
							"name": "reputationScore",
							"type": "uint256"
						},
						{
							"internalType": "address payable",
							"name": "ethAddress",
							"type": "address"
						}
					],
					"stateMutability": "view",
					"type": "function"
				},
				{
					"inputs": [
						{
							"internalType": "uint256",
							"name": "_disputeId",
							"type": "uint256"
						},
						{
							"internalType": "bool",
							"name": "_voteForA",
							"type": "bool"
						}
					],
					"name": "voteOnDispute",
					"outputs": [],
					"stateMutability": "nonpayable",
					"type": "function"
				},
				{
					"inputs": [
						{
							"internalType": "uint256",
							"name": "",
							"type": "uint256"
						},
						{
							"internalType": "address",
							"name": "",
							"type": "address"
						}
					],
					"name": "voted",
					"outputs": [
						{
							"internalType": "bool",
							"name": "",
							"type": "bool"
						}
					],
					"stateMutability": "view",
					"type": "function"
				},
				{
					"inputs": [],
					"name": "votingDeadline",
					"outputs": [
						{
							"internalType": "uint256",
							"name": "",
							"type": "uint256"
						}
					],
					"stateMutability": "view",
					"type": "function"
				},
				{
					"inputs": [
						{
							"internalType": "address",
							"name": "",
							"type": "address"
						}
					],
					"name": "votingPower",
					"outputs": [
						{
							"internalType": "uint256",
							"name": "",
							"type": "uint256"
						}
					],
					"stateMutability": "view",
					"type": "function"
				},
				{
					"inputs": [
						{
							"internalType": "uint256",
							"name": "_projectId",
							"type": "uint256"
						}
					],
					"name": "withdrawClientFunds",
					"outputs": [],
					"stateMutability": "nonpayable",
					"type": "function"
				}
			],
			"devdoc": {
				"kind": "dev",
				"methods": {},
				"version": 1
			},
			"evm": {
				"assembly": "    /* \"contracts/Freelance_Marketplace.sol\":57:12701  contract FreelanceMarketplace {... */\n  mstore(0x40, 0x80)\n    /* \"contracts/Freelance_Marketplace.sol\":2064:2229  constructor(uint256 _minimumVotingPower, uint256 _votingDeadline) {... */\n  callvalue\n  dup1\n  iszero\n  tag_1\n  jumpi\n  0x00\n  dup1\n  revert\ntag_1:\n  pop\n  mload(0x40)\n  sub(codesize, bytecodeSize)\n  dup1\n  bytecodeSize\n  dup4\n  codecopy\n  dup2\n  dup2\n  add\n  0x40\n  mstore\n  dup2\n  add\n  swap1\n  tag_2\n  swap2\n  swap1\n  tag_3\n  jump\t// in\ntag_2:\n    /* \"contracts/Freelance_Marketplace.sol\":2161:2180  _minimumVotingPower */\n  dup2\n    /* \"contracts/Freelance_Marketplace.sol\":2140:2158  minimumVotingPower */\n  0x0b\n    /* \"contracts/Freelance_Marketplace.sol\":2140:2180  minimumVotingPower = _minimumVotingPower */\n  dup2\n  swap1\n  sstore\n  pop\n    /* \"contracts/Freelance_Marketplace.sol\":2207:2222  _votingDeadline */\n  dup1\n    /* \"contracts/Freelance_Marketplace.sol\":2190:2204  votingDeadline */\n  0x0c\n    /* \"contracts/Freelance_Marketplace.sol\":2190:2222  votingDeadline = _votingDeadline */\n  dup2\n  swap1\n  sstore\n  pop\n    /* \"contracts/Freelance_Marketplace.sol\":2064:2229  constructor(uint256 _minimumVotingPower, uint256 _votingDeadline) {... */\n  pop\n  pop\n    /* \"contracts/Freelance_Marketplace.sol\":57:12701  contract FreelanceMarketplace {... */\n  jump(tag_6)\n    /* \"#utility.yul\":88:205   */\ntag_8:\n    /* \"#utility.yul\":197:198   */\n  0x00\n    /* \"#utility.yul\":194:195   */\n  dup1\n    /* \"#utility.yul\":187:199   */\n  revert\n    /* \"#utility.yul\":334:411   */\ntag_10:\n    /* \"#utility.yul\":371:378   */\n  0x00\n    /* \"#utility.yul\":400:405   */\n  dup2\n    /* \"#utility.yul\":389:405   */\n  swap1\n  pop\n    /* \"#utility.yul\":334:411   */\n  swap2\n  swap1\n  pop\n  jump\t// out\n    /* \"#utility.yul\":417:539   */\ntag_11:\n    /* \"#utility.yul\":490:514   */\n  tag_19\n    /* \"#utility.yul\":508:513   */\n  dup2\n    /* \"#utility.yul\":490:514   */\n  tag_10\n  jump\t// in\ntag_19:\n    /* \"#utility.yul\":483:488   */\n  dup2\n    /* \"#utility.yul\":480:515   */\n  eq\n    /* \"#utility.yul\":470:533   */\n  tag_20\n  jumpi\n    /* \"#utility.yul\":529:530   */\n  0x00\n    /* \"#utility.yul\":526:527   */\n  dup1\n    /* \"#utility.yul\":519:531   */\n  revert\n    /* \"#utility.yul\":470:533   */\ntag_20:\n    /* \"#utility.yul\":417:539   */\n  pop\n  jump\t// out\n    /* \"#utility.yul\":545:688   */\ntag_12:\n    /* \"#utility.yul\":602:607   */\n  0x00\n    /* \"#utility.yul\":633:639   */\n  dup2\n    /* \"#utility.yul\":627:640   */\n  mload\n    /* \"#utility.yul\":618:640   */\n  swap1\n  pop\n    /* \"#utility.yul\":649:682   */\n  tag_22\n    /* \"#utility.yul\":676:681   */\n  dup2\n    /* \"#utility.yul\":649:682   */\n  tag_11\n  jump\t// in\ntag_22:\n    /* \"#utility.yul\":545:688   */\n  swap3\n  swap2\n  pop\n  pop\n  jump\t// out\n    /* \"#utility.yul\":694:1201   */\ntag_3:\n    /* \"#utility.yul\":773:779   */\n  0x00\n    /* \"#utility.yul\":781:787   */\n  dup1\n    /* \"#utility.yul\":830:832   */\n  0x40\n    /* \"#utility.yul\":818:827   */\n  dup4\n    /* \"#utility.yul\":809:816   */\n  dup6\n    /* \"#utility.yul\":805:828   */\n  sub\n    /* \"#utility.yul\":801:833   */\n  slt\n    /* \"#utility.yul\":798:917   */\n  iszero\n  tag_24\n  jumpi\n    /* \"#utility.yul\":836:915   */\n  tag_25\n  tag_8\n  jump\t// in\ntag_25:\n    /* \"#utility.yul\":798:917   */\ntag_24:\n    /* \"#utility.yul\":956:957   */\n  0x00\n    /* \"#utility.yul\":981:1045   */\n  tag_26\n    /* \"#utility.yul\":1037:1044   */\n  dup6\n    /* \"#utility.yul\":1028:1034   */\n  dup3\n    /* \"#utility.yul\":1017:1026   */\n  dup7\n    /* \"#utility.yul\":1013:1035   */\n  add\n    /* \"#utility.yul\":981:1045   */\n  tag_12\n  jump\t// in\ntag_26:\n    /* \"#utility.yul\":971:1045   */\n  swap3\n  pop\n    /* \"#utility.yul\":927:1055   */\n  pop\n    /* \"#utility.yul\":1094:1096   */\n  0x20\n    /* \"#utility.yul\":1120:1184   */\n  tag_27\n    /* \"#utility.yul\":1176:1183   */\n  dup6\n    /* \"#utility.yul\":1167:1173   */\n  dup3\n    /* \"#utility.yul\":1156:1165   */\n  dup7\n    /* \"#utility.yul\":1152:1174   */\n  add\n    /* \"#utility.yul\":1120:1184   */\n  tag_12\n  jump\t// in\ntag_27:\n    /* \"#utility.yul\":1110:1184   */\n  swap2\n  pop\n    /* \"#utility.yul\":1065:1194   */\n  pop\n    /* \"#utility.yul\":694:1201   */\n  swap3\n  pop\n  swap3\n  swap1\n  pop\n  jump\t// out\n    /* \"contracts/Freelance_Marketplace.sol\":57:12701  contract FreelanceMarketplace {... */\ntag_6:\n  dataSize(sub_0)\n  dup1\n  dataOffset(sub_0)\n  0x00\n  codecopy\n  0x00\n  return\nstop\n\nsub_0: assembly {\n        /* \"contracts/Freelance_Marketplace.sol\":57:12701  contract FreelanceMarketplace {... */\n      mstore(0x40, 0x80)\n      jumpi(tag_1, lt(calldatasize, 0x04))\n      shr(0xe0, calldataload(0x00))\n      dup1\n      0x64800185\n      gt\n      tag_27\n      jumpi\n      dup1\n      0xa5c1674e\n      gt\n      tag_28\n      jumpi\n      dup1\n      0xc2b7b868\n      gt\n      tag_29\n      jumpi\n      dup1\n      0xc2b7b868\n      eq\n      tag_23\n      jumpi\n      dup1\n      0xd29bcc5c\n      eq\n      tag_24\n      jumpi\n      dup1\n      0xe32ba8f1\n      eq\n      tag_25\n      jumpi\n      dup1\n      0xe503bb05\n      eq\n      tag_26\n      jumpi\n      jump(tag_1)\n    tag_29:\n      dup1\n      0xa5c1674e\n      eq\n      tag_20\n      jumpi\n      dup1\n      0xa87430ba\n      eq\n      tag_21\n      jumpi\n      dup1\n      0xc07473f6\n      eq\n      tag_22\n      jumpi\n      jump(tag_1)\n    tag_28:\n      dup1\n      0x64800185\n      eq\n      tag_14\n      jumpi\n      dup1\n      0x6cb0adba\n      eq\n      tag_15\n      jumpi\n      dup1\n      0x83f67f6e\n      eq\n      tag_16\n      jumpi\n      dup1\n      0x94ba9709\n      eq\n      tag_17\n      jumpi\n      dup1\n      0xa28889e1\n      eq\n      tag_18\n      jumpi\n      dup1\n      0xa4f5df12\n      eq\n      tag_19\n      jumpi\n      jump(tag_1)\n    tag_27:\n      dup1\n      0x20913da5\n      gt\n      tag_30\n      jumpi\n      dup1\n      0x20913da5\n      eq\n      tag_8\n      jumpi\n      dup1\n      0x2245f152\n      eq\n      tag_9\n      jumpi\n      dup1\n      0x2b168ee4\n      eq\n      tag_10\n      jumpi\n      dup1\n      0x40e51b50\n      eq\n      tag_11\n      jumpi\n      dup1\n      0x5277b4ae\n      eq\n      tag_12\n      jumpi\n      dup1\n      0x564a565d\n      eq\n      tag_13\n      jumpi\n      jump(tag_1)\n    tag_30:\n      dup1\n      0x036ee850\n      eq\n      tag_2\n      jumpi\n      dup1\n      0x0390e07a\n      eq\n      tag_3\n      jumpi\n      dup1\n      0x0d88d409\n      eq\n      tag_4\n      jumpi\n      dup1\n      0x107046bd\n      eq\n      tag_5\n      jumpi\n      dup1\n      0x120ea202\n      eq\n      tag_6\n      jumpi\n      dup1\n      0x187548d8\n      eq\n      tag_7\n      jumpi\n    tag_1:\n      0x00\n      dup1\n      revert\n        /* \"contracts/Freelance_Marketplace.sol\":2028:2057  uint256 public votingDeadline */\n    tag_2:\n      callvalue\n      dup1\n      iszero\n      tag_31\n      jumpi\n      0x00\n      dup1\n      revert\n    tag_31:\n      pop\n      tag_32\n      tag_33\n      jump\t// in\n    tag_32:\n      mload(0x40)\n      tag_34\n      swap2\n      swap1\n      tag_35\n      jump\t// in\n    tag_34:\n      mload(0x40)\n      dup1\n      swap2\n      sub\n      swap1\n      return\n        /* \"contracts/Freelance_Marketplace.sol\":7187:7690  function submitMilestone(... */\n    tag_3:\n      callvalue\n      dup1\n      iszero\n      tag_36\n      jumpi\n      0x00\n      dup1\n      revert\n    tag_36:\n      pop\n      tag_37\n      0x04\n      dup1\n      calldatasize\n      sub\n      dup2\n      add\n      swap1\n      tag_38\n      swap2\n      swap1\n      tag_39\n      jump\t// in\n    tag_38:\n      tag_40\n      jump\t// in\n    tag_37:\n      stop\n        /* \"contracts/Freelance_Marketplace.sol\":1931:1982  mapping(uint256 => uint256) public disputeDeadlines */\n    tag_4:\n      callvalue\n      dup1\n      iszero\n      tag_41\n      jumpi\n      0x00\n      dup1\n      revert\n    tag_41:\n      pop\n      tag_42\n      0x04\n      dup1\n      calldatasize\n      sub\n      dup2\n      add\n      swap1\n      tag_43\n      swap2\n      swap1\n      tag_44\n      jump\t// in\n    tag_43:\n      tag_45\n      jump\t// in\n    tag_42:\n      mload(0x40)\n      tag_46\n      swap2\n      swap1\n      tag_35\n      jump\t// in\n    tag_46:\n      mload(0x40)\n      dup1\n      swap2\n      sub\n      swap1\n      return\n        /* \"contracts/Freelance_Marketplace.sol\":1504:1529  Project[] public projects */\n    tag_5:\n      callvalue\n      dup1\n      iszero\n      tag_47\n      jumpi\n      0x00\n      dup1\n      revert\n    tag_47:\n      pop\n      tag_48\n      0x04\n      dup1\n      calldatasize\n      sub\n      dup2\n      add\n      swap1\n      tag_49\n      swap2\n      swap1\n      tag_44\n      jump\t// in\n    tag_49:\n      tag_50\n      jump\t// in\n    tag_48:\n      mload(0x40)\n      tag_51\n      swap8\n      swap7\n      swap6\n      swap5\n      swap4\n      swap3\n      swap2\n      swap1\n      tag_52\n      jump\t// in\n    tag_51:\n      mload(0x40)\n      dup1\n      swap2\n      sub\n      swap1\n      return\n        /* \"contracts/Freelance_Marketplace.sol\":1989:2022  uint256 public minimumVotingPower */\n    tag_6:\n      callvalue\n      dup1\n      iszero\n      tag_53\n      jumpi\n      0x00\n      dup1\n      revert\n    tag_53:\n      pop\n      tag_54\n      tag_55\n      jump\t// in\n    tag_54:\n      mload(0x40)\n      tag_56\n      swap2\n      swap1\n      tag_35\n      jump\t// in\n    tag_56:\n      mload(0x40)\n      dup1\n      swap2\n      sub\n      swap1\n      return\n        /* \"contracts/Freelance_Marketplace.sol\":4878:5522  function applyForProject(... */\n    tag_7:\n      callvalue\n      dup1\n      iszero\n      tag_57\n      jumpi\n      0x00\n      dup1\n      revert\n    tag_57:\n      pop\n      tag_58\n      0x04\n      dup1\n      calldatasize\n      sub\n      dup2\n      add\n      swap1\n      tag_59\n      swap2\n      swap1\n      tag_60\n      jump\t// in\n    tag_59:\n      tag_61\n      jump\t// in\n    tag_58:\n      stop\n        /* \"contracts/Freelance_Marketplace.sol\":7696:8249  function approveMilestone(uint256 _projectId, uint256 _milestoneId) ... */\n    tag_8:\n      callvalue\n      dup1\n      iszero\n      tag_62\n      jumpi\n      0x00\n      dup1\n      revert\n    tag_62:\n      pop\n      tag_63\n      0x04\n      dup1\n      calldatasize\n      sub\n      dup2\n      add\n      swap1\n      tag_64\n      swap2\n      swap1\n      tag_65\n      jump\t// in\n    tag_64:\n      tag_66\n      jump\t// in\n    tag_63:\n      stop\n        /* \"contracts/Freelance_Marketplace.sol\":8525:9159  function completeProject(uint256 _projectId)... */\n    tag_9:\n      callvalue\n      dup1\n      iszero\n      tag_67\n      jumpi\n      0x00\n      dup1\n      revert\n    tag_67:\n      pop\n      tag_68\n      0x04\n      dup1\n      calldatasize\n      sub\n      dup2\n      add\n      swap1\n      tag_69\n      swap2\n      swap1\n      tag_44\n      jump\t// in\n    tag_69:\n      tag_70\n      jump\t// in\n    tag_68:\n      stop\n        /* \"contracts/Freelance_Marketplace.sol\":1668:1728  mapping(uint256 => Application[]) public projectApplications */\n    tag_10:\n      callvalue\n      dup1\n      iszero\n      tag_71\n      jumpi\n      0x00\n      dup1\n      revert\n    tag_71:\n      pop\n      tag_72\n      0x04\n      dup1\n      calldatasize\n      sub\n      dup2\n      add\n      swap1\n      tag_73\n      swap2\n      swap1\n      tag_65\n      jump\t// in\n    tag_73:\n      tag_74\n      jump\t// in\n    tag_72:\n      mload(0x40)\n      tag_75\n      swap5\n      swap4\n      swap3\n      swap2\n      swap1\n      tag_76\n      jump\t// in\n    tag_75:\n      mload(0x40)\n      dup1\n      swap2\n      sub\n      swap1\n      return\n        /* \"contracts/Freelance_Marketplace.sol\":12068:12699  function withdrawClientFunds(uint256 _projectId) public onlyClient(_projectId) {... */\n    tag_11:\n      callvalue\n      dup1\n      iszero\n      tag_77\n      jumpi\n      0x00\n      dup1\n      revert\n    tag_77:\n      pop\n      tag_78\n      0x04\n      dup1\n      calldatasize\n      sub\n      dup2\n      add\n      swap1\n      tag_79\n      swap2\n      swap1\n      tag_44\n      jump\t// in\n    tag_79:\n      tag_80\n      jump\t// in\n    tag_78:\n      stop\n        /* \"contracts/Freelance_Marketplace.sol\":1868:1925  mapping(uint256 => mapping(address => bool)) public voted */\n    tag_12:\n      callvalue\n      dup1\n      iszero\n      tag_81\n      jumpi\n      0x00\n      dup1\n      revert\n    tag_81:\n      pop\n      tag_82\n      0x04\n      dup1\n      calldatasize\n      sub\n      dup2\n      add\n      swap1\n      tag_83\n      swap2\n      swap1\n      tag_84\n      jump\t// in\n    tag_83:\n      tag_85\n      jump\t// in\n    tag_82:\n      mload(0x40)\n      tag_86\n      swap2\n      swap1\n      tag_87\n      jump\t// in\n    tag_86:\n      mload(0x40)\n      dup1\n      swap2\n      sub\n      swap1\n      return\n        /* \"contracts/Freelance_Marketplace.sol\":1734:1777  mapping(uint256 => Dispute) public disputes */\n    tag_13:\n      callvalue\n      dup1\n      iszero\n      tag_88\n      jumpi\n      0x00\n      dup1\n      revert\n    tag_88:\n      pop\n      tag_89\n      0x04\n      dup1\n      calldatasize\n      sub\n      dup2\n      add\n      swap1\n      tag_90\n      swap2\n      swap1\n      tag_44\n      jump\t// in\n    tag_90:\n      tag_91\n      jump\t// in\n    tag_89:\n      mload(0x40)\n      tag_92\n      swap7\n      swap6\n      swap5\n      swap4\n      swap3\n      swap2\n      swap1\n      tag_93\n      jump\t// in\n    tag_92:\n      mload(0x40)\n      dup1\n      swap2\n      sub\n      swap1\n      return\n        /* \"contracts/Freelance_Marketplace.sol\":1535:1584  mapping (uint256 => uint256) public projectEscrow */\n    tag_14:\n      callvalue\n      dup1\n      iszero\n      tag_94\n      jumpi\n      0x00\n      dup1\n      revert\n    tag_94:\n      pop\n      tag_95\n      0x04\n      dup1\n      calldatasize\n      sub\n      dup2\n      add\n      swap1\n      tag_96\n      swap2\n      swap1\n      tag_44\n      jump\t// in\n    tag_96:\n      tag_97\n      jump\t// in\n    tag_95:\n      mload(0x40)\n      tag_98\n      swap2\n      swap1\n      tag_35\n      jump\t// in\n    tag_98:\n      mload(0x40)\n      dup1\n      swap2\n      sub\n      swap1\n      return\n        /* \"contracts/Freelance_Marketplace.sol\":1591:1662  mapping(uint256 => mapping(uint256 => string)) public projectMilestones */\n    tag_15:\n      callvalue\n      dup1\n      iszero\n      tag_99\n      jumpi\n      0x00\n      dup1\n      revert\n    tag_99:\n      pop\n      tag_100\n      0x04\n      dup1\n      calldatasize\n      sub\n      dup2\n      add\n      swap1\n      tag_101\n      swap2\n      swap1\n      tag_65\n      jump\t// in\n    tag_101:\n      tag_102\n      jump\t// in\n    tag_100:\n      mload(0x40)\n      tag_103\n      swap2\n      swap1\n      tag_104\n      jump\t// in\n    tag_103:\n      mload(0x40)\n      dup1\n      swap2\n      sub\n      swap1\n      return\n        /* \"contracts/Freelance_Marketplace.sol\":5528:6380  function acceptApplication(... */\n    tag_16:\n      callvalue\n      dup1\n      iszero\n      tag_105\n      jumpi\n      0x00\n      dup1\n      revert\n    tag_105:\n      pop\n      tag_106\n      0x04\n      dup1\n      calldatasize\n      sub\n      dup2\n      add\n      swap1\n      tag_107\n      swap2\n      swap1\n      tag_65\n      jump\t// in\n    tag_107:\n      tag_108\n      jump\t// in\n    tag_106:\n      stop\n        /* \"contracts/Freelance_Marketplace.sol\":3201:3898  function createProject(... */\n    tag_17:\n      tag_109\n      0x04\n      dup1\n      calldatasize\n      sub\n      dup2\n      add\n      swap1\n      tag_110\n      swap2\n      swap1\n      tag_111\n      jump\t// in\n    tag_110:\n      tag_112\n      jump\t// in\n    tag_109:\n      stop\n        /* \"contracts/Freelance_Marketplace.sol\":1783:1810  uint256 public disputeCount */\n    tag_18:\n      callvalue\n      dup1\n      iszero\n      tag_113\n      jumpi\n      0x00\n      dup1\n      revert\n    tag_113:\n      pop\n      tag_114\n      tag_115\n      jump\t// in\n    tag_114:\n      mload(0x40)\n      tag_116\n      swap2\n      swap1\n      tag_35\n      jump\t// in\n    tag_116:\n      mload(0x40)\n      dup1\n      swap2\n      sub\n      swap1\n      return\n        /* \"contracts/Freelance_Marketplace.sol\":10139:10879  function voteOnDispute(uint256 _disputeId, bool _voteForA)... */\n    tag_19:\n      callvalue\n      dup1\n      iszero\n      tag_117\n      jumpi\n      0x00\n      dup1\n      revert\n    tag_117:\n      pop\n      tag_118\n      0x04\n      dup1\n      calldatasize\n      sub\n      dup2\n      add\n      swap1\n      tag_119\n      swap2\n      swap1\n      tag_120\n      jump\t// in\n    tag_119:\n      tag_121\n      jump\t// in\n    tag_118:\n      stop\n        /* \"contracts/Freelance_Marketplace.sol\":9165:10133  function raiseDispute(uint256 _projectId) public projectExists(_projectId) {... */\n    tag_20:\n      callvalue\n      dup1\n      iszero\n      tag_122\n      jumpi\n      0x00\n      dup1\n      revert\n    tag_122:\n      pop\n      tag_123\n      0x04\n      dup1\n      calldatasize\n      sub\n      dup2\n      add\n      swap1\n      tag_124\n      swap2\n      swap1\n      tag_44\n      jump\t// in\n    tag_124:\n      tag_125\n      jump\t// in\n    tag_123:\n      stop\n        /* \"contracts/Freelance_Marketplace.sol\":1405:1442  mapping(address => User) public users */\n    tag_21:\n      callvalue\n      dup1\n      iszero\n      tag_126\n      jumpi\n      0x00\n      dup1\n      revert\n    tag_126:\n      pop\n      tag_127\n      0x04\n      dup1\n      calldatasize\n      sub\n      dup2\n      add\n      swap1\n      tag_128\n      swap2\n      swap1\n      tag_129\n      jump\t// in\n    tag_128:\n      tag_130\n      jump\t// in\n    tag_127:\n      mload(0x40)\n      tag_131\n      swap5\n      swap4\n      swap3\n      swap2\n      swap1\n      tag_132\n      jump\t// in\n    tag_131:\n      mload(0x40)\n      dup1\n      swap2\n      sub\n      swap1\n      return\n        /* \"contracts/Freelance_Marketplace.sol\":1816:1862  mapping(address => uint256) public votingPower */\n    tag_22:\n      callvalue\n      dup1\n      iszero\n      tag_133\n      jumpi\n      0x00\n      dup1\n      revert\n    tag_133:\n      pop\n      tag_134\n      0x04\n      dup1\n      calldatasize\n      sub\n      dup2\n      add\n      swap1\n      tag_135\n      swap2\n      swap1\n      tag_129\n      jump\t// in\n    tag_135:\n      tag_136\n      jump\t// in\n    tag_134:\n      mload(0x40)\n      tag_137\n      swap2\n      swap1\n      tag_35\n      jump\t// in\n    tag_137:\n      mload(0x40)\n      dup1\n      swap2\n      sub\n      swap1\n      return\n        /* \"contracts/Freelance_Marketplace.sol\":10885:12062  function resolveDispute(uint256 _disputeId) public {... */\n    tag_23:\n      callvalue\n      dup1\n      iszero\n      tag_138\n      jumpi\n      0x00\n      dup1\n      revert\n    tag_138:\n      pop\n      tag_139\n      0x04\n      dup1\n      calldatasize\n      sub\n      dup2\n      add\n      swap1\n      tag_140\n      swap2\n      swap1\n      tag_44\n      jump\t// in\n    tag_140:\n      tag_141\n      jump\t// in\n    tag_139:\n      stop\n        /* \"contracts/Freelance_Marketplace.sol\":2861:3195  function registerUser(UserRole _role, string memory _name) public {... */\n    tag_24:\n      callvalue\n      dup1\n      iszero\n      tag_142\n      jumpi\n      0x00\n      dup1\n      revert\n    tag_142:\n      pop\n      tag_143\n      0x04\n      dup1\n      calldatasize\n      sub\n      dup2\n      add\n      swap1\n      tag_144\n      swap2\n      swap1\n      tag_145\n      jump\t// in\n    tag_144:\n      tag_146\n      jump\t// in\n    tag_143:\n      stop\n        /* \"contracts/Freelance_Marketplace.sol\":6386:7171  function rejectApplication(... */\n    tag_25:\n      callvalue\n      dup1\n      iszero\n      tag_147\n      jumpi\n      0x00\n      dup1\n      revert\n    tag_147:\n      pop\n      tag_148\n      0x04\n      dup1\n      calldatasize\n      sub\n      dup2\n      add\n      swap1\n      tag_149\n      swap2\n      swap1\n      tag_39\n      jump\t// in\n    tag_149:\n      tag_150\n      jump\t// in\n    tag_148:\n      stop\n        /* \"contracts/Freelance_Marketplace.sol\":1449:1498  mapping(address => uint256) public userReputation */\n    tag_26:\n      callvalue\n      dup1\n      iszero\n      tag_151\n      jumpi\n      0x00\n      dup1\n      revert\n    tag_151:\n      pop\n      tag_152\n      0x04\n      dup1\n      calldatasize\n      sub\n      dup2\n      add\n      swap1\n      tag_153\n      swap2\n      swap1\n      tag_129\n      jump\t// in\n    tag_153:\n      tag_154\n      jump\t// in\n    tag_152:\n      mload(0x40)\n      tag_155\n      swap2\n      swap1\n      tag_35\n      jump\t// in\n    tag_155:\n      mload(0x40)\n      dup1\n      swap2\n      sub\n      swap1\n      return\n        /* \"contracts/Freelance_Marketplace.sol\":2028:2057  uint256 public votingDeadline */\n    tag_33:\n      sload(0x0c)\n      dup2\n      jump\t// out\n        /* \"contracts/Freelance_Marketplace.sol\":7187:7690  function submitMilestone(... */\n    tag_40:\n        /* \"contracts/Freelance_Marketplace.sol\":7354:7364  _projectId */\n      dup3\n        /* \"contracts/Freelance_Marketplace.sol\":2479:2487  projects */\n      0x02\n        /* \"contracts/Freelance_Marketplace.sol\":2488:2498  _projectId */\n      dup2\n        /* \"contracts/Freelance_Marketplace.sol\":2479:2499  projects[_projectId] */\n      dup2\n      sload\n      dup2\n      lt\n      tag_157\n      jumpi\n      tag_158\n      tag_159\n      jump\t// in\n    tag_158:\n    tag_157:\n      swap1\n      0x00\n      mstore\n      keccak256(0x00, 0x20)\n      swap1\n      0x06\n      mul\n      add\n        /* \"contracts/Freelance_Marketplace.sol\":2479:2510  projects[_projectId].freelancer */\n      0x05\n      add\n      0x01\n      swap1\n      sload\n      swap1\n      0x0100\n      exp\n      swap1\n      div\n      0xffffffffffffffffffffffffffffffffffffffff\n      and\n        /* \"contracts/Freelance_Marketplace.sol\":2465:2510  msg.sender == projects[_projectId].freelancer */\n      0xffffffffffffffffffffffffffffffffffffffff\n      and\n        /* \"contracts/Freelance_Marketplace.sol\":2465:2475  msg.sender */\n      caller\n        /* \"contracts/Freelance_Marketplace.sol\":2465:2510  msg.sender == projects[_projectId].freelancer */\n      0xffffffffffffffffffffffffffffffffffffffff\n      and\n      eq\n        /* \"contracts/Freelance_Marketplace.sol\":2457:2568  require(msg.sender == projects[_projectId].freelancer, \"Only the assigned freelancer can perform this action.\") */\n      tag_161\n      jumpi\n      mload(0x40)\n      0x08c379a000000000000000000000000000000000000000000000000000000000\n      dup2\n      mstore\n      0x04\n      add\n      tag_162\n      swap1\n      tag_163\n      jump\t// in\n    tag_162:\n      mload(0x40)\n      dup1\n      swap2\n      sub\n      swap1\n      revert\n    tag_161:\n        /* \"contracts/Freelance_Marketplace.sol\":7389:7399  _projectId */\n      dup4\n        /* \"contracts/Freelance_Marketplace.sol\":2666:2674  projects */\n      0x02\n        /* \"contracts/Freelance_Marketplace.sol\":2666:2681  projects.length */\n      dup1\n      sload\n      swap1\n      pop\n        /* \"contracts/Freelance_Marketplace.sol\":2653:2663  _projectId */\n      dup2\n        /* \"contracts/Freelance_Marketplace.sol\":2653:2681  _projectId < projects.length */\n      lt\n        /* \"contracts/Freelance_Marketplace.sol\":2645:2709  require(_projectId < projects.length, \"Project does not exist.\") */\n      tag_165\n      jumpi\n      mload(0x40)\n      0x08c379a000000000000000000000000000000000000000000000000000000000\n      dup2\n      mstore\n      0x04\n      add\n      tag_166\n      swap1\n      tag_167\n      jump\t// in\n    tag_166:\n      mload(0x40)\n      dup1\n      swap2\n      sub\n      swap1\n      revert\n    tag_165:\n        /* \"contracts/Freelance_Marketplace.sol\":7415:7438  Project storage project */\n      0x00\n        /* \"contracts/Freelance_Marketplace.sol\":7441:7449  projects */\n      0x02\n        /* \"contracts/Freelance_Marketplace.sol\":7450:7460  _projectId */\n      dup7\n        /* \"contracts/Freelance_Marketplace.sol\":7441:7461  projects[_projectId] */\n      dup2\n      sload\n      dup2\n      lt\n      tag_169\n      jumpi\n      tag_170\n      tag_159\n      jump\t// in\n    tag_170:\n    tag_169:\n      swap1\n      0x00\n      mstore\n      keccak256(0x00, 0x20)\n      swap1\n      0x06\n      mul\n      add\n        /* \"contracts/Freelance_Marketplace.sol\":7415:7461  Project storage project = projects[_projectId] */\n      swap1\n      pop\n        /* \"contracts/Freelance_Marketplace.sol\":7497:7521  ProjectStatus.InProgress */\n      0x01\n        /* \"contracts/Freelance_Marketplace.sol\":7479:7521  project.status == ProjectStatus.InProgress */\n      0x03\n      dup2\n      gt\n      iszero\n      tag_172\n      jumpi\n      tag_173\n      tag_174\n      jump\t// in\n    tag_173:\n    tag_172:\n        /* \"contracts/Freelance_Marketplace.sol\":7479:7486  project */\n      dup2\n        /* \"contracts/Freelance_Marketplace.sol\":7479:7493  project.status */\n      0x05\n      add\n      0x00\n      swap1\n      sload\n      swap1\n      0x0100\n      exp\n      swap1\n      div\n      0xff\n      and\n        /* \"contracts/Freelance_Marketplace.sol\":7479:7521  project.status == ProjectStatus.InProgress */\n      0x03\n      dup2\n      gt\n      iszero\n      tag_175\n      jumpi\n      tag_176\n      tag_174\n      jump\t// in\n    tag_176:\n    tag_175:\n      eq\n        /* \"contracts/Freelance_Marketplace.sol\":7471:7553  require(project.status == ProjectStatus.InProgress, \"Project is not in progress.\") */\n      tag_177\n      jumpi\n      mload(0x40)\n      0x08c379a000000000000000000000000000000000000000000000000000000000\n      dup2\n      mstore\n      0x04\n      add\n      tag_178\n      swap1\n      tag_179\n      jump\t// in\n    tag_178:\n      mload(0x40)\n      dup1\n      swap2\n      sub\n      swap1\n      revert\n    tag_177:\n        /* \"contracts/Freelance_Marketplace.sol\":7610:7624  _milestoneData */\n      dup4\n        /* \"contracts/Freelance_Marketplace.sol\":7564:7581  projectMilestones */\n      0x04\n        /* \"contracts/Freelance_Marketplace.sol\":7564:7593  projectMilestones[_projectId] */\n      0x00\n        /* \"contracts/Freelance_Marketplace.sol\":7582:7592  _projectId */\n      dup9\n        /* \"contracts/Freelance_Marketplace.sol\":7564:7593  projectMilestones[_projectId] */\n      dup2\n      mstore\n      0x20\n      add\n      swap1\n      dup2\n      mstore\n      0x20\n      add\n      0x00\n      keccak256\n        /* \"contracts/Freelance_Marketplace.sol\":7564:7607  projectMilestones[_projectId][_milestoneId] */\n      0x00\n        /* \"contracts/Freelance_Marketplace.sol\":7594:7606  _milestoneId */\n      dup8\n        /* \"contracts/Freelance_Marketplace.sol\":7564:7607  projectMilestones[_projectId][_milestoneId] */\n      dup2\n      mstore\n      0x20\n      add\n      swap1\n      dup2\n      mstore\n      0x20\n      add\n      0x00\n      keccak256\n        /* \"contracts/Freelance_Marketplace.sol\":7564:7624  projectMilestones[_projectId][_milestoneId] = _milestoneData */\n      swap1\n      dup2\n      tag_180\n      swap2\n      swap1\n      tag_181\n      jump\t// in\n    tag_180:\n      pop\n        /* \"contracts/Freelance_Marketplace.sol\":7639:7683  MilestoneCompleted(_projectId, _milestoneId) */\n      0x1b7218c0ac23ea9cbe4df603d2b340fbf469a115b73ea3d11460727f445d6be1\n        /* \"contracts/Freelance_Marketplace.sol\":7658:7668  _projectId */\n      dup7\n        /* \"contracts/Freelance_Marketplace.sol\":7670:7682  _milestoneId */\n      dup7\n        /* \"contracts/Freelance_Marketplace.sol\":7639:7683  MilestoneCompleted(_projectId, _milestoneId) */\n      mload(0x40)\n      tag_182\n      swap3\n      swap2\n      swap1\n      tag_183\n      jump\t// in\n    tag_182:\n      mload(0x40)\n      dup1\n      swap2\n      sub\n      swap1\n      log1\n        /* \"contracts/Freelance_Marketplace.sol\":7405:7690  {... */\n      pop\n        /* \"contracts/Freelance_Marketplace.sol\":2578:2579  _ */\n      pop\n        /* \"contracts/Freelance_Marketplace.sol\":7187:7690  function submitMilestone(... */\n      pop\n      pop\n      pop\n      pop\n      jump\t// out\n        /* \"contracts/Freelance_Marketplace.sol\":1931:1982  mapping(uint256 => uint256) public disputeDeadlines */\n    tag_45:\n      mstore(0x20, 0x0a)\n      dup1\n      0x00\n      mstore\n      keccak256(0x00, 0x40)\n      0x00\n      swap2\n      pop\n      swap1\n      pop\n      sload\n      dup2\n      jump\t// out\n        /* \"contracts/Freelance_Marketplace.sol\":1504:1529  Project[] public projects */\n    tag_50:\n      0x02\n      dup2\n      dup2\n      sload\n      dup2\n      lt\n      tag_184\n      jumpi\n      0x00\n      dup1\n      revert\n    tag_184:\n      swap1\n      0x00\n      mstore\n      keccak256(0x00, 0x20)\n      swap1\n      0x06\n      mul\n      add\n      0x00\n      swap2\n      pop\n      swap1\n      pop\n      dup1\n      0x00\n      add\n      0x00\n      swap1\n      sload\n      swap1\n      0x0100\n      exp\n      swap1\n      div\n      0xffffffffffffffffffffffffffffffffffffffff\n      and\n      swap1\n      dup1\n      0x01\n      add\n      dup1\n      sload\n      tag_186\n      swap1\n      tag_187\n      jump\t// in\n    tag_186:\n      dup1\n      0x1f\n      add\n      0x20\n      dup1\n      swap2\n      div\n      mul\n      0x20\n      add\n      mload(0x40)\n      swap1\n      dup2\n      add\n      0x40\n      mstore\n      dup1\n      swap3\n      swap2\n      swap1\n      dup2\n      dup2\n      mstore\n      0x20\n      add\n      dup3\n      dup1\n      sload\n      tag_188\n      swap1\n      tag_187\n      jump\t// in\n    tag_188:\n      dup1\n      iszero\n      tag_189\n      jumpi\n      dup1\n      0x1f\n      lt\n      tag_190\n      jumpi\n      0x0100\n      dup1\n      dup4\n      sload\n      div\n      mul\n      dup4\n      mstore\n      swap2\n      0x20\n      add\n      swap2\n      jump(tag_189)\n    tag_190:\n      dup3\n      add\n      swap2\n      swap1\n      0x00\n      mstore\n      keccak256(0x00, 0x20)\n      swap1\n    tag_191:\n      dup2\n      sload\n      dup2\n      mstore\n      swap1\n      0x01\n      add\n      swap1\n      0x20\n      add\n      dup1\n      dup4\n      gt\n      tag_191\n      jumpi\n      dup3\n      swap1\n      sub\n      0x1f\n      and\n      dup3\n      add\n      swap2\n    tag_189:\n      pop\n      pop\n      pop\n      pop\n      pop\n      swap1\n      dup1\n      0x02\n      add\n      dup1\n      sload\n      tag_192\n      swap1\n      tag_187\n      jump\t// in\n    tag_192:\n      dup1\n      0x1f\n      add\n      0x20\n      dup1\n      swap2\n      div\n      mul\n      0x20\n      add\n      mload(0x40)\n      swap1\n      dup2\n      add\n      0x40\n      mstore\n      dup1\n      swap3\n      swap2\n      swap1\n      dup2\n      dup2\n      mstore\n      0x20\n      add\n      dup3\n      dup1\n      sload\n      tag_193\n      swap1\n      tag_187\n      jump\t// in\n    tag_193:\n      dup1\n      iszero\n      tag_194\n      jumpi\n      dup1\n      0x1f\n      lt\n      tag_195\n      jumpi\n      0x0100\n      dup1\n      dup4\n      sload\n      div\n      mul\n      dup4\n      mstore\n      swap2\n      0x20\n      add\n      swap2\n      jump(tag_194)\n    tag_195:\n      dup3\n      add\n      swap2\n      swap1\n      0x00\n      mstore\n      keccak256(0x00, 0x20)\n      swap1\n    tag_196:\n      dup2\n      sload\n      dup2\n      mstore\n      swap1\n      0x01\n      add\n      swap1\n      0x20\n      add\n      dup1\n      dup4\n      gt\n      tag_196\n      jumpi\n      dup3\n      swap1\n      sub\n      0x1f\n      and\n      dup3\n      add\n      swap2\n    tag_194:\n      pop\n      pop\n      pop\n      pop\n      pop\n      swap1\n      dup1\n      0x03\n      add\n      sload\n      swap1\n      dup1\n      0x04\n      add\n      sload\n      swap1\n      dup1\n      0x05\n      add\n      0x00\n      swap1\n      sload\n      swap1\n      0x0100\n      exp\n      swap1\n      div\n      0xff\n      and\n      swap1\n      dup1\n      0x05\n      add\n      0x01\n      swap1\n      sload\n      swap1\n      0x0100\n      exp\n      swap1\n      div\n      0xffffffffffffffffffffffffffffffffffffffff\n      and\n      swap1\n      pop\n      dup8\n      jump\t// out\n        /* \"contracts/Freelance_Marketplace.sol\":1989:2022  uint256 public minimumVotingPower */\n    tag_55:\n      sload(0x0b)\n      dup2\n      jump\t// out\n        /* \"contracts/Freelance_Marketplace.sol\":4878:5522  function applyForProject(... */\n    tag_61:\n        /* \"contracts/Freelance_Marketplace.sol\":5013:5023  _projectId */\n      dup3\n        /* \"contracts/Freelance_Marketplace.sol\":2666:2674  projects */\n      0x02\n        /* \"contracts/Freelance_Marketplace.sol\":2666:2681  projects.length */\n      dup1\n      sload\n      swap1\n      pop\n        /* \"contracts/Freelance_Marketplace.sol\":2653:2663  _projectId */\n      dup2\n        /* \"contracts/Freelance_Marketplace.sol\":2653:2681  _projectId < projects.length */\n      lt\n        /* \"contracts/Freelance_Marketplace.sol\":2645:2709  require(_projectId < projects.length, \"Project does not exist.\") */\n      tag_198\n      jumpi\n      mload(0x40)\n      0x08c379a000000000000000000000000000000000000000000000000000000000\n      dup2\n      mstore\n      0x04\n      add\n      tag_199\n      swap1\n      tag_167\n      jump\t// in\n    tag_199:\n      mload(0x40)\n      dup1\n      swap2\n      sub\n      swap1\n      revert\n    tag_198:\n        /* \"contracts/Freelance_Marketplace.sol\":5039:5062  Project storage project */\n      0x00\n        /* \"contracts/Freelance_Marketplace.sol\":5065:5073  projects */\n      0x02\n        /* \"contracts/Freelance_Marketplace.sol\":5074:5084  _projectId */\n      dup6\n        /* \"contracts/Freelance_Marketplace.sol\":5065:5085  projects[_projectId] */\n      dup2\n      sload\n      dup2\n      lt\n      tag_201\n      jumpi\n      tag_202\n      tag_159\n      jump\t// in\n    tag_202:\n    tag_201:\n      swap1\n      0x00\n      mstore\n      keccak256(0x00, 0x20)\n      swap1\n      0x06\n      mul\n      add\n        /* \"contracts/Freelance_Marketplace.sol\":5039:5085  Project storage project = projects[_projectId] */\n      swap1\n      pop\n        /* \"contracts/Freelance_Marketplace.sol\":5121:5139  ProjectStatus.Open */\n      0x00\n        /* \"contracts/Freelance_Marketplace.sol\":5103:5139  project.status == ProjectStatus.Open */\n      0x03\n      dup2\n      gt\n      iszero\n      tag_204\n      jumpi\n      tag_205\n      tag_174\n      jump\t// in\n    tag_205:\n    tag_204:\n        /* \"contracts/Freelance_Marketplace.sol\":5103:5110  project */\n      dup2\n        /* \"contracts/Freelance_Marketplace.sol\":5103:5117  project.status */\n      0x05\n      add\n      0x00\n      swap1\n      sload\n      swap1\n      0x0100\n      exp\n      swap1\n      div\n      0xff\n      and\n        /* \"contracts/Freelance_Marketplace.sol\":5103:5139  project.status == ProjectStatus.Open */\n      0x03\n      dup2\n      gt\n      iszero\n      tag_206\n      jumpi\n      tag_207\n      tag_174\n      jump\t// in\n    tag_207:\n    tag_206:\n      eq\n        /* \"contracts/Freelance_Marketplace.sol\":5095:5181  require(project.status == ProjectStatus.Open, \"Project is not open for applications.\") */\n      tag_208\n      jumpi\n      mload(0x40)\n      0x08c379a000000000000000000000000000000000000000000000000000000000\n      dup2\n      mstore\n      0x04\n      add\n      tag_209\n      swap1\n      tag_210\n      jump\t// in\n    tag_209:\n      mload(0x40)\n      dup1\n      swap2\n      sub\n      swap1\n      revert\n    tag_208:\n        /* \"contracts/Freelance_Marketplace.sol\":5200:5235  _hasApplied(msg.sender, _projectId) */\n      tag_211\n        /* \"contracts/Freelance_Marketplace.sol\":5212:5222  msg.sender */\n      caller\n        /* \"contracts/Freelance_Marketplace.sol\":5224:5234  _projectId */\n      dup7\n        /* \"contracts/Freelance_Marketplace.sol\":5200:5211  _hasApplied */\n      tag_212\n        /* \"contracts/Freelance_Marketplace.sol\":5200:5235  _hasApplied(msg.sender, _projectId) */\n      jump\t// in\n    tag_211:\n        /* \"contracts/Freelance_Marketplace.sol\":5199:5235  !_hasApplied(msg.sender, _projectId) */\n      iszero\n        /* \"contracts/Freelance_Marketplace.sol\":5191:5277  require(!_hasApplied(msg.sender, _projectId), \"You already applied for this project.\") */\n      tag_213\n      jumpi\n      mload(0x40)\n      0x08c379a000000000000000000000000000000000000000000000000000000000\n      dup2\n      mstore\n      0x04\n      add\n      tag_214\n      swap1\n      tag_215\n      jump\t// in\n    tag_214:\n      mload(0x40)\n      dup1\n      swap2\n      sub\n      swap1\n      revert\n    tag_213:\n        /* \"contracts/Freelance_Marketplace.sol\":5288:5307  projectApplications */\n      0x05\n        /* \"contracts/Freelance_Marketplace.sol\":5288:5319  projectApplications[_projectId] */\n      0x00\n        /* \"contracts/Freelance_Marketplace.sol\":5308:5318  _projectId */\n      dup7\n        /* \"contracts/Freelance_Marketplace.sol\":5288:5319  projectApplications[_projectId] */\n      dup2\n      mstore\n      0x20\n      add\n      swap1\n      dup2\n      mstore\n      0x20\n      add\n      0x00\n      keccak256\n        /* \"contracts/Freelance_Marketplace.sol\":5338:5505  Application({... */\n      mload(0x40)\n      dup1\n      0x80\n      add\n      0x40\n      mstore\n      dup1\n        /* \"contracts/Freelance_Marketplace.sol\":5380:5390  msg.sender */\n      caller\n        /* \"contracts/Freelance_Marketplace.sol\":5338:5505  Application({... */\n      0xffffffffffffffffffffffffffffffffffffffff\n      and\n      dup2\n      mstore\n      0x20\n      add\n        /* \"contracts/Freelance_Marketplace.sol\":5418:5427  _proposal */\n      dup7\n        /* \"contracts/Freelance_Marketplace.sol\":5338:5505  Application({... */\n      dup2\n      mstore\n      0x20\n      add\n        /* \"contracts/Freelance_Marketplace.sol\":5451:5455  _bid */\n      dup6\n        /* \"contracts/Freelance_Marketplace.sol\":5338:5505  Application({... */\n      dup2\n      mstore\n      0x20\n      add\n        /* \"contracts/Freelance_Marketplace.sol\":5485:5490  false */\n      0x00\n        /* \"contracts/Freelance_Marketplace.sol\":5338:5505  Application({... */\n      iszero\n      iszero\n      dup2\n      mstore\n      pop\n        /* \"contracts/Freelance_Marketplace.sol\":5288:5515  projectApplications[_projectId].push(... */\n      swap1\n      dup1\n      0x01\n      dup2\n      sload\n      add\n      dup1\n      dup3\n      sstore\n      dup1\n      swap2\n      pop\n      pop\n      0x01\n      swap1\n      sub\n      swap1\n      0x00\n      mstore\n      keccak256(0x00, 0x20)\n      swap1\n      0x04\n      mul\n      add\n      0x00\n      swap1\n      swap2\n      swap1\n      swap2\n      swap1\n      swap2\n      pop\n      0x00\n      dup3\n      add\n      mload\n      dup2\n      0x00\n      add\n      exp(0x0100, 0x00)\n      dup2\n      sload\n      dup2\n      0xffffffffffffffffffffffffffffffffffffffff\n      mul\n      not\n      and\n      swap1\n      dup4\n      0xffffffffffffffffffffffffffffffffffffffff\n      and\n      mul\n      or\n      swap1\n      sstore\n      pop\n      0x20\n      dup3\n      add\n      mload\n      dup2\n      0x01\n      add\n      swap1\n      dup2\n      tag_217\n      swap2\n      swap1\n      tag_181\n      jump\t// in\n    tag_217:\n      pop\n      0x40\n      dup3\n      add\n      mload\n      dup2\n      0x02\n      add\n      sstore\n      0x60\n      dup3\n      add\n      mload\n      dup2\n      0x03\n      add\n      exp(0x0100, 0x00)\n      dup2\n      sload\n      dup2\n      0xff\n      mul\n      not\n      and\n      swap1\n      dup4\n      iszero\n      iszero\n      mul\n      or\n      swap1\n      sstore\n      pop\n      pop\n      pop\n        /* \"contracts/Freelance_Marketplace.sol\":5029:5522  {... */\n      pop\n        /* \"contracts/Freelance_Marketplace.sol\":4878:5522  function applyForProject(... */\n      pop\n      pop\n      pop\n      pop\n      jump\t// out\n        /* \"contracts/Freelance_Marketplace.sol\":7696:8249  function approveMilestone(uint256 _projectId, uint256 _milestoneId) ... */\n    tag_66:\n        /* \"contracts/Freelance_Marketplace.sol\":7800:7810  _projectId */\n      dup2\n        /* \"contracts/Freelance_Marketplace.sol\":2307:2315  projects */\n      0x02\n        /* \"contracts/Freelance_Marketplace.sol\":2316:2326  _projectId */\n      dup2\n        /* \"contracts/Freelance_Marketplace.sol\":2307:2327  projects[_projectId] */\n      dup2\n      sload\n      dup2\n      lt\n      tag_219\n      jumpi\n      tag_220\n      tag_159\n      jump\t// in\n    tag_220:\n    tag_219:\n      swap1\n      0x00\n      mstore\n      keccak256(0x00, 0x20)\n      swap1\n      0x06\n      mul\n      add\n        /* \"contracts/Freelance_Marketplace.sol\":2307:2334  projects[_projectId].client */\n      0x00\n      add\n      0x00\n      swap1\n      sload\n      swap1\n      0x0100\n      exp\n      swap1\n      div\n      0xffffffffffffffffffffffffffffffffffffffff\n      and\n        /* \"contracts/Freelance_Marketplace.sol\":2293:2334  msg.sender == projects[_projectId].client */\n      0xffffffffffffffffffffffffffffffffffffffff\n      and\n        /* \"contracts/Freelance_Marketplace.sol\":2293:2303  msg.sender */\n      caller\n        /* \"contracts/Freelance_Marketplace.sol\":2293:2334  msg.sender == projects[_projectId].client */\n      0xffffffffffffffffffffffffffffffffffffffff\n      and\n      eq\n        /* \"contracts/Freelance_Marketplace.sol\":2285:2379  require(msg.sender == projects[_projectId].client, \"Only the client can perform this action.\") */\n      tag_222\n      jumpi\n      mload(0x40)\n      0x08c379a000000000000000000000000000000000000000000000000000000000\n      dup2\n      mstore\n      0x04\n      add\n      tag_223\n      swap1\n      tag_224\n      jump\t// in\n    tag_223:\n      mload(0x40)\n      dup1\n      swap2\n      sub\n      swap1\n      revert\n    tag_222:\n        /* \"contracts/Freelance_Marketplace.sol\":7835:7845  _projectId */\n      dup3\n        /* \"contracts/Freelance_Marketplace.sol\":2666:2674  projects */\n      0x02\n        /* \"contracts/Freelance_Marketplace.sol\":2666:2681  projects.length */\n      dup1\n      sload\n      swap1\n      pop\n        /* \"contracts/Freelance_Marketplace.sol\":2653:2663  _projectId */\n      dup2\n        /* \"contracts/Freelance_Marketplace.sol\":2653:2681  _projectId < projects.length */\n      lt\n        /* \"contracts/Freelance_Marketplace.sol\":2645:2709  require(_projectId < projects.length, \"Project does not exist.\") */\n      tag_226\n      jumpi\n      mload(0x40)\n      0x08c379a000000000000000000000000000000000000000000000000000000000\n      dup2\n      mstore\n      0x04\n      add\n      tag_227\n      swap1\n      tag_167\n      jump\t// in\n    tag_227:\n      mload(0x40)\n      dup1\n      swap2\n      sub\n      swap1\n      revert\n    tag_226:\n        /* \"contracts/Freelance_Marketplace.sol\":7861:7884  Project storage project */\n      0x00\n        /* \"contracts/Freelance_Marketplace.sol\":7887:7895  projects */\n      0x02\n        /* \"contracts/Freelance_Marketplace.sol\":7896:7906  _projectId */\n      dup6\n        /* \"contracts/Freelance_Marketplace.sol\":7887:7907  projects[_projectId] */\n      dup2\n      sload\n      dup2\n      lt\n      tag_229\n      jumpi\n      tag_230\n      tag_159\n      jump\t// in\n    tag_230:\n    tag_229:\n      swap1\n      0x00\n      mstore\n      keccak256(0x00, 0x20)\n      swap1\n      0x06\n      mul\n      add\n        /* \"contracts/Freelance_Marketplace.sol\":7861:7907  Project storage project = projects[_projectId] */\n      swap1\n      pop\n        /* \"contracts/Freelance_Marketplace.sol\":7943:7967  ProjectStatus.InProgress */\n      0x01\n        /* \"contracts/Freelance_Marketplace.sol\":7925:7967  project.status == ProjectStatus.InProgress */\n      0x03\n      dup2\n      gt\n      iszero\n      tag_232\n      jumpi\n      tag_233\n      tag_174\n      jump\t// in\n    tag_233:\n    tag_232:\n        /* \"contracts/Freelance_Marketplace.sol\":7925:7932  project */\n      dup2\n        /* \"contracts/Freelance_Marketplace.sol\":7925:7939  project.status */\n      0x05\n      add\n      0x00\n      swap1\n      sload\n      swap1\n      0x0100\n      exp\n      swap1\n      div\n      0xff\n      and\n        /* \"contracts/Freelance_Marketplace.sol\":7925:7967  project.status == ProjectStatus.InProgress */\n      0x03\n      dup2\n      gt\n      iszero\n      tag_234\n      jumpi\n      tag_235\n      tag_174\n      jump\t// in\n    tag_235:\n    tag_234:\n      eq\n        /* \"contracts/Freelance_Marketplace.sol\":7917:7999  require(project.status == ProjectStatus.InProgress, \"Project is not in progress.\") */\n      tag_236\n      jumpi\n      mload(0x40)\n      0x08c379a000000000000000000000000000000000000000000000000000000000\n      dup2\n      mstore\n      0x04\n      add\n      tag_237\n      swap1\n      tag_179\n      jump\t// in\n    tag_237:\n      mload(0x40)\n      dup1\n      swap2\n      sub\n      swap1\n      revert\n    tag_236:\n        /* \"contracts/Freelance_Marketplace.sol\":8010:8034  uint256 milestonePayment */\n      0x00\n        /* \"contracts/Freelance_Marketplace.sol\":8059:8062  100 */\n      0x64\n        /* \"contracts/Freelance_Marketplace.sol\":8054:8056  10 */\n      0x0a\n        /* \"contracts/Freelance_Marketplace.sol\":8037:8044  project */\n      dup4\n        /* \"contracts/Freelance_Marketplace.sol\":8037:8051  project.budget */\n      0x03\n      add\n      sload\n        /* \"contracts/Freelance_Marketplace.sol\":8037:8056  project.budget * 10 */\n      tag_238\n      swap2\n      swap1\n      tag_239\n      jump\t// in\n    tag_238:\n        /* \"contracts/Freelance_Marketplace.sol\":8037:8062  project.budget * 10 / 100 */\n      tag_240\n      swap2\n      swap1\n      tag_241\n      jump\t// in\n    tag_240:\n        /* \"contracts/Freelance_Marketplace.sol\":8010:8062  uint256 milestonePayment = project.budget * 10 / 100 */\n      swap1\n      pop\n        /* \"contracts/Freelance_Marketplace.sol\":8101:8117  milestonePayment */\n      dup1\n        /* \"contracts/Freelance_Marketplace.sol\":8072:8085  projectEscrow */\n      0x03\n        /* \"contracts/Freelance_Marketplace.sol\":8072:8097  projectEscrow[_projectId] */\n      0x00\n        /* \"contracts/Freelance_Marketplace.sol\":8086:8096  _projectId */\n      dup9\n        /* \"contracts/Freelance_Marketplace.sol\":8072:8097  projectEscrow[_projectId] */\n      dup2\n      mstore\n      0x20\n      add\n      swap1\n      dup2\n      mstore\n      0x20\n      add\n      0x00\n      keccak256\n      0x00\n        /* \"contracts/Freelance_Marketplace.sol\":8072:8117  projectEscrow[_projectId] -= milestonePayment */\n      dup3\n      dup3\n      sload\n      tag_242\n      swap2\n      swap1\n      tag_243\n      jump\t// in\n    tag_242:\n      swap3\n      pop\n      pop\n      dup2\n      swap1\n      sstore\n      pop\n        /* \"contracts/Freelance_Marketplace.sol\":8135:8142  project */\n      dup2\n        /* \"contracts/Freelance_Marketplace.sol\":8135:8153  project.freelancer */\n      0x05\n      add\n      0x01\n      swap1\n      sload\n      swap1\n      0x0100\n      exp\n      swap1\n      div\n      0xffffffffffffffffffffffffffffffffffffffff\n      and\n        /* \"contracts/Freelance_Marketplace.sol\":8127:8163  payable(project.freelancer).transfer */\n      0xffffffffffffffffffffffffffffffffffffffff\n      and\n        /* \"contracts/Freelance_Marketplace.sol\":8127:8181  payable(project.freelancer).transfer(milestonePayment) */\n      0x08fc\n        /* \"contracts/Freelance_Marketplace.sol\":8164:8180  milestonePayment */\n      dup3\n        /* \"contracts/Freelance_Marketplace.sol\":8127:8181  payable(project.freelancer).transfer(milestonePayment) */\n      swap1\n      dup2\n      iszero\n      mul\n      swap1\n      mload(0x40)\n      0x00\n      mload(0x40)\n      dup1\n      dup4\n      sub\n      dup2\n      dup6\n      dup9\n      dup9\n      call\n      swap4\n      pop\n      pop\n      pop\n      pop\n      iszero\n      dup1\n      iszero\n      tag_245\n      jumpi\n      returndatasize\n      0x00\n      dup1\n      returndatacopy\n      revert(0x00, returndatasize)\n    tag_245:\n      pop\n        /* \"contracts/Freelance_Marketplace.sol\":8197:8241  MilestoneCompleted(_projectId, _milestoneId) */\n      0x1b7218c0ac23ea9cbe4df603d2b340fbf469a115b73ea3d11460727f445d6be1\n        /* \"contracts/Freelance_Marketplace.sol\":8216:8226  _projectId */\n      dup7\n        /* \"contracts/Freelance_Marketplace.sol\":8228:8240  _milestoneId */\n      dup7\n        /* \"contracts/Freelance_Marketplace.sol\":8197:8241  MilestoneCompleted(_projectId, _milestoneId) */\n      mload(0x40)\n      tag_246\n      swap3\n      swap2\n      swap1\n      tag_183\n      jump\t// in\n    tag_246:\n      mload(0x40)\n      dup1\n      swap2\n      sub\n      swap1\n      log1\n        /* \"contracts/Freelance_Marketplace.sol\":7851:8249  {... */\n      pop\n      pop\n        /* \"contracts/Freelance_Marketplace.sol\":2389:2390  _ */\n      pop\n        /* \"contracts/Freelance_Marketplace.sol\":7696:8249  function approveMilestone(uint256 _projectId, uint256 _milestoneId) ... */\n      pop\n      pop\n      pop\n      jump\t// out\n        /* \"contracts/Freelance_Marketplace.sol\":8525:9159  function completeProject(uint256 _projectId)... */\n    tag_70:\n        /* \"contracts/Freelance_Marketplace.sol\":8604:8614  _projectId */\n      dup1\n        /* \"contracts/Freelance_Marketplace.sol\":2307:2315  projects */\n      0x02\n        /* \"contracts/Freelance_Marketplace.sol\":2316:2326  _projectId */\n      dup2\n        /* \"contracts/Freelance_Marketplace.sol\":2307:2327  projects[_projectId] */\n      dup2\n      sload\n      dup2\n      lt\n      tag_248\n      jumpi\n      tag_249\n      tag_159\n      jump\t// in\n    tag_249:\n    tag_248:\n      swap1\n      0x00\n      mstore\n      keccak256(0x00, 0x20)\n      swap1\n      0x06\n      mul\n      add\n        /* \"contracts/Freelance_Marketplace.sol\":2307:2334  projects[_projectId].client */\n      0x00\n      add\n      0x00\n      swap1\n      sload\n      swap1\n      0x0100\n      exp\n      swap1\n      div\n      0xffffffffffffffffffffffffffffffffffffffff\n      and\n        /* \"contracts/Freelance_Marketplace.sol\":2293:2334  msg.sender == projects[_projectId].client */\n      0xffffffffffffffffffffffffffffffffffffffff\n      and\n        /* \"contracts/Freelance_Marketplace.sol\":2293:2303  msg.sender */\n      caller\n        /* \"contracts/Freelance_Marketplace.sol\":2293:2334  msg.sender == projects[_projectId].client */\n      0xffffffffffffffffffffffffffffffffffffffff\n      and\n      eq\n        /* \"contracts/Freelance_Marketplace.sol\":2285:2379  require(msg.sender == projects[_projectId].client, \"Only the client can perform this action.\") */\n      tag_251\n      jumpi\n      mload(0x40)\n      0x08c379a000000000000000000000000000000000000000000000000000000000\n      dup2\n      mstore\n      0x04\n      add\n      tag_252\n      swap1\n      tag_224\n      jump\t// in\n    tag_252:\n      mload(0x40)\n      dup1\n      swap2\n      sub\n      swap1\n      revert\n    tag_251:\n        /* \"contracts/Freelance_Marketplace.sol\":8638:8648  _projectId */\n      dup2\n        /* \"contracts/Freelance_Marketplace.sol\":2666:2674  projects */\n      0x02\n        /* \"contracts/Freelance_Marketplace.sol\":2666:2681  projects.length */\n      dup1\n      sload\n      swap1\n      pop\n        /* \"contracts/Freelance_Marketplace.sol\":2653:2663  _projectId */\n      dup2\n        /* \"contracts/Freelance_Marketplace.sol\":2653:2681  _projectId < projects.length */\n      lt\n        /* \"contracts/Freelance_Marketplace.sol\":2645:2709  require(_projectId < projects.length, \"Project does not exist.\") */\n      tag_254\n      jumpi\n      mload(0x40)\n      0x08c379a000000000000000000000000000000000000000000000000000000000\n      dup2\n      mstore\n      0x04\n      add\n      tag_255\n      swap1\n      tag_167\n      jump\t// in\n    tag_255:\n      mload(0x40)\n      dup1\n      swap2\n      sub\n      swap1\n      revert\n    tag_254:\n        /* \"contracts/Freelance_Marketplace.sol\":8664:8687  Project storage project */\n      0x00\n        /* \"contracts/Freelance_Marketplace.sol\":8690:8698  projects */\n      0x02\n        /* \"contracts/Freelance_Marketplace.sol\":8699:8709  _projectId */\n      dup5\n        /* \"contracts/Freelance_Marketplace.sol\":8690:8710  projects[_projectId] */\n      dup2\n      sload\n      dup2\n      lt\n      tag_257\n      jumpi\n      tag_258\n      tag_159\n      jump\t// in\n    tag_258:\n    tag_257:\n      swap1\n      0x00\n      mstore\n      keccak256(0x00, 0x20)\n      swap1\n      0x06\n      mul\n      add\n        /* \"contracts/Freelance_Marketplace.sol\":8664:8710  Project storage project = projects[_projectId] */\n      swap1\n      pop\n        /* \"contracts/Freelance_Marketplace.sol\":8759:8783  ProjectStatus.InProgress */\n      0x01\n        /* \"contracts/Freelance_Marketplace.sol\":8741:8783  project.status == ProjectStatus.InProgress */\n      0x03\n      dup2\n      gt\n      iszero\n      tag_260\n      jumpi\n      tag_261\n      tag_174\n      jump\t// in\n    tag_261:\n    tag_260:\n        /* \"contracts/Freelance_Marketplace.sol\":8741:8748  project */\n      dup2\n        /* \"contracts/Freelance_Marketplace.sol\":8741:8755  project.status */\n      0x05\n      add\n      0x00\n      swap1\n      sload\n      swap1\n      0x0100\n      exp\n      swap1\n      div\n      0xff\n      and\n        /* \"contracts/Freelance_Marketplace.sol\":8741:8783  project.status == ProjectStatus.InProgress */\n      0x03\n      dup2\n      gt\n      iszero\n      tag_262\n      jumpi\n      tag_263\n      tag_174\n      jump\t// in\n    tag_263:\n    tag_262:\n      eq\n        /* \"contracts/Freelance_Marketplace.sol\":8720:8836  require(... */\n      tag_264\n      jumpi\n      mload(0x40)\n      0x08c379a000000000000000000000000000000000000000000000000000000000\n      dup2\n      mstore\n      0x04\n      add\n      tag_265\n      swap1\n      tag_179\n      jump\t// in\n    tag_265:\n      mload(0x40)\n      dup1\n      swap2\n      sub\n      swap1\n      revert\n    tag_264:\n        /* \"contracts/Freelance_Marketplace.sol\":8864:8887  ProjectStatus.Completed */\n      0x02\n        /* \"contracts/Freelance_Marketplace.sol\":8847:8854  project */\n      dup2\n        /* \"contracts/Freelance_Marketplace.sol\":8847:8861  project.status */\n      0x05\n      add\n      0x00\n        /* \"contracts/Freelance_Marketplace.sol\":8847:8887  project.status = ProjectStatus.Completed */\n      0x0100\n      exp\n      dup2\n      sload\n      dup2\n      0xff\n      mul\n      not\n      and\n      swap1\n      dup4\n      0x03\n      dup2\n      gt\n      iszero\n      tag_266\n      jumpi\n      tag_267\n      tag_174\n      jump\t// in\n    tag_267:\n    tag_266:\n      mul\n      or\n      swap1\n      sstore\n      pop\n        /* \"contracts/Freelance_Marketplace.sol\":8898:8921  uint256 remainingEscrow */\n      0x00\n        /* \"contracts/Freelance_Marketplace.sol\":8924:8937  projectEscrow */\n      0x03\n        /* \"contracts/Freelance_Marketplace.sol\":8924:8949  projectEscrow[_projectId] */\n      0x00\n        /* \"contracts/Freelance_Marketplace.sol\":8938:8948  _projectId */\n      dup7\n        /* \"contracts/Freelance_Marketplace.sol\":8924:8949  projectEscrow[_projectId] */\n      dup2\n      mstore\n      0x20\n      add\n      swap1\n      dup2\n      mstore\n      0x20\n      add\n      0x00\n      keccak256\n      sload\n        /* \"contracts/Freelance_Marketplace.sol\":8898:8949  uint256 remainingEscrow = projectEscrow[_projectId] */\n      swap1\n      pop\n        /* \"contracts/Freelance_Marketplace.sol\":8987:8988  0 */\n      0x00\n        /* \"contracts/Freelance_Marketplace.sol\":8959:8972  projectEscrow */\n      0x03\n        /* \"contracts/Freelance_Marketplace.sol\":8959:8984  projectEscrow[_projectId] */\n      0x00\n        /* \"contracts/Freelance_Marketplace.sol\":8973:8983  _projectId */\n      dup8\n        /* \"contracts/Freelance_Marketplace.sol\":8959:8984  projectEscrow[_projectId] */\n      dup2\n      mstore\n      0x20\n      add\n      swap1\n      dup2\n      mstore\n      0x20\n      add\n      0x00\n      keccak256\n        /* \"contracts/Freelance_Marketplace.sol\":8959:8988  projectEscrow[_projectId] = 0 */\n      dup2\n      swap1\n      sstore\n      pop\n        /* \"contracts/Freelance_Marketplace.sol\":9007:9014  project */\n      dup2\n        /* \"contracts/Freelance_Marketplace.sol\":9007:9025  project.freelancer */\n      0x05\n      add\n      0x01\n      swap1\n      sload\n      swap1\n      0x0100\n      exp\n      swap1\n      div\n      0xffffffffffffffffffffffffffffffffffffffff\n      and\n        /* \"contracts/Freelance_Marketplace.sol\":8999:9035  payable(project.freelancer).transfer */\n      0xffffffffffffffffffffffffffffffffffffffff\n      and\n        /* \"contracts/Freelance_Marketplace.sol\":8999:9052  payable(project.freelancer).transfer(remainingEscrow) */\n      0x08fc\n        /* \"contracts/Freelance_Marketplace.sol\":9036:9051  remainingEscrow */\n      dup3\n        /* \"contracts/Freelance_Marketplace.sol\":8999:9052  payable(project.freelancer).transfer(remainingEscrow) */\n      swap1\n      dup2\n      iszero\n      mul\n      swap1\n      mload(0x40)\n      0x00\n      mload(0x40)\n      dup1\n      dup4\n      sub\n      dup2\n      dup6\n      dup9\n      dup9\n      call\n      swap4\n      pop\n      pop\n      pop\n      pop\n      iszero\n      dup1\n      iszero\n      tag_269\n      jumpi\n      returndatasize\n      0x00\n      dup1\n      returndatacopy\n      revert(0x00, returndatasize)\n    tag_269:\n      pop\n        /* \"contracts/Freelance_Marketplace.sol\":9063:9107  updateUserReputation(project.freelancer, 10) */\n      tag_270\n        /* \"contracts/Freelance_Marketplace.sol\":9084:9091  project */\n      dup3\n        /* \"contracts/Freelance_Marketplace.sol\":9084:9102  project.freelancer */\n      0x05\n      add\n      0x01\n      swap1\n      sload\n      swap1\n      0x0100\n      exp\n      swap1\n      div\n      0xffffffffffffffffffffffffffffffffffffffff\n      and\n        /* \"contracts/Freelance_Marketplace.sol\":9104:9106  10 */\n      0x0a\n        /* \"contracts/Freelance_Marketplace.sol\":9063:9083  updateUserReputation */\n      tag_271\n        /* \"contracts/Freelance_Marketplace.sol\":9063:9107  updateUserReputation(project.freelancer, 10) */\n      jump\t// in\n    tag_270:\n        /* \"contracts/Freelance_Marketplace.sol\":9124:9152  ProjectCompleted(_projectId) */\n      0x60d8df137e489b6216738e436244ca4700bd6d0c8371d3c8d9c80b54538111b9\n        /* \"contracts/Freelance_Marketplace.sol\":9141:9151  _projectId */\n      dup6\n        /* \"contracts/Freelance_Marketplace.sol\":9124:9152  ProjectCompleted(_projectId) */\n      mload(0x40)\n      tag_272\n      swap2\n      swap1\n      tag_35\n      jump\t// in\n    tag_272:\n      mload(0x40)\n      dup1\n      swap2\n      sub\n      swap1\n      log1\n        /* \"contracts/Freelance_Marketplace.sol\":8654:9159  {... */\n      pop\n      pop\n        /* \"contracts/Freelance_Marketplace.sol\":2389:2390  _ */\n      pop\n        /* \"contracts/Freelance_Marketplace.sol\":8525:9159  function completeProject(uint256 _projectId)... */\n      pop\n      pop\n      jump\t// out\n        /* \"contracts/Freelance_Marketplace.sol\":1668:1728  mapping(uint256 => Application[]) public projectApplications */\n    tag_74:\n      mstore(0x20, 0x05)\n      dup2\n      0x00\n      mstore\n      keccak256(0x00, 0x40)\n      dup2\n      dup2\n      sload\n      dup2\n      lt\n      tag_273\n      jumpi\n      0x00\n      dup1\n      revert\n    tag_273:\n      swap1\n      0x00\n      mstore\n      keccak256(0x00, 0x20)\n      swap1\n      0x04\n      mul\n      add\n      0x00\n      swap2\n      pop\n      swap2\n      pop\n      pop\n      dup1\n      0x00\n      add\n      0x00\n      swap1\n      sload\n      swap1\n      0x0100\n      exp\n      swap1\n      div\n      0xffffffffffffffffffffffffffffffffffffffff\n      and\n      swap1\n      dup1\n      0x01\n      add\n      dup1\n      sload\n      tag_275\n      swap1\n      tag_187\n      jump\t// in\n    tag_275:\n      dup1\n      0x1f\n      add\n      0x20\n      dup1\n      swap2\n      div\n      mul\n      0x20\n      add\n      mload(0x40)\n      swap1\n      dup2\n      add\n      0x40\n      mstore\n      dup1\n      swap3\n      swap2\n      swap1\n      dup2\n      dup2\n      mstore\n      0x20\n      add\n      dup3\n      dup1\n      sload\n      tag_276\n      swap1\n      tag_187\n      jump\t// in\n    tag_276:\n      dup1\n      iszero\n      tag_277\n      jumpi\n      dup1\n      0x1f\n      lt\n      tag_278\n      jumpi\n      0x0100\n      dup1\n      dup4\n      sload\n      div\n      mul\n      dup4\n      mstore\n      swap2\n      0x20\n      add\n      swap2\n      jump(tag_277)\n    tag_278:\n      dup3\n      add\n      swap2\n      swap1\n      0x00\n      mstore\n      keccak256(0x00, 0x20)\n      swap1\n    tag_279:\n      dup2\n      sload\n      dup2\n      mstore\n      swap1\n      0x01\n      add\n      swap1\n      0x20\n      add\n      dup1\n      dup4\n      gt\n      tag_279\n      jumpi\n      dup3\n      swap1\n      sub\n      0x1f\n      and\n      dup3\n      add\n      swap2\n    tag_277:\n      pop\n      pop\n      pop\n      pop\n      pop\n      swap1\n      dup1\n      0x02\n      add\n      sload\n      swap1\n      dup1\n      0x03\n      add\n      0x00\n      swap1\n      sload\n      swap1\n      0x0100\n      exp\n      swap1\n      div\n      0xff\n      and\n      swap1\n      pop\n      dup5\n      jump\t// out\n        /* \"contracts/Freelance_Marketplace.sol\":12068:12699  function withdrawClientFunds(uint256 _projectId) public onlyClient(_projectId) {... */\n    tag_80:\n        /* \"contracts/Freelance_Marketplace.sol\":12135:12145  _projectId */\n      dup1\n        /* \"contracts/Freelance_Marketplace.sol\":2307:2315  projects */\n      0x02\n        /* \"contracts/Freelance_Marketplace.sol\":2316:2326  _projectId */\n      dup2\n        /* \"contracts/Freelance_Marketplace.sol\":2307:2327  projects[_projectId] */\n      dup2\n      sload\n      dup2\n      lt\n      tag_281\n      jumpi\n      tag_282\n      tag_159\n      jump\t// in\n    tag_282:\n    tag_281:\n      swap1\n      0x00\n      mstore\n      keccak256(0x00, 0x20)\n      swap1\n      0x06\n      mul\n      add\n        /* \"contracts/Freelance_Marketplace.sol\":2307:2334  projects[_projectId].client */\n      0x00\n      add\n      0x00\n      swap1\n      sload\n      swap1\n      0x0100\n      exp\n      swap1\n      div\n      0xffffffffffffffffffffffffffffffffffffffff\n      and\n        /* \"contracts/Freelance_Marketplace.sol\":2293:2334  msg.sender == projects[_projectId].client */\n      0xffffffffffffffffffffffffffffffffffffffff\n      and\n        /* \"contracts/Freelance_Marketplace.sol\":2293:2303  msg.sender */\n      caller\n        /* \"contracts/Freelance_Marketplace.sol\":2293:2334  msg.sender == projects[_projectId].client */\n      0xffffffffffffffffffffffffffffffffffffffff\n      and\n      eq\n        /* \"contracts/Freelance_Marketplace.sol\":2285:2379  require(msg.sender == projects[_projectId].client, \"Only the client can perform this action.\") */\n      tag_284\n      jumpi\n      mload(0x40)\n      0x08c379a000000000000000000000000000000000000000000000000000000000\n      dup2\n      mstore\n      0x04\n      add\n      tag_285\n      swap1\n      tag_224\n      jump\t// in\n    tag_285:\n      mload(0x40)\n      dup1\n      swap2\n      sub\n      swap1\n      revert\n    tag_284:\n        /* \"contracts/Freelance_Marketplace.sol\":12157:12180  Project storage project */\n      0x00\n        /* \"contracts/Freelance_Marketplace.sol\":12183:12191  projects */\n      0x02\n        /* \"contracts/Freelance_Marketplace.sol\":12192:12202  _projectId */\n      dup4\n        /* \"contracts/Freelance_Marketplace.sol\":12183:12203  projects[_projectId] */\n      dup2\n      sload\n      dup2\n      lt\n      tag_287\n      jumpi\n      tag_288\n      tag_159\n      jump\t// in\n    tag_288:\n    tag_287:\n      swap1\n      0x00\n      mstore\n      keccak256(0x00, 0x20)\n      swap1\n      0x06\n      mul\n      add\n        /* \"contracts/Freelance_Marketplace.sol\":12157:12203  Project storage project = projects[_projectId] */\n      swap1\n      pop\n        /* \"contracts/Freelance_Marketplace.sol\":12252:12275  ProjectStatus.Completed */\n      0x02\n        /* \"contracts/Freelance_Marketplace.sol\":12234:12275  project.status == ProjectStatus.Completed */\n      0x03\n      dup2\n      gt\n      iszero\n      tag_290\n      jumpi\n      tag_291\n      tag_174\n      jump\t// in\n    tag_291:\n    tag_290:\n        /* \"contracts/Freelance_Marketplace.sol\":12234:12241  project */\n      dup2\n        /* \"contracts/Freelance_Marketplace.sol\":12234:12248  project.status */\n      0x05\n      add\n      0x00\n      swap1\n      sload\n      swap1\n      0x0100\n      exp\n      swap1\n      div\n      0xff\n      and\n        /* \"contracts/Freelance_Marketplace.sol\":12234:12275  project.status == ProjectStatus.Completed */\n      0x03\n      dup2\n      gt\n      iszero\n      tag_292\n      jumpi\n      tag_293\n      tag_174\n      jump\t// in\n    tag_293:\n    tag_292:\n      eq\n        /* \"contracts/Freelance_Marketplace.sol\":12234:12328  project.status == ProjectStatus.Completed || ... */\n      dup1\n      tag_294\n      jumpi\n      pop\n        /* \"contracts/Freelance_Marketplace.sol\":12310:12328  ProjectStatus.Open */\n      0x00\n        /* \"contracts/Freelance_Marketplace.sol\":12292:12328  project.status == ProjectStatus.Open */\n      0x03\n      dup2\n      gt\n      iszero\n      tag_295\n      jumpi\n      tag_296\n      tag_174\n      jump\t// in\n    tag_296:\n    tag_295:\n        /* \"contracts/Freelance_Marketplace.sol\":12292:12299  project */\n      dup2\n        /* \"contracts/Freelance_Marketplace.sol\":12292:12306  project.status */\n      0x05\n      add\n      0x00\n      swap1\n      sload\n      swap1\n      0x0100\n      exp\n      swap1\n      div\n      0xff\n      and\n        /* \"contracts/Freelance_Marketplace.sol\":12292:12328  project.status == ProjectStatus.Open */\n      0x03\n      dup2\n      gt\n      iszero\n      tag_297\n      jumpi\n      tag_298\n      tag_174\n      jump\t// in\n    tag_298:\n    tag_297:\n      eq\n        /* \"contracts/Freelance_Marketplace.sol\":12234:12328  project.status == ProjectStatus.Completed || ... */\n    tag_294:\n        /* \"contracts/Freelance_Marketplace.sol\":12213:12468  require(... */\n      tag_299\n      jumpi\n      mload(0x40)\n      0x08c379a000000000000000000000000000000000000000000000000000000000\n      dup2\n      mstore\n      0x04\n      add\n      tag_300\n      swap1\n      tag_301\n      jump\t// in\n    tag_300:\n      mload(0x40)\n      dup1\n      swap2\n      sub\n      swap1\n      revert\n    tag_299:\n        /* \"contracts/Freelance_Marketplace.sol\":12479:12503  uint256 amountToWithdraw */\n      0x00\n        /* \"contracts/Freelance_Marketplace.sol\":12506:12519  projectEscrow */\n      0x03\n        /* \"contracts/Freelance_Marketplace.sol\":12506:12531  projectEscrow[_projectId] */\n      0x00\n        /* \"contracts/Freelance_Marketplace.sol\":12520:12530  _projectId */\n      dup6\n        /* \"contracts/Freelance_Marketplace.sol\":12506:12531  projectEscrow[_projectId] */\n      dup2\n      mstore\n      0x20\n      add\n      swap1\n      dup2\n      mstore\n      0x20\n      add\n      0x00\n      keccak256\n      sload\n        /* \"contracts/Freelance_Marketplace.sol\":12479:12531  uint256 amountToWithdraw = projectEscrow[_projectId] */\n      swap1\n      pop\n        /* \"contracts/Freelance_Marketplace.sol\":12568:12569  0 */\n      0x00\n        /* \"contracts/Freelance_Marketplace.sol\":12549:12565  amountToWithdraw */\n      dup2\n        /* \"contracts/Freelance_Marketplace.sol\":12549:12569  amountToWithdraw > 0 */\n      gt\n        /* \"contracts/Freelance_Marketplace.sol\":12541:12595  require(amountToWithdraw > 0, \"No funds to withdraw.\") */\n      tag_302\n      jumpi\n      mload(0x40)\n      0x08c379a000000000000000000000000000000000000000000000000000000000\n      dup2\n      mstore\n      0x04\n      add\n      tag_303\n      swap1\n      tag_304\n      jump\t// in\n    tag_303:\n      mload(0x40)\n      dup1\n      swap2\n      sub\n      swap1\n      revert\n    tag_302:\n        /* \"contracts/Freelance_Marketplace.sol\":12634:12635  0 */\n      0x00\n        /* \"contracts/Freelance_Marketplace.sol\":12606:12619  projectEscrow */\n      0x03\n        /* \"contracts/Freelance_Marketplace.sol\":12606:12631  projectEscrow[_projectId] */\n      0x00\n        /* \"contracts/Freelance_Marketplace.sol\":12620:12630  _projectId */\n      dup7\n        /* \"contracts/Freelance_Marketplace.sol\":12606:12631  projectEscrow[_projectId] */\n      dup2\n      mstore\n      0x20\n      add\n      swap1\n      dup2\n      mstore\n      0x20\n      add\n      0x00\n      keccak256\n        /* \"contracts/Freelance_Marketplace.sol\":12606:12635  projectEscrow[_projectId] = 0 */\n      dup2\n      swap1\n      sstore\n      pop\n        /* \"contracts/Freelance_Marketplace.sol\":12654:12664  msg.sender */\n      caller\n        /* \"contracts/Freelance_Marketplace.sol\":12646:12674  payable(msg.sender).transfer */\n      0xffffffffffffffffffffffffffffffffffffffff\n      and\n        /* \"contracts/Freelance_Marketplace.sol\":12646:12692  payable(msg.sender).transfer(amountToWithdraw) */\n      0x08fc\n        /* \"contracts/Freelance_Marketplace.sol\":12675:12691  amountToWithdraw */\n      dup3\n        /* \"contracts/Freelance_Marketplace.sol\":12646:12692  payable(msg.sender).transfer(amountToWithdraw) */\n      swap1\n      dup2\n      iszero\n      mul\n      swap1\n      mload(0x40)\n      0x00\n      mload(0x40)\n      dup1\n      dup4\n      sub\n      dup2\n      dup6\n      dup9\n      dup9\n      call\n      swap4\n      pop\n      pop\n      pop\n      pop\n      iszero\n      dup1\n      iszero\n      tag_306\n      jumpi\n      returndatasize\n      0x00\n      dup1\n      returndatacopy\n      revert(0x00, returndatasize)\n    tag_306:\n      pop\n        /* \"contracts/Freelance_Marketplace.sol\":12147:12699  {... */\n      pop\n      pop\n        /* \"contracts/Freelance_Marketplace.sol\":12068:12699  function withdrawClientFunds(uint256 _projectId) public onlyClient(_projectId) {... */\n      pop\n      pop\n      jump\t// out\n        /* \"contracts/Freelance_Marketplace.sol\":1868:1925  mapping(uint256 => mapping(address => bool)) public voted */\n    tag_85:\n      mstore(0x20, 0x09)\n      dup2\n      0x00\n      mstore\n      mstore(0x20, keccak256(0x00, 0x40))\n      dup1\n      0x00\n      mstore\n      keccak256(0x00, 0x40)\n      0x00\n      swap2\n      pop\n      swap2\n      pop\n      swap1\n      sload\n      swap1\n      0x0100\n      exp\n      swap1\n      div\n      0xff\n      and\n      dup2\n      jump\t// out\n        /* \"contracts/Freelance_Marketplace.sol\":1734:1777  mapping(uint256 => Dispute) public disputes */\n    tag_91:\n      mstore(0x20, 0x06)\n      dup1\n      0x00\n      mstore\n      keccak256(0x00, 0x40)\n      0x00\n      swap2\n      pop\n      swap1\n      pop\n      dup1\n      0x00\n      add\n      sload\n      swap1\n      dup1\n      0x01\n      add\n      0x00\n      swap1\n      sload\n      swap1\n      0x0100\n      exp\n      swap1\n      div\n      0xffffffffffffffffffffffffffffffffffffffff\n      and\n      swap1\n      dup1\n      0x02\n      add\n      0x00\n      swap1\n      sload\n      swap1\n      0x0100\n      exp\n      swap1\n      div\n      0xffffffffffffffffffffffffffffffffffffffff\n      and\n      swap1\n      dup1\n      0x03\n      add\n      sload\n      swap1\n      dup1\n      0x04\n      add\n      sload\n      swap1\n      dup1\n      0x05\n      add\n      0x00\n      swap1\n      sload\n      swap1\n      0x0100\n      exp\n      swap1\n      div\n      0xff\n      and\n      swap1\n      pop\n      dup7\n      jump\t// out\n        /* \"contracts/Freelance_Marketplace.sol\":1535:1584  mapping (uint256 => uint256) public projectEscrow */\n    tag_97:\n      mstore(0x20, 0x03)\n      dup1\n      0x00\n      mstore\n      keccak256(0x00, 0x40)\n      0x00\n      swap2\n      pop\n      swap1\n      pop\n      sload\n      dup2\n      jump\t// out\n        /* \"contracts/Freelance_Marketplace.sol\":1591:1662  mapping(uint256 => mapping(uint256 => string)) public projectMilestones */\n    tag_102:\n      mstore(0x20, 0x04)\n      dup2\n      0x00\n      mstore\n      mstore(0x20, keccak256(0x00, 0x40))\n      dup1\n      0x00\n      mstore\n      keccak256(0x00, 0x40)\n      0x00\n      swap2\n      pop\n      swap2\n      pop\n      pop\n      dup1\n      sload\n      tag_307\n      swap1\n      tag_187\n      jump\t// in\n    tag_307:\n      dup1\n      0x1f\n      add\n      0x20\n      dup1\n      swap2\n      div\n      mul\n      0x20\n      add\n      mload(0x40)\n      swap1\n      dup2\n      add\n      0x40\n      mstore\n      dup1\n      swap3\n      swap2\n      swap1\n      dup2\n      dup2\n      mstore\n      0x20\n      add\n      dup3\n      dup1\n      sload\n      tag_308\n      swap1\n      tag_187\n      jump\t// in\n    tag_308:\n      dup1\n      iszero\n      tag_309\n      jumpi\n      dup1\n      0x1f\n      lt\n      tag_310\n      jumpi\n      0x0100\n      dup1\n      dup4\n      sload\n      div\n      mul\n      dup4\n      mstore\n      swap2\n      0x20\n      add\n      swap2\n      jump(tag_309)\n    tag_310:\n      dup3\n      add\n      swap2\n      swap1\n      0x00\n      mstore\n      keccak256(0x00, 0x20)\n      swap1\n    tag_311:\n      dup2\n      sload\n      dup2\n      mstore\n      swap1\n      0x01\n      add\n      swap1\n      0x20\n      add\n      dup1\n      dup4\n      gt\n      tag_311\n      jumpi\n      dup3\n      swap1\n      sub\n      0x1f\n      and\n      dup3\n      add\n      swap2\n    tag_309:\n      pop\n      pop\n      pop\n      pop\n      pop\n      dup2\n      jump\t// out\n        /* \"contracts/Freelance_Marketplace.sol\":5528:6380  function acceptApplication(... */\n    tag_108:\n        /* \"contracts/Freelance_Marketplace.sol\":5642:5652  _projectId */\n      dup2\n        /* \"contracts/Freelance_Marketplace.sol\":2307:2315  projects */\n      0x02\n        /* \"contracts/Freelance_Marketplace.sol\":2316:2326  _projectId */\n      dup2\n        /* \"contracts/Freelance_Marketplace.sol\":2307:2327  projects[_projectId] */\n      dup2\n      sload\n      dup2\n      lt\n      tag_313\n      jumpi\n      tag_314\n      tag_159\n      jump\t// in\n    tag_314:\n    tag_313:\n      swap1\n      0x00\n      mstore\n      keccak256(0x00, 0x20)\n      swap1\n      0x06\n      mul\n      add\n        /* \"contracts/Freelance_Marketplace.sol\":2307:2334  projects[_projectId].client */\n      0x00\n      add\n      0x00\n      swap1\n      sload\n      swap1\n      0x0100\n      exp\n      swap1\n      div\n      0xffffffffffffffffffffffffffffffffffffffff\n      and\n        /* \"contracts/Freelance_Marketplace.sol\":2293:2334  msg.sender == projects[_projectId].client */\n      0xffffffffffffffffffffffffffffffffffffffff\n      and\n        /* \"contracts/Freelance_Marketplace.sol\":2293:2303  msg.sender */\n      caller\n        /* \"contracts/Freelance_Marketplace.sol\":2293:2334  msg.sender == projects[_projectId].client */\n      0xffffffffffffffffffffffffffffffffffffffff\n      and\n      eq\n        /* \"contracts/Freelance_Marketplace.sol\":2285:2379  require(msg.sender == projects[_projectId].client, \"Only the client can perform this action.\") */\n      tag_316\n      jumpi\n      mload(0x40)\n      0x08c379a000000000000000000000000000000000000000000000000000000000\n      dup2\n      mstore\n      0x04\n      add\n      tag_317\n      swap1\n      tag_224\n      jump\t// in\n    tag_317:\n      mload(0x40)\n      dup1\n      swap2\n      sub\n      swap1\n      revert\n    tag_316:\n        /* \"contracts/Freelance_Marketplace.sol\":5668:5678  _projectId */\n      dup3\n        /* \"contracts/Freelance_Marketplace.sol\":2666:2674  projects */\n      0x02\n        /* \"contracts/Freelance_Marketplace.sol\":2666:2681  projects.length */\n      dup1\n      sload\n      swap1\n      pop\n        /* \"contracts/Freelance_Marketplace.sol\":2653:2663  _projectId */\n      dup2\n        /* \"contracts/Freelance_Marketplace.sol\":2653:2681  _projectId < projects.length */\n      lt\n        /* \"contracts/Freelance_Marketplace.sol\":2645:2709  require(_projectId < projects.length, \"Project does not exist.\") */\n      tag_319\n      jumpi\n      mload(0x40)\n      0x08c379a000000000000000000000000000000000000000000000000000000000\n      dup2\n      mstore\n      0x04\n      add\n      tag_320\n      swap1\n      tag_167\n      jump\t// in\n    tag_320:\n      mload(0x40)\n      dup1\n      swap2\n      sub\n      swap1\n      revert\n    tag_319:\n        /* \"contracts/Freelance_Marketplace.sol\":5694:5717  Project storage project */\n      0x00\n        /* \"contracts/Freelance_Marketplace.sol\":5720:5728  projects */\n      0x02\n        /* \"contracts/Freelance_Marketplace.sol\":5729:5739  _projectId */\n      dup6\n        /* \"contracts/Freelance_Marketplace.sol\":5720:5740  projects[_projectId] */\n      dup2\n      sload\n      dup2\n      lt\n      tag_322\n      jumpi\n      tag_323\n      tag_159\n      jump\t// in\n    tag_323:\n    tag_322:\n      swap1\n      0x00\n      mstore\n      keccak256(0x00, 0x20)\n      swap1\n      0x06\n      mul\n      add\n        /* \"contracts/Freelance_Marketplace.sol\":5694:5740  Project storage project = projects[_projectId] */\n      swap1\n      pop\n        /* \"contracts/Freelance_Marketplace.sol\":5776:5794  ProjectStatus.Open */\n      0x00\n        /* \"contracts/Freelance_Marketplace.sol\":5758:5794  project.status == ProjectStatus.Open */\n      0x03\n      dup2\n      gt\n      iszero\n      tag_325\n      jumpi\n      tag_326\n      tag_174\n      jump\t// in\n    tag_326:\n    tag_325:\n        /* \"contracts/Freelance_Marketplace.sol\":5758:5765  project */\n      dup2\n        /* \"contracts/Freelance_Marketplace.sol\":5758:5772  project.status */\n      0x05\n      add\n      0x00\n      swap1\n      sload\n      swap1\n      0x0100\n      exp\n      swap1\n      div\n      0xff\n      and\n        /* \"contracts/Freelance_Marketplace.sol\":5758:5794  project.status == ProjectStatus.Open */\n      0x03\n      dup2\n      gt\n      iszero\n      tag_327\n      jumpi\n      tag_328\n      tag_174\n      jump\t// in\n    tag_328:\n    tag_327:\n      eq\n        /* \"contracts/Freelance_Marketplace.sol\":5750:5835  require(project.status == ProjectStatus.Open, \"Project is not open for Application.\") */\n      tag_329\n      jumpi\n      mload(0x40)\n      0x08c379a000000000000000000000000000000000000000000000000000000000\n      dup2\n      mstore\n      0x04\n      add\n      tag_330\n      swap1\n      tag_331\n      jump\t// in\n    tag_330:\n      mload(0x40)\n      dup1\n      swap2\n      sub\n      swap1\n      revert\n    tag_329:\n        /* \"contracts/Freelance_Marketplace.sol\":5845:5879  Application[] storage applications */\n      0x00\n        /* \"contracts/Freelance_Marketplace.sol\":5882:5901  projectApplications */\n      0x05\n        /* \"contracts/Freelance_Marketplace.sol\":5882:5913  projectApplications[_projectId] */\n      0x00\n        /* \"contracts/Freelance_Marketplace.sol\":5902:5912  _projectId */\n      dup8\n        /* \"contracts/Freelance_Marketplace.sol\":5882:5913  projectApplications[_projectId] */\n      dup2\n      mstore\n      0x20\n      add\n      swap1\n      dup2\n      mstore\n      0x20\n      add\n      0x00\n      keccak256\n        /* \"contracts/Freelance_Marketplace.sol\":5845:5913  Application[] storage applications = projectApplications[_projectId] */\n      swap1\n      pop\n        /* \"contracts/Freelance_Marketplace.sol\":5951:5963  applications */\n      dup1\n        /* \"contracts/Freelance_Marketplace.sol\":5951:5970  applications.length */\n      dup1\n      sload\n      swap1\n      pop\n        /* \"contracts/Freelance_Marketplace.sol\":5931:5948  _applicationIndex */\n      dup6\n        /* \"contracts/Freelance_Marketplace.sol\":5931:5970  _applicationIndex < applications.length */\n      lt\n        /* \"contracts/Freelance_Marketplace.sol\":5923:6001  require(_applicationIndex < applications.length, \"Invalid application index.\") */\n      tag_332\n      jumpi\n      mload(0x40)\n      0x08c379a000000000000000000000000000000000000000000000000000000000\n      dup2\n      mstore\n      0x04\n      add\n      tag_333\n      swap1\n      tag_334\n      jump\t// in\n    tag_333:\n      mload(0x40)\n      dup1\n      swap2\n      sub\n      swap1\n      revert\n    tag_332:\n        /* \"contracts/Freelance_Marketplace.sol\":6020:6032  applications */\n      dup1\n        /* \"contracts/Freelance_Marketplace.sol\":6033:6050  _applicationIndex */\n      dup6\n        /* \"contracts/Freelance_Marketplace.sol\":6020:6051  applications[_applicationIndex] */\n      dup2\n      sload\n      dup2\n      lt\n      tag_335\n      jumpi\n      tag_336\n      tag_159\n      jump\t// in\n    tag_336:\n    tag_335:\n      swap1\n      0x00\n      mstore\n      keccak256(0x00, 0x20)\n      swap1\n      0x04\n      mul\n      add\n        /* \"contracts/Freelance_Marketplace.sol\":6020:6062  applications[_applicationIndex].isAccepted */\n      0x03\n      add\n      0x00\n      swap1\n      sload\n      swap1\n      0x0100\n      exp\n      swap1\n      div\n      0xff\n      and\n        /* \"contracts/Freelance_Marketplace.sol\":6019:6062  !applications[_applicationIndex].isAccepted */\n      iszero\n        /* \"contracts/Freelance_Marketplace.sol\":6011:6105  require(!applications[_applicationIndex].isAccepted, \"You already accepted this application.\") */\n      tag_338\n      jumpi\n      mload(0x40)\n      0x08c379a000000000000000000000000000000000000000000000000000000000\n      dup2\n      mstore\n      0x04\n      add\n      tag_339\n      swap1\n      tag_340\n      jump\t// in\n    tag_339:\n      mload(0x40)\n      dup1\n      swap2\n      sub\n      swap1\n      revert\n    tag_338:\n        /* \"contracts/Freelance_Marketplace.sol\":6162:6166  true */\n      0x01\n        /* \"contracts/Freelance_Marketplace.sol\":6117:6129  applications */\n      dup2\n        /* \"contracts/Freelance_Marketplace.sol\":6130:6147  _applicationIndex */\n      dup7\n        /* \"contracts/Freelance_Marketplace.sol\":6117:6148  applications[_applicationIndex] */\n      dup2\n      sload\n      dup2\n      lt\n      tag_341\n      jumpi\n      tag_342\n      tag_159\n      jump\t// in\n    tag_342:\n    tag_341:\n      swap1\n      0x00\n      mstore\n      keccak256(0x00, 0x20)\n      swap1\n      0x04\n      mul\n      add\n        /* \"contracts/Freelance_Marketplace.sol\":6117:6159  applications[_applicationIndex].isAccepted */\n      0x03\n      add\n      0x00\n        /* \"contracts/Freelance_Marketplace.sol\":6117:6166  applications[_applicationIndex].isAccepted = true */\n      0x0100\n      exp\n      dup2\n      sload\n      dup2\n      0xff\n      mul\n      not\n      and\n      swap1\n      dup4\n      iszero\n      iszero\n      mul\n      or\n      swap1\n      sstore\n      pop\n        /* \"contracts/Freelance_Marketplace.sol\":6205:6217  applications */\n      dup1\n        /* \"contracts/Freelance_Marketplace.sol\":6218:6235  _applicationIndex */\n      dup6\n        /* \"contracts/Freelance_Marketplace.sol\":6205:6236  applications[_applicationIndex] */\n      dup2\n      sload\n      dup2\n      lt\n      tag_344\n      jumpi\n      tag_345\n      tag_159\n      jump\t// in\n    tag_345:\n    tag_344:\n      swap1\n      0x00\n      mstore\n      keccak256(0x00, 0x20)\n      swap1\n      0x04\n      mul\n      add\n        /* \"contracts/Freelance_Marketplace.sol\":6205:6247  applications[_applicationIndex].freelancer */\n      0x00\n      add\n      0x00\n      swap1\n      sload\n      swap1\n      0x0100\n      exp\n      swap1\n      div\n      0xffffffffffffffffffffffffffffffffffffffff\n      and\n        /* \"contracts/Freelance_Marketplace.sol\":6176:6183  project */\n      dup3\n        /* \"contracts/Freelance_Marketplace.sol\":6176:6194  project.freelancer */\n      0x05\n      add\n      0x01\n        /* \"contracts/Freelance_Marketplace.sol\":6176:6248  project.freelancer = payable(applications[_applicationIndex].freelancer) */\n      0x0100\n      exp\n      dup2\n      sload\n      dup2\n      0xffffffffffffffffffffffffffffffffffffffff\n      mul\n      not\n      and\n      swap1\n      dup4\n      0xffffffffffffffffffffffffffffffffffffffff\n      and\n      mul\n      or\n      swap1\n      sstore\n      pop\n        /* \"contracts/Freelance_Marketplace.sol\":6275:6299  ProjectStatus.InProgress */\n      0x01\n        /* \"contracts/Freelance_Marketplace.sol\":6258:6265  project */\n      dup3\n        /* \"contracts/Freelance_Marketplace.sol\":6258:6272  project.status */\n      0x05\n      add\n      0x00\n        /* \"contracts/Freelance_Marketplace.sol\":6258:6299  project.status = ProjectStatus.InProgress */\n      0x0100\n      exp\n      dup2\n      sload\n      dup2\n      0xff\n      mul\n      not\n      and\n      swap1\n      dup4\n      0x03\n      dup2\n      gt\n      iszero\n      tag_347\n      jumpi\n      tag_348\n      tag_174\n      jump\t// in\n    tag_348:\n    tag_347:\n      mul\n      or\n      swap1\n      sstore\n      pop\n        /* \"contracts/Freelance_Marketplace.sol\":6315:6373  ProjectAwarded(_projectId, msg.sender, project.freelancer) */\n      0x77133d03a3af396c0ea6b4fc24922b1f419245875a326f5f112b8f34cad01c8d\n        /* \"contracts/Freelance_Marketplace.sol\":6330:6340  _projectId */\n      dup7\n        /* \"contracts/Freelance_Marketplace.sol\":6342:6352  msg.sender */\n      caller\n        /* \"contracts/Freelance_Marketplace.sol\":6354:6361  project */\n      dup5\n        /* \"contracts/Freelance_Marketplace.sol\":6354:6372  project.freelancer */\n      0x05\n      add\n      0x01\n      swap1\n      sload\n      swap1\n      0x0100\n      exp\n      swap1\n      div\n      0xffffffffffffffffffffffffffffffffffffffff\n      and\n        /* \"contracts/Freelance_Marketplace.sol\":6315:6373  ProjectAwarded(_projectId, msg.sender, project.freelancer) */\n      mload(0x40)\n      tag_349\n      swap4\n      swap3\n      swap2\n      swap1\n      tag_350\n      jump\t// in\n    tag_349:\n      mload(0x40)\n      dup1\n      swap2\n      sub\n      swap1\n      log1\n        /* \"contracts/Freelance_Marketplace.sol\":5684:6380  {... */\n      pop\n      pop\n        /* \"contracts/Freelance_Marketplace.sol\":2389:2390  _ */\n      pop\n        /* \"contracts/Freelance_Marketplace.sol\":5528:6380  function acceptApplication(... */\n      pop\n      pop\n      pop\n      jump\t// out\n        /* \"contracts/Freelance_Marketplace.sol\":3201:3898  function createProject(... */\n    tag_112:\n        /* \"contracts/Freelance_Marketplace.sol\":3394:3401  _budget */\n      dup2\n        /* \"contracts/Freelance_Marketplace.sol\":3381:3390  msg.value */\n      callvalue\n        /* \"contracts/Freelance_Marketplace.sol\":3381:3401  msg.value == _budget */\n      eq\n        /* \"contracts/Freelance_Marketplace.sol\":3373:3447  require(msg.value == _budget, \"Sent value must match the project budget.\") */\n      tag_352\n      jumpi\n      mload(0x40)\n      0x08c379a000000000000000000000000000000000000000000000000000000000\n      dup2\n      mstore\n      0x04\n      add\n      tag_353\n      swap1\n      tag_354\n      jump\t// in\n    tag_353:\n      mload(0x40)\n      dup1\n      swap2\n      sub\n      swap1\n      revert\n    tag_352:\n        /* \"contracts/Freelance_Marketplace.sol\":3457:3465  projects */\n      0x02\n        /* \"contracts/Freelance_Marketplace.sol\":3471:3735  Project({... */\n      mload(0x40)\n      dup1\n      0xe0\n      add\n      0x40\n      mstore\n      dup1\n        /* \"contracts/Freelance_Marketplace.sol\":3501:3511  msg.sender */\n      caller\n        /* \"contracts/Freelance_Marketplace.sol\":3471:3735  Project({... */\n      0xffffffffffffffffffffffffffffffffffffffff\n      and\n      dup2\n      mstore\n      0x20\n      add\n        /* \"contracts/Freelance_Marketplace.sol\":3532:3538  _title */\n      dup7\n        /* \"contracts/Freelance_Marketplace.sol\":3471:3735  Project({... */\n      dup2\n      mstore\n      0x20\n      add\n        /* \"contracts/Freelance_Marketplace.sol\":3565:3577  _description */\n      dup6\n        /* \"contracts/Freelance_Marketplace.sol\":3471:3735  Project({... */\n      dup2\n      mstore\n      0x20\n      add\n        /* \"contracts/Freelance_Marketplace.sol\":3599:3606  _budget */\n      dup5\n        /* \"contracts/Freelance_Marketplace.sol\":3471:3735  Project({... */\n      dup2\n      mstore\n      0x20\n      add\n        /* \"contracts/Freelance_Marketplace.sol\":3630:3639  _deadline */\n      dup4\n        /* \"contracts/Freelance_Marketplace.sol\":3471:3735  Project({... */\n      dup2\n      mstore\n      0x20\n      add\n        /* \"contracts/Freelance_Marketplace.sol\":3661:3679  ProjectStatus.Open */\n      0x00\n        /* \"contracts/Freelance_Marketplace.sol\":3471:3735  Project({... */\n      0x03\n      dup2\n      gt\n      iszero\n      tag_355\n      jumpi\n      tag_356\n      tag_174\n      jump\t// in\n    tag_356:\n    tag_355:\n      dup2\n      mstore\n      0x20\n      add\n        /* \"contracts/Freelance_Marketplace.sol\":3721:3722  0 */\n      0x00\n        /* \"contracts/Freelance_Marketplace.sol\":3471:3735  Project({... */\n      0xffffffffffffffffffffffffffffffffffffffff\n      and\n      dup2\n      mstore\n      pop\n        /* \"contracts/Freelance_Marketplace.sol\":3457:3736  projects.push(Project({... */\n      swap1\n      dup1\n      0x01\n      dup2\n      sload\n      add\n      dup1\n      dup3\n      sstore\n      dup1\n      swap2\n      pop\n      pop\n      0x01\n      swap1\n      sub\n      swap1\n      0x00\n      mstore\n      keccak256(0x00, 0x20)\n      swap1\n      0x06\n      mul\n      add\n      0x00\n      swap1\n      swap2\n      swap1\n      swap2\n      swap1\n      swap2\n      pop\n      0x00\n      dup3\n      add\n      mload\n      dup2\n      0x00\n      add\n      exp(0x0100, 0x00)\n      dup2\n      sload\n      dup2\n      0xffffffffffffffffffffffffffffffffffffffff\n      mul\n      not\n      and\n      swap1\n      dup4\n      0xffffffffffffffffffffffffffffffffffffffff\n      and\n      mul\n      or\n      swap1\n      sstore\n      pop\n      0x20\n      dup3\n      add\n      mload\n      dup2\n      0x01\n      add\n      swap1\n      dup2\n      tag_358\n      swap2\n      swap1\n      tag_181\n      jump\t// in\n    tag_358:\n      pop\n      0x40\n      dup3\n      add\n      mload\n      dup2\n      0x02\n      add\n      swap1\n      dup2\n      tag_359\n      swap2\n      swap1\n      tag_181\n      jump\t// in\n    tag_359:\n      pop\n      0x60\n      dup3\n      add\n      mload\n      dup2\n      0x03\n      add\n      sstore\n      0x80\n      dup3\n      add\n      mload\n      dup2\n      0x04\n      add\n      sstore\n      0xa0\n      dup3\n      add\n      mload\n      dup2\n      0x05\n      add\n      exp(0x0100, 0x00)\n      dup2\n      sload\n      dup2\n      0xff\n      mul\n      not\n      and\n      swap1\n      dup4\n      0x03\n      dup2\n      gt\n      iszero\n      tag_360\n      jumpi\n      tag_361\n      tag_174\n      jump\t// in\n    tag_361:\n    tag_360:\n      mul\n      or\n      swap1\n      sstore\n      pop\n      0xc0\n      dup3\n      add\n      mload\n      dup2\n      0x05\n      add\n      exp(0x0100, 0x01)\n      dup2\n      sload\n      dup2\n      0xffffffffffffffffffffffffffffffffffffffff\n      mul\n      not\n      and\n      swap1\n      dup4\n      0xffffffffffffffffffffffffffffffffffffffff\n      and\n      mul\n      or\n      swap1\n      sstore\n      pop\n      pop\n      pop\n        /* \"contracts/Freelance_Marketplace.sol\":3747:3764  uint256 projectId */\n      0x00\n        /* \"contracts/Freelance_Marketplace.sol\":3785:3786  1 */\n      0x01\n        /* \"contracts/Freelance_Marketplace.sol\":3767:3775  projects */\n      0x02\n        /* \"contracts/Freelance_Marketplace.sol\":3767:3782  projects.length */\n      dup1\n      sload\n      swap1\n      pop\n        /* \"contracts/Freelance_Marketplace.sol\":3767:3786  projects.length - 1 */\n      tag_362\n      swap2\n      swap1\n      tag_243\n      jump\t// in\n    tag_362:\n        /* \"contracts/Freelance_Marketplace.sol\":3747:3786  uint256 projectId = projects.length - 1 */\n      swap1\n      pop\n        /* \"contracts/Freelance_Marketplace.sol\":3823:3830  _budget */\n      dup3\n        /* \"contracts/Freelance_Marketplace.sol\":3796:3809  projectEscrow */\n      0x03\n        /* \"contracts/Freelance_Marketplace.sol\":3796:3820  projectEscrow[projectId] */\n      0x00\n        /* \"contracts/Freelance_Marketplace.sol\":3810:3819  projectId */\n      dup4\n        /* \"contracts/Freelance_Marketplace.sol\":3796:3820  projectEscrow[projectId] */\n      dup2\n      mstore\n      0x20\n      add\n      swap1\n      dup2\n      mstore\n      0x20\n      add\n      0x00\n      keccak256\n        /* \"contracts/Freelance_Marketplace.sol\":3796:3830  projectEscrow[projectId] = _budget */\n      dup2\n      swap1\n      sstore\n      pop\n        /* \"contracts/Freelance_Marketplace.sol\":3846:3891  ProjectCreated(projectId, msg.sender, _title) */\n      0x9d9ec461f162f3f4fdb9f6d189bfe13c59e48d8acd23a4c3bfcf7cc0fe4e84ed\n        /* \"contracts/Freelance_Marketplace.sol\":3861:3870  projectId */\n      dup2\n        /* \"contracts/Freelance_Marketplace.sol\":3872:3882  msg.sender */\n      caller\n        /* \"contracts/Freelance_Marketplace.sol\":3884:3890  _title */\n      dup8\n        /* \"contracts/Freelance_Marketplace.sol\":3846:3891  ProjectCreated(projectId, msg.sender, _title) */\n      mload(0x40)\n      tag_363\n      swap4\n      swap3\n      swap2\n      swap1\n      tag_364\n      jump\t// in\n    tag_363:\n      mload(0x40)\n      dup1\n      swap2\n      sub\n      swap1\n      log1\n        /* \"contracts/Freelance_Marketplace.sol\":3363:3898  {... */\n      pop\n        /* \"contracts/Freelance_Marketplace.sol\":3201:3898  function createProject(... */\n      pop\n      pop\n      pop\n      pop\n      jump\t// out\n        /* \"contracts/Freelance_Marketplace.sol\":1783:1810  uint256 public disputeCount */\n    tag_115:\n      sload(0x07)\n      dup2\n      jump\t// out\n        /* \"contracts/Freelance_Marketplace.sol\":10139:10879  function voteOnDispute(uint256 _disputeId, bool _voteForA)... */\n    tag_121:\n        /* \"contracts/Freelance_Marketplace.sol\":2806:2807  0 */\n      0x00\n        /* \"contracts/Freelance_Marketplace.sol\":2777:2791  userReputation */\n      0x01\n        /* \"contracts/Freelance_Marketplace.sol\":2777:2803  userReputation[msg.sender] */\n      0x00\n        /* \"contracts/Freelance_Marketplace.sol\":2792:2802  msg.sender */\n      caller\n        /* \"contracts/Freelance_Marketplace.sol\":2777:2803  userReputation[msg.sender] */\n      0xffffffffffffffffffffffffffffffffffffffff\n      and\n      0xffffffffffffffffffffffffffffffffffffffff\n      and\n      dup2\n      mstore\n      0x20\n      add\n      swap1\n      dup2\n      mstore\n      0x20\n      add\n      0x00\n      keccak256\n      sload\n        /* \"contracts/Freelance_Marketplace.sol\":2777:2807  userReputation[msg.sender] > 0 */\n      gt\n        /* \"contracts/Freelance_Marketplace.sol\":2769:2837  require(userReputation[msg.sender] > 0, \"You have no voting power.\") */\n      tag_366\n      jumpi\n      mload(0x40)\n      0x08c379a000000000000000000000000000000000000000000000000000000000\n      dup2\n      mstore\n      0x04\n      add\n      tag_367\n      swap1\n      tag_368\n      jump\t// in\n    tag_367:\n      mload(0x40)\n      dup1\n      swap2\n      sub\n      swap1\n      revert\n    tag_366:\n        /* \"contracts/Freelance_Marketplace.sol\":10250:10273  Dispute storage dispute */\n      0x00\n        /* \"contracts/Freelance_Marketplace.sol\":10276:10284  disputes */\n      0x06\n        /* \"contracts/Freelance_Marketplace.sol\":10276:10296  disputes[_disputeId] */\n      0x00\n        /* \"contracts/Freelance_Marketplace.sol\":10285:10295  _disputeId */\n      dup5\n        /* \"contracts/Freelance_Marketplace.sol\":10276:10296  disputes[_disputeId] */\n      dup2\n      mstore\n      0x20\n      add\n      swap1\n      dup2\n      mstore\n      0x20\n      add\n      0x00\n      keccak256\n        /* \"contracts/Freelance_Marketplace.sol\":10250:10296  Dispute storage dispute = disputes[_disputeId] */\n      swap1\n      pop\n        /* \"contracts/Freelance_Marketplace.sol\":10315:10322  dispute */\n      dup1\n        /* \"contracts/Freelance_Marketplace.sol\":10315:10331  dispute.resolved */\n      0x05\n      add\n      0x00\n      swap1\n      sload\n      swap1\n      0x0100\n      exp\n      swap1\n      div\n      0xff\n      and\n        /* \"contracts/Freelance_Marketplace.sol\":10314:10331  !dispute.resolved */\n      iszero\n        /* \"contracts/Freelance_Marketplace.sol\":10306:10361  require(!dispute.resolved, \"Dispute already resolved.\") */\n      tag_370\n      jumpi\n      mload(0x40)\n      0x08c379a000000000000000000000000000000000000000000000000000000000\n      dup2\n      mstore\n      0x04\n      add\n      tag_371\n      swap1\n      tag_372\n      jump\t// in\n    tag_371:\n      mload(0x40)\n      dup1\n      swap2\n      sub\n      swap1\n      revert\n    tag_370:\n        /* \"contracts/Freelance_Marketplace.sol\":10399:10415  disputeDeadlines */\n      0x0a\n        /* \"contracts/Freelance_Marketplace.sol\":10399:10427  disputeDeadlines[_disputeId] */\n      0x00\n        /* \"contracts/Freelance_Marketplace.sol\":10416:10426  _disputeId */\n      dup5\n        /* \"contracts/Freelance_Marketplace.sol\":10399:10427  disputeDeadlines[_disputeId] */\n      dup2\n      mstore\n      0x20\n      add\n      swap1\n      dup2\n      mstore\n      0x20\n      add\n      0x00\n      keccak256\n      sload\n        /* \"contracts/Freelance_Marketplace.sol\":10380:10395  block.timestamp */\n      timestamp\n        /* \"contracts/Freelance_Marketplace.sol\":10380:10427  block.timestamp <= disputeDeadlines[_disputeId] */\n      gt\n      iszero\n        /* \"contracts/Freelance_Marketplace.sol\":10372:10459  require(block.timestamp <= disputeDeadlines[_disputeId], \"Voting deadline has passed.\") */\n      tag_373\n      jumpi\n      mload(0x40)\n      0x08c379a000000000000000000000000000000000000000000000000000000000\n      dup2\n      mstore\n      0x04\n      add\n      tag_374\n      swap1\n      tag_375\n      jump\t// in\n    tag_374:\n      mload(0x40)\n      dup1\n      swap2\n      sub\n      swap1\n      revert\n    tag_373:\n        /* \"contracts/Freelance_Marketplace.sol\":10479:10484  voted */\n      0x09\n        /* \"contracts/Freelance_Marketplace.sol\":10479:10496  voted[_disputeId] */\n      0x00\n        /* \"contracts/Freelance_Marketplace.sol\":10485:10495  _disputeId */\n      dup5\n        /* \"contracts/Freelance_Marketplace.sol\":10479:10496  voted[_disputeId] */\n      dup2\n      mstore\n      0x20\n      add\n      swap1\n      dup2\n      mstore\n      0x20\n      add\n      0x00\n      keccak256\n        /* \"contracts/Freelance_Marketplace.sol\":10479:10508  voted[_disputeId][msg.sender] */\n      0x00\n        /* \"contracts/Freelance_Marketplace.sol\":10497:10507  msg.sender */\n      caller\n        /* \"contracts/Freelance_Marketplace.sol\":10479:10508  voted[_disputeId][msg.sender] */\n      0xffffffffffffffffffffffffffffffffffffffff\n      and\n      0xffffffffffffffffffffffffffffffffffffffff\n      and\n      dup2\n      mstore\n      0x20\n      add\n      swap1\n      dup2\n      mstore\n      0x20\n      add\n      0x00\n      keccak256\n      0x00\n      swap1\n      sload\n      swap1\n      0x0100\n      exp\n      swap1\n      div\n      0xff\n      and\n        /* \"contracts/Freelance_Marketplace.sol\":10478:10508  !voted[_disputeId][msg.sender] */\n      iszero\n        /* \"contracts/Freelance_Marketplace.sol\":10470:10552  require(!voted[_disputeId][msg.sender], \"You have already voted in this dispute.\") */\n      tag_376\n      jumpi\n      mload(0x40)\n      0x08c379a000000000000000000000000000000000000000000000000000000000\n      dup2\n      mstore\n      0x04\n      add\n      tag_377\n      swap1\n      tag_378\n      jump\t// in\n    tag_377:\n      mload(0x40)\n      dup1\n      swap2\n      sub\n      swap1\n      revert\n    tag_376:\n        /* \"contracts/Freelance_Marketplace.sol\":10594:10598  true */\n      0x01\n        /* \"contracts/Freelance_Marketplace.sol\":10562:10567  voted */\n      0x09\n        /* \"contracts/Freelance_Marketplace.sol\":10562:10579  voted[_disputeId] */\n      0x00\n        /* \"contracts/Freelance_Marketplace.sol\":10568:10578  _disputeId */\n      dup6\n        /* \"contracts/Freelance_Marketplace.sol\":10562:10579  voted[_disputeId] */\n      dup2\n      mstore\n      0x20\n      add\n      swap1\n      dup2\n      mstore\n      0x20\n      add\n      0x00\n      keccak256\n        /* \"contracts/Freelance_Marketplace.sol\":10562:10591  voted[_disputeId][msg.sender] */\n      0x00\n        /* \"contracts/Freelance_Marketplace.sol\":10580:10590  msg.sender */\n      caller\n        /* \"contracts/Freelance_Marketplace.sol\":10562:10591  voted[_disputeId][msg.sender] */\n      0xffffffffffffffffffffffffffffffffffffffff\n      and\n      0xffffffffffffffffffffffffffffffffffffffff\n      and\n      dup2\n      mstore\n      0x20\n      add\n      swap1\n      dup2\n      mstore\n      0x20\n      add\n      0x00\n      keccak256\n      0x00\n        /* \"contracts/Freelance_Marketplace.sol\":10562:10598  voted[_disputeId][msg.sender] = true */\n      0x0100\n      exp\n      dup2\n      sload\n      dup2\n      0xff\n      mul\n      not\n      and\n      swap1\n      dup4\n      iszero\n      iszero\n      mul\n      or\n      swap1\n      sstore\n      pop\n        /* \"contracts/Freelance_Marketplace.sol\":10609:10632  uint256 voterReputation */\n      0x00\n        /* \"contracts/Freelance_Marketplace.sol\":10635:10649  userReputation */\n      0x01\n        /* \"contracts/Freelance_Marketplace.sol\":10635:10661  userReputation[msg.sender] */\n      0x00\n        /* \"contracts/Freelance_Marketplace.sol\":10650:10660  msg.sender */\n      caller\n        /* \"contracts/Freelance_Marketplace.sol\":10635:10661  userReputation[msg.sender] */\n      0xffffffffffffffffffffffffffffffffffffffff\n      and\n      0xffffffffffffffffffffffffffffffffffffffff\n      and\n      dup2\n      mstore\n      0x20\n      add\n      swap1\n      dup2\n      mstore\n      0x20\n      add\n      0x00\n      keccak256\n      sload\n        /* \"contracts/Freelance_Marketplace.sol\":10609:10661  uint256 voterReputation = userReputation[msg.sender] */\n      swap1\n      pop\n        /* \"contracts/Freelance_Marketplace.sol\":10675:10684  _voteForA */\n      dup3\n        /* \"contracts/Freelance_Marketplace.sol\":10671:10814  if (_voteForA) {... */\n      iszero\n      tag_379\n      jumpi\n        /* \"contracts/Freelance_Marketplace.sol\":10721:10736  voterReputation */\n      dup1\n        /* \"contracts/Freelance_Marketplace.sol\":10700:10707  dispute */\n      dup3\n        /* \"contracts/Freelance_Marketplace.sol\":10700:10717  dispute.votesForA */\n      0x03\n      add\n      0x00\n        /* \"contracts/Freelance_Marketplace.sol\":10700:10736  dispute.votesForA += voterReputation */\n      dup3\n      dup3\n      sload\n      tag_380\n      swap2\n      swap1\n      tag_381\n      jump\t// in\n    tag_380:\n      swap3\n      pop\n      pop\n      dup2\n      swap1\n      sstore\n      pop\n        /* \"contracts/Freelance_Marketplace.sol\":10671:10814  if (_voteForA) {... */\n      jump(tag_382)\n    tag_379:\n        /* \"contracts/Freelance_Marketplace.sol\":10788:10803  voterReputation */\n      dup1\n        /* \"contracts/Freelance_Marketplace.sol\":10767:10774  dispute */\n      dup3\n        /* \"contracts/Freelance_Marketplace.sol\":10767:10784  dispute.votesForB */\n      0x04\n      add\n      0x00\n        /* \"contracts/Freelance_Marketplace.sol\":10767:10803  dispute.votesForB += voterReputation */\n      dup3\n      dup3\n      sload\n      tag_383\n      swap2\n      swap1\n      tag_381\n      jump\t// in\n    tag_383:\n      swap3\n      pop\n      pop\n      dup2\n      swap1\n      sstore\n      pop\n        /* \"contracts/Freelance_Marketplace.sol\":10671:10814  if (_voteForA) {... */\n    tag_382:\n        /* \"contracts/Freelance_Marketplace.sol\":10829:10872  VoteCast(_disputeId, msg.sender, _voteForA) */\n      0xe71fcdac32df1877c1700e7bda2a03157e20993363a28fc35ac495cefc76e4d4\n        /* \"contracts/Freelance_Marketplace.sol\":10838:10848  _disputeId */\n      dup5\n        /* \"contracts/Freelance_Marketplace.sol\":10850:10860  msg.sender */\n      caller\n        /* \"contracts/Freelance_Marketplace.sol\":10862:10871  _voteForA */\n      dup6\n        /* \"contracts/Freelance_Marketplace.sol\":10829:10872  VoteCast(_disputeId, msg.sender, _voteForA) */\n      mload(0x40)\n      tag_384\n      swap4\n      swap3\n      swap2\n      swap1\n      tag_385\n      jump\t// in\n    tag_384:\n      mload(0x40)\n      dup1\n      swap2\n      sub\n      swap1\n      log1\n        /* \"contracts/Freelance_Marketplace.sol\":10240:10879  {... */\n      pop\n      pop\n        /* \"contracts/Freelance_Marketplace.sol\":10139:10879  function voteOnDispute(uint256 _disputeId, bool _voteForA)... */\n      pop\n      pop\n      jump\t// out\n        /* \"contracts/Freelance_Marketplace.sol\":9165:10133  function raiseDispute(uint256 _projectId) public projectExists(_projectId) {... */\n    tag_125:\n        /* \"contracts/Freelance_Marketplace.sol\":9228:9238  _projectId */\n      dup1\n        /* \"contracts/Freelance_Marketplace.sol\":2666:2674  projects */\n      0x02\n        /* \"contracts/Freelance_Marketplace.sol\":2666:2681  projects.length */\n      dup1\n      sload\n      swap1\n      pop\n        /* \"contracts/Freelance_Marketplace.sol\":2653:2663  _projectId */\n      dup2\n        /* \"contracts/Freelance_Marketplace.sol\":2653:2681  _projectId < projects.length */\n      lt\n        /* \"contracts/Freelance_Marketplace.sol\":2645:2709  require(_projectId < projects.length, \"Project does not exist.\") */\n      tag_387\n      jumpi\n      mload(0x40)\n      0x08c379a000000000000000000000000000000000000000000000000000000000\n      dup2\n      mstore\n      0x04\n      add\n      tag_388\n      swap1\n      tag_167\n      jump\t// in\n    tag_388:\n      mload(0x40)\n      dup1\n      swap2\n      sub\n      swap1\n      revert\n    tag_387:\n        /* \"contracts/Freelance_Marketplace.sol\":9250:9273  Project storage project */\n      0x00\n        /* \"contracts/Freelance_Marketplace.sol\":9276:9284  projects */\n      0x02\n        /* \"contracts/Freelance_Marketplace.sol\":9285:9295  _projectId */\n      dup4\n        /* \"contracts/Freelance_Marketplace.sol\":9276:9296  projects[_projectId] */\n      dup2\n      sload\n      dup2\n      lt\n      tag_390\n      jumpi\n      tag_391\n      tag_159\n      jump\t// in\n    tag_391:\n    tag_390:\n      swap1\n      0x00\n      mstore\n      keccak256(0x00, 0x20)\n      swap1\n      0x06\n      mul\n      add\n        /* \"contracts/Freelance_Marketplace.sol\":9250:9296  Project storage project = projects[_projectId] */\n      swap1\n      pop\n        /* \"contracts/Freelance_Marketplace.sol\":9342:9349  project */\n      dup1\n        /* \"contracts/Freelance_Marketplace.sol\":9342:9356  project.client */\n      0x00\n      add\n      0x00\n      swap1\n      sload\n      swap1\n      0x0100\n      exp\n      swap1\n      div\n      0xffffffffffffffffffffffffffffffffffffffff\n      and\n        /* \"contracts/Freelance_Marketplace.sol\":9328:9356  msg.sender == project.client */\n      0xffffffffffffffffffffffffffffffffffffffff\n      and\n        /* \"contracts/Freelance_Marketplace.sol\":9328:9338  msg.sender */\n      caller\n        /* \"contracts/Freelance_Marketplace.sol\":9328:9356  msg.sender == project.client */\n      0xffffffffffffffffffffffffffffffffffffffff\n      and\n      eq\n        /* \"contracts/Freelance_Marketplace.sol\":9328:9392  msg.sender == project.client || msg.sender == project.freelancer */\n      dup1\n      tag_393\n      jumpi\n      pop\n        /* \"contracts/Freelance_Marketplace.sol\":9374:9381  project */\n      dup1\n        /* \"contracts/Freelance_Marketplace.sol\":9374:9392  project.freelancer */\n      0x05\n      add\n      0x01\n      swap1\n      sload\n      swap1\n      0x0100\n      exp\n      swap1\n      div\n      0xffffffffffffffffffffffffffffffffffffffff\n      and\n        /* \"contracts/Freelance_Marketplace.sol\":9360:9392  msg.sender == project.freelancer */\n      0xffffffffffffffffffffffffffffffffffffffff\n      and\n        /* \"contracts/Freelance_Marketplace.sol\":9360:9370  msg.sender */\n      caller\n        /* \"contracts/Freelance_Marketplace.sol\":9360:9392  msg.sender == project.freelancer */\n      0xffffffffffffffffffffffffffffffffffffffff\n      and\n      eq\n        /* \"contracts/Freelance_Marketplace.sol\":9328:9392  msg.sender == project.client || msg.sender == project.freelancer */\n    tag_393:\n        /* \"contracts/Freelance_Marketplace.sol\":9307:9460  require(... */\n      tag_394\n      jumpi\n      mload(0x40)\n      0x08c379a000000000000000000000000000000000000000000000000000000000\n      dup2\n      mstore\n      0x04\n      add\n      tag_395\n      swap1\n      tag_396\n      jump\t// in\n    tag_395:\n      mload(0x40)\n      dup1\n      swap2\n      sub\n      swap1\n      revert\n    tag_394:\n        /* \"contracts/Freelance_Marketplace.sol\":9509:9533  ProjectStatus.InProgress */\n      0x01\n        /* \"contracts/Freelance_Marketplace.sol\":9491:9533  project.status == ProjectStatus.InProgress */\n      0x03\n      dup2\n      gt\n      iszero\n      tag_397\n      jumpi\n      tag_398\n      tag_174\n      jump\t// in\n    tag_398:\n    tag_397:\n        /* \"contracts/Freelance_Marketplace.sol\":9491:9498  project */\n      dup2\n        /* \"contracts/Freelance_Marketplace.sol\":9491:9505  project.status */\n      0x05\n      add\n      0x00\n      swap1\n      sload\n      swap1\n      0x0100\n      exp\n      swap1\n      div\n      0xff\n      and\n        /* \"contracts/Freelance_Marketplace.sol\":9491:9533  project.status == ProjectStatus.InProgress */\n      0x03\n      dup2\n      gt\n      iszero\n      tag_399\n      jumpi\n      tag_400\n      tag_174\n      jump\t// in\n    tag_400:\n    tag_399:\n      eq\n        /* \"contracts/Freelance_Marketplace.sol\":9470:9612  require(... */\n      tag_401\n      jumpi\n      mload(0x40)\n      0x08c379a000000000000000000000000000000000000000000000000000000000\n      dup2\n      mstore\n      0x04\n      add\n      tag_402\n      swap1\n      tag_403\n      jump\t// in\n    tag_402:\n      mload(0x40)\n      dup1\n      swap2\n      sub\n      swap1\n      revert\n    tag_401:\n        /* \"contracts/Freelance_Marketplace.sol\":9640:9662  ProjectStatus.Disputed */\n      0x03\n        /* \"contracts/Freelance_Marketplace.sol\":9623:9630  project */\n      dup2\n        /* \"contracts/Freelance_Marketplace.sol\":9623:9637  project.status */\n      0x05\n      add\n      0x00\n        /* \"contracts/Freelance_Marketplace.sol\":9623:9662  project.status = ProjectStatus.Disputed */\n      0x0100\n      exp\n      dup2\n      sload\n      dup2\n      0xff\n      mul\n      not\n      and\n      swap1\n      dup4\n      0x03\n      dup2\n      gt\n      iszero\n      tag_404\n      jumpi\n      tag_405\n      tag_174\n      jump\t// in\n    tag_405:\n    tag_404:\n      mul\n      or\n      swap1\n      sstore\n      pop\n        /* \"contracts/Freelance_Marketplace.sol\":9673:9685  disputeCount */\n      0x07\n      0x00\n        /* \"contracts/Freelance_Marketplace.sol\":9673:9687  disputeCount++ */\n      dup2\n      sload\n      dup1\n      swap3\n      swap2\n      swap1\n      tag_406\n      swap1\n      tag_407\n      jump\t// in\n    tag_406:\n      swap2\n      swap1\n      pop\n      sstore\n      pop\n        /* \"contracts/Freelance_Marketplace.sol\":9722:10009  Dispute({... */\n      mload(0x40)\n      dup1\n      0xc0\n      add\n      0x40\n      mstore\n      dup1\n        /* \"contracts/Freelance_Marketplace.sol\":9755:9765  _projectId */\n      dup5\n        /* \"contracts/Freelance_Marketplace.sol\":9722:10009  Dispute({... */\n      dup2\n      mstore\n      0x20\n      add\n        /* \"contracts/Freelance_Marketplace.sol\":9787:9797  msg.sender */\n      caller\n        /* \"contracts/Freelance_Marketplace.sol\":9722:10009  Dispute({... */\n      0xffffffffffffffffffffffffffffffffffffffff\n      and\n      dup2\n      mstore\n      0x20\n      add\n        /* \"contracts/Freelance_Marketplace.sol\":9833:9840  project */\n      dup3\n        /* \"contracts/Freelance_Marketplace.sol\":9833:9847  project.client */\n      0x00\n      add\n      0x00\n      swap1\n      sload\n      swap1\n      0x0100\n      exp\n      swap1\n      div\n      0xffffffffffffffffffffffffffffffffffffffff\n      and\n        /* \"contracts/Freelance_Marketplace.sol\":9819:9847  msg.sender == project.client */\n      0xffffffffffffffffffffffffffffffffffffffff\n      and\n        /* \"contracts/Freelance_Marketplace.sol\":9819:9829  msg.sender */\n      caller\n        /* \"contracts/Freelance_Marketplace.sol\":9819:9847  msg.sender == project.client */\n      0xffffffffffffffffffffffffffffffffffffffff\n      and\n      eq\n        /* \"contracts/Freelance_Marketplace.sol\":9819:9917  msg.sender == project.client... */\n      tag_408\n      jumpi\n        /* \"contracts/Freelance_Marketplace.sol\":9903:9910  project */\n      dup3\n        /* \"contracts/Freelance_Marketplace.sol\":9903:9917  project.client */\n      0x00\n      add\n      0x00\n      swap1\n      sload\n      swap1\n      0x0100\n      exp\n      swap1\n      div\n      0xffffffffffffffffffffffffffffffffffffffff\n      and\n        /* \"contracts/Freelance_Marketplace.sol\":9819:9917  msg.sender == project.client... */\n      jump(tag_409)\n    tag_408:\n        /* \"contracts/Freelance_Marketplace.sol\":9866:9873  project */\n      dup3\n        /* \"contracts/Freelance_Marketplace.sol\":9866:9884  project.freelancer */\n      0x05\n      add\n      0x01\n      swap1\n      sload\n      swap1\n      0x0100\n      exp\n      swap1\n      div\n      0xffffffffffffffffffffffffffffffffffffffff\n      and\n        /* \"contracts/Freelance_Marketplace.sol\":9819:9917  msg.sender == project.client... */\n    tag_409:\n        /* \"contracts/Freelance_Marketplace.sol\":9722:10009  Dispute({... */\n      0xffffffffffffffffffffffffffffffffffffffff\n      and\n      dup2\n      mstore\n      0x20\n      add\n        /* \"contracts/Freelance_Marketplace.sol\":9942:9943  0 */\n      0x00\n        /* \"contracts/Freelance_Marketplace.sol\":9722:10009  Dispute({... */\n      dup2\n      mstore\n      0x20\n      add\n        /* \"contracts/Freelance_Marketplace.sol\":9968:9969  0 */\n      0x00\n        /* \"contracts/Freelance_Marketplace.sol\":9722:10009  Dispute({... */\n      dup2\n      mstore\n      0x20\n      add\n        /* \"contracts/Freelance_Marketplace.sol\":9993:9998  false */\n      0x00\n        /* \"contracts/Freelance_Marketplace.sol\":9722:10009  Dispute({... */\n      iszero\n      iszero\n      dup2\n      mstore\n      pop\n        /* \"contracts/Freelance_Marketplace.sol\":9697:9705  disputes */\n      0x06\n        /* \"contracts/Freelance_Marketplace.sol\":9697:9719  disputes[disputeCount] */\n      0x00\n        /* \"contracts/Freelance_Marketplace.sol\":9706:9718  disputeCount */\n      sload(0x07)\n        /* \"contracts/Freelance_Marketplace.sol\":9697:9719  disputes[disputeCount] */\n      dup2\n      mstore\n      0x20\n      add\n      swap1\n      dup2\n      mstore\n      0x20\n      add\n      0x00\n      keccak256\n        /* \"contracts/Freelance_Marketplace.sol\":9697:10009  disputes[disputeCount] = Dispute({... */\n      0x00\n      dup3\n      add\n      mload\n      dup2\n      0x00\n      add\n      sstore\n      0x20\n      dup3\n      add\n      mload\n      dup2\n      0x01\n      add\n      exp(0x0100, 0x00)\n      dup2\n      sload\n      dup2\n      0xffffffffffffffffffffffffffffffffffffffff\n      mul\n      not\n      and\n      swap1\n      dup4\n      0xffffffffffffffffffffffffffffffffffffffff\n      and\n      mul\n      or\n      swap1\n      sstore\n      pop\n      0x40\n      dup3\n      add\n      mload\n      dup2\n      0x02\n      add\n      exp(0x0100, 0x00)\n      dup2\n      sload\n      dup2\n      0xffffffffffffffffffffffffffffffffffffffff\n      mul\n      not\n      and\n      swap1\n      dup4\n      0xffffffffffffffffffffffffffffffffffffffff\n      and\n      mul\n      or\n      swap1\n      sstore\n      pop\n      0x60\n      dup3\n      add\n      mload\n      dup2\n      0x03\n      add\n      sstore\n      0x80\n      dup3\n      add\n      mload\n      dup2\n      0x04\n      add\n      sstore\n      0xa0\n      dup3\n      add\n      mload\n      dup2\n      0x05\n      add\n      exp(0x0100, 0x00)\n      dup2\n      sload\n      dup2\n      0xff\n      mul\n      not\n      and\n      swap1\n      dup4\n      iszero\n      iszero\n      mul\n      or\n      swap1\n      sstore\n      pop\n      swap1\n      pop\n      pop\n        /* \"contracts/Freelance_Marketplace.sol\":10071:10085  votingDeadline */\n      sload(0x0c)\n        /* \"contracts/Freelance_Marketplace.sol\":10053:10068  block.timestamp */\n      timestamp\n        /* \"contracts/Freelance_Marketplace.sol\":10053:10085  block.timestamp + votingDeadline */\n      tag_410\n      swap2\n      swap1\n      tag_381\n      jump\t// in\n    tag_410:\n        /* \"contracts/Freelance_Marketplace.sol\":10020:10036  disputeDeadlines */\n      0x0a\n        /* \"contracts/Freelance_Marketplace.sol\":10020:10050  disputeDeadlines[disputeCount] */\n      0x00\n        /* \"contracts/Freelance_Marketplace.sol\":10037:10049  disputeCount */\n      sload(0x07)\n        /* \"contracts/Freelance_Marketplace.sol\":10020:10050  disputeDeadlines[disputeCount] */\n      dup2\n      mstore\n      0x20\n      add\n      swap1\n      dup2\n      mstore\n      0x20\n      add\n      0x00\n      keccak256\n        /* \"contracts/Freelance_Marketplace.sol\":10020:10085  disputeDeadlines[disputeCount] = block.timestamp + votingDeadline */\n      dup2\n      swap1\n      sstore\n      pop\n        /* \"contracts/Freelance_Marketplace.sol\":10101:10126  DisputeRaised(_projectId) */\n      0x04901f83201c8724eadf084436db8aa391820bae6d11f9f78a17edb6f2eef3cf\n        /* \"contracts/Freelance_Marketplace.sol\":10115:10125  _projectId */\n      dup4\n        /* \"contracts/Freelance_Marketplace.sol\":10101:10126  DisputeRaised(_projectId) */\n      mload(0x40)\n      tag_411\n      swap2\n      swap1\n      tag_35\n      jump\t// in\n    tag_411:\n      mload(0x40)\n      dup1\n      swap2\n      sub\n      swap1\n      log1\n        /* \"contracts/Freelance_Marketplace.sol\":9240:10133  {... */\n      pop\n        /* \"contracts/Freelance_Marketplace.sol\":9165:10133  function raiseDispute(uint256 _projectId) public projectExists(_projectId) {... */\n      pop\n      pop\n      jump\t// out\n        /* \"contracts/Freelance_Marketplace.sol\":1405:1442  mapping(address => User) public users */\n    tag_130:\n      mstore(0x20, 0x00)\n      dup1\n      0x00\n      mstore\n      keccak256(0x00, 0x40)\n      0x00\n      swap2\n      pop\n      swap1\n      pop\n      dup1\n      0x00\n      add\n      0x00\n      swap1\n      sload\n      swap1\n      0x0100\n      exp\n      swap1\n      div\n      0xff\n      and\n      swap1\n      dup1\n      0x01\n      add\n      dup1\n      sload\n      tag_412\n      swap1\n      tag_187\n      jump\t// in\n    tag_412:\n      dup1\n      0x1f\n      add\n      0x20\n      dup1\n      swap2\n      div\n      mul\n      0x20\n      add\n      mload(0x40)\n      swap1\n      dup2\n      add\n      0x40\n      mstore\n      dup1\n      swap3\n      swap2\n      swap1\n      dup2\n      dup2\n      mstore\n      0x20\n      add\n      dup3\n      dup1\n      sload\n      tag_413\n      swap1\n      tag_187\n      jump\t// in\n    tag_413:\n      dup1\n      iszero\n      tag_414\n      jumpi\n      dup1\n      0x1f\n      lt\n      tag_415\n      jumpi\n      0x0100\n      dup1\n      dup4\n      sload\n      div\n      mul\n      dup4\n      mstore\n      swap2\n      0x20\n      add\n      swap2\n      jump(tag_414)\n    tag_415:\n      dup3\n      add\n      swap2\n      swap1\n      0x00\n      mstore\n      keccak256(0x00, 0x20)\n      swap1\n    tag_416:\n      dup2\n      sload\n      dup2\n      mstore\n      swap1\n      0x01\n      add\n      swap1\n      0x20\n      add\n      dup1\n      dup4\n      gt\n      tag_416\n      jumpi\n      dup3\n      swap1\n      sub\n      0x1f\n      and\n      dup3\n      add\n      swap2\n    tag_414:\n      pop\n      pop\n      pop\n      pop\n      pop\n      swap1\n      dup1\n      0x02\n      add\n      sload\n      swap1\n      dup1\n      0x03\n      add\n      0x00\n      swap1\n      sload\n      swap1\n      0x0100\n      exp\n      swap1\n      div\n      0xffffffffffffffffffffffffffffffffffffffff\n      and\n      swap1\n      pop\n      dup5\n      jump\t// out\n        /* \"contracts/Freelance_Marketplace.sol\":1816:1862  mapping(address => uint256) public votingPower */\n    tag_136:\n      mstore(0x20, 0x08)\n      dup1\n      0x00\n      mstore\n      keccak256(0x00, 0x40)\n      0x00\n      swap2\n      pop\n      swap1\n      pop\n      sload\n      dup2\n      jump\t// out\n        /* \"contracts/Freelance_Marketplace.sol\":10885:12062  function resolveDispute(uint256 _disputeId) public {... */\n    tag_141:\n        /* \"contracts/Freelance_Marketplace.sol\":10946:10969  Dispute storage dispute */\n      0x00\n        /* \"contracts/Freelance_Marketplace.sol\":10972:10980  disputes */\n      0x06\n        /* \"contracts/Freelance_Marketplace.sol\":10972:10992  disputes[_disputeId] */\n      0x00\n        /* \"contracts/Freelance_Marketplace.sol\":10981:10991  _disputeId */\n      dup4\n        /* \"contracts/Freelance_Marketplace.sol\":10972:10992  disputes[_disputeId] */\n      dup2\n      mstore\n      0x20\n      add\n      swap1\n      dup2\n      mstore\n      0x20\n      add\n      0x00\n      keccak256\n        /* \"contracts/Freelance_Marketplace.sol\":10946:10992  Dispute storage dispute = disputes[_disputeId] */\n      swap1\n      pop\n        /* \"contracts/Freelance_Marketplace.sol\":11011:11018  dispute */\n      dup1\n        /* \"contracts/Freelance_Marketplace.sol\":11011:11027  dispute.resolved */\n      0x05\n      add\n      0x00\n      swap1\n      sload\n      swap1\n      0x0100\n      exp\n      swap1\n      div\n      0xff\n      and\n        /* \"contracts/Freelance_Marketplace.sol\":11010:11027  !dispute.resolved */\n      iszero\n        /* \"contracts/Freelance_Marketplace.sol\":11002:11057  require(!dispute.resolved, \"Dispute already resolved.\") */\n      tag_418\n      jumpi\n      mload(0x40)\n      0x08c379a000000000000000000000000000000000000000000000000000000000\n      dup2\n      mstore\n      0x04\n      add\n      tag_419\n      swap1\n      tag_372\n      jump\t// in\n    tag_419:\n      mload(0x40)\n      dup1\n      swap2\n      sub\n      swap1\n      revert\n    tag_418:\n        /* \"contracts/Freelance_Marketplace.sol\":11093:11109  disputeDeadlines */\n      0x0a\n        /* \"contracts/Freelance_Marketplace.sol\":11093:11121  disputeDeadlines[_disputeId] */\n      0x00\n        /* \"contracts/Freelance_Marketplace.sol\":11110:11120  _disputeId */\n      dup4\n        /* \"contracts/Freelance_Marketplace.sol\":11093:11121  disputeDeadlines[_disputeId] */\n      dup2\n      mstore\n      0x20\n      add\n      swap1\n      dup2\n      mstore\n      0x20\n      add\n      0x00\n      keccak256\n      sload\n        /* \"contracts/Freelance_Marketplace.sol\":11075:11090  block.timestamp */\n      timestamp\n        /* \"contracts/Freelance_Marketplace.sol\":11075:11121  block.timestamp > disputeDeadlines[_disputeId] */\n      gt\n        /* \"contracts/Freelance_Marketplace.sol\":11067:11156  require(block.timestamp > disputeDeadlines[_disputeId], \"Voting period is not over yet.\") */\n      tag_420\n      jumpi\n      mload(0x40)\n      0x08c379a000000000000000000000000000000000000000000000000000000000\n      dup2\n      mstore\n      0x04\n      add\n      tag_421\n      swap1\n      tag_422\n      jump\t// in\n    tag_421:\n      mload(0x40)\n      dup1\n      swap2\n      sub\n      swap1\n      revert\n    tag_420:\n        /* \"contracts/Freelance_Marketplace.sol\":11167:11189  address payable winner */\n      0x00\n        /* \"contracts/Freelance_Marketplace.sol\":11223:11230  dispute */\n      dup2\n        /* \"contracts/Freelance_Marketplace.sol\":11223:11240  dispute.votesForB */\n      0x04\n      add\n      sload\n        /* \"contracts/Freelance_Marketplace.sol\":11203:11210  dispute */\n      dup3\n        /* \"contracts/Freelance_Marketplace.sol\":11203:11220  dispute.votesForA */\n      0x03\n      add\n      sload\n        /* \"contracts/Freelance_Marketplace.sol\":11203:11240  dispute.votesForA > dispute.votesForB */\n      gt\n        /* \"contracts/Freelance_Marketplace.sol\":11199:11570  if (dispute.votesForA > dispute.votesForB) {... */\n      iszero\n      tag_423\n      jumpi\n        /* \"contracts/Freelance_Marketplace.sol\":11273:11280  dispute */\n      dup2\n        /* \"contracts/Freelance_Marketplace.sol\":11273:11287  dispute.partyA */\n      0x01\n      add\n      0x00\n      swap1\n      sload\n      swap1\n      0x0100\n      exp\n      swap1\n      div\n      0xffffffffffffffffffffffffffffffffffffffff\n      and\n        /* \"contracts/Freelance_Marketplace.sol\":11256:11288  winner = payable(dispute.partyA) */\n      swap1\n      pop\n        /* \"contracts/Freelance_Marketplace.sol\":11199:11570  if (dispute.votesForA > dispute.votesForB) {... */\n      jump(tag_424)\n    tag_423:\n        /* \"contracts/Freelance_Marketplace.sol\":11329:11336  dispute */\n      dup2\n        /* \"contracts/Freelance_Marketplace.sol\":11329:11346  dispute.votesForA */\n      0x03\n      add\n      sload\n        /* \"contracts/Freelance_Marketplace.sol\":11309:11316  dispute */\n      dup3\n        /* \"contracts/Freelance_Marketplace.sol\":11309:11326  dispute.votesForB */\n      0x04\n      add\n      sload\n        /* \"contracts/Freelance_Marketplace.sol\":11309:11346  dispute.votesForB > dispute.votesForA */\n      gt\n        /* \"contracts/Freelance_Marketplace.sol\":11305:11570  if (dispute.votesForB > dispute.votesForA) {... */\n      iszero\n      tag_425\n      jumpi\n        /* \"contracts/Freelance_Marketplace.sol\":11379:11386  dispute */\n      dup2\n        /* \"contracts/Freelance_Marketplace.sol\":11379:11393  dispute.partyB */\n      0x02\n      add\n      0x00\n      swap1\n      sload\n      swap1\n      0x0100\n      exp\n      swap1\n      div\n      0xffffffffffffffffffffffffffffffffffffffff\n      and\n        /* \"contracts/Freelance_Marketplace.sol\":11362:11394  winner = payable(dispute.partyB) */\n      swap1\n      pop\n        /* \"contracts/Freelance_Marketplace.sol\":11305:11570  if (dispute.votesForB > dispute.votesForA) {... */\n      jump(tag_426)\n    tag_425:\n    tag_426:\n        /* \"contracts/Freelance_Marketplace.sol\":11199:11570  if (dispute.votesForA > dispute.votesForB) {... */\n    tag_424:\n        /* \"contracts/Freelance_Marketplace.sol\":11580:11602  uint256 disputedAmount */\n      0x00\n        /* \"contracts/Freelance_Marketplace.sol\":11605:11618  projectEscrow */\n      0x03\n        /* \"contracts/Freelance_Marketplace.sol\":11605:11637  projectEscrow[dispute.projectId] */\n      0x00\n        /* \"contracts/Freelance_Marketplace.sol\":11619:11626  dispute */\n      dup5\n        /* \"contracts/Freelance_Marketplace.sol\":11619:11636  dispute.projectId */\n      0x00\n      add\n      sload\n        /* \"contracts/Freelance_Marketplace.sol\":11605:11637  projectEscrow[dispute.projectId] */\n      dup2\n      mstore\n      0x20\n      add\n      swap1\n      dup2\n      mstore\n      0x20\n      add\n      0x00\n      keccak256\n      sload\n        /* \"contracts/Freelance_Marketplace.sol\":11580:11637  uint256 disputedAmount = projectEscrow[dispute.projectId] */\n      swap1\n      pop\n        /* \"contracts/Freelance_Marketplace.sol\":11682:11683  0 */\n      0x00\n        /* \"contracts/Freelance_Marketplace.sol\":11647:11660  projectEscrow */\n      0x03\n        /* \"contracts/Freelance_Marketplace.sol\":11647:11679  projectEscrow[dispute.projectId] */\n      0x00\n        /* \"contracts/Freelance_Marketplace.sol\":11661:11668  dispute */\n      dup6\n        /* \"contracts/Freelance_Marketplace.sol\":11661:11678  dispute.projectId */\n      0x00\n      add\n      sload\n        /* \"contracts/Freelance_Marketplace.sol\":11647:11679  projectEscrow[dispute.projectId] */\n      dup2\n      mstore\n      0x20\n      add\n      swap1\n      dup2\n      mstore\n      0x20\n      add\n      0x00\n      keccak256\n        /* \"contracts/Freelance_Marketplace.sol\":11647:11683  projectEscrow[dispute.projectId] = 0 */\n      dup2\n      swap1\n      sstore\n      pop\n        /* \"contracts/Freelance_Marketplace.sol\":11716:11717  0 */\n      0x00\n        /* \"contracts/Freelance_Marketplace.sol\":11698:11718  winner != address(0) */\n      0xffffffffffffffffffffffffffffffffffffffff\n      and\n        /* \"contracts/Freelance_Marketplace.sol\":11698:11704  winner */\n      dup3\n        /* \"contracts/Freelance_Marketplace.sol\":11698:11718  winner != address(0) */\n      0xffffffffffffffffffffffffffffffffffffffff\n      and\n      eq\n        /* \"contracts/Freelance_Marketplace.sol\":11694:11815  if (winner != address(0)) { // Make sure there's a winner... */\n      tag_427\n      jumpi\n        /* \"contracts/Freelance_Marketplace.sol\":11772:11778  winner */\n      dup2\n        /* \"contracts/Freelance_Marketplace.sol\":11764:11788  payable(winner).transfer */\n      0xffffffffffffffffffffffffffffffffffffffff\n      and\n        /* \"contracts/Freelance_Marketplace.sol\":11764:11804  payable(winner).transfer(disputedAmount) */\n      0x08fc\n        /* \"contracts/Freelance_Marketplace.sol\":11789:11803  disputedAmount */\n      dup3\n        /* \"contracts/Freelance_Marketplace.sol\":11764:11804  payable(winner).transfer(disputedAmount) */\n      swap1\n      dup2\n      iszero\n      mul\n      swap1\n      mload(0x40)\n      0x00\n      mload(0x40)\n      dup1\n      dup4\n      sub\n      dup2\n      dup6\n      dup9\n      dup9\n      call\n      swap4\n      pop\n      pop\n      pop\n      pop\n      iszero\n      dup1\n      iszero\n      tag_429\n      jumpi\n      returndatasize\n      0x00\n      dup1\n      returndatacopy\n      revert(0x00, returndatasize)\n    tag_429:\n      pop\n        /* \"contracts/Freelance_Marketplace.sol\":11694:11815  if (winner != address(0)) { // Make sure there's a winner... */\n    tag_427:\n        /* \"contracts/Freelance_Marketplace.sol\":11923:11927  true */\n      0x01\n        /* \"contracts/Freelance_Marketplace.sol\":11904:11911  dispute */\n      dup4\n        /* \"contracts/Freelance_Marketplace.sol\":11904:11920  dispute.resolved */\n      0x05\n      add\n      0x00\n        /* \"contracts/Freelance_Marketplace.sol\":11904:11927  dispute.resolved = true */\n      0x0100\n      exp\n      dup2\n      sload\n      dup2\n      0xff\n      mul\n      not\n      and\n      swap1\n      dup4\n      iszero\n      iszero\n      mul\n      or\n      swap1\n      sstore\n      pop\n        /* \"contracts/Freelance_Marketplace.sol\":11974:11997  ProjectStatus.Completed */\n      0x02\n        /* \"contracts/Freelance_Marketplace.sol\":11937:11945  projects */\n      dup1\n        /* \"contracts/Freelance_Marketplace.sol\":11946:11953  dispute */\n      dup5\n        /* \"contracts/Freelance_Marketplace.sol\":11946:11963  dispute.projectId */\n      0x00\n      add\n      sload\n        /* \"contracts/Freelance_Marketplace.sol\":11937:11964  projects[dispute.projectId] */\n      dup2\n      sload\n      dup2\n      lt\n      tag_430\n      jumpi\n      tag_431\n      tag_159\n      jump\t// in\n    tag_431:\n    tag_430:\n      swap1\n      0x00\n      mstore\n      keccak256(0x00, 0x20)\n      swap1\n      0x06\n      mul\n      add\n        /* \"contracts/Freelance_Marketplace.sol\":11937:11971  projects[dispute.projectId].status */\n      0x05\n      add\n      0x00\n        /* \"contracts/Freelance_Marketplace.sol\":11937:11997  projects[dispute.projectId].status = ProjectStatus.Completed */\n      0x0100\n      exp\n      dup2\n      sload\n      dup2\n      0xff\n      mul\n      not\n      and\n      swap1\n      dup4\n      0x03\n      dup2\n      gt\n      iszero\n      tag_433\n      jumpi\n      tag_434\n      tag_174\n      jump\t// in\n    tag_434:\n    tag_433:\n      mul\n      or\n      swap1\n      sstore\n      pop\n        /* \"contracts/Freelance_Marketplace.sol\":12013:12055  DisputeResolved(dispute.projectId, winner) */\n      0xf77ceb5e091d2da041bc760667f9d5fe7a756949eaf29250ad0e60ca6f4c27d9\n        /* \"contracts/Freelance_Marketplace.sol\":12029:12036  dispute */\n      dup4\n        /* \"contracts/Freelance_Marketplace.sol\":12029:12046  dispute.projectId */\n      0x00\n      add\n      sload\n        /* \"contracts/Freelance_Marketplace.sol\":12048:12054  winner */\n      dup4\n        /* \"contracts/Freelance_Marketplace.sol\":12013:12055  DisputeResolved(dispute.projectId, winner) */\n      mload(0x40)\n      tag_435\n      swap3\n      swap2\n      swap1\n      tag_436\n      jump\t// in\n    tag_435:\n      mload(0x40)\n      dup1\n      swap2\n      sub\n      swap1\n      log1\n        /* \"contracts/Freelance_Marketplace.sol\":10936:12062  {... */\n      pop\n      pop\n      pop\n        /* \"contracts/Freelance_Marketplace.sol\":10885:12062  function resolveDispute(uint256 _disputeId) public {... */\n      pop\n      jump\t// out\n        /* \"contracts/Freelance_Marketplace.sol\":2861:3195  function registerUser(UserRole _role, string memory _name) public {... */\n    tag_146:\n        /* \"contracts/Freelance_Marketplace.sol\":2985:2986  0 */\n      0x00\n        /* \"contracts/Freelance_Marketplace.sol\":2945:2987  users[msg.sender].ethAddress == address(0) */\n      0xffffffffffffffffffffffffffffffffffffffff\n      and\n        /* \"contracts/Freelance_Marketplace.sol\":2945:2950  users */\n      0x00\n        /* \"contracts/Freelance_Marketplace.sol\":2945:2962  users[msg.sender] */\n      dup1\n        /* \"contracts/Freelance_Marketplace.sol\":2951:2961  msg.sender */\n      caller\n        /* \"contracts/Freelance_Marketplace.sol\":2945:2962  users[msg.sender] */\n      0xffffffffffffffffffffffffffffffffffffffff\n      and\n      0xffffffffffffffffffffffffffffffffffffffff\n      and\n      dup2\n      mstore\n      0x20\n      add\n      swap1\n      dup2\n      mstore\n      0x20\n      add\n      0x00\n      keccak256\n        /* \"contracts/Freelance_Marketplace.sol\":2945:2973  users[msg.sender].ethAddress */\n      0x03\n      add\n      0x00\n      swap1\n      sload\n      swap1\n      0x0100\n      exp\n      swap1\n      div\n      0xffffffffffffffffffffffffffffffffffffffff\n      and\n        /* \"contracts/Freelance_Marketplace.sol\":2945:2987  users[msg.sender].ethAddress == address(0) */\n      0xffffffffffffffffffffffffffffffffffffffff\n      and\n      eq\n        /* \"contracts/Freelance_Marketplace.sol\":2937:3012  require(users[msg.sender].ethAddress == address(0), \"User already exists.\") */\n      tag_438\n      jumpi\n      mload(0x40)\n      0x08c379a000000000000000000000000000000000000000000000000000000000\n      dup2\n      mstore\n      0x04\n      add\n      tag_439\n      swap1\n      tag_440\n      jump\t// in\n    tag_439:\n      mload(0x40)\n      dup1\n      swap2\n      sub\n      swap1\n      revert\n    tag_438:\n        /* \"contracts/Freelance_Marketplace.sol\":3044:3188  User({... */\n      mload(0x40)\n      dup1\n      0x80\n      add\n      0x40\n      mstore\n      dup1\n        /* \"contracts/Freelance_Marketplace.sol\":3069:3074  _role */\n      dup4\n        /* \"contracts/Freelance_Marketplace.sol\":3044:3188  User({... */\n      0x01\n      dup2\n      gt\n      iszero\n      tag_441\n      jumpi\n      tag_442\n      tag_174\n      jump\t// in\n    tag_442:\n    tag_441:\n      dup2\n      mstore\n      0x20\n      add\n        /* \"contracts/Freelance_Marketplace.sol\":3094:3099  _name */\n      dup3\n        /* \"contracts/Freelance_Marketplace.sol\":3044:3188  User({... */\n      dup2\n      mstore\n      0x20\n      add\n        /* \"contracts/Freelance_Marketplace.sol\":3130:3131  0 */\n      0x00\n        /* \"contracts/Freelance_Marketplace.sol\":3044:3188  User({... */\n      dup2\n      mstore\n      0x20\n      add\n        /* \"contracts/Freelance_Marketplace.sol\":3165:3175  msg.sender */\n      caller\n        /* \"contracts/Freelance_Marketplace.sol\":3044:3188  User({... */\n      0xffffffffffffffffffffffffffffffffffffffff\n      and\n      dup2\n      mstore\n      pop\n        /* \"contracts/Freelance_Marketplace.sol\":3024:3029  users */\n      0x00\n        /* \"contracts/Freelance_Marketplace.sol\":3024:3041  users[msg.sender] */\n      dup1\n        /* \"contracts/Freelance_Marketplace.sol\":3030:3040  msg.sender */\n      caller\n        /* \"contracts/Freelance_Marketplace.sol\":3024:3041  users[msg.sender] */\n      0xffffffffffffffffffffffffffffffffffffffff\n      and\n      0xffffffffffffffffffffffffffffffffffffffff\n      and\n      dup2\n      mstore\n      0x20\n      add\n      swap1\n      dup2\n      mstore\n      0x20\n      add\n      0x00\n      keccak256\n        /* \"contracts/Freelance_Marketplace.sol\":3024:3188  users[msg.sender] = User({... */\n      0x00\n      dup3\n      add\n      mload\n      dup2\n      0x00\n      add\n      exp(0x0100, 0x00)\n      dup2\n      sload\n      dup2\n      0xff\n      mul\n      not\n      and\n      swap1\n      dup4\n      0x01\n      dup2\n      gt\n      iszero\n      tag_443\n      jumpi\n      tag_444\n      tag_174\n      jump\t// in\n    tag_444:\n    tag_443:\n      mul\n      or\n      swap1\n      sstore\n      pop\n      0x20\n      dup3\n      add\n      mload\n      dup2\n      0x01\n      add\n      swap1\n      dup2\n      tag_445\n      swap2\n      swap1\n      tag_181\n      jump\t// in\n    tag_445:\n      pop\n      0x40\n      dup3\n      add\n      mload\n      dup2\n      0x02\n      add\n      sstore\n      0x60\n      dup3\n      add\n      mload\n      dup2\n      0x03\n      add\n      exp(0x0100, 0x00)\n      dup2\n      sload\n      dup2\n      0xffffffffffffffffffffffffffffffffffffffff\n      mul\n      not\n      and\n      swap1\n      dup4\n      0xffffffffffffffffffffffffffffffffffffffff\n      and\n      mul\n      or\n      swap1\n      sstore\n      pop\n      swap1\n      pop\n      pop\n        /* \"contracts/Freelance_Marketplace.sol\":2861:3195  function registerUser(UserRole _role, string memory _name) public {... */\n      pop\n      pop\n      jump\t// out\n        /* \"contracts/Freelance_Marketplace.sol\":6386:7171  function rejectApplication(... */\n    tag_150:\n        /* \"contracts/Freelance_Marketplace.sol\":6541:6551  _projectId */\n      dup3\n        /* \"contracts/Freelance_Marketplace.sol\":2307:2315  projects */\n      0x02\n        /* \"contracts/Freelance_Marketplace.sol\":2316:2326  _projectId */\n      dup2\n        /* \"contracts/Freelance_Marketplace.sol\":2307:2327  projects[_projectId] */\n      dup2\n      sload\n      dup2\n      lt\n      tag_447\n      jumpi\n      tag_448\n      tag_159\n      jump\t// in\n    tag_448:\n    tag_447:\n      swap1\n      0x00\n      mstore\n      keccak256(0x00, 0x20)\n      swap1\n      0x06\n      mul\n      add\n        /* \"contracts/Freelance_Marketplace.sol\":2307:2334  projects[_projectId].client */\n      0x00\n      add\n      0x00\n      swap1\n      sload\n      swap1\n      0x0100\n      exp\n      swap1\n      div\n      0xffffffffffffffffffffffffffffffffffffffff\n      and\n        /* \"contracts/Freelance_Marketplace.sol\":2293:2334  msg.sender == projects[_projectId].client */\n      0xffffffffffffffffffffffffffffffffffffffff\n      and\n        /* \"contracts/Freelance_Marketplace.sol\":2293:2303  msg.sender */\n      caller\n        /* \"contracts/Freelance_Marketplace.sol\":2293:2334  msg.sender == projects[_projectId].client */\n      0xffffffffffffffffffffffffffffffffffffffff\n      and\n      eq\n        /* \"contracts/Freelance_Marketplace.sol\":2285:2379  require(msg.sender == projects[_projectId].client, \"Only the client can perform this action.\") */\n      tag_450\n      jumpi\n      mload(0x40)\n      0x08c379a000000000000000000000000000000000000000000000000000000000\n      dup2\n      mstore\n      0x04\n      add\n      tag_451\n      swap1\n      tag_224\n      jump\t// in\n    tag_451:\n      mload(0x40)\n      dup1\n      swap2\n      sub\n      swap1\n      revert\n    tag_450:\n        /* \"contracts/Freelance_Marketplace.sol\":6567:6577  _projectId */\n      dup4\n        /* \"contracts/Freelance_Marketplace.sol\":2666:2674  projects */\n      0x02\n        /* \"contracts/Freelance_Marketplace.sol\":2666:2681  projects.length */\n      dup1\n      sload\n      swap1\n      pop\n        /* \"contracts/Freelance_Marketplace.sol\":2653:2663  _projectId */\n      dup2\n        /* \"contracts/Freelance_Marketplace.sol\":2653:2681  _projectId < projects.length */\n      lt\n        /* \"contracts/Freelance_Marketplace.sol\":2645:2709  require(_projectId < projects.length, \"Project does not exist.\") */\n      tag_453\n      jumpi\n      mload(0x40)\n      0x08c379a000000000000000000000000000000000000000000000000000000000\n      dup2\n      mstore\n      0x04\n      add\n      tag_454\n      swap1\n      tag_167\n      jump\t// in\n    tag_454:\n      mload(0x40)\n      dup1\n      swap2\n      sub\n      swap1\n      revert\n    tag_453:\n        /* \"contracts/Freelance_Marketplace.sol\":6594:6617  Project storage project */\n      0x00\n        /* \"contracts/Freelance_Marketplace.sol\":6620:6628  projects */\n      0x02\n        /* \"contracts/Freelance_Marketplace.sol\":6629:6639  _projectId */\n      dup7\n        /* \"contracts/Freelance_Marketplace.sol\":6620:6640  projects[_projectId] */\n      dup2\n      sload\n      dup2\n      lt\n      tag_456\n      jumpi\n      tag_457\n      tag_159\n      jump\t// in\n    tag_457:\n    tag_456:\n      swap1\n      0x00\n      mstore\n      keccak256(0x00, 0x20)\n      swap1\n      0x06\n      mul\n      add\n        /* \"contracts/Freelance_Marketplace.sol\":6594:6640  Project storage project = projects[_projectId] */\n      swap1\n      pop\n        /* \"contracts/Freelance_Marketplace.sol\":6676:6694  ProjectStatus.Open */\n      0x00\n        /* \"contracts/Freelance_Marketplace.sol\":6658:6694  project.status == ProjectStatus.Open */\n      0x03\n      dup2\n      gt\n      iszero\n      tag_459\n      jumpi\n      tag_460\n      tag_174\n      jump\t// in\n    tag_460:\n    tag_459:\n        /* \"contracts/Freelance_Marketplace.sol\":6658:6665  project */\n      dup2\n        /* \"contracts/Freelance_Marketplace.sol\":6658:6672  project.status */\n      0x05\n      add\n      0x00\n      swap1\n      sload\n      swap1\n      0x0100\n      exp\n      swap1\n      div\n      0xff\n      and\n        /* \"contracts/Freelance_Marketplace.sol\":6658:6694  project.status == ProjectStatus.Open */\n      0x03\n      dup2\n      gt\n      iszero\n      tag_461\n      jumpi\n      tag_462\n      tag_174\n      jump\t// in\n    tag_462:\n    tag_461:\n      eq\n        /* \"contracts/Freelance_Marketplace.sol\":6650:6735  require(project.status == ProjectStatus.Open, \"Project is not open for Application.\") */\n      tag_463\n      jumpi\n      mload(0x40)\n      0x08c379a000000000000000000000000000000000000000000000000000000000\n      dup2\n      mstore\n      0x04\n      add\n      tag_464\n      swap1\n      tag_331\n      jump\t// in\n    tag_464:\n      mload(0x40)\n      dup1\n      swap2\n      sub\n      swap1\n      revert\n    tag_463:\n        /* \"contracts/Freelance_Marketplace.sol\":6745:6779  Application[] storage applications */\n      0x00\n        /* \"contracts/Freelance_Marketplace.sol\":6782:6801  projectApplications */\n      0x05\n        /* \"contracts/Freelance_Marketplace.sol\":6782:6813  projectApplications[_projectId] */\n      0x00\n        /* \"contracts/Freelance_Marketplace.sol\":6802:6812  _projectId */\n      dup9\n        /* \"contracts/Freelance_Marketplace.sol\":6782:6813  projectApplications[_projectId] */\n      dup2\n      mstore\n      0x20\n      add\n      swap1\n      dup2\n      mstore\n      0x20\n      add\n      0x00\n      keccak256\n        /* \"contracts/Freelance_Marketplace.sol\":6745:6813  Application[] storage applications = projectApplications[_projectId] */\n      swap1\n      pop\n        /* \"contracts/Freelance_Marketplace.sol\":6851:6863  applications */\n      dup1\n        /* \"contracts/Freelance_Marketplace.sol\":6851:6870  applications.length */\n      dup1\n      sload\n      swap1\n      pop\n        /* \"contracts/Freelance_Marketplace.sol\":6831:6848  _applicationIndex */\n      dup7\n        /* \"contracts/Freelance_Marketplace.sol\":6831:6870  _applicationIndex < applications.length */\n      lt\n        /* \"contracts/Freelance_Marketplace.sol\":6823:6901  require(_applicationIndex < applications.length, \"Invalid application index.\") */\n      tag_465\n      jumpi\n      mload(0x40)\n      0x08c379a000000000000000000000000000000000000000000000000000000000\n      dup2\n      mstore\n      0x04\n      add\n      tag_466\n      swap1\n      tag_334\n      jump\t// in\n    tag_466:\n      mload(0x40)\n      dup1\n      swap2\n      sub\n      swap1\n      revert\n    tag_465:\n        /* \"contracts/Freelance_Marketplace.sol\":6913:6931  address freelancer */\n      0x00\n        /* \"contracts/Freelance_Marketplace.sol\":6934:6946  applications */\n      dup2\n        /* \"contracts/Freelance_Marketplace.sol\":6947:6964  _applicationIndex */\n      dup8\n        /* \"contracts/Freelance_Marketplace.sol\":6934:6965  applications[_applicationIndex] */\n      dup2\n      sload\n      dup2\n      lt\n      tag_467\n      jumpi\n      tag_468\n      tag_159\n      jump\t// in\n    tag_468:\n    tag_467:\n      swap1\n      0x00\n      mstore\n      keccak256(0x00, 0x20)\n      swap1\n      0x04\n      mul\n      add\n        /* \"contracts/Freelance_Marketplace.sol\":6934:6976  applications[_applicationIndex].freelancer */\n      0x00\n      add\n      0x00\n      swap1\n      sload\n      swap1\n      0x0100\n      exp\n      swap1\n      div\n      0xffffffffffffffffffffffffffffffffffffffff\n      and\n        /* \"contracts/Freelance_Marketplace.sol\":6913:6976  address freelancer = applications[_applicationIndex].freelancer */\n      swap1\n      pop\n        /* \"contracts/Freelance_Marketplace.sol\":7021:7033  applications */\n      dup2\n        /* \"contracts/Freelance_Marketplace.sol\":7056:7057  1 */\n      0x01\n        /* \"contracts/Freelance_Marketplace.sol\":7034:7046  applications */\n      dup4\n        /* \"contracts/Freelance_Marketplace.sol\":7034:7053  applications.length */\n      dup1\n      sload\n      swap1\n      pop\n        /* \"contracts/Freelance_Marketplace.sol\":7034:7057  applications.length - 1 */\n      tag_470\n      swap2\n      swap1\n      tag_243\n      jump\t// in\n    tag_470:\n        /* \"contracts/Freelance_Marketplace.sol\":7021:7058  applications[applications.length - 1] */\n      dup2\n      sload\n      dup2\n      lt\n      tag_471\n      jumpi\n      tag_472\n      tag_159\n      jump\t// in\n    tag_472:\n    tag_471:\n      swap1\n      0x00\n      mstore\n      keccak256(0x00, 0x20)\n      swap1\n      0x04\n      mul\n      add\n        /* \"contracts/Freelance_Marketplace.sol\":6987:6999  applications */\n      dup3\n        /* \"contracts/Freelance_Marketplace.sol\":7000:7017  _applicationIndex */\n      dup9\n        /* \"contracts/Freelance_Marketplace.sol\":6987:7018  applications[_applicationIndex] */\n      dup2\n      sload\n      dup2\n      lt\n      tag_474\n      jumpi\n      tag_475\n      tag_159\n      jump\t// in\n    tag_475:\n    tag_474:\n      swap1\n      0x00\n      mstore\n      keccak256(0x00, 0x20)\n      swap1\n      0x04\n      mul\n      add\n        /* \"contracts/Freelance_Marketplace.sol\":6987:7058  applications[_applicationIndex] = applications[applications.length - 1] */\n      0x00\n      dup3\n      add\n      0x00\n      swap1\n      sload\n      swap1\n      0x0100\n      exp\n      swap1\n      div\n      0xffffffffffffffffffffffffffffffffffffffff\n      and\n      dup2\n      0x00\n      add\n      exp(0x0100, 0x00)\n      dup2\n      sload\n      dup2\n      0xffffffffffffffffffffffffffffffffffffffff\n      mul\n      not\n      and\n      swap1\n      dup4\n      0xffffffffffffffffffffffffffffffffffffffff\n      and\n      mul\n      or\n      swap1\n      sstore\n      pop\n      0x01\n      dup3\n      add\n      dup2\n      0x01\n      add\n      swap1\n      dup2\n      tag_477\n      swap2\n      swap1\n      tag_478\n      jump\t// in\n    tag_477:\n      pop\n      0x02\n      dup3\n      add\n      sload\n      dup2\n      0x02\n      add\n      sstore\n      0x03\n      dup3\n      add\n      0x00\n      swap1\n      sload\n      swap1\n      0x0100\n      exp\n      swap1\n      div\n      0xff\n      and\n      dup2\n      0x03\n      add\n      exp(0x0100, 0x00)\n      dup2\n      sload\n      dup2\n      0xff\n      mul\n      not\n      and\n      swap1\n      dup4\n      iszero\n      iszero\n      mul\n      or\n      swap1\n      sstore\n      pop\n      swap1\n      pop\n      pop\n        /* \"contracts/Freelance_Marketplace.sol\":7068:7080  applications */\n      dup2\n        /* \"contracts/Freelance_Marketplace.sol\":7068:7086  applications.pop() */\n      dup1\n      sload\n      dup1\n      tag_479\n      jumpi\n      tag_480\n      tag_481\n      jump\t// in\n    tag_480:\n    tag_479:\n      0x01\n      swap1\n      sub\n      dup2\n      dup2\n      swap1\n      0x00\n      mstore\n      keccak256(0x00, 0x20)\n      swap1\n      0x04\n      mul\n      add\n      0x00\n      dup1\n      dup3\n      add\n      exp(0x0100, 0x00)\n      dup2\n      sload\n      swap1\n      0xffffffffffffffffffffffffffffffffffffffff\n      mul\n      not\n      and\n      swap1\n      sstore\n      0x01\n      dup3\n      add\n      0x00\n      tag_483\n      swap2\n      swap1\n      tag_484\n      jump\t// in\n    tag_483:\n      0x02\n      dup3\n      add\n      0x00\n      swap1\n      sstore\n      0x03\n      dup3\n      add\n      exp(0x0100, 0x00)\n      dup2\n      sload\n      swap1\n      0xff\n      mul\n      not\n      and\n      swap1\n      sstore\n      pop\n      pop\n      swap1\n      sstore\n        /* \"contracts/Freelance_Marketplace.sol\":7102:7163  ApplicationRejected(_projectId, freelancer, _rejectionReason) */\n      0x4ad7bfab548392dee7bdf6cb08df8f67651b96ad45562116ed0c305d6267c730\n        /* \"contracts/Freelance_Marketplace.sol\":7122:7132  _projectId */\n      dup9\n        /* \"contracts/Freelance_Marketplace.sol\":7134:7144  freelancer */\n      dup3\n        /* \"contracts/Freelance_Marketplace.sol\":7146:7162  _rejectionReason */\n      dup9\n        /* \"contracts/Freelance_Marketplace.sol\":7102:7163  ApplicationRejected(_projectId, freelancer, _rejectionReason) */\n      mload(0x40)\n      tag_485\n      swap4\n      swap3\n      swap2\n      swap1\n      tag_364\n      jump\t// in\n    tag_485:\n      mload(0x40)\n      dup1\n      swap2\n      sub\n      swap1\n      log1\n        /* \"contracts/Freelance_Marketplace.sol\":6584:7171  {... */\n      pop\n      pop\n      pop\n        /* \"contracts/Freelance_Marketplace.sol\":2389:2390  _ */\n      pop\n        /* \"contracts/Freelance_Marketplace.sol\":6386:7171  function rejectApplication(... */\n      pop\n      pop\n      pop\n      pop\n      jump\t// out\n        /* \"contracts/Freelance_Marketplace.sol\":1449:1498  mapping(address => uint256) public userReputation */\n    tag_154:\n      mstore(0x20, 0x01)\n      dup1\n      0x00\n      mstore\n      keccak256(0x00, 0x40)\n      0x00\n      swap2\n      pop\n      swap1\n      pop\n      sload\n      dup2\n      jump\t// out\n        /* \"contracts/Freelance_Marketplace.sol\":3904:4259  function _hasApplied(address _freelancer, uint256 _projectId) internal view returns (bool) {... */\n    tag_212:\n        /* \"contracts/Freelance_Marketplace.sol\":3989:3993  bool */\n      0x00\n        /* \"contracts/Freelance_Marketplace.sol\":4005:4038  Application[] memory applications */\n      dup1\n        /* \"contracts/Freelance_Marketplace.sol\":4041:4060  projectApplications */\n      0x05\n        /* \"contracts/Freelance_Marketplace.sol\":4041:4072  projectApplications[_projectId] */\n      0x00\n        /* \"contracts/Freelance_Marketplace.sol\":4061:4071  _projectId */\n      dup5\n        /* \"contracts/Freelance_Marketplace.sol\":4041:4072  projectApplications[_projectId] */\n      dup2\n      mstore\n      0x20\n      add\n      swap1\n      dup2\n      mstore\n      0x20\n      add\n      0x00\n      keccak256\n        /* \"contracts/Freelance_Marketplace.sol\":4005:4072  Application[] memory applications = projectApplications[_projectId] */\n      dup1\n      sload\n      dup1\n      0x20\n      mul\n      0x20\n      add\n      mload(0x40)\n      swap1\n      dup2\n      add\n      0x40\n      mstore\n      dup1\n      swap3\n      swap2\n      swap1\n      dup2\n      dup2\n      mstore\n      0x20\n      add\n      0x00\n      swap1\n    tag_487:\n      dup3\n      dup3\n      lt\n      iszero\n      tag_488\n      jumpi\n      dup4\n      dup3\n      swap1\n      0x00\n      mstore\n      keccak256(0x00, 0x20)\n      swap1\n      0x04\n      mul\n      add\n      mload(0x40)\n      dup1\n      0x80\n      add\n      0x40\n      mstore\n      swap1\n      dup2\n      0x00\n      dup3\n      add\n      0x00\n      swap1\n      sload\n      swap1\n      0x0100\n      exp\n      swap1\n      div\n      0xffffffffffffffffffffffffffffffffffffffff\n      and\n      0xffffffffffffffffffffffffffffffffffffffff\n      and\n      0xffffffffffffffffffffffffffffffffffffffff\n      and\n      dup2\n      mstore\n      0x20\n      add\n      0x01\n      dup3\n      add\n      dup1\n      sload\n      tag_490\n      swap1\n      tag_187\n      jump\t// in\n    tag_490:\n      dup1\n      0x1f\n      add\n      0x20\n      dup1\n      swap2\n      div\n      mul\n      0x20\n      add\n      mload(0x40)\n      swap1\n      dup2\n      add\n      0x40\n      mstore\n      dup1\n      swap3\n      swap2\n      swap1\n      dup2\n      dup2\n      mstore\n      0x20\n      add\n      dup3\n      dup1\n      sload\n      tag_491\n      swap1\n      tag_187\n      jump\t// in\n    tag_491:\n      dup1\n      iszero\n      tag_492\n      jumpi\n      dup1\n      0x1f\n      lt\n      tag_493\n      jumpi\n      0x0100\n      dup1\n      dup4\n      sload\n      div\n      mul\n      dup4\n      mstore\n      swap2\n      0x20\n      add\n      swap2\n      jump(tag_492)\n    tag_493:\n      dup3\n      add\n      swap2\n      swap1\n      0x00\n      mstore\n      keccak256(0x00, 0x20)\n      swap1\n    tag_494:\n      dup2\n      sload\n      dup2\n      mstore\n      swap1\n      0x01\n      add\n      swap1\n      0x20\n      add\n      dup1\n      dup4\n      gt\n      tag_494\n      jumpi\n      dup3\n      swap1\n      sub\n      0x1f\n      and\n      dup3\n      add\n      swap2\n    tag_492:\n      pop\n      pop\n      pop\n      pop\n      pop\n      dup2\n      mstore\n      0x20\n      add\n      0x02\n      dup3\n      add\n      sload\n      dup2\n      mstore\n      0x20\n      add\n      0x03\n      dup3\n      add\n      0x00\n      swap1\n      sload\n      swap1\n      0x0100\n      exp\n      swap1\n      div\n      0xff\n      and\n      iszero\n      iszero\n      iszero\n      iszero\n      dup2\n      mstore\n      pop\n      pop\n      dup2\n      mstore\n      0x20\n      add\n      swap1\n      0x01\n      add\n      swap1\n      jump(tag_487)\n    tag_488:\n      pop\n      pop\n      pop\n      pop\n      swap1\n      pop\n        /* \"contracts/Freelance_Marketplace.sol\":4088:4094  uint i */\n      0x00\n        /* \"contracts/Freelance_Marketplace.sol\":4083:4230  for (uint i = 0; i < applications.length; i++) {... */\n    tag_495:\n        /* \"contracts/Freelance_Marketplace.sol\":4104:4116  applications */\n      dup2\n        /* \"contracts/Freelance_Marketplace.sol\":4104:4123  applications.length */\n      mload\n        /* \"contracts/Freelance_Marketplace.sol\":4100:4101  i */\n      dup2\n        /* \"contracts/Freelance_Marketplace.sol\":4100:4123  i < applications.length */\n      lt\n        /* \"contracts/Freelance_Marketplace.sol\":4083:4230  for (uint i = 0; i < applications.length; i++) {... */\n      iszero\n      tag_496\n      jumpi\n        /* \"contracts/Freelance_Marketplace.sol\":4178:4189  _freelancer */\n      dup5\n        /* \"contracts/Freelance_Marketplace.sol\":4148:4189  applications[i].freelancer == _freelancer */\n      0xffffffffffffffffffffffffffffffffffffffff\n      and\n        /* \"contracts/Freelance_Marketplace.sol\":4148:4160  applications */\n      dup3\n        /* \"contracts/Freelance_Marketplace.sol\":4161:4162  i */\n      dup3\n        /* \"contracts/Freelance_Marketplace.sol\":4148:4163  applications[i] */\n      dup2\n      mload\n      dup2\n      lt\n      tag_498\n      jumpi\n      tag_499\n      tag_159\n      jump\t// in\n    tag_499:\n    tag_498:\n      0x20\n      mul\n      0x20\n      add\n      add\n      mload\n        /* \"contracts/Freelance_Marketplace.sol\":4148:4174  applications[i].freelancer */\n      0x00\n      add\n      mload\n        /* \"contracts/Freelance_Marketplace.sol\":4148:4189  applications[i].freelancer == _freelancer */\n      0xffffffffffffffffffffffffffffffffffffffff\n      and\n      sub\n        /* \"contracts/Freelance_Marketplace.sol\":4144:4219  if (applications[i].freelancer == _freelancer) ... */\n      tag_500\n      jumpi\n        /* \"contracts/Freelance_Marketplace.sol\":4215:4219  true */\n      0x01\n        /* \"contracts/Freelance_Marketplace.sol\":4208:4219  return true */\n      swap3\n      pop\n      pop\n      pop\n      jump(tag_486)\n        /* \"contracts/Freelance_Marketplace.sol\":4144:4219  if (applications[i].freelancer == _freelancer) ... */\n    tag_500:\n        /* \"contracts/Freelance_Marketplace.sol\":4125:4128  i++ */\n      dup1\n      dup1\n      0x01\n      add\n      swap2\n      pop\n      pop\n        /* \"contracts/Freelance_Marketplace.sol\":4083:4230  for (uint i = 0; i < applications.length; i++) {... */\n      jump(tag_495)\n    tag_496:\n      pop\n        /* \"contracts/Freelance_Marketplace.sol\":4246:4251  false */\n      0x00\n        /* \"contracts/Freelance_Marketplace.sol\":4239:4251  return false */\n      swap2\n      pop\n      pop\n        /* \"contracts/Freelance_Marketplace.sol\":3904:4259  function _hasApplied(address _freelancer, uint256 _projectId) internal view returns (bool) {... */\n    tag_486:\n      swap3\n      swap2\n      pop\n      pop\n      jump\t// out\n        /* \"contracts/Freelance_Marketplace.sol\":8255:8519  function updateUserReputation(address _user, int256 _reputationChange) internal  {... */\n    tag_271:\n        /* \"contracts/Freelance_Marketplace.sol\":8376:8380  this */\n      address\n        /* \"contracts/Freelance_Marketplace.sol\":8354:8381  msg.sender == address(this) */\n      0xffffffffffffffffffffffffffffffffffffffff\n      and\n        /* \"contracts/Freelance_Marketplace.sol\":8354:8364  msg.sender */\n      caller\n        /* \"contracts/Freelance_Marketplace.sol\":8354:8381  msg.sender == address(this) */\n      0xffffffffffffffffffffffffffffffffffffffff\n      and\n      eq\n        /* \"contracts/Freelance_Marketplace.sol\":8346:8426  require(msg.sender == address(this), \"Only the contract can update reputation.\") */\n      tag_502\n      jumpi\n      mload(0x40)\n      0x08c379a000000000000000000000000000000000000000000000000000000000\n      dup2\n      mstore\n      0x04\n      add\n      tag_503\n      swap1\n      tag_504\n      jump\t// in\n    tag_503:\n      mload(0x40)\n      dup1\n      swap2\n      sub\n      swap1\n      revert\n    tag_502:\n        /* \"contracts/Freelance_Marketplace.sol\":8493:8510  _reputationChange */\n      dup1\n        /* \"contracts/Freelance_Marketplace.sol\":8461:8475  userReputation */\n      0x01\n        /* \"contracts/Freelance_Marketplace.sol\":8461:8482  userReputation[_user] */\n      0x00\n        /* \"contracts/Freelance_Marketplace.sol\":8476:8481  _user */\n      dup5\n        /* \"contracts/Freelance_Marketplace.sol\":8461:8482  userReputation[_user] */\n      0xffffffffffffffffffffffffffffffffffffffff\n      and\n      0xffffffffffffffffffffffffffffffffffffffff\n      and\n      dup2\n      mstore\n      0x20\n      add\n      swap1\n      dup2\n      mstore\n      0x20\n      add\n      0x00\n      keccak256\n      sload\n        /* \"contracts/Freelance_Marketplace.sol\":8461:8511  userReputation[_user] + uint256(_reputationChange) */\n      tag_505\n      swap2\n      swap1\n      tag_381\n      jump\t// in\n    tag_505:\n        /* \"contracts/Freelance_Marketplace.sol\":8437:8451  userReputation */\n      0x01\n        /* \"contracts/Freelance_Marketplace.sol\":8437:8458  userReputation[_user] */\n      0x00\n        /* \"contracts/Freelance_Marketplace.sol\":8452:8457  _user */\n      dup5\n        /* \"contracts/Freelance_Marketplace.sol\":8437:8458  userReputation[_user] */\n      0xffffffffffffffffffffffffffffffffffffffff\n      and\n      0xffffffffffffffffffffffffffffffffffffffff\n      and\n      dup2\n      mstore\n      0x20\n      add\n      swap1\n      dup2\n      mstore\n      0x20\n      add\n      0x00\n      keccak256\n        /* \"contracts/Freelance_Marketplace.sol\":8437:8511  userReputation[_user] = userReputation[_user] + uint256(_reputationChange) */\n      dup2\n      swap1\n      sstore\n      pop\n        /* \"contracts/Freelance_Marketplace.sol\":8255:8519  function updateUserReputation(address _user, int256 _reputationChange) internal  {... */\n      pop\n      pop\n      jump\t// out\n    tag_484:\n      pop\n      dup1\n      sload\n      tag_506\n      swap1\n      tag_187\n      jump\t// in\n    tag_506:\n      0x00\n      dup3\n      sstore\n      dup1\n      0x1f\n      lt\n      tag_508\n      jumpi\n      pop\n      jump(tag_507)\n    tag_508:\n      0x1f\n      add\n      0x20\n      swap1\n      div\n      swap1\n      0x00\n      mstore\n      keccak256(0x00, 0x20)\n      swap1\n      dup2\n      add\n      swap1\n      tag_509\n      swap2\n      swap1\n      tag_510\n      jump\t// in\n    tag_509:\n    tag_507:\n      pop\n      jump\t// out\n    tag_510:\n    tag_511:\n      dup1\n      dup3\n      gt\n      iszero\n      tag_512\n      jumpi\n      0x00\n      dup2\n      0x00\n      swap1\n      sstore\n      pop\n      0x01\n      add\n      jump(tag_511)\n    tag_512:\n      pop\n      swap1\n      jump\t// out\n        /* \"#utility.yul\":7:84   */\n    tag_513:\n        /* \"#utility.yul\":44:51   */\n      0x00\n        /* \"#utility.yul\":73:78   */\n      dup2\n        /* \"#utility.yul\":62:78   */\n      swap1\n      pop\n        /* \"#utility.yul\":7:84   */\n      swap2\n      swap1\n      pop\n      jump\t// out\n        /* \"#utility.yul\":90:208   */\n    tag_514:\n        /* \"#utility.yul\":177:201   */\n      tag_623\n        /* \"#utility.yul\":195:200   */\n      dup2\n        /* \"#utility.yul\":177:201   */\n      tag_513\n      jump\t// in\n    tag_623:\n        /* \"#utility.yul\":172:175   */\n      dup3\n        /* \"#utility.yul\":165:202   */\n      mstore\n        /* \"#utility.yul\":90:208   */\n      pop\n      pop\n      jump\t// out\n        /* \"#utility.yul\":214:436   */\n    tag_35:\n        /* \"#utility.yul\":307:311   */\n      0x00\n        /* \"#utility.yul\":345:347   */\n      0x20\n        /* \"#utility.yul\":334:343   */\n      dup3\n        /* \"#utility.yul\":330:348   */\n      add\n        /* \"#utility.yul\":322:348   */\n      swap1\n      pop\n        /* \"#utility.yul\":358:429   */\n      tag_625\n        /* \"#utility.yul\":426:427   */\n      0x00\n        /* \"#utility.yul\":415:424   */\n      dup4\n        /* \"#utility.yul\":411:428   */\n      add\n        /* \"#utility.yul\":402:408   */\n      dup5\n        /* \"#utility.yul\":358:429   */\n      tag_514\n      jump\t// in\n    tag_625:\n        /* \"#utility.yul\":214:436   */\n      swap3\n      swap2\n      pop\n      pop\n      jump\t// out\n        /* \"#utility.yul\":442:517   */\n    tag_515:\n        /* \"#utility.yul\":475:481   */\n      0x00\n        /* \"#utility.yul\":508:510   */\n      0x40\n        /* \"#utility.yul\":502:511   */\n      mload\n        /* \"#utility.yul\":492:511   */\n      swap1\n      pop\n        /* \"#utility.yul\":442:517   */\n      swap1\n      jump\t// out\n        /* \"#utility.yul\":523:640   */\n    tag_516:\n        /* \"#utility.yul\":632:633   */\n      0x00\n        /* \"#utility.yul\":629:630   */\n      dup1\n        /* \"#utility.yul\":622:634   */\n      revert\n        /* \"#utility.yul\":646:763   */\n    tag_517:\n        /* \"#utility.yul\":755:756   */\n      0x00\n        /* \"#utility.yul\":752:753   */\n      dup1\n        /* \"#utility.yul\":745:757   */\n      revert\n        /* \"#utility.yul\":769:891   */\n    tag_518:\n        /* \"#utility.yul\":842:866   */\n      tag_630\n        /* \"#utility.yul\":860:865   */\n      dup2\n        /* \"#utility.yul\":842:866   */\n      tag_513\n      jump\t// in\n    tag_630:\n        /* \"#utility.yul\":835:840   */\n      dup2\n        /* \"#utility.yul\":832:867   */\n      eq\n        /* \"#utility.yul\":822:885   */\n      tag_631\n      jumpi\n        /* \"#utility.yul\":881:882   */\n      0x00\n        /* \"#utility.yul\":878:879   */\n      dup1\n        /* \"#utility.yul\":871:883   */\n      revert\n        /* \"#utility.yul\":822:885   */\n    tag_631:\n        /* \"#utility.yul\":769:891   */\n      pop\n      jump\t// out\n        /* \"#utility.yul\":897:1036   */\n    tag_519:\n        /* \"#utility.yul\":943:948   */\n      0x00\n        /* \"#utility.yul\":981:987   */\n      dup2\n        /* \"#utility.yul\":968:988   */\n      calldataload\n        /* \"#utility.yul\":959:988   */\n      swap1\n      pop\n        /* \"#utility.yul\":997:1030   */\n      tag_633\n        /* \"#utility.yul\":1024:1029   */\n      dup2\n        /* \"#utility.yul\":997:1030   */\n      tag_518\n      jump\t// in\n    tag_633:\n        /* \"#utility.yul\":897:1036   */\n      swap3\n      swap2\n      pop\n      pop\n      jump\t// out\n        /* \"#utility.yul\":1042:1159   */\n    tag_520:\n        /* \"#utility.yul\":1151:1152   */\n      0x00\n        /* \"#utility.yul\":1148:1149   */\n      dup1\n        /* \"#utility.yul\":1141:1153   */\n      revert\n        /* \"#utility.yul\":1165:1282   */\n    tag_521:\n        /* \"#utility.yul\":1274:1275   */\n      0x00\n        /* \"#utility.yul\":1271:1272   */\n      dup1\n        /* \"#utility.yul\":1264:1276   */\n      revert\n        /* \"#utility.yul\":1288:1390   */\n    tag_522:\n        /* \"#utility.yul\":1329:1335   */\n      0x00\n        /* \"#utility.yul\":1380:1382   */\n      0x1f\n        /* \"#utility.yul\":1376:1383   */\n      not\n        /* \"#utility.yul\":1371:1373   */\n      0x1f\n        /* \"#utility.yul\":1364:1369   */\n      dup4\n        /* \"#utility.yul\":1360:1374   */\n      add\n        /* \"#utility.yul\":1356:1384   */\n      and\n        /* \"#utility.yul\":1346:1384   */\n      swap1\n      pop\n        /* \"#utility.yul\":1288:1390   */\n      swap2\n      swap1\n      pop\n      jump\t// out\n        /* \"#utility.yul\":1396:1576   */\n    tag_523:\n        /* \"#utility.yul\":1444:1521   */\n      0x4e487b7100000000000000000000000000000000000000000000000000000000\n        /* \"#utility.yul\":1441:1442   */\n      0x00\n        /* \"#utility.yul\":1434:1522   */\n      mstore\n        /* \"#utility.yul\":1541:1545   */\n      0x41\n        /* \"#utility.yul\":1538:1539   */\n      0x04\n        /* \"#utility.yul\":1531:1546   */\n      mstore\n        /* \"#utility.yul\":1565:1569   */\n      0x24\n        /* \"#utility.yul\":1562:1563   */\n      0x00\n        /* \"#utility.yul\":1555:1570   */\n      revert\n        /* \"#utility.yul\":1582:1863   */\n    tag_524:\n        /* \"#utility.yul\":1665:1692   */\n      tag_639\n        /* \"#utility.yul\":1687:1691   */\n      dup3\n        /* \"#utility.yul\":1665:1692   */\n      tag_522\n      jump\t// in\n    tag_639:\n        /* \"#utility.yul\":1657:1663   */\n      dup2\n        /* \"#utility.yul\":1653:1693   */\n      add\n        /* \"#utility.yul\":1795:1801   */\n      dup2\n        /* \"#utility.yul\":1783:1793   */\n      dup2\n        /* \"#utility.yul\":1780:1802   */\n      lt\n        /* \"#utility.yul\":1759:1777   */\n      0xffffffffffffffff\n        /* \"#utility.yul\":1747:1757   */\n      dup3\n        /* \"#utility.yul\":1744:1778   */\n      gt\n        /* \"#utility.yul\":1741:1803   */\n      or\n        /* \"#utility.yul\":1738:1826   */\n      iszero\n      tag_640\n      jumpi\n        /* \"#utility.yul\":1806:1824   */\n      tag_641\n      tag_523\n      jump\t// in\n    tag_641:\n        /* \"#utility.yul\":1738:1826   */\n    tag_640:\n        /* \"#utility.yul\":1846:1856   */\n      dup1\n        /* \"#utility.yul\":1842:1844   */\n      0x40\n        /* \"#utility.yul\":1835:1857   */\n      mstore\n        /* \"#utility.yul\":1625:1863   */\n      pop\n        /* \"#utility.yul\":1582:1863   */\n      pop\n      pop\n      jump\t// out\n        /* \"#utility.yul\":1869:1998   */\n    tag_525:\n        /* \"#utility.yul\":1903:1909   */\n      0x00\n        /* \"#utility.yul\":1930:1950   */\n      tag_643\n      tag_515\n      jump\t// in\n    tag_643:\n        /* \"#utility.yul\":1920:1950   */\n      swap1\n      pop\n        /* \"#utility.yul\":1959:1992   */\n      tag_644\n        /* \"#utility.yul\":1987:1991   */\n      dup3\n        /* \"#utility.yul\":1979:1985   */\n      dup3\n        /* \"#utility.yul\":1959:1992   */\n      tag_524\n      jump\t// in\n    tag_644:\n        /* \"#utility.yul\":1869:1998   */\n      swap2\n      swap1\n      pop\n      jump\t// out\n        /* \"#utility.yul\":2004:2312   */\n    tag_526:\n        /* \"#utility.yul\":2066:2070   */\n      0x00\n        /* \"#utility.yul\":2156:2174   */\n      0xffffffffffffffff\n        /* \"#utility.yul\":2148:2154   */\n      dup3\n        /* \"#utility.yul\":2145:2175   */\n      gt\n        /* \"#utility.yul\":2142:2198   */\n      iszero\n      tag_646\n      jumpi\n        /* \"#utility.yul\":2178:2196   */\n      tag_647\n      tag_523\n      jump\t// in\n    tag_647:\n        /* \"#utility.yul\":2142:2198   */\n    tag_646:\n        /* \"#utility.yul\":2216:2245   */\n      tag_648\n        /* \"#utility.yul\":2238:2244   */\n      dup3\n        /* \"#utility.yul\":2216:2245   */\n      tag_522\n      jump\t// in\n    tag_648:\n        /* \"#utility.yul\":2208:2245   */\n      swap1\n      pop\n        /* \"#utility.yul\":2300:2304   */\n      0x20\n        /* \"#utility.yul\":2294:2298   */\n      dup2\n        /* \"#utility.yul\":2290:2305   */\n      add\n        /* \"#utility.yul\":2282:2305   */\n      swap1\n      pop\n        /* \"#utility.yul\":2004:2312   */\n      swap2\n      swap1\n      pop\n      jump\t// out\n        /* \"#utility.yul\":2318:2466   */\n    tag_527:\n        /* \"#utility.yul\":2416:2422   */\n      dup3\n        /* \"#utility.yul\":2411:2414   */\n      dup2\n        /* \"#utility.yul\":2406:2409   */\n      dup4\n        /* \"#utility.yul\":2393:2423   */\n      calldatacopy\n        /* \"#utility.yul\":2457:2458   */\n      0x00\n        /* \"#utility.yul\":2448:2454   */\n      dup4\n        /* \"#utility.yul\":2443:2446   */\n      dup4\n        /* \"#utility.yul\":2439:2455   */\n      add\n        /* \"#utility.yul\":2432:2459   */\n      mstore\n        /* \"#utility.yul\":2318:2466   */\n      pop\n      pop\n      pop\n      jump\t// out\n        /* \"#utility.yul\":2472:2897   */\n    tag_528:\n        /* \"#utility.yul\":2550:2555   */\n      0x00\n        /* \"#utility.yul\":2575:2641   */\n      tag_651\n        /* \"#utility.yul\":2591:2640   */\n      tag_652\n        /* \"#utility.yul\":2633:2639   */\n      dup5\n        /* \"#utility.yul\":2591:2640   */\n      tag_526\n      jump\t// in\n    tag_652:\n        /* \"#utility.yul\":2575:2641   */\n      tag_525\n      jump\t// in\n    tag_651:\n        /* \"#utility.yul\":2566:2641   */\n      swap1\n      pop\n        /* \"#utility.yul\":2664:2670   */\n      dup3\n        /* \"#utility.yul\":2657:2662   */\n      dup2\n        /* \"#utility.yul\":2650:2671   */\n      mstore\n        /* \"#utility.yul\":2702:2706   */\n      0x20\n        /* \"#utility.yul\":2695:2700   */\n      dup2\n        /* \"#utility.yul\":2691:2707   */\n      add\n        /* \"#utility.yul\":2740:2743   */\n      dup5\n        /* \"#utility.yul\":2731:2737   */\n      dup5\n        /* \"#utility.yul\":2726:2729   */\n      dup5\n        /* \"#utility.yul\":2722:2738   */\n      add\n        /* \"#utility.yul\":2719:2744   */\n      gt\n        /* \"#utility.yul\":2716:2828   */\n      iszero\n      tag_653\n      jumpi\n        /* \"#utility.yul\":2747:2826   */\n      tag_654\n      tag_521\n      jump\t// in\n    tag_654:\n        /* \"#utility.yul\":2716:2828   */\n    tag_653:\n        /* \"#utility.yul\":2837:2891   */\n      tag_655\n        /* \"#utility.yul\":2884:2890   */\n      dup5\n        /* \"#utility.yul\":2879:2882   */\n      dup3\n        /* \"#utility.yul\":2874:2877   */\n      dup6\n        /* \"#utility.yul\":2837:2891   */\n      tag_527\n      jump\t// in\n    tag_655:\n        /* \"#utility.yul\":2556:2897   */\n      pop\n        /* \"#utility.yul\":2472:2897   */\n      swap4\n      swap3\n      pop\n      pop\n      pop\n      jump\t// out\n        /* \"#utility.yul\":2917:3257   */\n    tag_529:\n        /* \"#utility.yul\":2973:2978   */\n      0x00\n        /* \"#utility.yul\":3022:3025   */\n      dup3\n        /* \"#utility.yul\":3015:3019   */\n      0x1f\n        /* \"#utility.yul\":3007:3013   */\n      dup4\n        /* \"#utility.yul\":3003:3020   */\n      add\n        /* \"#utility.yul\":2999:3026   */\n      slt\n        /* \"#utility.yul\":2989:3111   */\n      tag_657\n      jumpi\n        /* \"#utility.yul\":3030:3109   */\n      tag_658\n      tag_520\n      jump\t// in\n    tag_658:\n        /* \"#utility.yul\":2989:3111   */\n    tag_657:\n        /* \"#utility.yul\":3147:3153   */\n      dup2\n        /* \"#utility.yul\":3134:3154   */\n      calldataload\n        /* \"#utility.yul\":3172:3251   */\n      tag_659\n        /* \"#utility.yul\":3247:3250   */\n      dup5\n        /* \"#utility.yul\":3239:3245   */\n      dup3\n        /* \"#utility.yul\":3232:3236   */\n      0x20\n        /* \"#utility.yul\":3224:3230   */\n      dup7\n        /* \"#utility.yul\":3220:3237   */\n      add\n        /* \"#utility.yul\":3172:3251   */\n      tag_528\n      jump\t// in\n    tag_659:\n        /* \"#utility.yul\":3163:3251   */\n      swap2\n      pop\n        /* \"#utility.yul\":2979:3257   */\n      pop\n        /* \"#utility.yul\":2917:3257   */\n      swap3\n      swap2\n      pop\n      pop\n      jump\t// out\n        /* \"#utility.yul\":3263:4062   */\n    tag_39:\n        /* \"#utility.yul\":3350:3356   */\n      0x00\n        /* \"#utility.yul\":3358:3364   */\n      dup1\n        /* \"#utility.yul\":3366:3372   */\n      0x00\n        /* \"#utility.yul\":3415:3417   */\n      0x60\n        /* \"#utility.yul\":3403:3412   */\n      dup5\n        /* \"#utility.yul\":3394:3401   */\n      dup7\n        /* \"#utility.yul\":3390:3413   */\n      sub\n        /* \"#utility.yul\":3386:3418   */\n      slt\n        /* \"#utility.yul\":3383:3502   */\n      iszero\n      tag_661\n      jumpi\n        /* \"#utility.yul\":3421:3500   */\n      tag_662\n      tag_516\n      jump\t// in\n    tag_662:\n        /* \"#utility.yul\":3383:3502   */\n    tag_661:\n        /* \"#utility.yul\":3541:3542   */\n      0x00\n        /* \"#utility.yul\":3566:3619   */\n      tag_663\n        /* \"#utility.yul\":3611:3618   */\n      dup7\n        /* \"#utility.yul\":3602:3608   */\n      dup3\n        /* \"#utility.yul\":3591:3600   */\n      dup8\n        /* \"#utility.yul\":3587:3609   */\n      add\n        /* \"#utility.yul\":3566:3619   */\n      tag_519\n      jump\t// in\n    tag_663:\n        /* \"#utility.yul\":3556:3619   */\n      swap4\n      pop\n        /* \"#utility.yul\":3512:3629   */\n      pop\n        /* \"#utility.yul\":3668:3670   */\n      0x20\n        /* \"#utility.yul\":3694:3747   */\n      tag_664\n        /* \"#utility.yul\":3739:3746   */\n      dup7\n        /* \"#utility.yul\":3730:3736   */\n      dup3\n        /* \"#utility.yul\":3719:3728   */\n      dup8\n        /* \"#utility.yul\":3715:3737   */\n      add\n        /* \"#utility.yul\":3694:3747   */\n      tag_519\n      jump\t// in\n    tag_664:\n        /* \"#utility.yul\":3684:3747   */\n      swap3\n      pop\n        /* \"#utility.yul\":3639:3757   */\n      pop\n        /* \"#utility.yul\":3824:3826   */\n      0x40\n        /* \"#utility.yul\":3813:3822   */\n      dup5\n        /* \"#utility.yul\":3809:3827   */\n      add\n        /* \"#utility.yul\":3796:3828   */\n      calldataload\n        /* \"#utility.yul\":3855:3873   */\n      0xffffffffffffffff\n        /* \"#utility.yul\":3847:3853   */\n      dup2\n        /* \"#utility.yul\":3844:3874   */\n      gt\n        /* \"#utility.yul\":3841:3958   */\n      iszero\n      tag_665\n      jumpi\n        /* \"#utility.yul\":3877:3956   */\n      tag_666\n      tag_517\n      jump\t// in\n    tag_666:\n        /* \"#utility.yul\":3841:3958   */\n    tag_665:\n        /* \"#utility.yul\":3982:4045   */\n      tag_667\n        /* \"#utility.yul\":4037:4044   */\n      dup7\n        /* \"#utility.yul\":4028:4034   */\n      dup3\n        /* \"#utility.yul\":4017:4026   */\n      dup8\n        /* \"#utility.yul\":4013:4035   */\n      add\n        /* \"#utility.yul\":3982:4045   */\n      tag_529\n      jump\t// in\n    tag_667:\n        /* \"#utility.yul\":3972:4045   */\n      swap2\n      pop\n        /* \"#utility.yul\":3767:4055   */\n      pop\n        /* \"#utility.yul\":3263:4062   */\n      swap3\n      pop\n      swap3\n      pop\n      swap3\n      jump\t// out\n        /* \"#utility.yul\":4068:4397   */\n    tag_44:\n        /* \"#utility.yul\":4127:4133   */\n      0x00\n        /* \"#utility.yul\":4176:4178   */\n      0x20\n        /* \"#utility.yul\":4164:4173   */\n      dup3\n        /* \"#utility.yul\":4155:4162   */\n      dup5\n        /* \"#utility.yul\":4151:4174   */\n      sub\n        /* \"#utility.yul\":4147:4179   */\n      slt\n        /* \"#utility.yul\":4144:4263   */\n      iszero\n      tag_669\n      jumpi\n        /* \"#utility.yul\":4182:4261   */\n      tag_670\n      tag_516\n      jump\t// in\n    tag_670:\n        /* \"#utility.yul\":4144:4263   */\n    tag_669:\n        /* \"#utility.yul\":4302:4303   */\n      0x00\n        /* \"#utility.yul\":4327:4380   */\n      tag_671\n        /* \"#utility.yul\":4372:4379   */\n      dup5\n        /* \"#utility.yul\":4363:4369   */\n      dup3\n        /* \"#utility.yul\":4352:4361   */\n      dup6\n        /* \"#utility.yul\":4348:4370   */\n      add\n        /* \"#utility.yul\":4327:4380   */\n      tag_519\n      jump\t// in\n    tag_671:\n        /* \"#utility.yul\":4317:4380   */\n      swap2\n      pop\n        /* \"#utility.yul\":4273:4390   */\n      pop\n        /* \"#utility.yul\":4068:4397   */\n      swap3\n      swap2\n      pop\n      pop\n      jump\t// out\n        /* \"#utility.yul\":4403:4529   */\n    tag_530:\n        /* \"#utility.yul\":4440:4447   */\n      0x00\n        /* \"#utility.yul\":4480:4522   */\n      0xffffffffffffffffffffffffffffffffffffffff\n        /* \"#utility.yul\":4473:4478   */\n      dup3\n        /* \"#utility.yul\":4469:4523   */\n      and\n        /* \"#utility.yul\":4458:4523   */\n      swap1\n      pop\n        /* \"#utility.yul\":4403:4529   */\n      swap2\n      swap1\n      pop\n      jump\t// out\n        /* \"#utility.yul\":4535:4631   */\n    tag_531:\n        /* \"#utility.yul\":4572:4579   */\n      0x00\n        /* \"#utility.yul\":4601:4625   */\n      tag_674\n        /* \"#utility.yul\":4619:4624   */\n      dup3\n        /* \"#utility.yul\":4601:4625   */\n      tag_530\n      jump\t// in\n    tag_674:\n        /* \"#utility.yul\":4590:4625   */\n      swap1\n      pop\n        /* \"#utility.yul\":4535:4631   */\n      swap2\n      swap1\n      pop\n      jump\t// out\n        /* \"#utility.yul\":4637:4755   */\n    tag_532:\n        /* \"#utility.yul\":4724:4748   */\n      tag_676\n        /* \"#utility.yul\":4742:4747   */\n      dup2\n        /* \"#utility.yul\":4724:4748   */\n      tag_531\n      jump\t// in\n    tag_676:\n        /* \"#utility.yul\":4719:4722   */\n      dup3\n        /* \"#utility.yul\":4712:4749   */\n      mstore\n        /* \"#utility.yul\":4637:4755   */\n      pop\n      pop\n      jump\t// out\n        /* \"#utility.yul\":4761:4860   */\n    tag_533:\n        /* \"#utility.yul\":4813:4819   */\n      0x00\n        /* \"#utility.yul\":4847:4852   */\n      dup2\n        /* \"#utility.yul\":4841:4853   */\n      mload\n        /* \"#utility.yul\":4831:4853   */\n      swap1\n      pop\n        /* \"#utility.yul\":4761:4860   */\n      swap2\n      swap1\n      pop\n      jump\t// out\n        /* \"#utility.yul\":4866:5035   */\n    tag_534:\n        /* \"#utility.yul\":4950:4961   */\n      0x00\n        /* \"#utility.yul\":4984:4990   */\n      dup3\n        /* \"#utility.yul\":4979:4982   */\n      dup3\n        /* \"#utility.yul\":4972:4991   */\n      mstore\n        /* \"#utility.yul\":5024:5028   */\n      0x20\n        /* \"#utility.yul\":5019:5022   */\n      dup3\n        /* \"#utility.yul\":5015:5029   */\n      add\n        /* \"#utility.yul\":5000:5029   */\n      swap1\n      pop\n        /* \"#utility.yul\":4866:5035   */\n      swap3\n      swap2\n      pop\n      pop\n      jump\t// out\n        /* \"#utility.yul\":5041:5180   */\n    tag_535:\n        /* \"#utility.yul\":5130:5136   */\n      dup3\n        /* \"#utility.yul\":5125:5128   */\n      dup2\n        /* \"#utility.yul\":5120:5123   */\n      dup4\n        /* \"#utility.yul\":5114:5137   */\n      mcopy\n        /* \"#utility.yul\":5171:5172   */\n      0x00\n        /* \"#utility.yul\":5162:5168   */\n      dup4\n        /* \"#utility.yul\":5157:5160   */\n      dup4\n        /* \"#utility.yul\":5153:5169   */\n      add\n        /* \"#utility.yul\":5146:5173   */\n      mstore\n        /* \"#utility.yul\":5041:5180   */\n      pop\n      pop\n      pop\n      jump\t// out\n        /* \"#utility.yul\":5186:5563   */\n    tag_536:\n        /* \"#utility.yul\":5274:5277   */\n      0x00\n        /* \"#utility.yul\":5302:5341   */\n      tag_681\n        /* \"#utility.yul\":5335:5340   */\n      dup3\n        /* \"#utility.yul\":5302:5341   */\n      tag_533\n      jump\t// in\n    tag_681:\n        /* \"#utility.yul\":5357:5428   */\n      tag_682\n        /* \"#utility.yul\":5421:5427   */\n      dup2\n        /* \"#utility.yul\":5416:5419   */\n      dup6\n        /* \"#utility.yul\":5357:5428   */\n      tag_534\n      jump\t// in\n    tag_682:\n        /* \"#utility.yul\":5350:5428   */\n      swap4\n      pop\n        /* \"#utility.yul\":5437:5502   */\n      tag_683\n        /* \"#utility.yul\":5495:5501   */\n      dup2\n        /* \"#utility.yul\":5490:5493   */\n      dup6\n        /* \"#utility.yul\":5483:5487   */\n      0x20\n        /* \"#utility.yul\":5476:5481   */\n      dup7\n        /* \"#utility.yul\":5472:5488   */\n      add\n        /* \"#utility.yul\":5437:5502   */\n      tag_535\n      jump\t// in\n    tag_683:\n        /* \"#utility.yul\":5527:5556   */\n      tag_684\n        /* \"#utility.yul\":5549:5555   */\n      dup2\n        /* \"#utility.yul\":5527:5556   */\n      tag_522\n      jump\t// in\n    tag_684:\n        /* \"#utility.yul\":5522:5525   */\n      dup5\n        /* \"#utility.yul\":5518:5557   */\n      add\n        /* \"#utility.yul\":5511:5557   */\n      swap2\n      pop\n        /* \"#utility.yul\":5278:5563   */\n      pop\n        /* \"#utility.yul\":5186:5563   */\n      swap3\n      swap2\n      pop\n      pop\n      jump\t// out\n        /* \"#utility.yul\":5569:5749   */\n    tag_174:\n        /* \"#utility.yul\":5617:5694   */\n      0x4e487b7100000000000000000000000000000000000000000000000000000000\n        /* \"#utility.yul\":5614:5615   */\n      0x00\n        /* \"#utility.yul\":5607:5695   */\n      mstore\n        /* \"#utility.yul\":5714:5718   */\n      0x21\n        /* \"#utility.yul\":5711:5712   */\n      0x04\n        /* \"#utility.yul\":5704:5719   */\n      mstore\n        /* \"#utility.yul\":5738:5742   */\n      0x24\n        /* \"#utility.yul\":5735:5736   */\n      0x00\n        /* \"#utility.yul\":5728:5743   */\n      revert\n        /* \"#utility.yul\":5755:5875   */\n    tag_537:\n        /* \"#utility.yul\":5843:5844   */\n      0x04\n        /* \"#utility.yul\":5836:5841   */\n      dup2\n        /* \"#utility.yul\":5833:5845   */\n      lt\n        /* \"#utility.yul\":5823:5869   */\n      tag_687\n      jumpi\n        /* \"#utility.yul\":5849:5867   */\n      tag_688\n      tag_174\n      jump\t// in\n    tag_688:\n        /* \"#utility.yul\":5823:5869   */\n    tag_687:\n        /* \"#utility.yul\":5755:5875   */\n      pop\n      jump\t// out\n        /* \"#utility.yul\":5881:6022   */\n    tag_538:\n        /* \"#utility.yul\":5933:5940   */\n      0x00\n        /* \"#utility.yul\":5962:5967   */\n      dup2\n        /* \"#utility.yul\":5951:5967   */\n      swap1\n      pop\n        /* \"#utility.yul\":5968:6016   */\n      tag_690\n        /* \"#utility.yul\":6010:6015   */\n      dup3\n        /* \"#utility.yul\":5968:6016   */\n      tag_537\n      jump\t// in\n    tag_690:\n        /* \"#utility.yul\":5881:6022   */\n      swap2\n      swap1\n      pop\n      jump\t// out\n        /* \"#utility.yul\":6028:6169   */\n    tag_539:\n        /* \"#utility.yul\":6091:6100   */\n      0x00\n        /* \"#utility.yul\":6124:6163   */\n      tag_692\n        /* \"#utility.yul\":6157:6162   */\n      dup3\n        /* \"#utility.yul\":6124:6163   */\n      tag_538\n      jump\t// in\n    tag_692:\n        /* \"#utility.yul\":6111:6163   */\n      swap1\n      pop\n        /* \"#utility.yul\":6028:6169   */\n      swap2\n      swap1\n      pop\n      jump\t// out\n        /* \"#utility.yul\":6175:6332   */\n    tag_540:\n        /* \"#utility.yul\":6275:6325   */\n      tag_694\n        /* \"#utility.yul\":6319:6324   */\n      dup2\n        /* \"#utility.yul\":6275:6325   */\n      tag_539\n      jump\t// in\n    tag_694:\n        /* \"#utility.yul\":6270:6273   */\n      dup3\n        /* \"#utility.yul\":6263:6326   */\n      mstore\n        /* \"#utility.yul\":6175:6332   */\n      pop\n      pop\n      jump\t// out\n        /* \"#utility.yul\":6338:6442   */\n    tag_541:\n        /* \"#utility.yul\":6383:6390   */\n      0x00\n        /* \"#utility.yul\":6412:6436   */\n      tag_696\n        /* \"#utility.yul\":6430:6435   */\n      dup3\n        /* \"#utility.yul\":6412:6436   */\n      tag_530\n      jump\t// in\n    tag_696:\n        /* \"#utility.yul\":6401:6436   */\n      swap1\n      pop\n        /* \"#utility.yul\":6338:6442   */\n      swap2\n      swap1\n      pop\n      jump\t// out\n        /* \"#utility.yul\":6448:6590   */\n    tag_542:\n        /* \"#utility.yul\":6551:6583   */\n      tag_698\n        /* \"#utility.yul\":6577:6582   */\n      dup2\n        /* \"#utility.yul\":6551:6583   */\n      tag_541\n      jump\t// in\n    tag_698:\n        /* \"#utility.yul\":6546:6549   */\n      dup3\n        /* \"#utility.yul\":6539:6584   */\n      mstore\n        /* \"#utility.yul\":6448:6590   */\n      pop\n      pop\n      jump\t// out\n        /* \"#utility.yul\":6596:7722   */\n    tag_52:\n        /* \"#utility.yul\":6926:6930   */\n      0x00\n        /* \"#utility.yul\":6964:6967   */\n      0xe0\n        /* \"#utility.yul\":6953:6962   */\n      dup3\n        /* \"#utility.yul\":6949:6968   */\n      add\n        /* \"#utility.yul\":6941:6968   */\n      swap1\n      pop\n        /* \"#utility.yul\":6978:7049   */\n      tag_700\n        /* \"#utility.yul\":7046:7047   */\n      0x00\n        /* \"#utility.yul\":7035:7044   */\n      dup4\n        /* \"#utility.yul\":7031:7048   */\n      add\n        /* \"#utility.yul\":7022:7028   */\n      dup11\n        /* \"#utility.yul\":6978:7049   */\n      tag_532\n      jump\t// in\n    tag_700:\n        /* \"#utility.yul\":7096:7105   */\n      dup2\n        /* \"#utility.yul\":7090:7094   */\n      dup2\n        /* \"#utility.yul\":7086:7106   */\n      sub\n        /* \"#utility.yul\":7081:7083   */\n      0x20\n        /* \"#utility.yul\":7070:7079   */\n      dup4\n        /* \"#utility.yul\":7066:7084   */\n      add\n        /* \"#utility.yul\":7059:7107   */\n      mstore\n        /* \"#utility.yul\":7124:7202   */\n      tag_701\n        /* \"#utility.yul\":7197:7201   */\n      dup2\n        /* \"#utility.yul\":7188:7194   */\n      dup10\n        /* \"#utility.yul\":7124:7202   */\n      tag_536\n      jump\t// in\n    tag_701:\n        /* \"#utility.yul\":7116:7202   */\n      swap1\n      pop\n        /* \"#utility.yul\":7249:7258   */\n      dup2\n        /* \"#utility.yul\":7243:7247   */\n      dup2\n        /* \"#utility.yul\":7239:7259   */\n      sub\n        /* \"#utility.yul\":7234:7236   */\n      0x40\n        /* \"#utility.yul\":7223:7232   */\n      dup4\n        /* \"#utility.yul\":7219:7237   */\n      add\n        /* \"#utility.yul\":7212:7260   */\n      mstore\n        /* \"#utility.yul\":7277:7355   */\n      tag_702\n        /* \"#utility.yul\":7350:7354   */\n      dup2\n        /* \"#utility.yul\":7341:7347   */\n      dup9\n        /* \"#utility.yul\":7277:7355   */\n      tag_536\n      jump\t// in\n    tag_702:\n        /* \"#utility.yul\":7269:7355   */\n      swap1\n      pop\n        /* \"#utility.yul\":7365:7437   */\n      tag_703\n        /* \"#utility.yul\":7433:7435   */\n      0x60\n        /* \"#utility.yul\":7422:7431   */\n      dup4\n        /* \"#utility.yul\":7418:7436   */\n      add\n        /* \"#utility.yul\":7409:7415   */\n      dup8\n        /* \"#utility.yul\":7365:7437   */\n      tag_514\n      jump\t// in\n    tag_703:\n        /* \"#utility.yul\":7447:7520   */\n      tag_704\n        /* \"#utility.yul\":7515:7518   */\n      0x80\n        /* \"#utility.yul\":7504:7513   */\n      dup4\n        /* \"#utility.yul\":7500:7519   */\n      add\n        /* \"#utility.yul\":7491:7497   */\n      dup7\n        /* \"#utility.yul\":7447:7520   */\n      tag_514\n      jump\t// in\n    tag_704:\n        /* \"#utility.yul\":7530:7616   */\n      tag_705\n        /* \"#utility.yul\":7611:7614   */\n      0xa0\n        /* \"#utility.yul\":7600:7609   */\n      dup4\n        /* \"#utility.yul\":7596:7615   */\n      add\n        /* \"#utility.yul\":7587:7593   */\n      dup6\n        /* \"#utility.yul\":7530:7616   */\n      tag_540\n      jump\t// in\n    tag_705:\n        /* \"#utility.yul\":7626:7715   */\n      tag_706\n        /* \"#utility.yul\":7710:7713   */\n      0xc0\n        /* \"#utility.yul\":7699:7708   */\n      dup4\n        /* \"#utility.yul\":7695:7714   */\n      add\n        /* \"#utility.yul\":7686:7692   */\n      dup5\n        /* \"#utility.yul\":7626:7715   */\n      tag_542\n      jump\t// in\n    tag_706:\n        /* \"#utility.yul\":6596:7722   */\n      swap9\n      swap8\n      pop\n      pop\n      pop\n      pop\n      pop\n      pop\n      pop\n      pop\n      jump\t// out\n        /* \"#utility.yul\":7728:8527   */\n    tag_60:\n        /* \"#utility.yul\":7815:7821   */\n      0x00\n        /* \"#utility.yul\":7823:7829   */\n      dup1\n        /* \"#utility.yul\":7831:7837   */\n      0x00\n        /* \"#utility.yul\":7880:7882   */\n      0x60\n        /* \"#utility.yul\":7868:7877   */\n      dup5\n        /* \"#utility.yul\":7859:7866   */\n      dup7\n        /* \"#utility.yul\":7855:7878   */\n      sub\n        /* \"#utility.yul\":7851:7883   */\n      slt\n        /* \"#utility.yul\":7848:7967   */\n      iszero\n      tag_708\n      jumpi\n        /* \"#utility.yul\":7886:7965   */\n      tag_709\n      tag_516\n      jump\t// in\n    tag_709:\n        /* \"#utility.yul\":7848:7967   */\n    tag_708:\n        /* \"#utility.yul\":8006:8007   */\n      0x00\n        /* \"#utility.yul\":8031:8084   */\n      tag_710\n        /* \"#utility.yul\":8076:8083   */\n      dup7\n        /* \"#utility.yul\":8067:8073   */\n      dup3\n        /* \"#utility.yul\":8056:8065   */\n      dup8\n        /* \"#utility.yul\":8052:8074   */\n      add\n        /* \"#utility.yul\":8031:8084   */\n      tag_519\n      jump\t// in\n    tag_710:\n        /* \"#utility.yul\":8021:8084   */\n      swap4\n      pop\n        /* \"#utility.yul\":7977:8094   */\n      pop\n        /* \"#utility.yul\":8161:8163   */\n      0x20\n        /* \"#utility.yul\":8150:8159   */\n      dup5\n        /* \"#utility.yul\":8146:8164   */\n      add\n        /* \"#utility.yul\":8133:8165   */\n      calldataload\n        /* \"#utility.yul\":8192:8210   */\n      0xffffffffffffffff\n        /* \"#utility.yul\":8184:8190   */\n      dup2\n        /* \"#utility.yul\":8181:8211   */\n      gt\n        /* \"#utility.yul\":8178:8295   */\n      iszero\n      tag_711\n      jumpi\n        /* \"#utility.yul\":8214:8293   */\n      tag_712\n      tag_517\n      jump\t// in\n    tag_712:\n        /* \"#utility.yul\":8178:8295   */\n    tag_711:\n        /* \"#utility.yul\":8319:8382   */\n      tag_713\n        /* \"#utility.yul\":8374:8381   */\n      dup7\n        /* \"#utility.yul\":8365:8371   */\n      dup3\n        /* \"#utility.yul\":8354:8363   */\n      dup8\n        /* \"#utility.yul\":8350:8372   */\n      add\n        /* \"#utility.yul\":8319:8382   */\n      tag_529\n      jump\t// in\n    tag_713:\n        /* \"#utility.yul\":8309:8382   */\n      swap3\n      pop\n        /* \"#utility.yul\":8104:8392   */\n      pop\n        /* \"#utility.yul\":8431:8433   */\n      0x40\n        /* \"#utility.yul\":8457:8510   */\n      tag_714\n        /* \"#utility.yul\":8502:8509   */\n      dup7\n        /* \"#utility.yul\":8493:8499   */\n      dup3\n        /* \"#utility.yul\":8482:8491   */\n      dup8\n        /* \"#utility.yul\":8478:8500   */\n      add\n        /* \"#utility.yul\":8457:8510   */\n      tag_519\n      jump\t// in\n    tag_714:\n        /* \"#utility.yul\":8447:8510   */\n      swap2\n      pop\n        /* \"#utility.yul\":8402:8520   */\n      pop\n        /* \"#utility.yul\":7728:8527   */\n      swap3\n      pop\n      swap3\n      pop\n      swap3\n      jump\t// out\n        /* \"#utility.yul\":8533:9007   */\n    tag_65:\n        /* \"#utility.yul\":8601:8607   */\n      0x00\n        /* \"#utility.yul\":8609:8615   */\n      dup1\n        /* \"#utility.yul\":8658:8660   */\n      0x40\n        /* \"#utility.yul\":8646:8655   */\n      dup4\n        /* \"#utility.yul\":8637:8644   */\n      dup6\n        /* \"#utility.yul\":8633:8656   */\n      sub\n        /* \"#utility.yul\":8629:8661   */\n      slt\n        /* \"#utility.yul\":8626:8745   */\n      iszero\n      tag_716\n      jumpi\n        /* \"#utility.yul\":8664:8743   */\n      tag_717\n      tag_516\n      jump\t// in\n    tag_717:\n        /* \"#utility.yul\":8626:8745   */\n    tag_716:\n        /* \"#utility.yul\":8784:8785   */\n      0x00\n        /* \"#utility.yul\":8809:8862   */\n      tag_718\n        /* \"#utility.yul\":8854:8861   */\n      dup6\n        /* \"#utility.yul\":8845:8851   */\n      dup3\n        /* \"#utility.yul\":8834:8843   */\n      dup7\n        /* \"#utility.yul\":8830:8852   */\n      add\n        /* \"#utility.yul\":8809:8862   */\n      tag_519\n      jump\t// in\n    tag_718:\n        /* \"#utility.yul\":8799:8862   */\n      swap3\n      pop\n        /* \"#utility.yul\":8755:8872   */\n      pop\n        /* \"#utility.yul\":8911:8913   */\n      0x20\n        /* \"#utility.yul\":8937:8990   */\n      tag_719\n        /* \"#utility.yul\":8982:8989   */\n      dup6\n        /* \"#utility.yul\":8973:8979   */\n      dup3\n        /* \"#utility.yul\":8962:8971   */\n      dup7\n        /* \"#utility.yul\":8958:8980   */\n      add\n        /* \"#utility.yul\":8937:8990   */\n      tag_519\n      jump\t// in\n    tag_719:\n        /* \"#utility.yul\":8927:8990   */\n      swap2\n      pop\n        /* \"#utility.yul\":8882:9000   */\n      pop\n        /* \"#utility.yul\":8533:9007   */\n      swap3\n      pop\n      swap3\n      swap1\n      pop\n      jump\t// out\n        /* \"#utility.yul\":9013:9103   */\n    tag_543:\n        /* \"#utility.yul\":9047:9054   */\n      0x00\n        /* \"#utility.yul\":9090:9095   */\n      dup2\n        /* \"#utility.yul\":9083:9096   */\n      iszero\n        /* \"#utility.yul\":9076:9097   */\n      iszero\n        /* \"#utility.yul\":9065:9097   */\n      swap1\n      pop\n        /* \"#utility.yul\":9013:9103   */\n      swap2\n      swap1\n      pop\n      jump\t// out\n        /* \"#utility.yul\":9109:9218   */\n    tag_544:\n        /* \"#utility.yul\":9190:9211   */\n      tag_722\n        /* \"#utility.yul\":9205:9210   */\n      dup2\n        /* \"#utility.yul\":9190:9211   */\n      tag_543\n      jump\t// in\n    tag_722:\n        /* \"#utility.yul\":9185:9188   */\n      dup3\n        /* \"#utility.yul\":9178:9212   */\n      mstore\n        /* \"#utility.yul\":9109:9218   */\n      pop\n      pop\n      jump\t// out\n        /* \"#utility.yul\":9224:9856   */\n    tag_76:\n        /* \"#utility.yul\":9415:9419   */\n      0x00\n        /* \"#utility.yul\":9453:9456   */\n      0x80\n        /* \"#utility.yul\":9442:9451   */\n      dup3\n        /* \"#utility.yul\":9438:9457   */\n      add\n        /* \"#utility.yul\":9430:9457   */\n      swap1\n      pop\n        /* \"#utility.yul\":9467:9538   */\n      tag_724\n        /* \"#utility.yul\":9535:9536   */\n      0x00\n        /* \"#utility.yul\":9524:9533   */\n      dup4\n        /* \"#utility.yul\":9520:9537   */\n      add\n        /* \"#utility.yul\":9511:9517   */\n      dup8\n        /* \"#utility.yul\":9467:9538   */\n      tag_532\n      jump\t// in\n    tag_724:\n        /* \"#utility.yul\":9585:9594   */\n      dup2\n        /* \"#utility.yul\":9579:9583   */\n      dup2\n        /* \"#utility.yul\":9575:9595   */\n      sub\n        /* \"#utility.yul\":9570:9572   */\n      0x20\n        /* \"#utility.yul\":9559:9568   */\n      dup4\n        /* \"#utility.yul\":9555:9573   */\n      add\n        /* \"#utility.yul\":9548:9596   */\n      mstore\n        /* \"#utility.yul\":9613:9691   */\n      tag_725\n        /* \"#utility.yul\":9686:9690   */\n      dup2\n        /* \"#utility.yul\":9677:9683   */\n      dup7\n        /* \"#utility.yul\":9613:9691   */\n      tag_536\n      jump\t// in\n    tag_725:\n        /* \"#utility.yul\":9605:9691   */\n      swap1\n      pop\n        /* \"#utility.yul\":9701:9773   */\n      tag_726\n        /* \"#utility.yul\":9769:9771   */\n      0x40\n        /* \"#utility.yul\":9758:9767   */\n      dup4\n        /* \"#utility.yul\":9754:9772   */\n      add\n        /* \"#utility.yul\":9745:9751   */\n      dup6\n        /* \"#utility.yul\":9701:9773   */\n      tag_514\n      jump\t// in\n    tag_726:\n        /* \"#utility.yul\":9783:9849   */\n      tag_727\n        /* \"#utility.yul\":9845:9847   */\n      0x60\n        /* \"#utility.yul\":9834:9843   */\n      dup4\n        /* \"#utility.yul\":9830:9848   */\n      add\n        /* \"#utility.yul\":9821:9827   */\n      dup5\n        /* \"#utility.yul\":9783:9849   */\n      tag_544\n      jump\t// in\n    tag_727:\n        /* \"#utility.yul\":9224:9856   */\n      swap6\n      swap5\n      pop\n      pop\n      pop\n      pop\n      pop\n      jump\t// out\n        /* \"#utility.yul\":9862:9984   */\n    tag_545:\n        /* \"#utility.yul\":9935:9959   */\n      tag_729\n        /* \"#utility.yul\":9953:9958   */\n      dup2\n        /* \"#utility.yul\":9935:9959   */\n      tag_531\n      jump\t// in\n    tag_729:\n        /* \"#utility.yul\":9928:9933   */\n      dup2\n        /* \"#utility.yul\":9925:9960   */\n      eq\n        /* \"#utility.yul\":9915:9978   */\n      tag_730\n      jumpi\n        /* \"#utility.yul\":9974:9975   */\n      0x00\n        /* \"#utility.yul\":9971:9972   */\n      dup1\n        /* \"#utility.yul\":9964:9976   */\n      revert\n        /* \"#utility.yul\":9915:9978   */\n    tag_730:\n        /* \"#utility.yul\":9862:9984   */\n      pop\n      jump\t// out\n        /* \"#utility.yul\":9990:10129   */\n    tag_546:\n        /* \"#utility.yul\":10036:10041   */\n      0x00\n        /* \"#utility.yul\":10074:10080   */\n      dup2\n        /* \"#utility.yul\":10061:10081   */\n      calldataload\n        /* \"#utility.yul\":10052:10081   */\n      swap1\n      pop\n        /* \"#utility.yul\":10090:10123   */\n      tag_732\n        /* \"#utility.yul\":10117:10122   */\n      dup2\n        /* \"#utility.yul\":10090:10123   */\n      tag_545\n      jump\t// in\n    tag_732:\n        /* \"#utility.yul\":9990:10129   */\n      swap3\n      swap2\n      pop\n      pop\n      jump\t// out\n        /* \"#utility.yul\":10135:10609   */\n    tag_84:\n        /* \"#utility.yul\":10203:10209   */\n      0x00\n        /* \"#utility.yul\":10211:10217   */\n      dup1\n        /* \"#utility.yul\":10260:10262   */\n      0x40\n        /* \"#utility.yul\":10248:10257   */\n      dup4\n        /* \"#utility.yul\":10239:10246   */\n      dup6\n        /* \"#utility.yul\":10235:10258   */\n      sub\n        /* \"#utility.yul\":10231:10263   */\n      slt\n        /* \"#utility.yul\":10228:10347   */\n      iszero\n      tag_734\n      jumpi\n        /* \"#utility.yul\":10266:10345   */\n      tag_735\n      tag_516\n      jump\t// in\n    tag_735:\n        /* \"#utility.yul\":10228:10347   */\n    tag_734:\n        /* \"#utility.yul\":10386:10387   */\n      0x00\n        /* \"#utility.yul\":10411:10464   */\n      tag_736\n        /* \"#utility.yul\":10456:10463   */\n      dup6\n        /* \"#utility.yul\":10447:10453   */\n      dup3\n        /* \"#utility.yul\":10436:10445   */\n      dup7\n        /* \"#utility.yul\":10432:10454   */\n      add\n        /* \"#utility.yul\":10411:10464   */\n      tag_519\n      jump\t// in\n    tag_736:\n        /* \"#utility.yul\":10401:10464   */\n      swap3\n      pop\n        /* \"#utility.yul\":10357:10474   */\n      pop\n        /* \"#utility.yul\":10513:10515   */\n      0x20\n        /* \"#utility.yul\":10539:10592   */\n      tag_737\n        /* \"#utility.yul\":10584:10591   */\n      dup6\n        /* \"#utility.yul\":10575:10581   */\n      dup3\n        /* \"#utility.yul\":10564:10573   */\n      dup7\n        /* \"#utility.yul\":10560:10582   */\n      add\n        /* \"#utility.yul\":10539:10592   */\n      tag_546\n      jump\t// in\n    tag_737:\n        /* \"#utility.yul\":10529:10592   */\n      swap2\n      pop\n        /* \"#utility.yul\":10484:10602   */\n      pop\n        /* \"#utility.yul\":10135:10609   */\n      swap3\n      pop\n      swap3\n      swap1\n      pop\n      jump\t// out\n        /* \"#utility.yul\":10615:10825   */\n    tag_87:\n        /* \"#utility.yul\":10702:10706   */\n      0x00\n        /* \"#utility.yul\":10740:10742   */\n      0x20\n        /* \"#utility.yul\":10729:10738   */\n      dup3\n        /* \"#utility.yul\":10725:10743   */\n      add\n        /* \"#utility.yul\":10717:10743   */\n      swap1\n      pop\n        /* \"#utility.yul\":10753:10818   */\n      tag_739\n        /* \"#utility.yul\":10815:10816   */\n      0x00\n        /* \"#utility.yul\":10804:10813   */\n      dup4\n        /* \"#utility.yul\":10800:10817   */\n      add\n        /* \"#utility.yul\":10791:10797   */\n      dup5\n        /* \"#utility.yul\":10753:10818   */\n      tag_544\n      jump\t// in\n    tag_739:\n        /* \"#utility.yul\":10615:10825   */\n      swap3\n      swap2\n      pop\n      pop\n      jump\t// out\n        /* \"#utility.yul\":10831:11594   */\n    tag_93:\n        /* \"#utility.yul\":11058:11062   */\n      0x00\n        /* \"#utility.yul\":11096:11099   */\n      0xc0\n        /* \"#utility.yul\":11085:11094   */\n      dup3\n        /* \"#utility.yul\":11081:11100   */\n      add\n        /* \"#utility.yul\":11073:11100   */\n      swap1\n      pop\n        /* \"#utility.yul\":11110:11181   */\n      tag_741\n        /* \"#utility.yul\":11178:11179   */\n      0x00\n        /* \"#utility.yul\":11167:11176   */\n      dup4\n        /* \"#utility.yul\":11163:11180   */\n      add\n        /* \"#utility.yul\":11154:11160   */\n      dup10\n        /* \"#utility.yul\":11110:11181   */\n      tag_514\n      jump\t// in\n    tag_741:\n        /* \"#utility.yul\":11191:11263   */\n      tag_742\n        /* \"#utility.yul\":11259:11261   */\n      0x20\n        /* \"#utility.yul\":11248:11257   */\n      dup4\n        /* \"#utility.yul\":11244:11262   */\n      add\n        /* \"#utility.yul\":11235:11241   */\n      dup9\n        /* \"#utility.yul\":11191:11263   */\n      tag_532\n      jump\t// in\n    tag_742:\n        /* \"#utility.yul\":11273:11345   */\n      tag_743\n        /* \"#utility.yul\":11341:11343   */\n      0x40\n        /* \"#utility.yul\":11330:11339   */\n      dup4\n        /* \"#utility.yul\":11326:11344   */\n      add\n        /* \"#utility.yul\":11317:11323   */\n      dup8\n        /* \"#utility.yul\":11273:11345   */\n      tag_532\n      jump\t// in\n    tag_743:\n        /* \"#utility.yul\":11355:11427   */\n      tag_744\n        /* \"#utility.yul\":11423:11425   */\n      0x60\n        /* \"#utility.yul\":11412:11421   */\n      dup4\n        /* \"#utility.yul\":11408:11426   */\n      add\n        /* \"#utility.yul\":11399:11405   */\n      dup7\n        /* \"#utility.yul\":11355:11427   */\n      tag_514\n      jump\t// in\n    tag_744:\n        /* \"#utility.yul\":11437:11510   */\n      tag_745\n        /* \"#utility.yul\":11505:11508   */\n      0x80\n        /* \"#utility.yul\":11494:11503   */\n      dup4\n        /* \"#utility.yul\":11490:11509   */\n      add\n        /* \"#utility.yul\":11481:11487   */\n      dup6\n        /* \"#utility.yul\":11437:11510   */\n      tag_514\n      jump\t// in\n    tag_745:\n        /* \"#utility.yul\":11520:11587   */\n      tag_746\n        /* \"#utility.yul\":11582:11585   */\n      0xa0\n        /* \"#utility.yul\":11571:11580   */\n      dup4\n        /* \"#utility.yul\":11567:11586   */\n      add\n        /* \"#utility.yul\":11558:11564   */\n      dup5\n        /* \"#utility.yul\":11520:11587   */\n      tag_544\n      jump\t// in\n    tag_746:\n        /* \"#utility.yul\":10831:11594   */\n      swap8\n      swap7\n      pop\n      pop\n      pop\n      pop\n      pop\n      pop\n      pop\n      jump\t// out\n        /* \"#utility.yul\":11600:11913   */\n    tag_104:\n        /* \"#utility.yul\":11713:11717   */\n      0x00\n        /* \"#utility.yul\":11751:11753   */\n      0x20\n        /* \"#utility.yul\":11740:11749   */\n      dup3\n        /* \"#utility.yul\":11736:11754   */\n      add\n        /* \"#utility.yul\":11728:11754   */\n      swap1\n      pop\n        /* \"#utility.yul\":11800:11809   */\n      dup2\n        /* \"#utility.yul\":11794:11798   */\n      dup2\n        /* \"#utility.yul\":11790:11810   */\n      sub\n        /* \"#utility.yul\":11786:11787   */\n      0x00\n        /* \"#utility.yul\":11775:11784   */\n      dup4\n        /* \"#utility.yul\":11771:11788   */\n      add\n        /* \"#utility.yul\":11764:11811   */\n      mstore\n        /* \"#utility.yul\":11828:11906   */\n      tag_748\n        /* \"#utility.yul\":11901:11905   */\n      dup2\n        /* \"#utility.yul\":11892:11898   */\n      dup5\n        /* \"#utility.yul\":11828:11906   */\n      tag_536\n      jump\t// in\n    tag_748:\n        /* \"#utility.yul\":11820:11906   */\n      swap1\n      pop\n        /* \"#utility.yul\":11600:11913   */\n      swap3\n      swap2\n      pop\n      pop\n      jump\t// out\n        /* \"#utility.yul\":11919:13044   */\n    tag_111:\n        /* \"#utility.yul\":12025:12031   */\n      0x00\n        /* \"#utility.yul\":12033:12039   */\n      dup1\n        /* \"#utility.yul\":12041:12047   */\n      0x00\n        /* \"#utility.yul\":12049:12055   */\n      dup1\n        /* \"#utility.yul\":12098:12101   */\n      0x80\n        /* \"#utility.yul\":12086:12095   */\n      dup6\n        /* \"#utility.yul\":12077:12084   */\n      dup8\n        /* \"#utility.yul\":12073:12096   */\n      sub\n        /* \"#utility.yul\":12069:12102   */\n      slt\n        /* \"#utility.yul\":12066:12186   */\n      iszero\n      tag_750\n      jumpi\n        /* \"#utility.yul\":12105:12184   */\n      tag_751\n      tag_516\n      jump\t// in\n    tag_751:\n        /* \"#utility.yul\":12066:12186   */\n    tag_750:\n        /* \"#utility.yul\":12253:12254   */\n      0x00\n        /* \"#utility.yul\":12242:12251   */\n      dup6\n        /* \"#utility.yul\":12238:12255   */\n      add\n        /* \"#utility.yul\":12225:12256   */\n      calldataload\n        /* \"#utility.yul\":12283:12301   */\n      0xffffffffffffffff\n        /* \"#utility.yul\":12275:12281   */\n      dup2\n        /* \"#utility.yul\":12272:12302   */\n      gt\n        /* \"#utility.yul\":12269:12386   */\n      iszero\n      tag_752\n      jumpi\n        /* \"#utility.yul\":12305:12384   */\n      tag_753\n      tag_517\n      jump\t// in\n    tag_753:\n        /* \"#utility.yul\":12269:12386   */\n    tag_752:\n        /* \"#utility.yul\":12410:12473   */\n      tag_754\n        /* \"#utility.yul\":12465:12472   */\n      dup8\n        /* \"#utility.yul\":12456:12462   */\n      dup3\n        /* \"#utility.yul\":12445:12454   */\n      dup9\n        /* \"#utility.yul\":12441:12463   */\n      add\n        /* \"#utility.yul\":12410:12473   */\n      tag_529\n      jump\t// in\n    tag_754:\n        /* \"#utility.yul\":12400:12473   */\n      swap5\n      pop\n        /* \"#utility.yul\":12196:12483   */\n      pop\n        /* \"#utility.yul\":12550:12552   */\n      0x20\n        /* \"#utility.yul\":12539:12548   */\n      dup6\n        /* \"#utility.yul\":12535:12553   */\n      add\n        /* \"#utility.yul\":12522:12554   */\n      calldataload\n        /* \"#utility.yul\":12581:12599   */\n      0xffffffffffffffff\n        /* \"#utility.yul\":12573:12579   */\n      dup2\n        /* \"#utility.yul\":12570:12600   */\n      gt\n        /* \"#utility.yul\":12567:12684   */\n      iszero\n      tag_755\n      jumpi\n        /* \"#utility.yul\":12603:12682   */\n      tag_756\n      tag_517\n      jump\t// in\n    tag_756:\n        /* \"#utility.yul\":12567:12684   */\n    tag_755:\n        /* \"#utility.yul\":12708:12771   */\n      tag_757\n        /* \"#utility.yul\":12763:12770   */\n      dup8\n        /* \"#utility.yul\":12754:12760   */\n      dup3\n        /* \"#utility.yul\":12743:12752   */\n      dup9\n        /* \"#utility.yul\":12739:12761   */\n      add\n        /* \"#utility.yul\":12708:12771   */\n      tag_529\n      jump\t// in\n    tag_757:\n        /* \"#utility.yul\":12698:12771   */\n      swap4\n      pop\n        /* \"#utility.yul\":12493:12781   */\n      pop\n        /* \"#utility.yul\":12820:12822   */\n      0x40\n        /* \"#utility.yul\":12846:12899   */\n      tag_758\n        /* \"#utility.yul\":12891:12898   */\n      dup8\n        /* \"#utility.yul\":12882:12888   */\n      dup3\n        /* \"#utility.yul\":12871:12880   */\n      dup9\n        /* \"#utility.yul\":12867:12889   */\n      add\n        /* \"#utility.yul\":12846:12899   */\n      tag_519\n      jump\t// in\n    tag_758:\n        /* \"#utility.yul\":12836:12899   */\n      swap3\n      pop\n        /* \"#utility.yul\":12791:12909   */\n      pop\n        /* \"#utility.yul\":12948:12950   */\n      0x60\n        /* \"#utility.yul\":12974:13027   */\n      tag_759\n        /* \"#utility.yul\":13019:13026   */\n      dup8\n        /* \"#utility.yul\":13010:13016   */\n      dup3\n        /* \"#utility.yul\":12999:13008   */\n      dup9\n        /* \"#utility.yul\":12995:13017   */\n      add\n        /* \"#utility.yul\":12974:13027   */\n      tag_519\n      jump\t// in\n    tag_759:\n        /* \"#utility.yul\":12964:13027   */\n      swap2\n      pop\n        /* \"#utility.yul\":12919:13037   */\n      pop\n        /* \"#utility.yul\":11919:13044   */\n      swap3\n      swap6\n      swap2\n      swap5\n      pop\n      swap3\n      pop\n      jump\t// out\n        /* \"#utility.yul\":13050:13166   */\n    tag_547:\n        /* \"#utility.yul\":13120:13141   */\n      tag_761\n        /* \"#utility.yul\":13135:13140   */\n      dup2\n        /* \"#utility.yul\":13120:13141   */\n      tag_543\n      jump\t// in\n    tag_761:\n        /* \"#utility.yul\":13113:13118   */\n      dup2\n        /* \"#utility.yul\":13110:13142   */\n      eq\n        /* \"#utility.yul\":13100:13160   */\n      tag_762\n      jumpi\n        /* \"#utility.yul\":13156:13157   */\n      0x00\n        /* \"#utility.yul\":13153:13154   */\n      dup1\n        /* \"#utility.yul\":13146:13158   */\n      revert\n        /* \"#utility.yul\":13100:13160   */\n    tag_762:\n        /* \"#utility.yul\":13050:13166   */\n      pop\n      jump\t// out\n        /* \"#utility.yul\":13172:13305   */\n    tag_548:\n        /* \"#utility.yul\":13215:13220   */\n      0x00\n        /* \"#utility.yul\":13253:13259   */\n      dup2\n        /* \"#utility.yul\":13240:13260   */\n      calldataload\n        /* \"#utility.yul\":13231:13260   */\n      swap1\n      pop\n        /* \"#utility.yul\":13269:13299   */\n      tag_764\n        /* \"#utility.yul\":13293:13298   */\n      dup2\n        /* \"#utility.yul\":13269:13299   */\n      tag_547\n      jump\t// in\n    tag_764:\n        /* \"#utility.yul\":13172:13305   */\n      swap3\n      swap2\n      pop\n      pop\n      jump\t// out\n        /* \"#utility.yul\":13311:13779   */\n    tag_120:\n        /* \"#utility.yul\":13376:13382   */\n      0x00\n        /* \"#utility.yul\":13384:13390   */\n      dup1\n        /* \"#utility.yul\":13433:13435   */\n      0x40\n        /* \"#utility.yul\":13421:13430   */\n      dup4\n        /* \"#utility.yul\":13412:13419   */\n      dup6\n        /* \"#utility.yul\":13408:13431   */\n      sub\n        /* \"#utility.yul\":13404:13436   */\n      slt\n        /* \"#utility.yul\":13401:13520   */\n      iszero\n      tag_766\n      jumpi\n        /* \"#utility.yul\":13439:13518   */\n      tag_767\n      tag_516\n      jump\t// in\n    tag_767:\n        /* \"#utility.yul\":13401:13520   */\n    tag_766:\n        /* \"#utility.yul\":13559:13560   */\n      0x00\n        /* \"#utility.yul\":13584:13637   */\n      tag_768\n        /* \"#utility.yul\":13629:13636   */\n      dup6\n        /* \"#utility.yul\":13620:13626   */\n      dup3\n        /* \"#utility.yul\":13609:13618   */\n      dup7\n        /* \"#utility.yul\":13605:13627   */\n      add\n        /* \"#utility.yul\":13584:13637   */\n      tag_519\n      jump\t// in\n    tag_768:\n        /* \"#utility.yul\":13574:13637   */\n      swap3\n      pop\n        /* \"#utility.yul\":13530:13647   */\n      pop\n        /* \"#utility.yul\":13686:13688   */\n      0x20\n        /* \"#utility.yul\":13712:13762   */\n      tag_769\n        /* \"#utility.yul\":13754:13761   */\n      dup6\n        /* \"#utility.yul\":13745:13751   */\n      dup3\n        /* \"#utility.yul\":13734:13743   */\n      dup7\n        /* \"#utility.yul\":13730:13752   */\n      add\n        /* \"#utility.yul\":13712:13762   */\n      tag_548\n      jump\t// in\n    tag_769:\n        /* \"#utility.yul\":13702:13762   */\n      swap2\n      pop\n        /* \"#utility.yul\":13657:13772   */\n      pop\n        /* \"#utility.yul\":13311:13779   */\n      swap3\n      pop\n      swap3\n      swap1\n      pop\n      jump\t// out\n        /* \"#utility.yul\":13785:14114   */\n    tag_129:\n        /* \"#utility.yul\":13844:13850   */\n      0x00\n        /* \"#utility.yul\":13893:13895   */\n      0x20\n        /* \"#utility.yul\":13881:13890   */\n      dup3\n        /* \"#utility.yul\":13872:13879   */\n      dup5\n        /* \"#utility.yul\":13868:13891   */\n      sub\n        /* \"#utility.yul\":13864:13896   */\n      slt\n        /* \"#utility.yul\":13861:13980   */\n      iszero\n      tag_771\n      jumpi\n        /* \"#utility.yul\":13899:13978   */\n      tag_772\n      tag_516\n      jump\t// in\n    tag_772:\n        /* \"#utility.yul\":13861:13980   */\n    tag_771:\n        /* \"#utility.yul\":14019:14020   */\n      0x00\n        /* \"#utility.yul\":14044:14097   */\n      tag_773\n        /* \"#utility.yul\":14089:14096   */\n      dup5\n        /* \"#utility.yul\":14080:14086   */\n      dup3\n        /* \"#utility.yul\":14069:14078   */\n      dup6\n        /* \"#utility.yul\":14065:14087   */\n      add\n        /* \"#utility.yul\":14044:14097   */\n      tag_546\n      jump\t// in\n    tag_773:\n        /* \"#utility.yul\":14034:14097   */\n      swap2\n      pop\n        /* \"#utility.yul\":13990:14107   */\n      pop\n        /* \"#utility.yul\":13785:14114   */\n      swap3\n      swap2\n      pop\n      pop\n      jump\t// out\n        /* \"#utility.yul\":14120:14235   */\n    tag_549:\n        /* \"#utility.yul\":14203:14204   */\n      0x02\n        /* \"#utility.yul\":14196:14201   */\n      dup2\n        /* \"#utility.yul\":14193:14205   */\n      lt\n        /* \"#utility.yul\":14183:14229   */\n      tag_775\n      jumpi\n        /* \"#utility.yul\":14209:14227   */\n      tag_776\n      tag_174\n      jump\t// in\n    tag_776:\n        /* \"#utility.yul\":14183:14229   */\n    tag_775:\n        /* \"#utility.yul\":14120:14235   */\n      pop\n      jump\t// out\n        /* \"#utility.yul\":14241:14372   */\n    tag_550:\n        /* \"#utility.yul\":14288:14295   */\n      0x00\n        /* \"#utility.yul\":14317:14322   */\n      dup2\n        /* \"#utility.yul\":14306:14322   */\n      swap1\n      pop\n        /* \"#utility.yul\":14323:14366   */\n      tag_778\n        /* \"#utility.yul\":14360:14365   */\n      dup3\n        /* \"#utility.yul\":14323:14366   */\n      tag_549\n      jump\t// in\n    tag_778:\n        /* \"#utility.yul\":14241:14372   */\n      swap2\n      swap1\n      pop\n      jump\t// out\n        /* \"#utility.yul\":14378:14509   */\n    tag_551:\n        /* \"#utility.yul\":14436:14445   */\n      0x00\n        /* \"#utility.yul\":14469:14503   */\n      tag_780\n        /* \"#utility.yul\":14497:14502   */\n      dup3\n        /* \"#utility.yul\":14469:14503   */\n      tag_550\n      jump\t// in\n    tag_780:\n        /* \"#utility.yul\":14456:14503   */\n      swap1\n      pop\n        /* \"#utility.yul\":14378:14509   */\n      swap2\n      swap1\n      pop\n      jump\t// out\n        /* \"#utility.yul\":14515:14662   */\n    tag_552:\n        /* \"#utility.yul\":14610:14655   */\n      tag_782\n        /* \"#utility.yul\":14649:14654   */\n      dup2\n        /* \"#utility.yul\":14610:14655   */\n      tag_551\n      jump\t// in\n    tag_782:\n        /* \"#utility.yul\":14605:14608   */\n      dup3\n        /* \"#utility.yul\":14598:14656   */\n      mstore\n        /* \"#utility.yul\":14515:14662   */\n      pop\n      pop\n      jump\t// out\n        /* \"#utility.yul\":14668:15360   */\n    tag_132:\n        /* \"#utility.yul\":14889:14893   */\n      0x00\n        /* \"#utility.yul\":14927:14930   */\n      0x80\n        /* \"#utility.yul\":14916:14925   */\n      dup3\n        /* \"#utility.yul\":14912:14931   */\n      add\n        /* \"#utility.yul\":14904:14931   */\n      swap1\n      pop\n        /* \"#utility.yul\":14941:15020   */\n      tag_784\n        /* \"#utility.yul\":15017:15018   */\n      0x00\n        /* \"#utility.yul\":15006:15015   */\n      dup4\n        /* \"#utility.yul\":15002:15019   */\n      add\n        /* \"#utility.yul\":14993:14999   */\n      dup8\n        /* \"#utility.yul\":14941:15020   */\n      tag_552\n      jump\t// in\n    tag_784:\n        /* \"#utility.yul\":15067:15076   */\n      dup2\n        /* \"#utility.yul\":15061:15065   */\n      dup2\n        /* \"#utility.yul\":15057:15077   */\n      sub\n        /* \"#utility.yul\":15052:15054   */\n      0x20\n        /* \"#utility.yul\":15041:15050   */\n      dup4\n        /* \"#utility.yul\":15037:15055   */\n      add\n        /* \"#utility.yul\":15030:15078   */\n      mstore\n        /* \"#utility.yul\":15095:15173   */\n      tag_785\n        /* \"#utility.yul\":15168:15172   */\n      dup2\n        /* \"#utility.yul\":15159:15165   */\n      dup7\n        /* \"#utility.yul\":15095:15173   */\n      tag_536\n      jump\t// in\n    tag_785:\n        /* \"#utility.yul\":15087:15173   */\n      swap1\n      pop\n        /* \"#utility.yul\":15183:15255   */\n      tag_786\n        /* \"#utility.yul\":15251:15253   */\n      0x40\n        /* \"#utility.yul\":15240:15249   */\n      dup4\n        /* \"#utility.yul\":15236:15254   */\n      add\n        /* \"#utility.yul\":15227:15233   */\n      dup6\n        /* \"#utility.yul\":15183:15255   */\n      tag_514\n      jump\t// in\n    tag_786:\n        /* \"#utility.yul\":15265:15353   */\n      tag_787\n        /* \"#utility.yul\":15349:15351   */\n      0x60\n        /* \"#utility.yul\":15338:15347   */\n      dup4\n        /* \"#utility.yul\":15334:15352   */\n      add\n        /* \"#utility.yul\":15325:15331   */\n      dup5\n        /* \"#utility.yul\":15265:15353   */\n      tag_542\n      jump\t// in\n    tag_787:\n        /* \"#utility.yul\":14668:15360   */\n      swap6\n      swap5\n      pop\n      pop\n      pop\n      pop\n      pop\n      jump\t// out\n        /* \"#utility.yul\":15366:15475   */\n    tag_553:\n        /* \"#utility.yul\":15449:15450   */\n      0x02\n        /* \"#utility.yul\":15442:15447   */\n      dup2\n        /* \"#utility.yul\":15439:15451   */\n      lt\n        /* \"#utility.yul\":15429:15469   */\n      tag_789\n      jumpi\n        /* \"#utility.yul\":15465:15466   */\n      0x00\n        /* \"#utility.yul\":15462:15463   */\n      dup1\n        /* \"#utility.yul\":15455:15467   */\n      revert\n        /* \"#utility.yul\":15429:15469   */\n    tag_789:\n        /* \"#utility.yul\":15366:15475   */\n      pop\n      jump\t// out\n        /* \"#utility.yul\":15481:15640   */\n    tag_554:\n        /* \"#utility.yul\":15537:15542   */\n      0x00\n        /* \"#utility.yul\":15575:15581   */\n      dup2\n        /* \"#utility.yul\":15562:15582   */\n      calldataload\n        /* \"#utility.yul\":15553:15582   */\n      swap1\n      pop\n        /* \"#utility.yul\":15591:15634   */\n      tag_791\n        /* \"#utility.yul\":15628:15633   */\n      dup2\n        /* \"#utility.yul\":15591:15634   */\n      tag_553\n      jump\t// in\n    tag_791:\n        /* \"#utility.yul\":15481:15640   */\n      swap3\n      swap2\n      pop\n      pop\n      jump\t// out\n        /* \"#utility.yul\":15646:16320   */\n    tag_145:\n        /* \"#utility.yul\":15734:15740   */\n      0x00\n        /* \"#utility.yul\":15742:15748   */\n      dup1\n        /* \"#utility.yul\":15791:15793   */\n      0x40\n        /* \"#utility.yul\":15779:15788   */\n      dup4\n        /* \"#utility.yul\":15770:15777   */\n      dup6\n        /* \"#utility.yul\":15766:15789   */\n      sub\n        /* \"#utility.yul\":15762:15794   */\n      slt\n        /* \"#utility.yul\":15759:15878   */\n      iszero\n      tag_793\n      jumpi\n        /* \"#utility.yul\":15797:15876   */\n      tag_794\n      tag_516\n      jump\t// in\n    tag_794:\n        /* \"#utility.yul\":15759:15878   */\n    tag_793:\n        /* \"#utility.yul\":15917:15918   */\n      0x00\n        /* \"#utility.yul\":15942:16005   */\n      tag_795\n        /* \"#utility.yul\":15997:16004   */\n      dup6\n        /* \"#utility.yul\":15988:15994   */\n      dup3\n        /* \"#utility.yul\":15977:15986   */\n      dup7\n        /* \"#utility.yul\":15973:15995   */\n      add\n        /* \"#utility.yul\":15942:16005   */\n      tag_554\n      jump\t// in\n    tag_795:\n        /* \"#utility.yul\":15932:16005   */\n      swap3\n      pop\n        /* \"#utility.yul\":15888:16015   */\n      pop\n        /* \"#utility.yul\":16082:16084   */\n      0x20\n        /* \"#utility.yul\":16071:16080   */\n      dup4\n        /* \"#utility.yul\":16067:16085   */\n      add\n        /* \"#utility.yul\":16054:16086   */\n      calldataload\n        /* \"#utility.yul\":16113:16131   */\n      0xffffffffffffffff\n        /* \"#utility.yul\":16105:16111   */\n      dup2\n        /* \"#utility.yul\":16102:16132   */\n      gt\n        /* \"#utility.yul\":16099:16216   */\n      iszero\n      tag_796\n      jumpi\n        /* \"#utility.yul\":16135:16214   */\n      tag_797\n      tag_517\n      jump\t// in\n    tag_797:\n        /* \"#utility.yul\":16099:16216   */\n    tag_796:\n        /* \"#utility.yul\":16240:16303   */\n      tag_798\n        /* \"#utility.yul\":16295:16302   */\n      dup6\n        /* \"#utility.yul\":16286:16292   */\n      dup3\n        /* \"#utility.yul\":16275:16284   */\n      dup7\n        /* \"#utility.yul\":16271:16293   */\n      add\n        /* \"#utility.yul\":16240:16303   */\n      tag_529\n      jump\t// in\n    tag_798:\n        /* \"#utility.yul\":16230:16303   */\n      swap2\n      pop\n        /* \"#utility.yul\":16025:16313   */\n      pop\n        /* \"#utility.yul\":15646:16320   */\n      swap3\n      pop\n      swap3\n      swap1\n      pop\n      jump\t// out\n        /* \"#utility.yul\":16326:16506   */\n    tag_159:\n        /* \"#utility.yul\":16374:16451   */\n      0x4e487b7100000000000000000000000000000000000000000000000000000000\n        /* \"#utility.yul\":16371:16372   */\n      0x00\n        /* \"#utility.yul\":16364:16452   */\n      mstore\n        /* \"#utility.yul\":16471:16475   */\n      0x32\n        /* \"#utility.yul\":16468:16469   */\n      0x04\n        /* \"#utility.yul\":16461:16476   */\n      mstore\n        /* \"#utility.yul\":16495:16499   */\n      0x24\n        /* \"#utility.yul\":16492:16493   */\n      0x00\n        /* \"#utility.yul\":16485:16500   */\n      revert\n        /* \"#utility.yul\":16512:16752   */\n    tag_555:\n        /* \"#utility.yul\":16652:16686   */\n      0x4f6e6c79207468652061737369676e656420667265656c616e6365722063616e\n        /* \"#utility.yul\":16648:16649   */\n      0x00\n        /* \"#utility.yul\":16640:16646   */\n      dup3\n        /* \"#utility.yul\":16636:16650   */\n      add\n        /* \"#utility.yul\":16629:16687   */\n      mstore\n        /* \"#utility.yul\":16721:16744   */\n      0x20706572666f726d207468697320616374696f6e2e0000000000000000000000\n        /* \"#utility.yul\":16716:16718   */\n      0x20\n        /* \"#utility.yul\":16708:16714   */\n      dup3\n        /* \"#utility.yul\":16704:16719   */\n      add\n        /* \"#utility.yul\":16697:16745   */\n      mstore\n        /* \"#utility.yul\":16512:16752   */\n      pop\n      jump\t// out\n        /* \"#utility.yul\":16758:17124   */\n    tag_556:\n        /* \"#utility.yul\":16900:16903   */\n      0x00\n        /* \"#utility.yul\":16921:16988   */\n      tag_802\n        /* \"#utility.yul\":16985:16987   */\n      0x35\n        /* \"#utility.yul\":16980:16983   */\n      dup4\n        /* \"#utility.yul\":16921:16988   */\n      tag_534\n      jump\t// in\n    tag_802:\n        /* \"#utility.yul\":16914:16988   */\n      swap2\n      pop\n        /* \"#utility.yul\":16997:17090   */\n      tag_803\n        /* \"#utility.yul\":17086:17089   */\n      dup3\n        /* \"#utility.yul\":16997:17090   */\n      tag_555\n      jump\t// in\n    tag_803:\n        /* \"#utility.yul\":17115:17117   */\n      0x40\n        /* \"#utility.yul\":17110:17113   */\n      dup3\n        /* \"#utility.yul\":17106:17118   */\n      add\n        /* \"#utility.yul\":17099:17118   */\n      swap1\n      pop\n        /* \"#utility.yul\":16758:17124   */\n      swap2\n      swap1\n      pop\n      jump\t// out\n        /* \"#utility.yul\":17130:17549   */\n    tag_163:\n        /* \"#utility.yul\":17296:17300   */\n      0x00\n        /* \"#utility.yul\":17334:17336   */\n      0x20\n        /* \"#utility.yul\":17323:17332   */\n      dup3\n        /* \"#utility.yul\":17319:17337   */\n      add\n        /* \"#utility.yul\":17311:17337   */\n      swap1\n      pop\n        /* \"#utility.yul\":17383:17392   */\n      dup2\n        /* \"#utility.yul\":17377:17381   */\n      dup2\n        /* \"#utility.yul\":17373:17393   */\n      sub\n        /* \"#utility.yul\":17369:17370   */\n      0x00\n        /* \"#utility.yul\":17358:17367   */\n      dup4\n        /* \"#utility.yul\":17354:17371   */\n      add\n        /* \"#utility.yul\":17347:17394   */\n      mstore\n        /* \"#utility.yul\":17411:17542   */\n      tag_805\n        /* \"#utility.yul\":17537:17541   */\n      dup2\n        /* \"#utility.yul\":17411:17542   */\n      tag_556\n      jump\t// in\n    tag_805:\n        /* \"#utility.yul\":17403:17542   */\n      swap1\n      pop\n        /* \"#utility.yul\":17130:17549   */\n      swap2\n      swap1\n      pop\n      jump\t// out\n        /* \"#utility.yul\":17555:17728   */\n    tag_557:\n        /* \"#utility.yul\":17695:17720   */\n      0x50726f6a65637420646f6573206e6f742065786973742e000000000000000000\n        /* \"#utility.yul\":17691:17692   */\n      0x00\n        /* \"#utility.yul\":17683:17689   */\n      dup3\n        /* \"#utility.yul\":17679:17693   */\n      add\n        /* \"#utility.yul\":17672:17721   */\n      mstore\n        /* \"#utility.yul\":17555:17728   */\n      pop\n      jump\t// out\n        /* \"#utility.yul\":17734:18100   */\n    tag_558:\n        /* \"#utility.yul\":17876:17879   */\n      0x00\n        /* \"#utility.yul\":17897:17964   */\n      tag_808\n        /* \"#utility.yul\":17961:17963   */\n      0x17\n        /* \"#utility.yul\":17956:17959   */\n      dup4\n        /* \"#utility.yul\":17897:17964   */\n      tag_534\n      jump\t// in\n    tag_808:\n        /* \"#utility.yul\":17890:17964   */\n      swap2\n      pop\n        /* \"#utility.yul\":17973:18066   */\n      tag_809\n        /* \"#utility.yul\":18062:18065   */\n      dup3\n        /* \"#utility.yul\":17973:18066   */\n      tag_557\n      jump\t// in\n    tag_809:\n        /* \"#utility.yul\":18091:18093   */\n      0x20\n        /* \"#utility.yul\":18086:18089   */\n      dup3\n        /* \"#utility.yul\":18082:18094   */\n      add\n        /* \"#utility.yul\":18075:18094   */\n      swap1\n      pop\n        /* \"#utility.yul\":17734:18100   */\n      swap2\n      swap1\n      pop\n      jump\t// out\n        /* \"#utility.yul\":18106:18525   */\n    tag_167:\n        /* \"#utility.yul\":18272:18276   */\n      0x00\n        /* \"#utility.yul\":18310:18312   */\n      0x20\n        /* \"#utility.yul\":18299:18308   */\n      dup3\n        /* \"#utility.yul\":18295:18313   */\n      add\n        /* \"#utility.yul\":18287:18313   */\n      swap1\n      pop\n        /* \"#utility.yul\":18359:18368   */\n      dup2\n        /* \"#utility.yul\":18353:18357   */\n      dup2\n        /* \"#utility.yul\":18349:18369   */\n      sub\n        /* \"#utility.yul\":18345:18346   */\n      0x00\n        /* \"#utility.yul\":18334:18343   */\n      dup4\n        /* \"#utility.yul\":18330:18347   */\n      add\n        /* \"#utility.yul\":18323:18370   */\n      mstore\n        /* \"#utility.yul\":18387:18518   */\n      tag_811\n        /* \"#utility.yul\":18513:18517   */\n      dup2\n        /* \"#utility.yul\":18387:18518   */\n      tag_558\n      jump\t// in\n    tag_811:\n        /* \"#utility.yul\":18379:18518   */\n      swap1\n      pop\n        /* \"#utility.yul\":18106:18525   */\n      swap2\n      swap1\n      pop\n      jump\t// out\n        /* \"#utility.yul\":18531:18708   */\n    tag_559:\n        /* \"#utility.yul\":18671:18700   */\n      0x50726f6a656374206973206e6f7420696e2070726f67726573732e0000000000\n        /* \"#utility.yul\":18667:18668   */\n      0x00\n        /* \"#utility.yul\":18659:18665   */\n      dup3\n        /* \"#utility.yul\":18655:18669   */\n      add\n        /* \"#utility.yul\":18648:18701   */\n      mstore\n        /* \"#utility.yul\":18531:18708   */\n      pop\n      jump\t// out\n        /* \"#utility.yul\":18714:19080   */\n    tag_560:\n        /* \"#utility.yul\":18856:18859   */\n      0x00\n        /* \"#utility.yul\":18877:18944   */\n      tag_814\n        /* \"#utility.yul\":18941:18943   */\n      0x1b\n        /* \"#utility.yul\":18936:18939   */\n      dup4\n        /* \"#utility.yul\":18877:18944   */\n      tag_534\n      jump\t// in\n    tag_814:\n        /* \"#utility.yul\":18870:18944   */\n      swap2\n      pop\n        /* \"#utility.yul\":18953:19046   */\n      tag_815\n        /* \"#utility.yul\":19042:19045   */\n      dup3\n        /* \"#utility.yul\":18953:19046   */\n      tag_559\n      jump\t// in\n    tag_815:\n        /* \"#utility.yul\":19071:19073   */\n      0x20\n        /* \"#utility.yul\":19066:19069   */\n      dup3\n        /* \"#utility.yul\":19062:19074   */\n      add\n        /* \"#utility.yul\":19055:19074   */\n      swap1\n      pop\n        /* \"#utility.yul\":18714:19080   */\n      swap2\n      swap1\n      pop\n      jump\t// out\n        /* \"#utility.yul\":19086:19505   */\n    tag_179:\n        /* \"#utility.yul\":19252:19256   */\n      0x00\n        /* \"#utility.yul\":19290:19292   */\n      0x20\n        /* \"#utility.yul\":19279:19288   */\n      dup3\n        /* \"#utility.yul\":19275:19293   */\n      add\n        /* \"#utility.yul\":19267:19293   */\n      swap1\n      pop\n        /* \"#utility.yul\":19339:19348   */\n      dup2\n        /* \"#utility.yul\":19333:19337   */\n      dup2\n        /* \"#utility.yul\":19329:19349   */\n      sub\n        /* \"#utility.yul\":19325:19326   */\n      0x00\n        /* \"#utility.yul\":19314:19323   */\n      dup4\n        /* \"#utility.yul\":19310:19327   */\n      add\n        /* \"#utility.yul\":19303:19350   */\n      mstore\n        /* \"#utility.yul\":19367:19498   */\n      tag_817\n        /* \"#utility.yul\":19493:19497   */\n      dup2\n        /* \"#utility.yul\":19367:19498   */\n      tag_560\n      jump\t// in\n    tag_817:\n        /* \"#utility.yul\":19359:19498   */\n      swap1\n      pop\n        /* \"#utility.yul\":19086:19505   */\n      swap2\n      swap1\n      pop\n      jump\t// out\n        /* \"#utility.yul\":19511:19691   */\n    tag_561:\n        /* \"#utility.yul\":19559:19636   */\n      0x4e487b7100000000000000000000000000000000000000000000000000000000\n        /* \"#utility.yul\":19556:19557   */\n      0x00\n        /* \"#utility.yul\":19549:19637   */\n      mstore\n        /* \"#utility.yul\":19656:19660   */\n      0x22\n        /* \"#utility.yul\":19653:19654   */\n      0x04\n        /* \"#utility.yul\":19646:19661   */\n      mstore\n        /* \"#utility.yul\":19680:19684   */\n      0x24\n        /* \"#utility.yul\":19677:19678   */\n      0x00\n        /* \"#utility.yul\":19670:19685   */\n      revert\n        /* \"#utility.yul\":19697:20017   */\n    tag_187:\n        /* \"#utility.yul\":19741:19747   */\n      0x00\n        /* \"#utility.yul\":19778:19779   */\n      0x02\n        /* \"#utility.yul\":19772:19776   */\n      dup3\n        /* \"#utility.yul\":19768:19780   */\n      div\n        /* \"#utility.yul\":19758:19780   */\n      swap1\n      pop\n        /* \"#utility.yul\":19825:19826   */\n      0x01\n        /* \"#utility.yul\":19819:19823   */\n      dup3\n        /* \"#utility.yul\":19815:19827   */\n      and\n        /* \"#utility.yul\":19846:19864   */\n      dup1\n        /* \"#utility.yul\":19836:19917   */\n      tag_820\n      jumpi\n        /* \"#utility.yul\":19902:19906   */\n      0x7f\n        /* \"#utility.yul\":19894:19900   */\n      dup3\n        /* \"#utility.yul\":19890:19907   */\n      and\n        /* \"#utility.yul\":19880:19907   */\n      swap2\n      pop\n        /* \"#utility.yul\":19836:19917   */\n    tag_820:\n        /* \"#utility.yul\":19964:19966   */\n      0x20\n        /* \"#utility.yul\":19956:19962   */\n      dup3\n        /* \"#utility.yul\":19953:19967   */\n      lt\n        /* \"#utility.yul\":19933:19951   */\n      dup2\n        /* \"#utility.yul\":19930:19968   */\n      sub\n        /* \"#utility.yul\":19927:20011   */\n      tag_821\n      jumpi\n        /* \"#utility.yul\":19983:20001   */\n      tag_822\n      tag_561\n      jump\t// in\n    tag_822:\n        /* \"#utility.yul\":19927:20011   */\n    tag_821:\n        /* \"#utility.yul\":19748:20017   */\n      pop\n        /* \"#utility.yul\":19697:20017   */\n      swap2\n      swap1\n      pop\n      jump\t// out\n        /* \"#utility.yul\":20023:20164   */\n    tag_562:\n        /* \"#utility.yul\":20072:20076   */\n      0x00\n        /* \"#utility.yul\":20095:20098   */\n      dup2\n        /* \"#utility.yul\":20087:20098   */\n      swap1\n      pop\n        /* \"#utility.yul\":20118:20121   */\n      dup2\n        /* \"#utility.yul\":20115:20116   */\n      0x00\n        /* \"#utility.yul\":20108:20122   */\n      mstore\n        /* \"#utility.yul\":20152:20156   */\n      0x20\n        /* \"#utility.yul\":20149:20150   */\n      0x00\n        /* \"#utility.yul\":20139:20157   */\n      keccak256\n        /* \"#utility.yul\":20131:20157   */\n      swap1\n      pop\n        /* \"#utility.yul\":20023:20164   */\n      swap2\n      swap1\n      pop\n      jump\t// out\n        /* \"#utility.yul\":20170:20263   */\n    tag_563:\n        /* \"#utility.yul\":20207:20213   */\n      0x00\n        /* \"#utility.yul\":20254:20256   */\n      0x20\n        /* \"#utility.yul\":20249:20251   */\n      0x1f\n        /* \"#utility.yul\":20242:20247   */\n      dup4\n        /* \"#utility.yul\":20238:20252   */\n      add\n        /* \"#utility.yul\":20234:20257   */\n      div\n        /* \"#utility.yul\":20224:20257   */\n      swap1\n      pop\n        /* \"#utility.yul\":20170:20263   */\n      swap2\n      swap1\n      pop\n      jump\t// out\n        /* \"#utility.yul\":20269:20376   */\n    tag_564:\n        /* \"#utility.yul\":20313:20321   */\n      0x00\n        /* \"#utility.yul\":20363:20368   */\n      dup3\n        /* \"#utility.yul\":20357:20361   */\n      dup3\n        /* \"#utility.yul\":20353:20369   */\n      shl\n        /* \"#utility.yul\":20332:20369   */\n      swap1\n      pop\n        /* \"#utility.yul\":20269:20376   */\n      swap3\n      swap2\n      pop\n      pop\n      jump\t// out\n        /* \"#utility.yul\":20382:20775   */\n    tag_565:\n        /* \"#utility.yul\":20451:20457   */\n      0x00\n        /* \"#utility.yul\":20501:20502   */\n      0x08\n        /* \"#utility.yul\":20489:20499   */\n      dup4\n        /* \"#utility.yul\":20485:20503   */\n      mul\n        /* \"#utility.yul\":20524:20621   */\n      tag_827\n        /* \"#utility.yul\":20554:20620   */\n      0xffffffffffffffffffffffffffffffffffffffffffffffffffffffffffffffff\n        /* \"#utility.yul\":20543:20552   */\n      dup3\n        /* \"#utility.yul\":20524:20621   */\n      tag_564\n      jump\t// in\n    tag_827:\n        /* \"#utility.yul\":20642:20681   */\n      tag_828\n        /* \"#utility.yul\":20672:20680   */\n      dup7\n        /* \"#utility.yul\":20661:20670   */\n      dup4\n        /* \"#utility.yul\":20642:20681   */\n      tag_564\n      jump\t// in\n    tag_828:\n        /* \"#utility.yul\":20630:20681   */\n      swap6\n      pop\n        /* \"#utility.yul\":20714:20718   */\n      dup1\n        /* \"#utility.yul\":20710:20719   */\n      not\n        /* \"#utility.yul\":20703:20708   */\n      dup5\n        /* \"#utility.yul\":20699:20720   */\n      and\n        /* \"#utility.yul\":20690:20720   */\n      swap4\n      pop\n        /* \"#utility.yul\":20763:20767   */\n      dup1\n        /* \"#utility.yul\":20753:20761   */\n      dup7\n        /* \"#utility.yul\":20749:20768   */\n      and\n        /* \"#utility.yul\":20742:20747   */\n      dup5\n        /* \"#utility.yul\":20739:20769   */\n      or\n        /* \"#utility.yul\":20729:20769   */\n      swap3\n      pop\n        /* \"#utility.yul\":20458:20775   */\n      pop\n      pop\n        /* \"#utility.yul\":20382:20775   */\n      swap4\n      swap3\n      pop\n      pop\n      pop\n      jump\t// out\n        /* \"#utility.yul\":20781:20841   */\n    tag_566:\n        /* \"#utility.yul\":20809:20812   */\n      0x00\n        /* \"#utility.yul\":20830:20835   */\n      dup2\n        /* \"#utility.yul\":20823:20835   */\n      swap1\n      pop\n        /* \"#utility.yul\":20781:20841   */\n      swap2\n      swap1\n      pop\n      jump\t// out\n        /* \"#utility.yul\":20847:20989   */\n    tag_567:\n        /* \"#utility.yul\":20897:20906   */\n      0x00\n        /* \"#utility.yul\":20930:20983   */\n      tag_831\n        /* \"#utility.yul\":20948:20982   */\n      tag_832\n        /* \"#utility.yul\":20957:20981   */\n      tag_833\n        /* \"#utility.yul\":20975:20980   */\n      dup5\n        /* \"#utility.yul\":20957:20981   */\n      tag_513\n      jump\t// in\n    tag_833:\n        /* \"#utility.yul\":20948:20982   */\n      tag_566\n      jump\t// in\n    tag_832:\n        /* \"#utility.yul\":20930:20983   */\n      tag_513\n      jump\t// in\n    tag_831:\n        /* \"#utility.yul\":20917:20983   */\n      swap1\n      pop\n        /* \"#utility.yul\":20847:20989   */\n      swap2\n      swap1\n      pop\n      jump\t// out\n        /* \"#utility.yul\":20995:21070   */\n    tag_568:\n        /* \"#utility.yul\":21038:21041   */\n      0x00\n        /* \"#utility.yul\":21059:21064   */\n      dup2\n        /* \"#utility.yul\":21052:21064   */\n      swap1\n      pop\n        /* \"#utility.yul\":20995:21070   */\n      swap2\n      swap1\n      pop\n      jump\t// out\n        /* \"#utility.yul\":21076:21345   */\n    tag_569:\n        /* \"#utility.yul\":21186:21225   */\n      tag_836\n        /* \"#utility.yul\":21217:21224   */\n      dup4\n        /* \"#utility.yul\":21186:21225   */\n      tag_567\n      jump\t// in\n    tag_836:\n        /* \"#utility.yul\":21247:21338   */\n      tag_837\n        /* \"#utility.yul\":21296:21337   */\n      tag_838\n        /* \"#utility.yul\":21320:21336   */\n      dup3\n        /* \"#utility.yul\":21296:21337   */\n      tag_568\n      jump\t// in\n    tag_838:\n        /* \"#utility.yul\":21288:21294   */\n      dup5\n        /* \"#utility.yul\":21281:21285   */\n      dup5\n        /* \"#utility.yul\":21275:21286   */\n      sload\n        /* \"#utility.yul\":21247:21338   */\n      tag_565\n      jump\t// in\n    tag_837:\n        /* \"#utility.yul\":21241:21245   */\n      dup3\n        /* \"#utility.yul\":21234:21339   */\n      sstore\n        /* \"#utility.yul\":21152:21345   */\n      pop\n        /* \"#utility.yul\":21076:21345   */\n      pop\n      pop\n      pop\n      jump\t// out\n        /* \"#utility.yul\":21351:21424   */\n    tag_570:\n        /* \"#utility.yul\":21396:21399   */\n      0x00\n        /* \"#utility.yul\":21351:21424   */\n      swap1\n      jump\t// out\n        /* \"#utility.yul\":21430:21619   */\n    tag_571:\n        /* \"#utility.yul\":21507:21539   */\n      tag_841\n      tag_570\n      jump\t// in\n    tag_841:\n        /* \"#utility.yul\":21548:21613   */\n      tag_842\n        /* \"#utility.yul\":21606:21612   */\n      dup2\n        /* \"#utility.yul\":21598:21604   */\n      dup5\n        /* \"#utility.yul\":21592:21596   */\n      dup5\n        /* \"#utility.yul\":21548:21613   */\n      tag_569\n      jump\t// in\n    tag_842:\n        /* \"#utility.yul\":21483:21619   */\n      pop\n        /* \"#utility.yul\":21430:21619   */\n      pop\n      pop\n      jump\t// out\n        /* \"#utility.yul\":21625:21811   */\n    tag_572:\n        /* \"#utility.yul\":21685:21805   */\n    tag_844:\n        /* \"#utility.yul\":21702:21705   */\n      dup2\n        /* \"#utility.yul\":21695:21700   */\n      dup2\n        /* \"#utility.yul\":21692:21706   */\n      lt\n        /* \"#utility.yul\":21685:21805   */\n      iszero\n      tag_846\n      jumpi\n        /* \"#utility.yul\":21756:21795   */\n      tag_847\n        /* \"#utility.yul\":21793:21794   */\n      0x00\n        /* \"#utility.yul\":21786:21791   */\n      dup3\n        /* \"#utility.yul\":21756:21795   */\n      tag_571\n      jump\t// in\n    tag_847:\n        /* \"#utility.yul\":21729:21730   */\n      0x01\n        /* \"#utility.yul\":21722:21727   */\n      dup2\n        /* \"#utility.yul\":21718:21731   */\n      add\n        /* \"#utility.yul\":21709:21731   */\n      swap1\n      pop\n        /* \"#utility.yul\":21685:21805   */\n      jump(tag_844)\n    tag_846:\n        /* \"#utility.yul\":21625:21811   */\n      pop\n      pop\n      jump\t// out\n        /* \"#utility.yul\":21817:22360   */\n    tag_573:\n        /* \"#utility.yul\":21918:21920   */\n      0x1f\n        /* \"#utility.yul\":21913:21916   */\n      dup3\n        /* \"#utility.yul\":21910:21921   */\n      gt\n        /* \"#utility.yul\":21907:22353   */\n      iszero\n      tag_849\n      jumpi\n        /* \"#utility.yul\":21952:21990   */\n      tag_850\n        /* \"#utility.yul\":21984:21989   */\n      dup2\n        /* \"#utility.yul\":21952:21990   */\n      tag_562\n      jump\t// in\n    tag_850:\n        /* \"#utility.yul\":22036:22065   */\n      tag_851\n        /* \"#utility.yul\":22054:22064   */\n      dup5\n        /* \"#utility.yul\":22036:22065   */\n      tag_563\n      jump\t// in\n    tag_851:\n        /* \"#utility.yul\":22026:22034   */\n      dup2\n        /* \"#utility.yul\":22022:22066   */\n      add\n        /* \"#utility.yul\":22219:22221   */\n      0x20\n        /* \"#utility.yul\":22207:22217   */\n      dup6\n        /* \"#utility.yul\":22204:22222   */\n      lt\n        /* \"#utility.yul\":22201:22250   */\n      iszero\n      tag_852\n      jumpi\n        /* \"#utility.yul\":22240:22248   */\n      dup2\n        /* \"#utility.yul\":22225:22248   */\n      swap1\n      pop\n        /* \"#utility.yul\":22201:22250   */\n    tag_852:\n        /* \"#utility.yul\":22263:22343   */\n      tag_853\n        /* \"#utility.yul\":22319:22341   */\n      tag_854\n        /* \"#utility.yul\":22337:22340   */\n      dup6\n        /* \"#utility.yul\":22319:22341   */\n      tag_563\n      jump\t// in\n    tag_854:\n        /* \"#utility.yul\":22309:22317   */\n      dup4\n        /* \"#utility.yul\":22305:22342   */\n      add\n        /* \"#utility.yul\":22292:22303   */\n      dup3\n        /* \"#utility.yul\":22263:22343   */\n      tag_572\n      jump\t// in\n    tag_853:\n        /* \"#utility.yul\":21922:22353   */\n      pop\n      pop\n        /* \"#utility.yul\":21907:22353   */\n    tag_849:\n        /* \"#utility.yul\":21817:22360   */\n      pop\n      pop\n      pop\n      jump\t// out\n        /* \"#utility.yul\":22366:22483   */\n    tag_574:\n        /* \"#utility.yul\":22420:22428   */\n      0x00\n        /* \"#utility.yul\":22470:22475   */\n      dup3\n        /* \"#utility.yul\":22464:22468   */\n      dup3\n        /* \"#utility.yul\":22460:22476   */\n      shr\n        /* \"#utility.yul\":22439:22476   */\n      swap1\n      pop\n        /* \"#utility.yul\":22366:22483   */\n      swap3\n      swap2\n      pop\n      pop\n      jump\t// out\n        /* \"#utility.yul\":22489:22658   */\n    tag_575:\n        /* \"#utility.yul\":22533:22539   */\n      0x00\n        /* \"#utility.yul\":22566:22617   */\n      tag_857\n        /* \"#utility.yul\":22614:22615   */\n      0x00\n        /* \"#utility.yul\":22610:22616   */\n      not\n        /* \"#utility.yul\":22602:22607   */\n      dup5\n        /* \"#utility.yul\":22599:22600   */\n      0x08\n        /* \"#utility.yul\":22595:22608   */\n      mul\n        /* \"#utility.yul\":22566:22617   */\n      tag_574\n      jump\t// in\n    tag_857:\n        /* \"#utility.yul\":22562:22618   */\n      not\n        /* \"#utility.yul\":22647:22651   */\n      dup1\n        /* \"#utility.yul\":22641:22645   */\n      dup4\n        /* \"#utility.yul\":22637:22652   */\n      and\n        /* \"#utility.yul\":22627:22652   */\n      swap2\n      pop\n        /* \"#utility.yul\":22540:22658   */\n      pop\n        /* \"#utility.yul\":22489:22658   */\n      swap3\n      swap2\n      pop\n      pop\n      jump\t// out\n        /* \"#utility.yul\":22663:22958   */\n    tag_576:\n        /* \"#utility.yul\":22739:22743   */\n      0x00\n        /* \"#utility.yul\":22885:22914   */\n      tag_859\n        /* \"#utility.yul\":22910:22913   */\n      dup4\n        /* \"#utility.yul\":22904:22908   */\n      dup4\n        /* \"#utility.yul\":22885:22914   */\n      tag_575\n      jump\t// in\n    tag_859:\n        /* \"#utility.yul\":22877:22914   */\n      swap2\n      pop\n        /* \"#utility.yul\":22947:22950   */\n      dup3\n        /* \"#utility.yul\":22944:22945   */\n      0x02\n        /* \"#utility.yul\":22940:22951   */\n      mul\n        /* \"#utility.yul\":22934:22938   */\n      dup3\n        /* \"#utility.yul\":22931:22952   */\n      or\n        /* \"#utility.yul\":22923:22952   */\n      swap1\n      pop\n        /* \"#utility.yul\":22663:22958   */\n      swap3\n      swap2\n      pop\n      pop\n      jump\t// out\n        /* \"#utility.yul\":22963:24358   */\n    tag_181:\n        /* \"#utility.yul\":23080:23117   */\n      tag_861\n        /* \"#utility.yul\":23113:23116   */\n      dup3\n        /* \"#utility.yul\":23080:23117   */\n      tag_533\n      jump\t// in\n    tag_861:\n        /* \"#utility.yul\":23182:23200   */\n      0xffffffffffffffff\n        /* \"#utility.yul\":23174:23180   */\n      dup2\n        /* \"#utility.yul\":23171:23201   */\n      gt\n        /* \"#utility.yul\":23168:23224   */\n      iszero\n      tag_862\n      jumpi\n        /* \"#utility.yul\":23204:23222   */\n      tag_863\n      tag_523\n      jump\t// in\n    tag_863:\n        /* \"#utility.yul\":23168:23224   */\n    tag_862:\n        /* \"#utility.yul\":23248:23286   */\n      tag_864\n        /* \"#utility.yul\":23280:23284   */\n      dup3\n        /* \"#utility.yul\":23274:23285   */\n      sload\n        /* \"#utility.yul\":23248:23286   */\n      tag_187\n      jump\t// in\n    tag_864:\n        /* \"#utility.yul\":23333:23400   */\n      tag_865\n        /* \"#utility.yul\":23393:23399   */\n      dup3\n        /* \"#utility.yul\":23385:23391   */\n      dup3\n        /* \"#utility.yul\":23379:23383   */\n      dup6\n        /* \"#utility.yul\":23333:23400   */\n      tag_573\n      jump\t// in\n    tag_865:\n        /* \"#utility.yul\":23427:23428   */\n      0x00\n        /* \"#utility.yul\":23451:23455   */\n      0x20\n        /* \"#utility.yul\":23438:23455   */\n      swap1\n      pop\n        /* \"#utility.yul\":23483:23485   */\n      0x1f\n        /* \"#utility.yul\":23475:23481   */\n      dup4\n        /* \"#utility.yul\":23472:23486   */\n      gt\n        /* \"#utility.yul\":23500:23501   */\n      0x01\n        /* \"#utility.yul\":23495:24113   */\n      dup2\n      eq\n      tag_867\n      jumpi\n        /* \"#utility.yul\":24157:24158   */\n      0x00\n        /* \"#utility.yul\":24174:24180   */\n      dup5\n        /* \"#utility.yul\":24171:24248   */\n      iszero\n      tag_868\n      jumpi\n        /* \"#utility.yul\":24223:24232   */\n      dup3\n        /* \"#utility.yul\":24218:24221   */\n      dup8\n        /* \"#utility.yul\":24214:24233   */\n      add\n        /* \"#utility.yul\":24208:24234   */\n      mload\n        /* \"#utility.yul\":24199:24234   */\n      swap1\n      pop\n        /* \"#utility.yul\":24171:24248   */\n    tag_868:\n        /* \"#utility.yul\":24274:24341   */\n      tag_869\n        /* \"#utility.yul\":24334:24340   */\n      dup6\n        /* \"#utility.yul\":24327:24332   */\n      dup3\n        /* \"#utility.yul\":24274:24341   */\n      tag_576\n      jump\t// in\n    tag_869:\n        /* \"#utility.yul\":24268:24272   */\n      dup7\n        /* \"#utility.yul\":24261:24342   */\n      sstore\n        /* \"#utility.yul\":24130:24352   */\n      pop\n        /* \"#utility.yul\":23465:24352   */\n      jump(tag_866)\n        /* \"#utility.yul\":23495:24113   */\n    tag_867:\n        /* \"#utility.yul\":23547:23551   */\n      0x1f\n        /* \"#utility.yul\":23543:23552   */\n      not\n        /* \"#utility.yul\":23535:23541   */\n      dup5\n        /* \"#utility.yul\":23531:23553   */\n      and\n        /* \"#utility.yul\":23581:23618   */\n      tag_870\n        /* \"#utility.yul\":23613:23617   */\n      dup7\n        /* \"#utility.yul\":23581:23618   */\n      tag_562\n      jump\t// in\n    tag_870:\n        /* \"#utility.yul\":23640:23641   */\n      0x00\n        /* \"#utility.yul\":23654:23862   */\n    tag_871:\n        /* \"#utility.yul\":23668:23675   */\n      dup3\n        /* \"#utility.yul\":23665:23666   */\n      dup2\n        /* \"#utility.yul\":23662:23676   */\n      lt\n        /* \"#utility.yul\":23654:23862   */\n      iszero\n      tag_873\n      jumpi\n        /* \"#utility.yul\":23747:23756   */\n      dup5\n        /* \"#utility.yul\":23742:23745   */\n      dup10\n        /* \"#utility.yul\":23738:23757   */\n      add\n        /* \"#utility.yul\":23732:23758   */\n      mload\n        /* \"#utility.yul\":23724:23730   */\n      dup3\n        /* \"#utility.yul\":23717:23759   */\n      sstore\n        /* \"#utility.yul\":23798:23799   */\n      0x01\n        /* \"#utility.yul\":23790:23796   */\n      dup3\n        /* \"#utility.yul\":23786:23800   */\n      add\n        /* \"#utility.yul\":23776:23800   */\n      swap2\n      pop\n        /* \"#utility.yul\":23845:23847   */\n      0x20\n        /* \"#utility.yul\":23834:23843   */\n      dup6\n        /* \"#utility.yul\":23830:23848   */\n      add\n        /* \"#utility.yul\":23817:23848   */\n      swap5\n      pop\n        /* \"#utility.yul\":23691:23695   */\n      0x20\n        /* \"#utility.yul\":23688:23689   */\n      dup2\n        /* \"#utility.yul\":23684:23696   */\n      add\n        /* \"#utility.yul\":23679:23696   */\n      swap1\n      pop\n        /* \"#utility.yul\":23654:23862   */\n      jump(tag_871)\n    tag_873:\n        /* \"#utility.yul\":23890:23896   */\n      dup7\n        /* \"#utility.yul\":23881:23888   */\n      dup4\n        /* \"#utility.yul\":23878:23897   */\n      lt\n        /* \"#utility.yul\":23875:24054   */\n      iszero\n      tag_874\n      jumpi\n        /* \"#utility.yul\":23948:23957   */\n      dup5\n        /* \"#utility.yul\":23943:23946   */\n      dup10\n        /* \"#utility.yul\":23939:23958   */\n      add\n        /* \"#utility.yul\":23933:23959   */\n      mload\n        /* \"#utility.yul\":23991:24039   */\n      tag_875\n        /* \"#utility.yul\":24033:24037   */\n      0x1f\n        /* \"#utility.yul\":24025:24031   */\n      dup10\n        /* \"#utility.yul\":24021:24038   */\n      and\n        /* \"#utility.yul\":24010:24019   */\n      dup3\n        /* \"#utility.yul\":23991:24039   */\n      tag_575\n      jump\t// in\n    tag_875:\n        /* \"#utility.yul\":23983:23989   */\n      dup4\n        /* \"#utility.yul\":23976:24040   */\n      sstore\n        /* \"#utility.yul\":23898:24054   */\n      pop\n        /* \"#utility.yul\":23875:24054   */\n    tag_874:\n        /* \"#utility.yul\":24100:24101   */\n      0x01\n        /* \"#utility.yul\":24096:24097   */\n      0x02\n        /* \"#utility.yul\":24088:24094   */\n      dup9\n        /* \"#utility.yul\":24084:24098   */\n      mul\n        /* \"#utility.yul\":24080:24102   */\n      add\n        /* \"#utility.yul\":24074:24078   */\n      dup9\n        /* \"#utility.yul\":24067:24103   */\n      sstore\n        /* \"#utility.yul\":23502:24113   */\n      pop\n      pop\n      pop\n        /* \"#utility.yul\":23465:24352   */\n    tag_866:\n      pop\n        /* \"#utility.yul\":23055:24358   */\n      pop\n      pop\n      pop\n        /* \"#utility.yul\":22963:24358   */\n      pop\n      pop\n      jump\t// out\n        /* \"#utility.yul\":24364:24696   */\n    tag_183:\n        /* \"#utility.yul\":24485:24489   */\n      0x00\n        /* \"#utility.yul\":24523:24525   */\n      0x40\n        /* \"#utility.yul\":24512:24521   */\n      dup3\n        /* \"#utility.yul\":24508:24526   */\n      add\n        /* \"#utility.yul\":24500:24526   */\n      swap1\n      pop\n        /* \"#utility.yul\":24536:24607   */\n      tag_877\n        /* \"#utility.yul\":24604:24605   */\n      0x00\n        /* \"#utility.yul\":24593:24602   */\n      dup4\n        /* \"#utility.yul\":24589:24606   */\n      add\n        /* \"#utility.yul\":24580:24586   */\n      dup6\n        /* \"#utility.yul\":24536:24607   */\n      tag_514\n      jump\t// in\n    tag_877:\n        /* \"#utility.yul\":24617:24689   */\n      tag_878\n        /* \"#utility.yul\":24685:24687   */\n      0x20\n        /* \"#utility.yul\":24674:24683   */\n      dup4\n        /* \"#utility.yul\":24670:24688   */\n      add\n        /* \"#utility.yul\":24661:24667   */\n      dup5\n        /* \"#utility.yul\":24617:24689   */\n      tag_514\n      jump\t// in\n    tag_878:\n        /* \"#utility.yul\":24364:24696   */\n      swap4\n      swap3\n      pop\n      pop\n      pop\n      jump\t// out\n        /* \"#utility.yul\":24702:24926   */\n    tag_577:\n        /* \"#utility.yul\":24842:24876   */\n      0x50726f6a656374206973206e6f74206f70656e20666f72206170706c69636174\n        /* \"#utility.yul\":24838:24839   */\n      0x00\n        /* \"#utility.yul\":24830:24836   */\n      dup3\n        /* \"#utility.yul\":24826:24840   */\n      add\n        /* \"#utility.yul\":24819:24877   */\n      mstore\n        /* \"#utility.yul\":24911:24918   */\n      0x696f6e732e000000000000000000000000000000000000000000000000000000\n        /* \"#utility.yul\":24906:24908   */\n      0x20\n        /* \"#utility.yul\":24898:24904   */\n      dup3\n        /* \"#utility.yul\":24894:24909   */\n      add\n        /* \"#utility.yul\":24887:24919   */\n      mstore\n        /* \"#utility.yul\":24702:24926   */\n      pop\n      jump\t// out\n        /* \"#utility.yul\":24932:25298   */\n    tag_578:\n        /* \"#utility.yul\":25074:25077   */\n      0x00\n        /* \"#utility.yul\":25095:25162   */\n      tag_881\n        /* \"#utility.yul\":25159:25161   */\n      0x25\n        /* \"#utility.yul\":25154:25157   */\n      dup4\n        /* \"#utility.yul\":25095:25162   */\n      tag_534\n      jump\t// in\n    tag_881:\n        /* \"#utility.yul\":25088:25162   */\n      swap2\n      pop\n        /* \"#utility.yul\":25171:25264   */\n      tag_882\n        /* \"#utility.yul\":25260:25263   */\n      dup3\n        /* \"#utility.yul\":25171:25264   */\n      tag_577\n      jump\t// in\n    tag_882:\n        /* \"#utility.yul\":25289:25291   */\n      0x40\n        /* \"#utility.yul\":25284:25287   */\n      dup3\n        /* \"#utility.yul\":25280:25292   */\n      add\n        /* \"#utility.yul\":25273:25292   */\n      swap1\n      pop\n        /* \"#utility.yul\":24932:25298   */\n      swap2\n      swap1\n      pop\n      jump\t// out\n        /* \"#utility.yul\":25304:25723   */\n    tag_210:\n        /* \"#utility.yul\":25470:25474   */\n      0x00\n        /* \"#utility.yul\":25508:25510   */\n      0x20\n        /* \"#utility.yul\":25497:25506   */\n      dup3\n        /* \"#utility.yul\":25493:25511   */\n      add\n        /* \"#utility.yul\":25485:25511   */\n      swap1\n      pop\n        /* \"#utility.yul\":25557:25566   */\n      dup2\n        /* \"#utility.yul\":25551:25555   */\n      dup2\n        /* \"#utility.yul\":25547:25567   */\n      sub\n        /* \"#utility.yul\":25543:25544   */\n      0x00\n        /* \"#utility.yul\":25532:25541   */\n      dup4\n        /* \"#utility.yul\":25528:25545   */\n      add\n        /* \"#utility.yul\":25521:25568   */\n      mstore\n        /* \"#utility.yul\":25585:25716   */\n      tag_884\n        /* \"#utility.yul\":25711:25715   */\n      dup2\n        /* \"#utility.yul\":25585:25716   */\n      tag_578\n      jump\t// in\n    tag_884:\n        /* \"#utility.yul\":25577:25716   */\n      swap1\n      pop\n        /* \"#utility.yul\":25304:25723   */\n      swap2\n      swap1\n      pop\n      jump\t// out\n        /* \"#utility.yul\":25729:25953   */\n    tag_579:\n        /* \"#utility.yul\":25869:25903   */\n      0x596f7520616c7265616479206170706c69656420666f7220746869732070726f\n        /* \"#utility.yul\":25865:25866   */\n      0x00\n        /* \"#utility.yul\":25857:25863   */\n      dup3\n        /* \"#utility.yul\":25853:25867   */\n      add\n        /* \"#utility.yul\":25846:25904   */\n      mstore\n        /* \"#utility.yul\":25938:25945   */\n      0x6a6563742e000000000000000000000000000000000000000000000000000000\n        /* \"#utility.yul\":25933:25935   */\n      0x20\n        /* \"#utility.yul\":25925:25931   */\n      dup3\n        /* \"#utility.yul\":25921:25936   */\n      add\n        /* \"#utility.yul\":25914:25946   */\n      mstore\n        /* \"#utility.yul\":25729:25953   */\n      pop\n      jump\t// out\n        /* \"#utility.yul\":25959:26325   */\n    tag_580:\n        /* \"#utility.yul\":26101:26104   */\n      0x00\n        /* \"#utility.yul\":26122:26189   */\n      tag_887\n        /* \"#utility.yul\":26186:26188   */\n      0x25\n        /* \"#utility.yul\":26181:26184   */\n      dup4\n        /* \"#utility.yul\":26122:26189   */\n      tag_534\n      jump\t// in\n    tag_887:\n        /* \"#utility.yul\":26115:26189   */\n      swap2\n      pop\n        /* \"#utility.yul\":26198:26291   */\n      tag_888\n        /* \"#utility.yul\":26287:26290   */\n      dup3\n        /* \"#utility.yul\":26198:26291   */\n      tag_579\n      jump\t// in\n    tag_888:\n        /* \"#utility.yul\":26316:26318   */\n      0x40\n        /* \"#utility.yul\":26311:26314   */\n      dup3\n        /* \"#utility.yul\":26307:26319   */\n      add\n        /* \"#utility.yul\":26300:26319   */\n      swap1\n      pop\n        /* \"#utility.yul\":25959:26325   */\n      swap2\n      swap1\n      pop\n      jump\t// out\n        /* \"#utility.yul\":26331:26750   */\n    tag_215:\n        /* \"#utility.yul\":26497:26501   */\n      0x00\n        /* \"#utility.yul\":26535:26537   */\n      0x20\n        /* \"#utility.yul\":26524:26533   */\n      dup3\n        /* \"#utility.yul\":26520:26538   */\n      add\n        /* \"#utility.yul\":26512:26538   */\n      swap1\n      pop\n        /* \"#utility.yul\":26584:26593   */\n      dup2\n        /* \"#utility.yul\":26578:26582   */\n      dup2\n        /* \"#utility.yul\":26574:26594   */\n      sub\n        /* \"#utility.yul\":26570:26571   */\n      0x00\n        /* \"#utility.yul\":26559:26568   */\n      dup4\n        /* \"#utility.yul\":26555:26572   */\n      add\n        /* \"#utility.yul\":26548:26595   */\n      mstore\n        /* \"#utility.yul\":26612:26743   */\n      tag_890\n        /* \"#utility.yul\":26738:26742   */\n      dup2\n        /* \"#utility.yul\":26612:26743   */\n      tag_580\n      jump\t// in\n    tag_890:\n        /* \"#utility.yul\":26604:26743   */\n      swap1\n      pop\n        /* \"#utility.yul\":26331:26750   */\n      swap2\n      swap1\n      pop\n      jump\t// out\n        /* \"#utility.yul\":26756:26983   */\n    tag_581:\n        /* \"#utility.yul\":26896:26930   */\n      0x4f6e6c792074686520636c69656e742063616e20706572666f726d2074686973\n        /* \"#utility.yul\":26892:26893   */\n      0x00\n        /* \"#utility.yul\":26884:26890   */\n      dup3\n        /* \"#utility.yul\":26880:26894   */\n      add\n        /* \"#utility.yul\":26873:26931   */\n      mstore\n        /* \"#utility.yul\":26965:26975   */\n      0x20616374696f6e2e000000000000000000000000000000000000000000000000\n        /* \"#utility.yul\":26960:26962   */\n      0x20\n        /* \"#utility.yul\":26952:26958   */\n      dup3\n        /* \"#utility.yul\":26948:26963   */\n      add\n        /* \"#utility.yul\":26941:26976   */\n      mstore\n        /* \"#utility.yul\":26756:26983   */\n      pop\n      jump\t// out\n        /* \"#utility.yul\":26989:27355   */\n    tag_582:\n        /* \"#utility.yul\":27131:27134   */\n      0x00\n        /* \"#utility.yul\":27152:27219   */\n      tag_893\n        /* \"#utility.yul\":27216:27218   */\n      0x28\n        /* \"#utility.yul\":27211:27214   */\n      dup4\n        /* \"#utility.yul\":27152:27219   */\n      tag_534\n      jump\t// in\n    tag_893:\n        /* \"#utility.yul\":27145:27219   */\n      swap2\n      pop\n        /* \"#utility.yul\":27228:27321   */\n      tag_894\n        /* \"#utility.yul\":27317:27320   */\n      dup3\n        /* \"#utility.yul\":27228:27321   */\n      tag_581\n      jump\t// in\n    tag_894:\n        /* \"#utility.yul\":27346:27348   */\n      0x40\n        /* \"#utility.yul\":27341:27344   */\n      dup3\n        /* \"#utility.yul\":27337:27349   */\n      add\n        /* \"#utility.yul\":27330:27349   */\n      swap1\n      pop\n        /* \"#utility.yul\":26989:27355   */\n      swap2\n      swap1\n      pop\n      jump\t// out\n        /* \"#utility.yul\":27361:27780   */\n    tag_224:\n        /* \"#utility.yul\":27527:27531   */\n      0x00\n        /* \"#utility.yul\":27565:27567   */\n      0x20\n        /* \"#utility.yul\":27554:27563   */\n      dup3\n        /* \"#utility.yul\":27550:27568   */\n      add\n        /* \"#utility.yul\":27542:27568   */\n      swap1\n      pop\n        /* \"#utility.yul\":27614:27623   */\n      dup2\n        /* \"#utility.yul\":27608:27612   */\n      dup2\n        /* \"#utility.yul\":27604:27624   */\n      sub\n        /* \"#utility.yul\":27600:27601   */\n      0x00\n        /* \"#utility.yul\":27589:27598   */\n      dup4\n        /* \"#utility.yul\":27585:27602   */\n      add\n        /* \"#utility.yul\":27578:27625   */\n      mstore\n        /* \"#utility.yul\":27642:27773   */\n      tag_896\n        /* \"#utility.yul\":27768:27772   */\n      dup2\n        /* \"#utility.yul\":27642:27773   */\n      tag_582\n      jump\t// in\n    tag_896:\n        /* \"#utility.yul\":27634:27773   */\n      swap1\n      pop\n        /* \"#utility.yul\":27361:27780   */\n      swap2\n      swap1\n      pop\n      jump\t// out\n        /* \"#utility.yul\":27786:27966   */\n    tag_583:\n        /* \"#utility.yul\":27834:27911   */\n      0x4e487b7100000000000000000000000000000000000000000000000000000000\n        /* \"#utility.yul\":27831:27832   */\n      0x00\n        /* \"#utility.yul\":27824:27912   */\n      mstore\n        /* \"#utility.yul\":27931:27935   */\n      0x11\n        /* \"#utility.yul\":27928:27929   */\n      0x04\n        /* \"#utility.yul\":27921:27936   */\n      mstore\n        /* \"#utility.yul\":27955:27959   */\n      0x24\n        /* \"#utility.yul\":27952:27953   */\n      0x00\n        /* \"#utility.yul\":27945:27960   */\n      revert\n        /* \"#utility.yul\":27972:28382   */\n    tag_239:\n        /* \"#utility.yul\":28012:28019   */\n      0x00\n        /* \"#utility.yul\":28035:28055   */\n      tag_899\n        /* \"#utility.yul\":28053:28054   */\n      dup3\n        /* \"#utility.yul\":28035:28055   */\n      tag_513\n      jump\t// in\n    tag_899:\n        /* \"#utility.yul\":28030:28055   */\n      swap2\n      pop\n        /* \"#utility.yul\":28069:28089   */\n      tag_900\n        /* \"#utility.yul\":28087:28088   */\n      dup4\n        /* \"#utility.yul\":28069:28089   */\n      tag_513\n      jump\t// in\n    tag_900:\n        /* \"#utility.yul\":28064:28089   */\n      swap3\n      pop\n        /* \"#utility.yul\":28124:28125   */\n      dup3\n        /* \"#utility.yul\":28121:28122   */\n      dup3\n        /* \"#utility.yul\":28117:28126   */\n      mul\n        /* \"#utility.yul\":28146:28176   */\n      tag_901\n        /* \"#utility.yul\":28164:28175   */\n      dup2\n        /* \"#utility.yul\":28146:28176   */\n      tag_513\n      jump\t// in\n    tag_901:\n        /* \"#utility.yul\":28135:28176   */\n      swap2\n      pop\n        /* \"#utility.yul\":28325:28326   */\n      dup3\n        /* \"#utility.yul\":28316:28323   */\n      dup3\n        /* \"#utility.yul\":28312:28327   */\n      div\n        /* \"#utility.yul\":28309:28310   */\n      dup5\n        /* \"#utility.yul\":28306:28328   */\n      eq\n        /* \"#utility.yul\":28286:28287   */\n      dup4\n        /* \"#utility.yul\":28279:28288   */\n      iszero\n        /* \"#utility.yul\":28259:28342   */\n      or\n        /* \"#utility.yul\":28236:28375   */\n      tag_902\n      jumpi\n        /* \"#utility.yul\":28355:28373   */\n      tag_903\n      tag_583\n      jump\t// in\n    tag_903:\n        /* \"#utility.yul\":28236:28375   */\n    tag_902:\n        /* \"#utility.yul\":28020:28382   */\n      pop\n        /* \"#utility.yul\":27972:28382   */\n      swap3\n      swap2\n      pop\n      pop\n      jump\t// out\n        /* \"#utility.yul\":28388:28568   */\n    tag_584:\n        /* \"#utility.yul\":28436:28513   */\n      0x4e487b7100000000000000000000000000000000000000000000000000000000\n        /* \"#utility.yul\":28433:28434   */\n      0x00\n        /* \"#utility.yul\":28426:28514   */\n      mstore\n        /* \"#utility.yul\":28533:28537   */\n      0x12\n        /* \"#utility.yul\":28530:28531   */\n      0x04\n        /* \"#utility.yul\":28523:28538   */\n      mstore\n        /* \"#utility.yul\":28557:28561   */\n      0x24\n        /* \"#utility.yul\":28554:28555   */\n      0x00\n        /* \"#utility.yul\":28547:28562   */\n      revert\n        /* \"#utility.yul\":28574:28759   */\n    tag_241:\n        /* \"#utility.yul\":28614:28615   */\n      0x00\n        /* \"#utility.yul\":28631:28651   */\n      tag_906\n        /* \"#utility.yul\":28649:28650   */\n      dup3\n        /* \"#utility.yul\":28631:28651   */\n      tag_513\n      jump\t// in\n    tag_906:\n        /* \"#utility.yul\":28626:28651   */\n      swap2\n      pop\n        /* \"#utility.yul\":28665:28685   */\n      tag_907\n        /* \"#utility.yul\":28683:28684   */\n      dup4\n        /* \"#utility.yul\":28665:28685   */\n      tag_513\n      jump\t// in\n    tag_907:\n        /* \"#utility.yul\":28660:28685   */\n      swap3\n      pop\n        /* \"#utility.yul\":28704:28705   */\n      dup3\n        /* \"#utility.yul\":28694:28729   */\n      tag_908\n      jumpi\n        /* \"#utility.yul\":28709:28727   */\n      tag_909\n      tag_584\n      jump\t// in\n    tag_909:\n        /* \"#utility.yul\":28694:28729   */\n    tag_908:\n        /* \"#utility.yul\":28751:28752   */\n      dup3\n        /* \"#utility.yul\":28748:28749   */\n      dup3\n        /* \"#utility.yul\":28744:28753   */\n      div\n        /* \"#utility.yul\":28739:28753   */\n      swap1\n      pop\n        /* \"#utility.yul\":28574:28759   */\n      swap3\n      swap2\n      pop\n      pop\n      jump\t// out\n        /* \"#utility.yul\":28765:28959   */\n    tag_243:\n        /* \"#utility.yul\":28805:28809   */\n      0x00\n        /* \"#utility.yul\":28825:28845   */\n      tag_911\n        /* \"#utility.yul\":28843:28844   */\n      dup3\n        /* \"#utility.yul\":28825:28845   */\n      tag_513\n      jump\t// in\n    tag_911:\n        /* \"#utility.yul\":28820:28845   */\n      swap2\n      pop\n        /* \"#utility.yul\":28859:28879   */\n      tag_912\n        /* \"#utility.yul\":28877:28878   */\n      dup4\n        /* \"#utility.yul\":28859:28879   */\n      tag_513\n      jump\t// in\n    tag_912:\n        /* \"#utility.yul\":28854:28879   */\n      swap3\n      pop\n        /* \"#utility.yul\":28903:28904   */\n      dup3\n        /* \"#utility.yul\":28900:28901   */\n      dup3\n        /* \"#utility.yul\":28896:28905   */\n      sub\n        /* \"#utility.yul\":28888:28905   */\n      swap1\n      pop\n        /* \"#utility.yul\":28927:28928   */\n      dup2\n        /* \"#utility.yul\":28921:28925   */\n      dup2\n        /* \"#utility.yul\":28918:28929   */\n      gt\n        /* \"#utility.yul\":28915:28952   */\n      iszero\n      tag_913\n      jumpi\n        /* \"#utility.yul\":28932:28950   */\n      tag_914\n      tag_583\n      jump\t// in\n    tag_914:\n        /* \"#utility.yul\":28915:28952   */\n    tag_913:\n        /* \"#utility.yul\":28765:28959   */\n      swap3\n      swap2\n      pop\n      pop\n      jump\t// out\n        /* \"#utility.yul\":28965:29212   */\n    tag_585:\n        /* \"#utility.yul\":29105:29139   */\n      0x46756e64732063616e206f6e6c792062652077697468647261776e2066726f6d\n        /* \"#utility.yul\":29101:29102   */\n      0x00\n        /* \"#utility.yul\":29093:29099   */\n      dup3\n        /* \"#utility.yul\":29089:29103   */\n      add\n        /* \"#utility.yul\":29082:29140   */\n      mstore\n        /* \"#utility.yul\":29174:29204   */\n      0x20636f6d706c65746564206f72206f70656e2070726f6a656374732e00000000\n        /* \"#utility.yul\":29169:29171   */\n      0x20\n        /* \"#utility.yul\":29161:29167   */\n      dup3\n        /* \"#utility.yul\":29157:29172   */\n      add\n        /* \"#utility.yul\":29150:29205   */\n      mstore\n        /* \"#utility.yul\":28965:29212   */\n      pop\n      jump\t// out\n        /* \"#utility.yul\":29218:29584   */\n    tag_586:\n        /* \"#utility.yul\":29360:29363   */\n      0x00\n        /* \"#utility.yul\":29381:29448   */\n      tag_917\n        /* \"#utility.yul\":29445:29447   */\n      0x3c\n        /* \"#utility.yul\":29440:29443   */\n      dup4\n        /* \"#utility.yul\":29381:29448   */\n      tag_534\n      jump\t// in\n    tag_917:\n        /* \"#utility.yul\":29374:29448   */\n      swap2\n      pop\n        /* \"#utility.yul\":29457:29550   */\n      tag_918\n        /* \"#utility.yul\":29546:29549   */\n      dup3\n        /* \"#utility.yul\":29457:29550   */\n      tag_585\n      jump\t// in\n    tag_918:\n        /* \"#utility.yul\":29575:29577   */\n      0x40\n        /* \"#utility.yul\":29570:29573   */\n      dup3\n        /* \"#utility.yul\":29566:29578   */\n      add\n        /* \"#utility.yul\":29559:29578   */\n      swap1\n      pop\n        /* \"#utility.yul\":29218:29584   */\n      swap2\n      swap1\n      pop\n      jump\t// out\n        /* \"#utility.yul\":29590:30009   */\n    tag_301:\n        /* \"#utility.yul\":29756:29760   */\n      0x00\n        /* \"#utility.yul\":29794:29796   */\n      0x20\n        /* \"#utility.yul\":29783:29792   */\n      dup3\n        /* \"#utility.yul\":29779:29797   */\n      add\n        /* \"#utility.yul\":29771:29797   */\n      swap1\n      pop\n        /* \"#utility.yul\":29843:29852   */\n      dup2\n        /* \"#utility.yul\":29837:29841   */\n      dup2\n        /* \"#utility.yul\":29833:29853   */\n      sub\n        /* \"#utility.yul\":29829:29830   */\n      0x00\n        /* \"#utility.yul\":29818:29827   */\n      dup4\n        /* \"#utility.yul\":29814:29831   */\n      add\n        /* \"#utility.yul\":29807:29854   */\n      mstore\n        /* \"#utility.yul\":29871:30002   */\n      tag_920\n        /* \"#utility.yul\":29997:30001   */\n      dup2\n        /* \"#utility.yul\":29871:30002   */\n      tag_586\n      jump\t// in\n    tag_920:\n        /* \"#utility.yul\":29863:30002   */\n      swap1\n      pop\n        /* \"#utility.yul\":29590:30009   */\n      swap2\n      swap1\n      pop\n      jump\t// out\n        /* \"#utility.yul\":30015:30186   */\n    tag_587:\n        /* \"#utility.yul\":30155:30178   */\n      0x4e6f2066756e647320746f2077697468647261772e0000000000000000000000\n        /* \"#utility.yul\":30151:30152   */\n      0x00\n        /* \"#utility.yul\":30143:30149   */\n      dup3\n        /* \"#utility.yul\":30139:30153   */\n      add\n        /* \"#utility.yul\":30132:30179   */\n      mstore\n        /* \"#utility.yul\":30015:30186   */\n      pop\n      jump\t// out\n        /* \"#utility.yul\":30192:30558   */\n    tag_588:\n        /* \"#utility.yul\":30334:30337   */\n      0x00\n        /* \"#utility.yul\":30355:30422   */\n      tag_923\n        /* \"#utility.yul\":30419:30421   */\n      0x15\n        /* \"#utility.yul\":30414:30417   */\n      dup4\n        /* \"#utility.yul\":30355:30422   */\n      tag_534\n      jump\t// in\n    tag_923:\n        /* \"#utility.yul\":30348:30422   */\n      swap2\n      pop\n        /* \"#utility.yul\":30431:30524   */\n      tag_924\n        /* \"#utility.yul\":30520:30523   */\n      dup3\n        /* \"#utility.yul\":30431:30524   */\n      tag_587\n      jump\t// in\n    tag_924:\n        /* \"#utility.yul\":30549:30551   */\n      0x20\n        /* \"#utility.yul\":30544:30547   */\n      dup3\n        /* \"#utility.yul\":30540:30552   */\n      add\n        /* \"#utility.yul\":30533:30552   */\n      swap1\n      pop\n        /* \"#utility.yul\":30192:30558   */\n      swap2\n      swap1\n      pop\n      jump\t// out\n        /* \"#utility.yul\":30564:30983   */\n    tag_304:\n        /* \"#utility.yul\":30730:30734   */\n      0x00\n        /* \"#utility.yul\":30768:30770   */\n      0x20\n        /* \"#utility.yul\":30757:30766   */\n      dup3\n        /* \"#utility.yul\":30753:30771   */\n      add\n        /* \"#utility.yul\":30745:30771   */\n      swap1\n      pop\n        /* \"#utility.yul\":30817:30826   */\n      dup2\n        /* \"#utility.yul\":30811:30815   */\n      dup2\n        /* \"#utility.yul\":30807:30827   */\n      sub\n        /* \"#utility.yul\":30803:30804   */\n      0x00\n        /* \"#utility.yul\":30792:30801   */\n      dup4\n        /* \"#utility.yul\":30788:30805   */\n      add\n        /* \"#utility.yul\":30781:30828   */\n      mstore\n        /* \"#utility.yul\":30845:30976   */\n      tag_926\n        /* \"#utility.yul\":30971:30975   */\n      dup2\n        /* \"#utility.yul\":30845:30976   */\n      tag_588\n      jump\t// in\n    tag_926:\n        /* \"#utility.yul\":30837:30976   */\n      swap1\n      pop\n        /* \"#utility.yul\":30564:30983   */\n      swap2\n      swap1\n      pop\n      jump\t// out\n        /* \"#utility.yul\":30989:31212   */\n    tag_589:\n        /* \"#utility.yul\":31129:31163   */\n      0x50726f6a656374206973206e6f74206f70656e20666f72204170706c69636174\n        /* \"#utility.yul\":31125:31126   */\n      0x00\n        /* \"#utility.yul\":31117:31123   */\n      dup3\n        /* \"#utility.yul\":31113:31127   */\n      add\n        /* \"#utility.yul\":31106:31164   */\n      mstore\n        /* \"#utility.yul\":31198:31204   */\n      0x696f6e2e00000000000000000000000000000000000000000000000000000000\n        /* \"#utility.yul\":31193:31195   */\n      0x20\n        /* \"#utility.yul\":31185:31191   */\n      dup3\n        /* \"#utility.yul\":31181:31196   */\n      add\n        /* \"#utility.yul\":31174:31205   */\n      mstore\n        /* \"#utility.yul\":30989:31212   */\n      pop\n      jump\t// out\n        /* \"#utility.yul\":31218:31584   */\n    tag_590:\n        /* \"#utility.yul\":31360:31363   */\n      0x00\n        /* \"#utility.yul\":31381:31448   */\n      tag_929\n        /* \"#utility.yul\":31445:31447   */\n      0x24\n        /* \"#utility.yul\":31440:31443   */\n      dup4\n        /* \"#utility.yul\":31381:31448   */\n      tag_534\n      jump\t// in\n    tag_929:\n        /* \"#utility.yul\":31374:31448   */\n      swap2\n      pop\n        /* \"#utility.yul\":31457:31550   */\n      tag_930\n        /* \"#utility.yul\":31546:31549   */\n      dup3\n        /* \"#utility.yul\":31457:31550   */\n      tag_589\n      jump\t// in\n    tag_930:\n        /* \"#utility.yul\":31575:31577   */\n      0x40\n        /* \"#utility.yul\":31570:31573   */\n      dup3\n        /* \"#utility.yul\":31566:31578   */\n      add\n        /* \"#utility.yul\":31559:31578   */\n      swap1\n      pop\n        /* \"#utility.yul\":31218:31584   */\n      swap2\n      swap1\n      pop\n      jump\t// out\n        /* \"#utility.yul\":31590:32009   */\n    tag_331:\n        /* \"#utility.yul\":31756:31760   */\n      0x00\n        /* \"#utility.yul\":31794:31796   */\n      0x20\n        /* \"#utility.yul\":31783:31792   */\n      dup3\n        /* \"#utility.yul\":31779:31797   */\n      add\n        /* \"#utility.yul\":31771:31797   */\n      swap1\n      pop\n        /* \"#utility.yul\":31843:31852   */\n      dup2\n        /* \"#utility.yul\":31837:31841   */\n      dup2\n        /* \"#utility.yul\":31833:31853   */\n      sub\n        /* \"#utility.yul\":31829:31830   */\n      0x00\n        /* \"#utility.yul\":31818:31827   */\n      dup4\n        /* \"#utility.yul\":31814:31831   */\n      add\n        /* \"#utility.yul\":31807:31854   */\n      mstore\n        /* \"#utility.yul\":31871:32002   */\n      tag_932\n        /* \"#utility.yul\":31997:32001   */\n      dup2\n        /* \"#utility.yul\":31871:32002   */\n      tag_590\n      jump\t// in\n    tag_932:\n        /* \"#utility.yul\":31863:32002   */\n      swap1\n      pop\n        /* \"#utility.yul\":31590:32009   */\n      swap2\n      swap1\n      pop\n      jump\t// out\n        /* \"#utility.yul\":32015:32191   */\n    tag_591:\n        /* \"#utility.yul\":32155:32183   */\n      0x496e76616c6964206170706c69636174696f6e20696e6465782e000000000000\n        /* \"#utility.yul\":32151:32152   */\n      0x00\n        /* \"#utility.yul\":32143:32149   */\n      dup3\n        /* \"#utility.yul\":32139:32153   */\n      add\n        /* \"#utility.yul\":32132:32184   */\n      mstore\n        /* \"#utility.yul\":32015:32191   */\n      pop\n      jump\t// out\n        /* \"#utility.yul\":32197:32563   */\n    tag_592:\n        /* \"#utility.yul\":32339:32342   */\n      0x00\n        /* \"#utility.yul\":32360:32427   */\n      tag_935\n        /* \"#utility.yul\":32424:32426   */\n      0x1a\n        /* \"#utility.yul\":32419:32422   */\n      dup4\n        /* \"#utility.yul\":32360:32427   */\n      tag_534\n      jump\t// in\n    tag_935:\n        /* \"#utility.yul\":32353:32427   */\n      swap2\n      pop\n        /* \"#utility.yul\":32436:32529   */\n      tag_936\n        /* \"#utility.yul\":32525:32528   */\n      dup3\n        /* \"#utility.yul\":32436:32529   */\n      tag_591\n      jump\t// in\n    tag_936:\n        /* \"#utility.yul\":32554:32556   */\n      0x20\n        /* \"#utility.yul\":32549:32552   */\n      dup3\n        /* \"#utility.yul\":32545:32557   */\n      add\n        /* \"#utility.yul\":32538:32557   */\n      swap1\n      pop\n        /* \"#utility.yul\":32197:32563   */\n      swap2\n      swap1\n      pop\n      jump\t// out\n        /* \"#utility.yul\":32569:32988   */\n    tag_334:\n        /* \"#utility.yul\":32735:32739   */\n      0x00\n        /* \"#utility.yul\":32773:32775   */\n      0x20\n        /* \"#utility.yul\":32762:32771   */\n      dup3\n        /* \"#utility.yul\":32758:32776   */\n      add\n        /* \"#utility.yul\":32750:32776   */\n      swap1\n      pop\n        /* \"#utility.yul\":32822:32831   */\n      dup2\n        /* \"#utility.yul\":32816:32820   */\n      dup2\n        /* \"#utility.yul\":32812:32832   */\n      sub\n        /* \"#utility.yul\":32808:32809   */\n      0x00\n        /* \"#utility.yul\":32797:32806   */\n      dup4\n        /* \"#utility.yul\":32793:32810   */\n      add\n        /* \"#utility.yul\":32786:32833   */\n      mstore\n        /* \"#utility.yul\":32850:32981   */\n      tag_938\n        /* \"#utility.yul\":32976:32980   */\n      dup2\n        /* \"#utility.yul\":32850:32981   */\n      tag_592\n      jump\t// in\n    tag_938:\n        /* \"#utility.yul\":32842:32981   */\n      swap1\n      pop\n        /* \"#utility.yul\":32569:32988   */\n      swap2\n      swap1\n      pop\n      jump\t// out\n        /* \"#utility.yul\":32994:33219   */\n    tag_593:\n        /* \"#utility.yul\":33134:33168   */\n      0x596f7520616c72656164792061636365707465642074686973206170706c6963\n        /* \"#utility.yul\":33130:33131   */\n      0x00\n        /* \"#utility.yul\":33122:33128   */\n      dup3\n        /* \"#utility.yul\":33118:33132   */\n      add\n        /* \"#utility.yul\":33111:33169   */\n      mstore\n        /* \"#utility.yul\":33203:33211   */\n      0x6174696f6e2e0000000000000000000000000000000000000000000000000000\n        /* \"#utility.yul\":33198:33200   */\n      0x20\n        /* \"#utility.yul\":33190:33196   */\n      dup3\n        /* \"#utility.yul\":33186:33201   */\n      add\n        /* \"#utility.yul\":33179:33212   */\n      mstore\n        /* \"#utility.yul\":32994:33219   */\n      pop\n      jump\t// out\n        /* \"#utility.yul\":33225:33591   */\n    tag_594:\n        /* \"#utility.yul\":33367:33370   */\n      0x00\n        /* \"#utility.yul\":33388:33455   */\n      tag_941\n        /* \"#utility.yul\":33452:33454   */\n      0x26\n        /* \"#utility.yul\":33447:33450   */\n      dup4\n        /* \"#utility.yul\":33388:33455   */\n      tag_534\n      jump\t// in\n    tag_941:\n        /* \"#utility.yul\":33381:33455   */\n      swap2\n      pop\n        /* \"#utility.yul\":33464:33557   */\n      tag_942\n        /* \"#utility.yul\":33553:33556   */\n      dup3\n        /* \"#utility.yul\":33464:33557   */\n      tag_593\n      jump\t// in\n    tag_942:\n        /* \"#utility.yul\":33582:33584   */\n      0x40\n        /* \"#utility.yul\":33577:33580   */\n      dup3\n        /* \"#utility.yul\":33573:33585   */\n      add\n        /* \"#utility.yul\":33566:33585   */\n      swap1\n      pop\n        /* \"#utility.yul\":33225:33591   */\n      swap2\n      swap1\n      pop\n      jump\t// out\n        /* \"#utility.yul\":33597:34016   */\n    tag_340:\n        /* \"#utility.yul\":33763:33767   */\n      0x00\n        /* \"#utility.yul\":33801:33803   */\n      0x20\n        /* \"#utility.yul\":33790:33799   */\n      dup3\n        /* \"#utility.yul\":33786:33804   */\n      add\n        /* \"#utility.yul\":33778:33804   */\n      swap1\n      pop\n        /* \"#utility.yul\":33850:33859   */\n      dup2\n        /* \"#utility.yul\":33844:33848   */\n      dup2\n        /* \"#utility.yul\":33840:33860   */\n      sub\n        /* \"#utility.yul\":33836:33837   */\n      0x00\n        /* \"#utility.yul\":33825:33834   */\n      dup4\n        /* \"#utility.yul\":33821:33838   */\n      add\n        /* \"#utility.yul\":33814:33861   */\n      mstore\n        /* \"#utility.yul\":33878:34009   */\n      tag_944\n        /* \"#utility.yul\":34004:34008   */\n      dup2\n        /* \"#utility.yul\":33878:34009   */\n      tag_594\n      jump\t// in\n    tag_944:\n        /* \"#utility.yul\":33870:34009   */\n      swap1\n      pop\n        /* \"#utility.yul\":33597:34016   */\n      swap2\n      swap1\n      pop\n      jump\t// out\n        /* \"#utility.yul\":34022:34164   */\n    tag_595:\n        /* \"#utility.yul\":34072:34081   */\n      0x00\n        /* \"#utility.yul\":34105:34158   */\n      tag_946\n        /* \"#utility.yul\":34123:34157   */\n      tag_947\n        /* \"#utility.yul\":34132:34156   */\n      tag_948\n        /* \"#utility.yul\":34150:34155   */\n      dup5\n        /* \"#utility.yul\":34132:34156   */\n      tag_530\n      jump\t// in\n    tag_948:\n        /* \"#utility.yul\":34123:34157   */\n      tag_566\n      jump\t// in\n    tag_947:\n        /* \"#utility.yul\":34105:34158   */\n      tag_530\n      jump\t// in\n    tag_946:\n        /* \"#utility.yul\":34092:34158   */\n      swap1\n      pop\n        /* \"#utility.yul\":34022:34164   */\n      swap2\n      swap1\n      pop\n      jump\t// out\n        /* \"#utility.yul\":34170:34296   */\n    tag_596:\n        /* \"#utility.yul\":34220:34229   */\n      0x00\n        /* \"#utility.yul\":34253:34290   */\n      tag_950\n        /* \"#utility.yul\":34284:34289   */\n      dup3\n        /* \"#utility.yul\":34253:34290   */\n      tag_595\n      jump\t// in\n    tag_950:\n        /* \"#utility.yul\":34240:34290   */\n      swap1\n      pop\n        /* \"#utility.yul\":34170:34296   */\n      swap2\n      swap1\n      pop\n      jump\t// out\n        /* \"#utility.yul\":34302:34436   */\n    tag_597:\n        /* \"#utility.yul\":34360:34369   */\n      0x00\n        /* \"#utility.yul\":34393:34430   */\n      tag_952\n        /* \"#utility.yul\":34424:34429   */\n      dup3\n        /* \"#utility.yul\":34393:34430   */\n      tag_596\n      jump\t// in\n    tag_952:\n        /* \"#utility.yul\":34380:34430   */\n      swap1\n      pop\n        /* \"#utility.yul\":34302:34436   */\n      swap2\n      swap1\n      pop\n      jump\t// out\n        /* \"#utility.yul\":34442:34589   */\n    tag_598:\n        /* \"#utility.yul\":34537:34582   */\n      tag_954\n        /* \"#utility.yul\":34576:34581   */\n      dup2\n        /* \"#utility.yul\":34537:34582   */\n      tag_597\n      jump\t// in\n    tag_954:\n        /* \"#utility.yul\":34532:34535   */\n      dup3\n        /* \"#utility.yul\":34525:34583   */\n      mstore\n        /* \"#utility.yul\":34442:34589   */\n      pop\n      pop\n      jump\t// out\n        /* \"#utility.yul\":34595:35053   */\n    tag_350:\n        /* \"#utility.yul\":34752:34756   */\n      0x00\n        /* \"#utility.yul\":34790:34792   */\n      0x60\n        /* \"#utility.yul\":34779:34788   */\n      dup3\n        /* \"#utility.yul\":34775:34793   */\n      add\n        /* \"#utility.yul\":34767:34793   */\n      swap1\n      pop\n        /* \"#utility.yul\":34803:34874   */\n      tag_956\n        /* \"#utility.yul\":34871:34872   */\n      0x00\n        /* \"#utility.yul\":34860:34869   */\n      dup4\n        /* \"#utility.yul\":34856:34873   */\n      add\n        /* \"#utility.yul\":34847:34853   */\n      dup7\n        /* \"#utility.yul\":34803:34874   */\n      tag_514\n      jump\t// in\n    tag_956:\n        /* \"#utility.yul\":34884:34956   */\n      tag_957\n        /* \"#utility.yul\":34952:34954   */\n      0x20\n        /* \"#utility.yul\":34941:34950   */\n      dup4\n        /* \"#utility.yul\":34937:34955   */\n      add\n        /* \"#utility.yul\":34928:34934   */\n      dup6\n        /* \"#utility.yul\":34884:34956   */\n      tag_532\n      jump\t// in\n    tag_957:\n        /* \"#utility.yul\":34966:35046   */\n      tag_958\n        /* \"#utility.yul\":35042:35044   */\n      0x40\n        /* \"#utility.yul\":35031:35040   */\n      dup4\n        /* \"#utility.yul\":35027:35045   */\n      add\n        /* \"#utility.yul\":35018:35024   */\n      dup5\n        /* \"#utility.yul\":34966:35046   */\n      tag_598\n      jump\t// in\n    tag_958:\n        /* \"#utility.yul\":34595:35053   */\n      swap5\n      swap4\n      pop\n      pop\n      pop\n      pop\n      jump\t// out\n        /* \"#utility.yul\":35059:35287   */\n    tag_599:\n        /* \"#utility.yul\":35199:35233   */\n      0x53656e742076616c7565206d757374206d61746368207468652070726f6a6563\n        /* \"#utility.yul\":35195:35196   */\n      0x00\n        /* \"#utility.yul\":35187:35193   */\n      dup3\n        /* \"#utility.yul\":35183:35197   */\n      add\n        /* \"#utility.yul\":35176:35234   */\n      mstore\n        /* \"#utility.yul\":35268:35279   */\n      0x74206275646765742e0000000000000000000000000000000000000000000000\n        /* \"#utility.yul\":35263:35265   */\n      0x20\n        /* \"#utility.yul\":35255:35261   */\n      dup3\n        /* \"#utility.yul\":35251:35266   */\n      add\n        /* \"#utility.yul\":35244:35280   */\n      mstore\n        /* \"#utility.yul\":35059:35287   */\n      pop\n      jump\t// out\n        /* \"#utility.yul\":35293:35659   */\n    tag_600:\n        /* \"#utility.yul\":35435:35438   */\n      0x00\n        /* \"#utility.yul\":35456:35523   */\n      tag_961\n        /* \"#utility.yul\":35520:35522   */\n      0x29\n        /* \"#utility.yul\":35515:35518   */\n      dup4\n        /* \"#utility.yul\":35456:35523   */\n      tag_534\n      jump\t// in\n    tag_961:\n        /* \"#utility.yul\":35449:35523   */\n      swap2\n      pop\n        /* \"#utility.yul\":35532:35625   */\n      tag_962\n        /* \"#utility.yul\":35621:35624   */\n      dup3\n        /* \"#utility.yul\":35532:35625   */\n      tag_599\n      jump\t// in\n    tag_962:\n        /* \"#utility.yul\":35650:35652   */\n      0x40\n        /* \"#utility.yul\":35645:35648   */\n      dup3\n        /* \"#utility.yul\":35641:35653   */\n      add\n        /* \"#utility.yul\":35634:35653   */\n      swap1\n      pop\n        /* \"#utility.yul\":35293:35659   */\n      swap2\n      swap1\n      pop\n      jump\t// out\n        /* \"#utility.yul\":35665:36084   */\n    tag_354:\n        /* \"#utility.yul\":35831:35835   */\n      0x00\n        /* \"#utility.yul\":35869:35871   */\n      0x20\n        /* \"#utility.yul\":35858:35867   */\n      dup3\n        /* \"#utility.yul\":35854:35872   */\n      add\n        /* \"#utility.yul\":35846:35872   */\n      swap1\n      pop\n        /* \"#utility.yul\":35918:35927   */\n      dup2\n        /* \"#utility.yul\":35912:35916   */\n      dup2\n        /* \"#utility.yul\":35908:35928   */\n      sub\n        /* \"#utility.yul\":35904:35905   */\n      0x00\n        /* \"#utility.yul\":35893:35902   */\n      dup4\n        /* \"#utility.yul\":35889:35906   */\n      add\n        /* \"#utility.yul\":35882:35929   */\n      mstore\n        /* \"#utility.yul\":35946:36077   */\n      tag_964\n        /* \"#utility.yul\":36072:36076   */\n      dup2\n        /* \"#utility.yul\":35946:36077   */\n      tag_600\n      jump\t// in\n    tag_964:\n        /* \"#utility.yul\":35938:36077   */\n      swap1\n      pop\n        /* \"#utility.yul\":35665:36084   */\n      swap2\n      swap1\n      pop\n      jump\t// out\n        /* \"#utility.yul\":36090:36623   */\n    tag_364:\n        /* \"#utility.yul\":36259:36263   */\n      0x00\n        /* \"#utility.yul\":36297:36299   */\n      0x60\n        /* \"#utility.yul\":36286:36295   */\n      dup3\n        /* \"#utility.yul\":36282:36300   */\n      add\n        /* \"#utility.yul\":36274:36300   */\n      swap1\n      pop\n        /* \"#utility.yul\":36310:36381   */\n      tag_966\n        /* \"#utility.yul\":36378:36379   */\n      0x00\n        /* \"#utility.yul\":36367:36376   */\n      dup4\n        /* \"#utility.yul\":36363:36380   */\n      add\n        /* \"#utility.yul\":36354:36360   */\n      dup7\n        /* \"#utility.yul\":36310:36381   */\n      tag_514\n      jump\t// in\n    tag_966:\n        /* \"#utility.yul\":36391:36463   */\n      tag_967\n        /* \"#utility.yul\":36459:36461   */\n      0x20\n        /* \"#utility.yul\":36448:36457   */\n      dup4\n        /* \"#utility.yul\":36444:36462   */\n      add\n        /* \"#utility.yul\":36435:36441   */\n      dup6\n        /* \"#utility.yul\":36391:36463   */\n      tag_532\n      jump\t// in\n    tag_967:\n        /* \"#utility.yul\":36510:36519   */\n      dup2\n        /* \"#utility.yul\":36504:36508   */\n      dup2\n        /* \"#utility.yul\":36500:36520   */\n      sub\n        /* \"#utility.yul\":36495:36497   */\n      0x40\n        /* \"#utility.yul\":36484:36493   */\n      dup4\n        /* \"#utility.yul\":36480:36498   */\n      add\n        /* \"#utility.yul\":36473:36521   */\n      mstore\n        /* \"#utility.yul\":36538:36616   */\n      tag_968\n        /* \"#utility.yul\":36611:36615   */\n      dup2\n        /* \"#utility.yul\":36602:36608   */\n      dup5\n        /* \"#utility.yul\":36538:36616   */\n      tag_536\n      jump\t// in\n    tag_968:\n        /* \"#utility.yul\":36530:36616   */\n      swap1\n      pop\n        /* \"#utility.yul\":36090:36623   */\n      swap5\n      swap4\n      pop\n      pop\n      pop\n      pop\n      jump\t// out\n        /* \"#utility.yul\":36629:36804   */\n    tag_601:\n        /* \"#utility.yul\":36769:36796   */\n      0x596f752068617665206e6f20766f74696e6720706f7765722e00000000000000\n        /* \"#utility.yul\":36765:36766   */\n      0x00\n        /* \"#utility.yul\":36757:36763   */\n      dup3\n        /* \"#utility.yul\":36753:36767   */\n      add\n        /* \"#utility.yul\":36746:36797   */\n      mstore\n        /* \"#utility.yul\":36629:36804   */\n      pop\n      jump\t// out\n        /* \"#utility.yul\":36810:37176   */\n    tag_602:\n        /* \"#utility.yul\":36952:36955   */\n      0x00\n        /* \"#utility.yul\":36973:37040   */\n      tag_971\n        /* \"#utility.yul\":37037:37039   */\n      0x19\n        /* \"#utility.yul\":37032:37035   */\n      dup4\n        /* \"#utility.yul\":36973:37040   */\n      tag_534\n      jump\t// in\n    tag_971:\n        /* \"#utility.yul\":36966:37040   */\n      swap2\n      pop\n        /* \"#utility.yul\":37049:37142   */\n      tag_972\n        /* \"#utility.yul\":37138:37141   */\n      dup3\n        /* \"#utility.yul\":37049:37142   */\n      tag_601\n      jump\t// in\n    tag_972:\n        /* \"#utility.yul\":37167:37169   */\n      0x20\n        /* \"#utility.yul\":37162:37165   */\n      dup3\n        /* \"#utility.yul\":37158:37170   */\n      add\n        /* \"#utility.yul\":37151:37170   */\n      swap1\n      pop\n        /* \"#utility.yul\":36810:37176   */\n      swap2\n      swap1\n      pop\n      jump\t// out\n        /* \"#utility.yul\":37182:37601   */\n    tag_368:\n        /* \"#utility.yul\":37348:37352   */\n      0x00\n        /* \"#utility.yul\":37386:37388   */\n      0x20\n        /* \"#utility.yul\":37375:37384   */\n      dup3\n        /* \"#utility.yul\":37371:37389   */\n      add\n        /* \"#utility.yul\":37363:37389   */\n      swap1\n      pop\n        /* \"#utility.yul\":37435:37444   */\n      dup2\n        /* \"#utility.yul\":37429:37433   */\n      dup2\n        /* \"#utility.yul\":37425:37445   */\n      sub\n        /* \"#utility.yul\":37421:37422   */\n      0x00\n        /* \"#utility.yul\":37410:37419   */\n      dup4\n        /* \"#utility.yul\":37406:37423   */\n      add\n        /* \"#utility.yul\":37399:37446   */\n      mstore\n        /* \"#utility.yul\":37463:37594   */\n      tag_974\n        /* \"#utility.yul\":37589:37593   */\n      dup2\n        /* \"#utility.yul\":37463:37594   */\n      tag_602\n      jump\t// in\n    tag_974:\n        /* \"#utility.yul\":37455:37594   */\n      swap1\n      pop\n        /* \"#utility.yul\":37182:37601   */\n      swap2\n      swap1\n      pop\n      jump\t// out\n        /* \"#utility.yul\":37607:37782   */\n    tag_603:\n        /* \"#utility.yul\":37747:37774   */\n      0x4469737075746520616c7265616479207265736f6c7665642e00000000000000\n        /* \"#utility.yul\":37743:37744   */\n      0x00\n        /* \"#utility.yul\":37735:37741   */\n      dup3\n        /* \"#utility.yul\":37731:37745   */\n      add\n        /* \"#utility.yul\":37724:37775   */\n      mstore\n        /* \"#utility.yul\":37607:37782   */\n      pop\n      jump\t// out\n        /* \"#utility.yul\":37788:38154   */\n    tag_604:\n        /* \"#utility.yul\":37930:37933   */\n      0x00\n        /* \"#utility.yul\":37951:38018   */\n      tag_977\n        /* \"#utility.yul\":38015:38017   */\n      0x19\n        /* \"#utility.yul\":38010:38013   */\n      dup4\n        /* \"#utility.yul\":37951:38018   */\n      tag_534\n      jump\t// in\n    tag_977:\n        /* \"#utility.yul\":37944:38018   */\n      swap2\n      pop\n        /* \"#utility.yul\":38027:38120   */\n      tag_978\n        /* \"#utility.yul\":38116:38119   */\n      dup3\n        /* \"#utility.yul\":38027:38120   */\n      tag_603\n      jump\t// in\n    tag_978:\n        /* \"#utility.yul\":38145:38147   */\n      0x20\n        /* \"#utility.yul\":38140:38143   */\n      dup3\n        /* \"#utility.yul\":38136:38148   */\n      add\n        /* \"#utility.yul\":38129:38148   */\n      swap1\n      pop\n        /* \"#utility.yul\":37788:38154   */\n      swap2\n      swap1\n      pop\n      jump\t// out\n        /* \"#utility.yul\":38160:38579   */\n    tag_372:\n        /* \"#utility.yul\":38326:38330   */\n      0x00\n        /* \"#utility.yul\":38364:38366   */\n      0x20\n        /* \"#utility.yul\":38353:38362   */\n      dup3\n        /* \"#utility.yul\":38349:38367   */\n      add\n        /* \"#utility.yul\":38341:38367   */\n      swap1\n      pop\n        /* \"#utility.yul\":38413:38422   */\n      dup2\n        /* \"#utility.yul\":38407:38411   */\n      dup2\n        /* \"#utility.yul\":38403:38423   */\n      sub\n        /* \"#utility.yul\":38399:38400   */\n      0x00\n        /* \"#utility.yul\":38388:38397   */\n      dup4\n        /* \"#utility.yul\":38384:38401   */\n      add\n        /* \"#utility.yul\":38377:38424   */\n      mstore\n        /* \"#utility.yul\":38441:38572   */\n      tag_980\n        /* \"#utility.yul\":38567:38571   */\n      dup2\n        /* \"#utility.yul\":38441:38572   */\n      tag_604\n      jump\t// in\n    tag_980:\n        /* \"#utility.yul\":38433:38572   */\n      swap1\n      pop\n        /* \"#utility.yul\":38160:38579   */\n      swap2\n      swap1\n      pop\n      jump\t// out\n        /* \"#utility.yul\":38585:38762   */\n    tag_605:\n        /* \"#utility.yul\":38725:38754   */\n      0x566f74696e6720646561646c696e6520686173207061737365642e0000000000\n        /* \"#utility.yul\":38721:38722   */\n      0x00\n        /* \"#utility.yul\":38713:38719   */\n      dup3\n        /* \"#utility.yul\":38709:38723   */\n      add\n        /* \"#utility.yul\":38702:38755   */\n      mstore\n        /* \"#utility.yul\":38585:38762   */\n      pop\n      jump\t// out\n        /* \"#utility.yul\":38768:39134   */\n    tag_606:\n        /* \"#utility.yul\":38910:38913   */\n      0x00\n        /* \"#utility.yul\":38931:38998   */\n      tag_983\n        /* \"#utility.yul\":38995:38997   */\n      0x1b\n        /* \"#utility.yul\":38990:38993   */\n      dup4\n        /* \"#utility.yul\":38931:38998   */\n      tag_534\n      jump\t// in\n    tag_983:\n        /* \"#utility.yul\":38924:38998   */\n      swap2\n      pop\n        /* \"#utility.yul\":39007:39100   */\n      tag_984\n        /* \"#utility.yul\":39096:39099   */\n      dup3\n        /* \"#utility.yul\":39007:39100   */\n      tag_605\n      jump\t// in\n    tag_984:\n        /* \"#utility.yul\":39125:39127   */\n      0x20\n        /* \"#utility.yul\":39120:39123   */\n      dup3\n        /* \"#utility.yul\":39116:39128   */\n      add\n        /* \"#utility.yul\":39109:39128   */\n      swap1\n      pop\n        /* \"#utility.yul\":38768:39134   */\n      swap2\n      swap1\n      pop\n      jump\t// out\n        /* \"#utility.yul\":39140:39559   */\n    tag_375:\n        /* \"#utility.yul\":39306:39310   */\n      0x00\n        /* \"#utility.yul\":39344:39346   */\n      0x20\n        /* \"#utility.yul\":39333:39342   */\n      dup3\n        /* \"#utility.yul\":39329:39347   */\n      add\n        /* \"#utility.yul\":39321:39347   */\n      swap1\n      pop\n        /* \"#utility.yul\":39393:39402   */\n      dup2\n        /* \"#utility.yul\":39387:39391   */\n      dup2\n        /* \"#utility.yul\":39383:39403   */\n      sub\n        /* \"#utility.yul\":39379:39380   */\n      0x00\n        /* \"#utility.yul\":39368:39377   */\n      dup4\n        /* \"#utility.yul\":39364:39381   */\n      add\n        /* \"#utility.yul\":39357:39404   */\n      mstore\n        /* \"#utility.yul\":39421:39552   */\n      tag_986\n        /* \"#utility.yul\":39547:39551   */\n      dup2\n        /* \"#utility.yul\":39421:39552   */\n      tag_606\n      jump\t// in\n    tag_986:\n        /* \"#utility.yul\":39413:39552   */\n      swap1\n      pop\n        /* \"#utility.yul\":39140:39559   */\n      swap2\n      swap1\n      pop\n      jump\t// out\n        /* \"#utility.yul\":39565:39791   */\n    tag_607:\n        /* \"#utility.yul\":39705:39739   */\n      0x596f75206861766520616c726561647920766f74656420696e20746869732064\n        /* \"#utility.yul\":39701:39702   */\n      0x00\n        /* \"#utility.yul\":39693:39699   */\n      dup3\n        /* \"#utility.yul\":39689:39703   */\n      add\n        /* \"#utility.yul\":39682:39740   */\n      mstore\n        /* \"#utility.yul\":39774:39783   */\n      0x6973707574652e00000000000000000000000000000000000000000000000000\n        /* \"#utility.yul\":39769:39771   */\n      0x20\n        /* \"#utility.yul\":39761:39767   */\n      dup3\n        /* \"#utility.yul\":39757:39772   */\n      add\n        /* \"#utility.yul\":39750:39784   */\n      mstore\n        /* \"#utility.yul\":39565:39791   */\n      pop\n      jump\t// out\n        /* \"#utility.yul\":39797:40163   */\n    tag_608:\n        /* \"#utility.yul\":39939:39942   */\n      0x00\n        /* \"#utility.yul\":39960:40027   */\n      tag_989\n        /* \"#utility.yul\":40024:40026   */\n      0x27\n        /* \"#utility.yul\":40019:40022   */\n      dup4\n        /* \"#utility.yul\":39960:40027   */\n      tag_534\n      jump\t// in\n    tag_989:\n        /* \"#utility.yul\":39953:40027   */\n      swap2\n      pop\n        /* \"#utility.yul\":40036:40129   */\n      tag_990\n        /* \"#utility.yul\":40125:40128   */\n      dup3\n        /* \"#utility.yul\":40036:40129   */\n      tag_607\n      jump\t// in\n    tag_990:\n        /* \"#utility.yul\":40154:40156   */\n      0x40\n        /* \"#utility.yul\":40149:40152   */\n      dup3\n        /* \"#utility.yul\":40145:40157   */\n      add\n        /* \"#utility.yul\":40138:40157   */\n      swap1\n      pop\n        /* \"#utility.yul\":39797:40163   */\n      swap2\n      swap1\n      pop\n      jump\t// out\n        /* \"#utility.yul\":40169:40588   */\n    tag_378:\n        /* \"#utility.yul\":40335:40339   */\n      0x00\n        /* \"#utility.yul\":40373:40375   */\n      0x20\n        /* \"#utility.yul\":40362:40371   */\n      dup3\n        /* \"#utility.yul\":40358:40376   */\n      add\n        /* \"#utility.yul\":40350:40376   */\n      swap1\n      pop\n        /* \"#utility.yul\":40422:40431   */\n      dup2\n        /* \"#utility.yul\":40416:40420   */\n      dup2\n        /* \"#utility.yul\":40412:40432   */\n      sub\n        /* \"#utility.yul\":40408:40409   */\n      0x00\n        /* \"#utility.yul\":40397:40406   */\n      dup4\n        /* \"#utility.yul\":40393:40410   */\n      add\n        /* \"#utility.yul\":40386:40433   */\n      mstore\n        /* \"#utility.yul\":40450:40581   */\n      tag_992\n        /* \"#utility.yul\":40576:40580   */\n      dup2\n        /* \"#utility.yul\":40450:40581   */\n      tag_608\n      jump\t// in\n    tag_992:\n        /* \"#utility.yul\":40442:40581   */\n      swap1\n      pop\n        /* \"#utility.yul\":40169:40588   */\n      swap2\n      swap1\n      pop\n      jump\t// out\n        /* \"#utility.yul\":40594:40785   */\n    tag_381:\n        /* \"#utility.yul\":40634:40637   */\n      0x00\n        /* \"#utility.yul\":40653:40673   */\n      tag_994\n        /* \"#utility.yul\":40671:40672   */\n      dup3\n        /* \"#utility.yul\":40653:40673   */\n      tag_513\n      jump\t// in\n    tag_994:\n        /* \"#utility.yul\":40648:40673   */\n      swap2\n      pop\n        /* \"#utility.yul\":40687:40707   */\n      tag_995\n        /* \"#utility.yul\":40705:40706   */\n      dup4\n        /* \"#utility.yul\":40687:40707   */\n      tag_513\n      jump\t// in\n    tag_995:\n        /* \"#utility.yul\":40682:40707   */\n      swap3\n      pop\n        /* \"#utility.yul\":40730:40731   */\n      dup3\n        /* \"#utility.yul\":40727:40728   */\n      dup3\n        /* \"#utility.yul\":40723:40732   */\n      add\n        /* \"#utility.yul\":40716:40732   */\n      swap1\n      pop\n        /* \"#utility.yul\":40751:40754   */\n      dup1\n        /* \"#utility.yul\":40748:40749   */\n      dup3\n        /* \"#utility.yul\":40745:40755   */\n      gt\n        /* \"#utility.yul\":40742:40778   */\n      iszero\n      tag_996\n      jumpi\n        /* \"#utility.yul\":40758:40776   */\n      tag_997\n      tag_583\n      jump\t// in\n    tag_997:\n        /* \"#utility.yul\":40742:40778   */\n    tag_996:\n        /* \"#utility.yul\":40594:40785   */\n      swap3\n      swap2\n      pop\n      pop\n      jump\t// out\n        /* \"#utility.yul\":40791:41221   */\n    tag_385:\n        /* \"#utility.yul\":40934:40938   */\n      0x00\n        /* \"#utility.yul\":40972:40974   */\n      0x60\n        /* \"#utility.yul\":40961:40970   */\n      dup3\n        /* \"#utility.yul\":40957:40975   */\n      add\n        /* \"#utility.yul\":40949:40975   */\n      swap1\n      pop\n        /* \"#utility.yul\":40985:41056   */\n      tag_999\n        /* \"#utility.yul\":41053:41054   */\n      0x00\n        /* \"#utility.yul\":41042:41051   */\n      dup4\n        /* \"#utility.yul\":41038:41055   */\n      add\n        /* \"#utility.yul\":41029:41035   */\n      dup7\n        /* \"#utility.yul\":40985:41056   */\n      tag_514\n      jump\t// in\n    tag_999:\n        /* \"#utility.yul\":41066:41138   */\n      tag_1000\n        /* \"#utility.yul\":41134:41136   */\n      0x20\n        /* \"#utility.yul\":41123:41132   */\n      dup4\n        /* \"#utility.yul\":41119:41137   */\n      add\n        /* \"#utility.yul\":41110:41116   */\n      dup6\n        /* \"#utility.yul\":41066:41138   */\n      tag_532\n      jump\t// in\n    tag_1000:\n        /* \"#utility.yul\":41148:41214   */\n      tag_1001\n        /* \"#utility.yul\":41210:41212   */\n      0x40\n        /* \"#utility.yul\":41199:41208   */\n      dup4\n        /* \"#utility.yul\":41195:41213   */\n      add\n        /* \"#utility.yul\":41186:41192   */\n      dup5\n        /* \"#utility.yul\":41148:41214   */\n      tag_544\n      jump\t// in\n    tag_1001:\n        /* \"#utility.yul\":40791:41221   */\n      swap5\n      swap4\n      pop\n      pop\n      pop\n      pop\n      jump\t// out\n        /* \"#utility.yul\":41227:41456   */\n    tag_609:\n        /* \"#utility.yul\":41367:41401   */\n      0x4f6e6c7920696e766f6c76656420706172746965732063616e20726169736520\n        /* \"#utility.yul\":41363:41364   */\n      0x00\n        /* \"#utility.yul\":41355:41361   */\n      dup3\n        /* \"#utility.yul\":41351:41365   */\n      add\n        /* \"#utility.yul\":41344:41402   */\n      mstore\n        /* \"#utility.yul\":41436:41448   */\n      0x6120646973707574652e00000000000000000000000000000000000000000000\n        /* \"#utility.yul\":41431:41433   */\n      0x20\n        /* \"#utility.yul\":41423:41429   */\n      dup3\n        /* \"#utility.yul\":41419:41434   */\n      add\n        /* \"#utility.yul\":41412:41449   */\n      mstore\n        /* \"#utility.yul\":41227:41456   */\n      pop\n      jump\t// out\n        /* \"#utility.yul\":41462:41828   */\n    tag_610:\n        /* \"#utility.yul\":41604:41607   */\n      0x00\n        /* \"#utility.yul\":41625:41692   */\n      tag_1004\n        /* \"#utility.yul\":41689:41691   */\n      0x2a\n        /* \"#utility.yul\":41684:41687   */\n      dup4\n        /* \"#utility.yul\":41625:41692   */\n      tag_534\n      jump\t// in\n    tag_1004:\n        /* \"#utility.yul\":41618:41692   */\n      swap2\n      pop\n        /* \"#utility.yul\":41701:41794   */\n      tag_1005\n        /* \"#utility.yul\":41790:41793   */\n      dup3\n        /* \"#utility.yul\":41701:41794   */\n      tag_609\n      jump\t// in\n    tag_1005:\n        /* \"#utility.yul\":41819:41821   */\n      0x40\n        /* \"#utility.yul\":41814:41817   */\n      dup3\n        /* \"#utility.yul\":41810:41822   */\n      add\n        /* \"#utility.yul\":41803:41822   */\n      swap1\n      pop\n        /* \"#utility.yul\":41462:41828   */\n      swap2\n      swap1\n      pop\n      jump\t// out\n        /* \"#utility.yul\":41834:42253   */\n    tag_396:\n        /* \"#utility.yul\":42000:42004   */\n      0x00\n        /* \"#utility.yul\":42038:42040   */\n      0x20\n        /* \"#utility.yul\":42027:42036   */\n      dup3\n        /* \"#utility.yul\":42023:42041   */\n      add\n        /* \"#utility.yul\":42015:42041   */\n      swap1\n      pop\n        /* \"#utility.yul\":42087:42096   */\n      dup2\n        /* \"#utility.yul\":42081:42085   */\n      dup2\n        /* \"#utility.yul\":42077:42097   */\n      sub\n        /* \"#utility.yul\":42073:42074   */\n      0x00\n        /* \"#utility.yul\":42062:42071   */\n      dup4\n        /* \"#utility.yul\":42058:42075   */\n      add\n        /* \"#utility.yul\":42051:42098   */\n      mstore\n        /* \"#utility.yul\":42115:42246   */\n      tag_1007\n        /* \"#utility.yul\":42241:42245   */\n      dup2\n        /* \"#utility.yul\":42115:42246   */\n      tag_610\n      jump\t// in\n    tag_1007:\n        /* \"#utility.yul\":42107:42246   */\n      swap1\n      pop\n        /* \"#utility.yul\":41834:42253   */\n      swap2\n      swap1\n      pop\n      jump\t// out\n        /* \"#utility.yul\":42259:42499   */\n    tag_611:\n        /* \"#utility.yul\":42399:42433   */\n      0x44697370757465732063616e206f6e6c79206265207261697365642064757269\n        /* \"#utility.yul\":42395:42396   */\n      0x00\n        /* \"#utility.yul\":42387:42393   */\n      dup3\n        /* \"#utility.yul\":42383:42397   */\n      add\n        /* \"#utility.yul\":42376:42434   */\n      mstore\n        /* \"#utility.yul\":42468:42491   */\n      0x6e6720616e206163746976652070726f6a6563742e0000000000000000000000\n        /* \"#utility.yul\":42463:42465   */\n      0x20\n        /* \"#utility.yul\":42455:42461   */\n      dup3\n        /* \"#utility.yul\":42451:42466   */\n      add\n        /* \"#utility.yul\":42444:42492   */\n      mstore\n        /* \"#utility.yul\":42259:42499   */\n      pop\n      jump\t// out\n        /* \"#utility.yul\":42505:42871   */\n    tag_612:\n        /* \"#utility.yul\":42647:42650   */\n      0x00\n        /* \"#utility.yul\":42668:42735   */\n      tag_1010\n        /* \"#utility.yul\":42732:42734   */\n      0x35\n        /* \"#utility.yul\":42727:42730   */\n      dup4\n        /* \"#utility.yul\":42668:42735   */\n      tag_534\n      jump\t// in\n    tag_1010:\n        /* \"#utility.yul\":42661:42735   */\n      swap2\n      pop\n        /* \"#utility.yul\":42744:42837   */\n      tag_1011\n        /* \"#utility.yul\":42833:42836   */\n      dup3\n        /* \"#utility.yul\":42744:42837   */\n      tag_611\n      jump\t// in\n    tag_1011:\n        /* \"#utility.yul\":42862:42864   */\n      0x40\n        /* \"#utility.yul\":42857:42860   */\n      dup3\n        /* \"#utility.yul\":42853:42865   */\n      add\n        /* \"#utility.yul\":42846:42865   */\n      swap1\n      pop\n        /* \"#utility.yul\":42505:42871   */\n      swap2\n      swap1\n      pop\n      jump\t// out\n        /* \"#utility.yul\":42877:43296   */\n    tag_403:\n        /* \"#utility.yul\":43043:43047   */\n      0x00\n        /* \"#utility.yul\":43081:43083   */\n      0x20\n        /* \"#utility.yul\":43070:43079   */\n      dup3\n        /* \"#utility.yul\":43066:43084   */\n      add\n        /* \"#utility.yul\":43058:43084   */\n      swap1\n      pop\n        /* \"#utility.yul\":43130:43139   */\n      dup2\n        /* \"#utility.yul\":43124:43128   */\n      dup2\n        /* \"#utility.yul\":43120:43140   */\n      sub\n        /* \"#utility.yul\":43116:43117   */\n      0x00\n        /* \"#utility.yul\":43105:43114   */\n      dup4\n        /* \"#utility.yul\":43101:43118   */\n      add\n        /* \"#utility.yul\":43094:43141   */\n      mstore\n        /* \"#utility.yul\":43158:43289   */\n      tag_1013\n        /* \"#utility.yul\":43284:43288   */\n      dup2\n        /* \"#utility.yul\":43158:43289   */\n      tag_612\n      jump\t// in\n    tag_1013:\n        /* \"#utility.yul\":43150:43289   */\n      swap1\n      pop\n        /* \"#utility.yul\":42877:43296   */\n      swap2\n      swap1\n      pop\n      jump\t// out\n        /* \"#utility.yul\":43302:43535   */\n    tag_407:\n        /* \"#utility.yul\":43341:43344   */\n      0x00\n        /* \"#utility.yul\":43364:43388   */\n      tag_1015\n        /* \"#utility.yul\":43382:43387   */\n      dup3\n        /* \"#utility.yul\":43364:43388   */\n      tag_513\n      jump\t// in\n    tag_1015:\n        /* \"#utility.yul\":43355:43388   */\n      swap2\n      pop\n        /* \"#utility.yul\":43410:43476   */\n      0xffffffffffffffffffffffffffffffffffffffffffffffffffffffffffffffff\n        /* \"#utility.yul\":43403:43408   */\n      dup3\n        /* \"#utility.yul\":43400:43477   */\n      sub\n        /* \"#utility.yul\":43397:43500   */\n      tag_1016\n      jumpi\n        /* \"#utility.yul\":43480:43498   */\n      tag_1017\n      tag_583\n      jump\t// in\n    tag_1017:\n        /* \"#utility.yul\":43397:43500   */\n    tag_1016:\n        /* \"#utility.yul\":43527:43528   */\n      0x01\n        /* \"#utility.yul\":43520:43525   */\n      dup3\n        /* \"#utility.yul\":43516:43529   */\n      add\n        /* \"#utility.yul\":43509:43529   */\n      swap1\n      pop\n        /* \"#utility.yul\":43302:43535   */\n      swap2\n      swap1\n      pop\n      jump\t// out\n        /* \"#utility.yul\":43541:43721   */\n    tag_613:\n        /* \"#utility.yul\":43681:43713   */\n      0x566f74696e6720706572696f64206973206e6f74206f766572207965742e0000\n        /* \"#utility.yul\":43677:43678   */\n      0x00\n        /* \"#utility.yul\":43669:43675   */\n      dup3\n        /* \"#utility.yul\":43665:43679   */\n      add\n        /* \"#utility.yul\":43658:43714   */\n      mstore\n        /* \"#utility.yul\":43541:43721   */\n      pop\n      jump\t// out\n        /* \"#utility.yul\":43727:44093   */\n    tag_614:\n        /* \"#utility.yul\":43869:43872   */\n      0x00\n        /* \"#utility.yul\":43890:43957   */\n      tag_1020\n        /* \"#utility.yul\":43954:43956   */\n      0x1e\n        /* \"#utility.yul\":43949:43952   */\n      dup4\n        /* \"#utility.yul\":43890:43957   */\n      tag_534\n      jump\t// in\n    tag_1020:\n        /* \"#utility.yul\":43883:43957   */\n      swap2\n      pop\n        /* \"#utility.yul\":43966:44059   */\n      tag_1021\n        /* \"#utility.yul\":44055:44058   */\n      dup3\n        /* \"#utility.yul\":43966:44059   */\n      tag_613\n      jump\t// in\n    tag_1021:\n        /* \"#utility.yul\":44084:44086   */\n      0x20\n        /* \"#utility.yul\":44079:44082   */\n      dup3\n        /* \"#utility.yul\":44075:44087   */\n      add\n        /* \"#utility.yul\":44068:44087   */\n      swap1\n      pop\n        /* \"#utility.yul\":43727:44093   */\n      swap2\n      swap1\n      pop\n      jump\t// out\n        /* \"#utility.yul\":44099:44518   */\n    tag_422:\n        /* \"#utility.yul\":44265:44269   */\n      0x00\n        /* \"#utility.yul\":44303:44305   */\n      0x20\n        /* \"#utility.yul\":44292:44301   */\n      dup3\n        /* \"#utility.yul\":44288:44306   */\n      add\n        /* \"#utility.yul\":44280:44306   */\n      swap1\n      pop\n        /* \"#utility.yul\":44352:44361   */\n      dup2\n        /* \"#utility.yul\":44346:44350   */\n      dup2\n        /* \"#utility.yul\":44342:44362   */\n      sub\n        /* \"#utility.yul\":44338:44339   */\n      0x00\n        /* \"#utility.yul\":44327:44336   */\n      dup4\n        /* \"#utility.yul\":44323:44340   */\n      add\n        /* \"#utility.yul\":44316:44363   */\n      mstore\n        /* \"#utility.yul\":44380:44511   */\n      tag_1023\n        /* \"#utility.yul\":44506:44510   */\n      dup2\n        /* \"#utility.yul\":44380:44511   */\n      tag_614\n      jump\t// in\n    tag_1023:\n        /* \"#utility.yul\":44372:44511   */\n      swap1\n      pop\n        /* \"#utility.yul\":44099:44518   */\n      swap2\n      swap1\n      pop\n      jump\t// out\n        /* \"#utility.yul\":44524:44872   */\n    tag_436:\n        /* \"#utility.yul\":44653:44657   */\n      0x00\n        /* \"#utility.yul\":44691:44693   */\n      0x40\n        /* \"#utility.yul\":44680:44689   */\n      dup3\n        /* \"#utility.yul\":44676:44694   */\n      add\n        /* \"#utility.yul\":44668:44694   */\n      swap1\n      pop\n        /* \"#utility.yul\":44704:44775   */\n      tag_1025\n        /* \"#utility.yul\":44772:44773   */\n      0x00\n        /* \"#utility.yul\":44761:44770   */\n      dup4\n        /* \"#utility.yul\":44757:44774   */\n      add\n        /* \"#utility.yul\":44748:44754   */\n      dup6\n        /* \"#utility.yul\":44704:44775   */\n      tag_514\n      jump\t// in\n    tag_1025:\n        /* \"#utility.yul\":44785:44865   */\n      tag_1026\n        /* \"#utility.yul\":44861:44863   */\n      0x20\n        /* \"#utility.yul\":44850:44859   */\n      dup4\n        /* \"#utility.yul\":44846:44864   */\n      add\n        /* \"#utility.yul\":44837:44843   */\n      dup5\n        /* \"#utility.yul\":44785:44865   */\n      tag_598\n      jump\t// in\n    tag_1026:\n        /* \"#utility.yul\":44524:44872   */\n      swap4\n      swap3\n      pop\n      pop\n      pop\n      jump\t// out\n        /* \"#utility.yul\":44878:45048   */\n    tag_615:\n        /* \"#utility.yul\":45018:45040   */\n      0x5573657220616c7265616479206578697374732e000000000000000000000000\n        /* \"#utility.yul\":45014:45015   */\n      0x00\n        /* \"#utility.yul\":45006:45012   */\n      dup3\n        /* \"#utility.yul\":45002:45016   */\n      add\n        /* \"#utility.yul\":44995:45041   */\n      mstore\n        /* \"#utility.yul\":44878:45048   */\n      pop\n      jump\t// out\n        /* \"#utility.yul\":45054:45420   */\n    tag_616:\n        /* \"#utility.yul\":45196:45199   */\n      0x00\n        /* \"#utility.yul\":45217:45284   */\n      tag_1029\n        /* \"#utility.yul\":45281:45283   */\n      0x14\n        /* \"#utility.yul\":45276:45279   */\n      dup4\n        /* \"#utility.yul\":45217:45284   */\n      tag_534\n      jump\t// in\n    tag_1029:\n        /* \"#utility.yul\":45210:45284   */\n      swap2\n      pop\n        /* \"#utility.yul\":45293:45386   */\n      tag_1030\n        /* \"#utility.yul\":45382:45385   */\n      dup3\n        /* \"#utility.yul\":45293:45386   */\n      tag_615\n      jump\t// in\n    tag_1030:\n        /* \"#utility.yul\":45411:45413   */\n      0x20\n        /* \"#utility.yul\":45406:45409   */\n      dup3\n        /* \"#utility.yul\":45402:45414   */\n      add\n        /* \"#utility.yul\":45395:45414   */\n      swap1\n      pop\n        /* \"#utility.yul\":45054:45420   */\n      swap2\n      swap1\n      pop\n      jump\t// out\n        /* \"#utility.yul\":45426:45845   */\n    tag_440:\n        /* \"#utility.yul\":45592:45596   */\n      0x00\n        /* \"#utility.yul\":45630:45632   */\n      0x20\n        /* \"#utility.yul\":45619:45628   */\n      dup3\n        /* \"#utility.yul\":45615:45633   */\n      add\n        /* \"#utility.yul\":45607:45633   */\n      swap1\n      pop\n        /* \"#utility.yul\":45679:45688   */\n      dup2\n        /* \"#utility.yul\":45673:45677   */\n      dup2\n        /* \"#utility.yul\":45669:45689   */\n      sub\n        /* \"#utility.yul\":45665:45666   */\n      0x00\n        /* \"#utility.yul\":45654:45663   */\n      dup4\n        /* \"#utility.yul\":45650:45667   */\n      add\n        /* \"#utility.yul\":45643:45690   */\n      mstore\n        /* \"#utility.yul\":45707:45838   */\n      tag_1032\n        /* \"#utility.yul\":45833:45837   */\n      dup2\n        /* \"#utility.yul\":45707:45838   */\n      tag_616\n      jump\t// in\n    tag_1032:\n        /* \"#utility.yul\":45699:45838   */\n      swap1\n      pop\n        /* \"#utility.yul\":45426:45845   */\n      swap2\n      swap1\n      pop\n      jump\t// out\n        /* \"#utility.yul\":45851:46000   */\n    tag_617:\n        /* \"#utility.yul\":45900:45906   */\n      0x00\n        /* \"#utility.yul\":45934:45939   */\n      dup2\n        /* \"#utility.yul\":45928:45940   */\n      sload\n        /* \"#utility.yul\":45918:45940   */\n      swap1\n      pop\n        /* \"#utility.yul\":45960:45993   */\n      tag_1034\n        /* \"#utility.yul\":45986:45992   */\n      dup2\n        /* \"#utility.yul\":45960:45993   */\n      tag_187\n      jump\t// in\n    tag_1034:\n        /* \"#utility.yul\":45950:45993   */\n      swap1\n      pop\n        /* \"#utility.yul\":45851:46000   */\n      swap2\n      swap1\n      pop\n      jump\t// out\n        /* \"#utility.yul\":46006:47457   */\n    tag_478:\n        /* \"#utility.yul\":46117:46120   */\n      dup2\n        /* \"#utility.yul\":46111:46115   */\n      dup2\n        /* \"#utility.yul\":46108:46121   */\n      sub\n        /* \"#utility.yul\":46105:46131   */\n      tag_1036\n      jumpi\n        /* \"#utility.yul\":46124:46129   */\n      pop\n      pop\n      jump(tag_1035)\n        /* \"#utility.yul\":46105:46131   */\n    tag_1036:\n        /* \"#utility.yul\":46155:46189   */\n      tag_1037\n        /* \"#utility.yul\":46185:46188   */\n      dup3\n        /* \"#utility.yul\":46155:46189   */\n      tag_617\n      jump\t// in\n    tag_1037:\n        /* \"#utility.yul\":46254:46272   */\n      0xffffffffffffffff\n        /* \"#utility.yul\":46246:46252   */\n      dup2\n        /* \"#utility.yul\":46243:46273   */\n      gt\n        /* \"#utility.yul\":46240:46296   */\n      iszero\n      tag_1038\n      jumpi\n        /* \"#utility.yul\":46276:46294   */\n      tag_1039\n      tag_523\n      jump\t// in\n    tag_1039:\n        /* \"#utility.yul\":46240:46296   */\n    tag_1038:\n        /* \"#utility.yul\":46320:46358   */\n      tag_1040\n        /* \"#utility.yul\":46352:46356   */\n      dup3\n        /* \"#utility.yul\":46346:46357   */\n      sload\n        /* \"#utility.yul\":46320:46358   */\n      tag_187\n      jump\t// in\n    tag_1040:\n        /* \"#utility.yul\":46405:46472   */\n      tag_1041\n        /* \"#utility.yul\":46465:46471   */\n      dup3\n        /* \"#utility.yul\":46457:46463   */\n      dup3\n        /* \"#utility.yul\":46451:46455   */\n      dup6\n        /* \"#utility.yul\":46405:46472   */\n      tag_573\n      jump\t// in\n    tag_1041:\n        /* \"#utility.yul\":46499:46500   */\n      0x00\n        /* \"#utility.yul\":46528:46530   */\n      0x1f\n        /* \"#utility.yul\":46520:46526   */\n      dup4\n        /* \"#utility.yul\":46517:46531   */\n      gt\n        /* \"#utility.yul\":46545:46546   */\n      0x01\n        /* \"#utility.yul\":46540:47212   */\n      dup2\n      eq\n      tag_1043\n      jumpi\n        /* \"#utility.yul\":47256:47257   */\n      0x00\n        /* \"#utility.yul\":47273:47279   */\n      dup5\n        /* \"#utility.yul\":47270:47347   */\n      iszero\n      tag_1044\n      jumpi\n        /* \"#utility.yul\":47322:47331   */\n      dup3\n        /* \"#utility.yul\":47317:47320   */\n      dup8\n        /* \"#utility.yul\":47313:47332   */\n      add\n        /* \"#utility.yul\":47307:47333   */\n      sload\n        /* \"#utility.yul\":47298:47333   */\n      swap1\n      pop\n        /* \"#utility.yul\":47270:47347   */\n    tag_1044:\n        /* \"#utility.yul\":47373:47440   */\n      tag_1045\n        /* \"#utility.yul\":47433:47439   */\n      dup6\n        /* \"#utility.yul\":47426:47431   */\n      dup3\n        /* \"#utility.yul\":47373:47440   */\n      tag_576\n      jump\t// in\n    tag_1045:\n        /* \"#utility.yul\":47367:47371   */\n      dup7\n        /* \"#utility.yul\":47360:47441   */\n      sstore\n        /* \"#utility.yul\":47229:47451   */\n      pop\n        /* \"#utility.yul\":46510:47451   */\n      jump(tag_1042)\n        /* \"#utility.yul\":46540:47212   */\n    tag_1043:\n        /* \"#utility.yul\":46592:46596   */\n      0x1f\n        /* \"#utility.yul\":46588:46597   */\n      not\n        /* \"#utility.yul\":46580:46586   */\n      dup5\n        /* \"#utility.yul\":46576:46598   */\n      and\n        /* \"#utility.yul\":46618:46654   */\n      tag_1046\n        /* \"#utility.yul\":46650:46653   */\n      dup8\n        /* \"#utility.yul\":46618:46654   */\n      tag_562\n      jump\t// in\n    tag_1046:\n        /* \"#utility.yul\":46611:46654   */\n      swap7\n      pop\n        /* \"#utility.yul\":46681:46718   */\n      tag_1047\n        /* \"#utility.yul\":46713:46717   */\n      dup7\n        /* \"#utility.yul\":46681:46718   */\n      tag_562\n      jump\t// in\n    tag_1047:\n        /* \"#utility.yul\":46740:46741   */\n      0x00\n        /* \"#utility.yul\":46754:46961   */\n    tag_1048:\n        /* \"#utility.yul\":46768:46775   */\n      dup3\n        /* \"#utility.yul\":46765:46766   */\n      dup2\n        /* \"#utility.yul\":46762:46776   */\n      lt\n        /* \"#utility.yul\":46754:46961   */\n      iszero\n      tag_1050\n      jumpi\n        /* \"#utility.yul\":46847:46856   */\n      dup5\n        /* \"#utility.yul\":46842:46845   */\n      dup10\n        /* \"#utility.yul\":46838:46857   */\n      add\n        /* \"#utility.yul\":46832:46858   */\n      sload\n        /* \"#utility.yul\":46824:46830   */\n      dup3\n        /* \"#utility.yul\":46817:46859   */\n      sstore\n        /* \"#utility.yul\":46898:46899   */\n      0x01\n        /* \"#utility.yul\":46890:46896   */\n      dup3\n        /* \"#utility.yul\":46886:46900   */\n      add\n        /* \"#utility.yul\":46876:46900   */\n      swap2\n      pop\n        /* \"#utility.yul\":46945:46946   */\n      0x01\n        /* \"#utility.yul\":46934:46943   */\n      dup6\n        /* \"#utility.yul\":46930:46947   */\n      add\n        /* \"#utility.yul\":46917:46947   */\n      swap5\n      pop\n        /* \"#utility.yul\":46791:46795   */\n      0x20\n        /* \"#utility.yul\":46788:46789   */\n      dup2\n        /* \"#utility.yul\":46784:46796   */\n      add\n        /* \"#utility.yul\":46779:46796   */\n      swap1\n      pop\n        /* \"#utility.yul\":46754:46961   */\n      jump(tag_1048)\n    tag_1050:\n        /* \"#utility.yul\":46989:46995   */\n      dup7\n        /* \"#utility.yul\":46980:46987   */\n      dup4\n        /* \"#utility.yul\":46977:46996   */\n      lt\n        /* \"#utility.yul\":46974:47153   */\n      iszero\n      tag_1051\n      jumpi\n        /* \"#utility.yul\":47047:47056   */\n      dup5\n        /* \"#utility.yul\":47042:47045   */\n      dup10\n        /* \"#utility.yul\":47038:47057   */\n      add\n        /* \"#utility.yul\":47032:47058   */\n      sload\n        /* \"#utility.yul\":47090:47138   */\n      tag_1052\n        /* \"#utility.yul\":47132:47136   */\n      0x1f\n        /* \"#utility.yul\":47124:47130   */\n      dup10\n        /* \"#utility.yul\":47120:47137   */\n      and\n        /* \"#utility.yul\":47109:47118   */\n      dup3\n        /* \"#utility.yul\":47090:47138   */\n      tag_575\n      jump\t// in\n    tag_1052:\n        /* \"#utility.yul\":47082:47088   */\n      dup4\n        /* \"#utility.yul\":47075:47139   */\n      sstore\n        /* \"#utility.yul\":46997:47153   */\n      pop\n        /* \"#utility.yul\":46974:47153   */\n    tag_1051:\n        /* \"#utility.yul\":47199:47200   */\n      0x01\n        /* \"#utility.yul\":47195:47196   */\n      0x02\n        /* \"#utility.yul\":47187:47193   */\n      dup9\n        /* \"#utility.yul\":47183:47197   */\n      mul\n        /* \"#utility.yul\":47179:47201   */\n      add\n        /* \"#utility.yul\":47173:47177   */\n      dup9\n        /* \"#utility.yul\":47166:47202   */\n      sstore\n        /* \"#utility.yul\":46547:47212   */\n      pop\n      pop\n      pop\n        /* \"#utility.yul\":46510:47451   */\n    tag_1042:\n      pop\n        /* \"#utility.yul\":46095:47457   */\n      pop\n      pop\n      pop\n        /* \"#utility.yul\":46006:47457   */\n      pop\n      pop\n    tag_1035:\n      jump\t// out\n        /* \"#utility.yul\":47463:47643   */\n    tag_481:\n        /* \"#utility.yul\":47511:47588   */\n      0x4e487b7100000000000000000000000000000000000000000000000000000000\n        /* \"#utility.yul\":47508:47509   */\n      0x00\n        /* \"#utility.yul\":47501:47589   */\n      mstore\n        /* \"#utility.yul\":47608:47612   */\n      0x31\n        /* \"#utility.yul\":47605:47606   */\n      0x04\n        /* \"#utility.yul\":47598:47613   */\n      mstore\n        /* \"#utility.yul\":47632:47636   */\n      0x24\n        /* \"#utility.yul\":47629:47630   */\n      0x00\n        /* \"#utility.yul\":47622:47637   */\n      revert\n        /* \"#utility.yul\":47649:47876   */\n    tag_618:\n        /* \"#utility.yul\":47789:47823   */\n      0x4f6e6c792074686520636f6e74726163742063616e2075706461746520726570\n        /* \"#utility.yul\":47785:47786   */\n      0x00\n        /* \"#utility.yul\":47777:47783   */\n      dup3\n        /* \"#utility.yul\":47773:47787   */\n      add\n        /* \"#utility.yul\":47766:47824   */\n      mstore\n        /* \"#utility.yul\":47858:47868   */\n      0x75746174696f6e2e000000000000000000000000000000000000000000000000\n        /* \"#utility.yul\":47853:47855   */\n      0x20\n        /* \"#utility.yul\":47845:47851   */\n      dup3\n        /* \"#utility.yul\":47841:47856   */\n      add\n        /* \"#utility.yul\":47834:47869   */\n      mstore\n        /* \"#utility.yul\":47649:47876   */\n      pop\n      jump\t// out\n        /* \"#utility.yul\":47882:48248   */\n    tag_619:\n        /* \"#utility.yul\":48024:48027   */\n      0x00\n        /* \"#utility.yul\":48045:48112   */\n      tag_1056\n        /* \"#utility.yul\":48109:48111   */\n      0x28\n        /* \"#utility.yul\":48104:48107   */\n      dup4\n        /* \"#utility.yul\":48045:48112   */\n      tag_534\n      jump\t// in\n    tag_1056:\n        /* \"#utility.yul\":48038:48112   */\n      swap2\n      pop\n        /* \"#utility.yul\":48121:48214   */\n      tag_1057\n        /* \"#utility.yul\":48210:48213   */\n      dup3\n        /* \"#utility.yul\":48121:48214   */\n      tag_618\n      jump\t// in\n    tag_1057:\n        /* \"#utility.yul\":48239:48241   */\n      0x40\n        /* \"#utility.yul\":48234:48237   */\n      dup3\n        /* \"#utility.yul\":48230:48242   */\n      add\n        /* \"#utility.yul\":48223:48242   */\n      swap1\n      pop\n        /* \"#utility.yul\":47882:48248   */\n      swap2\n      swap1\n      pop\n      jump\t// out\n        /* \"#utility.yul\":48254:48673   */\n    tag_504:\n        /* \"#utility.yul\":48420:48424   */\n      0x00\n        /* \"#utility.yul\":48458:48460   */\n      0x20\n        /* \"#utility.yul\":48447:48456   */\n      dup3\n        /* \"#utility.yul\":48443:48461   */\n      add\n        /* \"#utility.yul\":48435:48461   */\n      swap1\n      pop\n        /* \"#utility.yul\":48507:48516   */\n      dup2\n        /* \"#utility.yul\":48501:48505   */\n      dup2\n        /* \"#utility.yul\":48497:48517   */\n      sub\n        /* \"#utility.yul\":48493:48494   */\n      0x00\n        /* \"#utility.yul\":48482:48491   */\n      dup4\n        /* \"#utility.yul\":48478:48495   */\n      add\n        /* \"#utility.yul\":48471:48518   */\n      mstore\n        /* \"#utility.yul\":48535:48666   */\n      tag_1059\n        /* \"#utility.yul\":48661:48665   */\n      dup2\n        /* \"#utility.yul\":48535:48666   */\n      tag_619\n      jump\t// in\n    tag_1059:\n        /* \"#utility.yul\":48527:48666   */\n      swap1\n      pop\n        /* \"#utility.yul\":48254:48673   */\n      swap2\n      swap1\n      pop\n      jump\t// out\n\n    auxdata: 0xa2646970667358221220b992b04d16a2552001dfd753be600717251c5ce9404d6326c50bb07ddce2224764736f6c634300081a0033\n}\n",
				"bytecode": {
					"linkReferences": {},
					"object": "6080604052348015600e575f80fd5b50604051614a15380380614a158339818101604052810190602e91906074565b81600b8190555080600c81905550505060ab565b5f80fd5b5f819050919050565b6056816046565b8114605f575f80fd5b50565b5f81519050606e81604f565b92915050565b5f806040838503121560875760866042565b5b5f6092858286016062565b925050602060a1858286016062565b9150509250929050565b61495d806100b85f395ff3fe608060405260043610610165575f3560e01c806364800185116100d0578063a5c1674e11610089578063c2b7b86811610063578063c2b7b86814610570578063d29bcc5c14610598578063e32ba8f1146105c0578063e503bb05146105e857610165565b8063a5c1674e146104cd578063a87430ba146104f5578063c07473f61461053457610165565b806364800185146103bf5780636cb0adba146103fb57806383f67f6e1461043757806394ba97091461045f578063a28889e11461047b578063a4f5df12146104a557610165565b806320913da51161012257806320913da51461028b5780632245f152146102b35780632b168ee4146102db57806340e51b501461031a5780635277b4ae14610342578063564a565d1461037e57610165565b8063036ee850146101695780630390e07a146101935780630d88d409146101bb578063107046bd146101f7578063120ea20214610239578063187548d814610263575b5f80fd5b348015610174575f80fd5b5061017d610624565b60405161018a9190612fde565b60405180910390f35b34801561019e575f80fd5b506101b960048036038101906101b4919061316e565b61062a565b005b3480156101c6575f80fd5b506101e160048036038101906101dc91906131da565b61082d565b6040516101ee9190612fde565b60405180910390f35b348015610202575f80fd5b5061021d600480360381019061021891906131da565b610842565b6040516102309796959493929190613337565b60405180910390f35b348015610244575f80fd5b5061024d6109e6565b60405161025a9190612fde565b60405180910390f35b34801561026e575f80fd5b50610289600480360381019061028491906133b2565b6109ec565b005b348015610296575f80fd5b506102b160048036038101906102ac919061341e565b610c13565b005b3480156102be575f80fd5b506102d960048036038101906102d491906131da565b610e95565b005b3480156102e6575f80fd5b5061030160048036038101906102fc919061341e565b611153565b6040516103119493929190613476565b60405180910390f35b348015610325575f80fd5b50610340600480360381019061033b91906131da565b61124a565b005b34801561034d575f80fd5b50610368600480360381019061036391906134ea565b611489565b6040516103759190613528565b60405180910390f35b348015610389575f80fd5b506103a4600480360381019061039f91906131da565b6114b3565b6040516103b696959493929190613541565b60405180910390f35b3480156103ca575f80fd5b506103e560048036038101906103e091906131da565b611535565b6040516103f29190612fde565b60405180910390f35b348015610406575f80fd5b50610421600480360381019061041c919061341e565b61154a565b60405161042e91906135a0565b60405180910390f35b348015610442575f80fd5b5061045d6004803603810190610458919061341e565b6115f0565b005b610479600480360381019061047491906135c0565b61199a565b005b348015610486575f80fd5b5061048f611bde565b60405161049c9190612fde565b60405180910390f35b3480156104b0575f80fd5b506104cb60048036038101906104c69190613686565b611be4565b005b3480156104d8575f80fd5b506104f360048036038101906104ee91906131da565b611edb565b005b348015610500575f80fd5b5061051b600480360381019061051691906136c4565b612325565b60405161052b9493929190613735565b60405180910390f35b34801561053f575f80fd5b5061055a600480360381019061055591906136c4565b612401565b6040516105679190612fde565b60405180910390f35b34801561057b575f80fd5b50610596600480360381019061059191906131da565b612416565b005b3480156105a3575f80fd5b506105be60048036038101906105b991906137a2565b61269b565b005b3480156105cb575f80fd5b506105e660048036038101906105e1919061316e565b612886565b005b3480156105f3575f80fd5b5061060e600480360381019061060991906136c4565b612c6e565b60405161061b9190612fde565b60405180910390f35b600c5481565b826002818154811061063f5761063e6137fc565b5b905f5260205f20906006020160050160019054906101000a900473ffffffffffffffffffffffffffffffffffffffff1673ffffffffffffffffffffffffffffffffffffffff163373ffffffffffffffffffffffffffffffffffffffff16146106dc576040517f08c379a00000000000000000000000000000000000000000000000000000000081526004016106d390613899565b60405180910390fd5b836002805490508110610724576040517f08c379a000000000000000000000000000000000000000000000000000000000815260040161071b90613901565b60405180910390fd5b5f60028681548110610739576107386137fc565b5b905f5260205f20906006020190506001600381111561075b5761075a6132a4565b5b816005015f9054906101000a900460ff16600381111561077e5761077d6132a4565b5b146107be576040517f08c379a00000000000000000000000000000000000000000000000000000000081526004016107b590613969565b60405180910390fd5b8360045f8881526020019081526020015f205f8781526020019081526020015f2090816107eb9190613b81565b507f1b7218c0ac23ea9cbe4df603d2b340fbf469a115b73ea3d11460727f445d6be1868660405161081d929190613c50565b60405180910390a1505050505050565b600a602052805f5260405f205f915090505481565b60028181548110610851575f80fd5b905f5260205f2090600602015f91509050805f015f9054906101000a900473ffffffffffffffffffffffffffffffffffffffff1690806001018054610895906139b4565b80601f01602080910402602001604051908101604052809291908181526020018280546108c1906139b4565b801561090c5780601f106108e35761010080835404028352916020019161090c565b820191905f5260205f20905b8154815290600101906020018083116108ef57829003601f168201915b505050505090806002018054610921906139b4565b80601f016020809104026020016040519081016040528092919081815260200182805461094d906139b4565b80156109985780601f1061096f57610100808354040283529160200191610998565b820191905f5260205f20905b81548152906001019060200180831161097b57829003601f168201915b505050505090806003015490806004015490806005015f9054906101000a900460ff16908060050160019054906101000a900473ffffffffffffffffffffffffffffffffffffffff16905087565b600b5481565b826002805490508110610a34576040517f08c379a0000000000000000000000000000000000000000000000000000000008152600401610a2b90613901565b60405180910390fd5b5f60028581548110610a4957610a486137fc565b5b905f5260205f20906006020190505f6003811115610a6a57610a696132a4565b5b816005015f9054906101000a900460ff166003811115610a8d57610a8c6132a4565b5b14610acd576040517f08c379a0000000000000000000000000000000000000000000000000000000008152600401610ac490613ce7565b60405180910390fd5b610ad73386612c83565b15610b17576040517f08c379a0000000000000000000000000000000000000000000000000000000008152600401610b0e90613d75565b60405180910390fd5b60055f8681526020019081526020015f2060405180608001604052803373ffffffffffffffffffffffffffffffffffffffff1681526020018681526020018581526020015f1515815250908060018154018082558091505060019003905f5260205f2090600402015f909190919091505f820151815f015f6101000a81548173ffffffffffffffffffffffffffffffffffffffff021916908373ffffffffffffffffffffffffffffffffffffffff1602179055506020820151816001019081610be09190613b81565b50604082015181600201556060820151816003015f6101000a81548160ff02191690831515021790555050505050505050565b8160028181548110610c2857610c276137fc565b5b905f5260205f2090600602015f015f9054906101000a900473ffffffffffffffffffffffffffffffffffffffff1673ffffffffffffffffffffffffffffffffffffffff163373ffffffffffffffffffffffffffffffffffffffff1614610cc3576040517f08c379a0000000000000000000000000000000000000000000000000000000008152600401610cba90613e03565b60405180910390fd5b826002805490508110610d0b576040517f08c379a0000000000000000000000000000000000000000000000000000000008152600401610d0290613901565b60405180910390fd5b5f60028581548110610d2057610d1f6137fc565b5b905f5260205f209060060201905060016003811115610d4257610d416132a4565b5b816005015f9054906101000a900460ff166003811115610d6557610d646132a4565b5b14610da5576040517f08c379a0000000000000000000000000000000000000000000000000000000008152600401610d9c90613969565b60405180910390fd5b5f6064600a8360030154610db99190613e4e565b610dc39190613ebc565b90508060035f8881526020019081526020015f205f828254610de59190613eec565b925050819055508160050160019054906101000a900473ffffffffffffffffffffffffffffffffffffffff1673ffffffffffffffffffffffffffffffffffffffff166108fc8290811502906040515f60405180830381858888f19350505050158015610e53573d5f803e3d5ffd5b507f1b7218c0ac23ea9cbe4df603d2b340fbf469a115b73ea3d11460727f445d6be18686604051610e85929190613c50565b60405180910390a1505050505050565b8060028181548110610eaa57610ea96137fc565b5b905f5260205f2090600602015f015f9054906101000a900473ffffffffffffffffffffffffffffffffffffffff1673ffffffffffffffffffffffffffffffffffffffff163373ffffffffffffffffffffffffffffffffffffffff1614610f45576040517f08c379a0000000000000000000000000000000000000000000000000000000008152600401610f3c90613e03565b60405180910390fd5b816002805490508110610f8d576040517f08c379a0000000000000000000000000000000000000000000000000000000008152600401610f8490613901565b60405180910390fd5b5f60028481548110610fa257610fa16137fc565b5b905f5260205f209060060201905060016003811115610fc457610fc36132a4565b5b816005015f9054906101000a900460ff166003811115610fe757610fe66132a4565b5b14611027576040517f08c379a000000000000000000000000000000000000000000000000000000000815260040161101e90613969565b60405180910390fd5b6002816005015f6101000a81548160ff0219169083600381111561104e5761104d6132a4565b5b02179055505f60035f8681526020019081526020015f205490505f60035f8781526020019081526020015f20819055508160050160019054906101000a900473ffffffffffffffffffffffffffffffffffffffff1673ffffffffffffffffffffffffffffffffffffffff166108fc8290811502906040515f60405180830381858888f193505050501580156110e5573d5f803e3d5ffd5b506111158260050160019054906101000a900473ffffffffffffffffffffffffffffffffffffffff16600a612e72565b7f60d8df137e489b6216738e436244ca4700bd6d0c8371d3c8d9c80b54538111b9856040516111449190612fde565b60405180910390a15050505050565b6005602052815f5260405f20818154811061116c575f80fd5b905f5260205f2090600402015f9150915050805f015f9054906101000a900473ffffffffffffffffffffffffffffffffffffffff16908060010180546111b1906139b4565b80601f01602080910402602001604051908101604052809291908181526020018280546111dd906139b4565b80156112285780601f106111ff57610100808354040283529160200191611228565b820191905f5260205f20905b81548152906001019060200180831161120b57829003601f168201915b505050505090806002015490806003015f9054906101000a900460ff16905084565b806002818154811061125f5761125e6137fc565b5b905f5260205f2090600602015f015f9054906101000a900473ffffffffffffffffffffffffffffffffffffffff1673ffffffffffffffffffffffffffffffffffffffff163373ffffffffffffffffffffffffffffffffffffffff16146112fa576040517f08c379a00000000000000000000000000000000000000000000000000000000081526004016112f190613e03565b60405180910390fd5b5f6002838154811061130f5761130e6137fc565b5b905f5260205f209060060201905060026003811115611331576113306132a4565b5b816005015f9054906101000a900460ff166003811115611354576113536132a4565b5b148061139357505f600381111561136e5761136d6132a4565b5b816005015f9054906101000a900460ff166003811115611391576113906132a4565b5b145b6113d2576040517f08c379a00000000000000000000000000000000000000000000000000000000081526004016113c990613f8f565b60405180910390fd5b5f60035f8581526020019081526020015f205490505f8111611429576040517f08c379a000000000000000000000000000000000000000000000000000000000815260040161142090613ff7565b60405180910390fd5b5f60035f8681526020019081526020015f20819055503373ffffffffffffffffffffffffffffffffffffffff166108fc8290811502906040515f60405180830381858888f19350505050158015611482573d5f803e3d5ffd5b5050505050565b6009602052815f5260405f20602052805f5260405f205f915091509054906101000a900460ff1681565b6006602052805f5260405f205f91509050805f015490806001015f9054906101000a900473ffffffffffffffffffffffffffffffffffffffff1690806002015f9054906101000a900473ffffffffffffffffffffffffffffffffffffffff1690806003015490806004015490806005015f9054906101000a900460ff16905086565b6003602052805f5260405f205f915090505481565b6004602052815f5260405f20602052805f5260405f205f91509150508054611571906139b4565b80601f016020809104026020016040519081016040528092919081815260200182805461159d906139b4565b80156115e85780601f106115bf576101008083540402835291602001916115e8565b820191905f5260205f20905b8154815290600101906020018083116115cb57829003601f168201915b505050505081565b8160028181548110611605576116046137fc565b5b905f5260205f2090600602015f015f9054906101000a900473ffffffffffffffffffffffffffffffffffffffff1673ffffffffffffffffffffffffffffffffffffffff163373ffffffffffffffffffffffffffffffffffffffff16146116a0576040517f08c379a000000000000000000000000000000000000000000000000000000000815260040161169790613e03565b60405180910390fd5b8260028054905081106116e8576040517f08c379a00000000000000000000000000000000000000000000000000000000081526004016116df90613901565b60405180910390fd5b5f600285815481106116fd576116fc6137fc565b5b905f5260205f20906006020190505f600381111561171e5761171d6132a4565b5b816005015f9054906101000a900460ff166003811115611741576117406132a4565b5b14611781576040517f08c379a000000000000000000000000000000000000000000000000000000000815260040161177890614085565b60405180910390fd5b5f60055f8781526020019081526020015f209050808054905085106117db576040517f08c379a00000000000000000000000000000000000000000000000000000000081526004016117d2906140ed565b60405180910390fd5b8085815481106117ee576117ed6137fc565b5b905f5260205f2090600402016003015f9054906101000a900460ff161561184a576040517f08c379a00000000000000000000000000000000000000000000000000000000081526004016118419061417b565b60405180910390fd5b600181868154811061185f5761185e6137fc565b5b905f5260205f2090600402016003015f6101000a81548160ff021916908315150217905550808581548110611897576118966137fc565b5b905f5260205f2090600402015f015f9054906101000a900473ffffffffffffffffffffffffffffffffffffffff168260050160016101000a81548173ffffffffffffffffffffffffffffffffffffffff021916908373ffffffffffffffffffffffffffffffffffffffff1602179055506001826005015f6101000a81548160ff0219169083600381111561192e5761192d6132a4565b5b02179055507f77133d03a3af396c0ea6b4fc24922b1f419245875a326f5f112b8f34cad01c8d86338460050160019054906101000a900473ffffffffffffffffffffffffffffffffffffffff1660405161198a939291906141eb565b60405180910390a1505050505050565b8134146119dc576040517f08c379a00000000000000000000000000000000000000000000000000000000081526004016119d390614290565b60405180910390fd5b60026040518060e001604052803373ffffffffffffffffffffffffffffffffffffffff1681526020018681526020018581526020018481526020018381526020015f6003811115611a3057611a2f6132a4565b5b81526020015f73ffffffffffffffffffffffffffffffffffffffff16815250908060018154018082558091505060019003905f5260205f2090600602015f909190919091505f820151815f015f6101000a81548173ffffffffffffffffffffffffffffffffffffffff021916908373ffffffffffffffffffffffffffffffffffffffff1602179055506020820151816001019081611ace9190613b81565b506040820151816002019081611ae49190613b81565b50606082015181600301556080820151816004015560a0820151816005015f6101000a81548160ff02191690836003811115611b2357611b226132a4565b5b021790555060c08201518160050160016101000a81548173ffffffffffffffffffffffffffffffffffffffff021916908373ffffffffffffffffffffffffffffffffffffffff16021790555050505f6001600280549050611b849190613eec565b90508260035f8381526020019081526020015f20819055507f9d9ec461f162f3f4fdb9f6d189bfe13c59e48d8acd23a4c3bfcf7cc0fe4e84ed813387604051611bcf939291906142ae565b60405180910390a15050505050565b60075481565b5f60015f3373ffffffffffffffffffffffffffffffffffffffff1673ffffffffffffffffffffffffffffffffffffffff1681526020019081526020015f205411611c63576040517f08c379a0000000000000000000000000000000000000000000000000000000008152600401611c5a90614334565b60405180910390fd5b5f60065f8481526020019081526020015f209050806005015f9054906101000a900460ff1615611cc8576040517f08c379a0000000000000000000000000000000000000000000000000000000008152600401611cbf9061439c565b60405180910390fd5b600a5f8481526020019081526020015f2054421115611d1c576040517f08c379a0000000000000000000000000000000000000000000000000000000008152600401611d1390614404565b60405180910390fd5b60095f8481526020019081526020015f205f3373ffffffffffffffffffffffffffffffffffffffff1673ffffffffffffffffffffffffffffffffffffffff1681526020019081526020015f205f9054906101000a900460ff1615611db5576040517f08c379a0000000000000000000000000000000000000000000000000000000008152600401611dac90614492565b60405180910390fd5b600160095f8581526020019081526020015f205f3373ffffffffffffffffffffffffffffffffffffffff1673ffffffffffffffffffffffffffffffffffffffff1681526020019081526020015f205f6101000a81548160ff0219169083151502179055505f60015f3373ffffffffffffffffffffffffffffffffffffffff1673ffffffffffffffffffffffffffffffffffffffff1681526020019081526020015f205490508215611e7f5780826003015f828254611e7391906144b0565b92505081905550611e9a565b80826004015f828254611e9291906144b0565b925050819055505b7fe71fcdac32df1877c1700e7bda2a03157e20993363a28fc35ac495cefc76e4d4843385604051611ecd939291906144e3565b60405180910390a150505050565b806002805490508110611f23576040517f08c379a0000000000000000000000000000000000000000000000000000000008152600401611f1a90613901565b60405180910390fd5b5f60028381548110611f3857611f376137fc565b5b905f5260205f2090600602019050805f015f9054906101000a900473ffffffffffffffffffffffffffffffffffffffff1673ffffffffffffffffffffffffffffffffffffffff163373ffffffffffffffffffffffffffffffffffffffff161480611ff157508060050160019054906101000a900473ffffffffffffffffffffffffffffffffffffffff1673ffffffffffffffffffffffffffffffffffffffff163373ffffffffffffffffffffffffffffffffffffffff16145b612030576040517f08c379a000000000000000000000000000000000000000000000000000000000815260040161202790614588565b60405180910390fd5b60016003811115612044576120436132a4565b5b816005015f9054906101000a900460ff166003811115612067576120666132a4565b5b146120a7576040517f08c379a000000000000000000000000000000000000000000000000000000000815260040161209e90614616565b60405180910390fd5b6003816005015f6101000a81548160ff021916908360038111156120ce576120cd6132a4565b5b021790555060075f8154809291906120e590614634565b91905055506040518060c001604052808481526020013373ffffffffffffffffffffffffffffffffffffffff168152602001825f015f9054906101000a900473ffffffffffffffffffffffffffffffffffffffff1673ffffffffffffffffffffffffffffffffffffffff163373ffffffffffffffffffffffffffffffffffffffff161461219457825f015f9054906101000a900473ffffffffffffffffffffffffffffffffffffffff166121ba565b8260050160019054906101000a900473ffffffffffffffffffffffffffffffffffffffff165b73ffffffffffffffffffffffffffffffffffffffff1681526020015f81526020015f81526020015f151581525060065f60075481526020019081526020015f205f820151815f01556020820151816001015f6101000a81548173ffffffffffffffffffffffffffffffffffffffff021916908373ffffffffffffffffffffffffffffffffffffffff1602179055506040820151816002015f6101000a81548173ffffffffffffffffffffffffffffffffffffffff021916908373ffffffffffffffffffffffffffffffffffffffff160217905550606082015181600301556080820151816004015560a0820151816005015f6101000a81548160ff021916908315150217905550905050600c54426122d291906144b0565b600a5f60075481526020019081526020015f20819055507f04901f83201c8724eadf084436db8aa391820bae6d11f9f78a17edb6f2eef3cf836040516123189190612fde565b60405180910390a1505050565b5f602052805f5260405f205f91509050805f015f9054906101000a900460ff1690806001018054612355906139b4565b80601f0160208091040260200160405190810160405280929190818152602001828054612381906139b4565b80156123cc5780601f106123a3576101008083540402835291602001916123cc565b820191905f5260205f20905b8154815290600101906020018083116123af57829003601f168201915b505050505090806002015490806003015f9054906101000a900473ffffffffffffffffffffffffffffffffffffffff16905084565b6008602052805f5260405f205f915090505481565b5f60065f8381526020019081526020015f209050806005015f9054906101000a900460ff161561247b576040517f08c379a00000000000000000000000000000000000000000000000000000000081526004016124729061439c565b60405180910390fd5b600a5f8381526020019081526020015f205442116124ce576040517f08c379a00000000000000000000000000000000000000000000000000000000081526004016124c5906146c5565b60405180910390fd5b5f81600401548260030154111561250a57816001015f9054906101000a900473ffffffffffffffffffffffffffffffffffffffff169050612547565b81600301548260040154111561254557816002015f9054906101000a900473ffffffffffffffffffffffffffffffffffffffff169050612546565b5b5b5f60035f845f015481526020019081526020015f205490505f60035f855f015481526020019081526020015f20819055505f73ffffffffffffffffffffffffffffffffffffffff168273ffffffffffffffffffffffffffffffffffffffff16146125f0578173ffffffffffffffffffffffffffffffffffffffff166108fc8290811502906040515f60405180830381858888f193505050501580156125ee573d5f803e3d5ffd5b505b6001836005015f6101000a81548160ff021916908315150217905550600280845f015481548110612624576126236137fc565b5b905f5260205f2090600602016005015f6101000a81548160ff02191690836003811115612654576126536132a4565b5b02179055507ff77ceb5e091d2da041bc760667f9d5fe7a756949eaf29250ad0e60ca6f4c27d9835f01548360405161268d9291906146e3565b60405180910390a150505050565b5f73ffffffffffffffffffffffffffffffffffffffff165f803373ffffffffffffffffffffffffffffffffffffffff1673ffffffffffffffffffffffffffffffffffffffff1681526020019081526020015f206003015f9054906101000a900473ffffffffffffffffffffffffffffffffffffffff1673ffffffffffffffffffffffffffffffffffffffff1614612767576040517f08c379a000000000000000000000000000000000000000000000000000000000815260040161275e90614754565b60405180910390fd5b6040518060800160405280836001811115612785576127846132a4565b5b81526020018281526020015f81526020013373ffffffffffffffffffffffffffffffffffffffff168152505f803373ffffffffffffffffffffffffffffffffffffffff1673ffffffffffffffffffffffffffffffffffffffff1681526020019081526020015f205f820151815f015f6101000a81548160ff02191690836001811115612814576128136132a4565b5b0217905550602082015181600101908161282e9190613b81565b50604082015181600201556060820151816003015f6101000a81548173ffffffffffffffffffffffffffffffffffffffff021916908373ffffffffffffffffffffffffffffffffffffffff1602179055509050505050565b826002818154811061289b5761289a6137fc565b5b905f5260205f2090600602015f015f9054906101000a900473ffffffffffffffffffffffffffffffffffffffff1673ffffffffffffffffffffffffffffffffffffffff163373ffffffffffffffffffffffffffffffffffffffff1614612936576040517f08c379a000000000000000000000000000000000000000000000000000000000815260040161292d90613e03565b60405180910390fd5b83600280549050811061297e576040517f08c379a000000000000000000000000000000000000000000000000000000000815260040161297590613901565b60405180910390fd5b5f60028681548110612993576129926137fc565b5b905f5260205f20906006020190505f60038111156129b4576129b36132a4565b5b816005015f9054906101000a900460ff1660038111156129d7576129d66132a4565b5b14612a17576040517f08c379a0000000000000000000000000000000000000000000000000000000008152600401612a0e90614085565b60405180910390fd5b5f60055f8881526020019081526020015f20905080805490508610612a71576040517f08c379a0000000000000000000000000000000000000000000000000000000008152600401612a68906140ed565b60405180910390fd5b5f818781548110612a8557612a846137fc565b5b905f5260205f2090600402015f015f9054906101000a900473ffffffffffffffffffffffffffffffffffffffff1690508160018380549050612ac79190613eec565b81548110612ad857612ad76137fc565b5b905f5260205f209060040201828881548110612af757612af66137fc565b5b905f5260205f2090600402015f82015f9054906101000a900473ffffffffffffffffffffffffffffffffffffffff16815f015f6101000a81548173ffffffffffffffffffffffffffffffffffffffff021916908373ffffffffffffffffffffffffffffffffffffffff16021790555060018201816001019081612b7a9190614787565b5060028201548160020155600382015f9054906101000a900460ff16816003015f6101000a81548160ff02191690831515021790555090505081805480612bc457612bc361486c565b5b600190038181905f5260205f2090600402015f8082015f6101000a81549073ffffffffffffffffffffffffffffffffffffffff0219169055600182015f612c0b9190612f6e565b600282015f9055600382015f6101000a81549060ff0219169055505090557f4ad7bfab548392dee7bdf6cb08df8f67651b96ad45562116ed0c305d6267c730888288604051612c5c939291906142ae565b60405180910390a15050505050505050565b6001602052805f5260405f205f915090505481565b5f8060055f8481526020019081526020015f20805480602002602001604051908101604052809291908181526020015f905b82821015612ded578382905f5260205f2090600402016040518060800160405290815f82015f9054906101000a900473ffffffffffffffffffffffffffffffffffffffff1673ffffffffffffffffffffffffffffffffffffffff1673ffffffffffffffffffffffffffffffffffffffff168152602001600182018054612d3a906139b4565b80601f0160208091040260200160405190810160405280929190818152602001828054612d66906139b4565b8015612db15780601f10612d8857610100808354040283529160200191612db1565b820191905f5260205f20905b815481529060010190602001808311612d9457829003601f168201915b5050505050815260200160028201548152602001600382015f9054906101000a900460ff16151515158152505081526020019060010190612cb5565b5050505090505f5b8151811015612e66578473ffffffffffffffffffffffffffffffffffffffff16828281518110612e2857612e276137fc565b5b60200260200101515f015173ffffffffffffffffffffffffffffffffffffffff1603612e5957600192505050612e6c565b8080600101915050612df5565b505f9150505b92915050565b3073ffffffffffffffffffffffffffffffffffffffff163373ffffffffffffffffffffffffffffffffffffffff1614612ee0576040517f08c379a0000000000000000000000000000000000000000000000000000000008152600401612ed790614909565b60405180910390fd5b8060015f8473ffffffffffffffffffffffffffffffffffffffff1673ffffffffffffffffffffffffffffffffffffffff1681526020019081526020015f2054612f2991906144b0565b60015f8473ffffffffffffffffffffffffffffffffffffffff1673ffffffffffffffffffffffffffffffffffffffff1681526020019081526020015f20819055505050565b508054612f7a906139b4565b5f825580601f10612f8b5750612fa8565b601f0160209004905f5260205f2090810190612fa79190612fab565b5b50565b5b80821115612fc2575f815f905550600101612fac565b5090565b5f819050919050565b612fd881612fc6565b82525050565b5f602082019050612ff15f830184612fcf565b92915050565b5f604051905090565b5f80fd5b5f80fd5b61301181612fc6565b811461301b575f80fd5b50565b5f8135905061302c81613008565b92915050565b5f80fd5b5f80fd5b5f601f19601f8301169050919050565b7f4e487b71000000000000000000000000000000000000000000000000000000005f52604160045260245ffd5b6130808261303a565b810181811067ffffffffffffffff8211171561309f5761309e61304a565b5b80604052505050565b5f6130b1612ff7565b90506130bd8282613077565b919050565b5f67ffffffffffffffff8211156130dc576130db61304a565b5b6130e58261303a565b9050602081019050919050565b828183375f83830152505050565b5f61311261310d846130c2565b6130a8565b90508281526020810184848401111561312e5761312d613036565b5b6131398482856130f2565b509392505050565b5f82601f83011261315557613154613032565b5b8135613165848260208601613100565b91505092915050565b5f805f6060848603121561318557613184613000565b5b5f6131928682870161301e565b93505060206131a38682870161301e565b925050604084013567ffffffffffffffff8111156131c4576131c3613004565b5b6131d086828701613141565b9150509250925092565b5f602082840312156131ef576131ee613000565b5b5f6131fc8482850161301e565b91505092915050565b5f73ffffffffffffffffffffffffffffffffffffffff82169050919050565b5f61322e82613205565b9050919050565b61323e81613224565b82525050565b5f81519050919050565b5f82825260208201905092915050565b8281835e5f83830152505050565b5f61327682613244565b613280818561324e565b935061329081856020860161325e565b6132998161303a565b840191505092915050565b7f4e487b71000000000000000000000000000000000000000000000000000000005f52602160045260245ffd5b600481106132e2576132e16132a4565b5b50565b5f8190506132f2826132d1565b919050565b5f613301826132e5565b9050919050565b613311816132f7565b82525050565b5f61332182613205565b9050919050565b61333181613317565b82525050565b5f60e08201905061334a5f83018a613235565b818103602083015261335c818961326c565b90508181036040830152613370818861326c565b905061337f6060830187612fcf565b61338c6080830186612fcf565b61339960a0830185613308565b6133a660c0830184613328565b98975050505050505050565b5f805f606084860312156133c9576133c8613000565b5b5f6133d68682870161301e565b935050602084013567ffffffffffffffff8111156133f7576133f6613004565b5b61340386828701613141565b92505060406134148682870161301e565b9150509250925092565b5f806040838503121561343457613433613000565b5b5f6134418582860161301e565b92505060206134528582860161301e565b9150509250929050565b5f8115159050919050565b6134708161345c565b82525050565b5f6080820190506134895f830187613235565b818103602083015261349b818661326c565b90506134aa6040830185612fcf565b6134b76060830184613467565b95945050505050565b6134c981613224565b81146134d3575f80fd5b50565b5f813590506134e4816134c0565b92915050565b5f8060408385031215613500576134ff613000565b5b5f61350d8582860161301e565b925050602061351e858286016134d6565b9150509250929050565b5f60208201905061353b5f830184613467565b92915050565b5f60c0820190506135545f830189612fcf565b6135616020830188613235565b61356e6040830187613235565b61357b6060830186612fcf565b6135886080830185612fcf565b61359560a0830184613467565b979650505050505050565b5f6020820190508181035f8301526135b8818461326c565b905092915050565b5f805f80608085870312156135d8576135d7613000565b5b5f85013567ffffffffffffffff8111156135f5576135f4613004565b5b61360187828801613141565b945050602085013567ffffffffffffffff81111561362257613621613004565b5b61362e87828801613141565b935050604061363f8782880161301e565b92505060606136508782880161301e565b91505092959194509250565b6136658161345c565b811461366f575f80fd5b50565b5f813590506136808161365c565b92915050565b5f806040838503121561369c5761369b613000565b5b5f6136a98582860161301e565b92505060206136ba85828601613672565b9150509250929050565b5f602082840312156136d9576136d8613000565b5b5f6136e6848285016134d6565b91505092915050565b60028110613700576136ff6132a4565b5b50565b5f819050613710826136ef565b919050565b5f61371f82613703565b9050919050565b61372f81613715565b82525050565b5f6080820190506137485f830187613726565b818103602083015261375a818661326c565b90506137696040830185612fcf565b6137766060830184613328565b95945050505050565b6002811061378b575f80fd5b50565b5f8135905061379c8161377f565b92915050565b5f80604083850312156137b8576137b7613000565b5b5f6137c58582860161378e565b925050602083013567ffffffffffffffff8111156137e6576137e5613004565b5b6137f285828601613141565b9150509250929050565b7f4e487b71000000000000000000000000000000000000000000000000000000005f52603260045260245ffd5b7f4f6e6c79207468652061737369676e656420667265656c616e6365722063616e5f8201527f20706572666f726d207468697320616374696f6e2e0000000000000000000000602082015250565b5f61388360358361324e565b915061388e82613829565b604082019050919050565b5f6020820190508181035f8301526138b081613877565b9050919050565b7f50726f6a65637420646f6573206e6f742065786973742e0000000000000000005f82015250565b5f6138eb60178361324e565b91506138f6826138b7565b602082019050919050565b5f6020820190508181035f830152613918816138df565b9050919050565b7f50726f6a656374206973206e6f7420696e2070726f67726573732e00000000005f82015250565b5f613953601b8361324e565b915061395e8261391f565b602082019050919050565b5f6020820190508181035f83015261398081613947565b9050919050565b7f4e487b71000000000000000000000000000000000000000000000000000000005f52602260045260245ffd5b5f60028204905060018216806139cb57607f821691505b6020821081036139de576139dd613987565b5b50919050565b5f819050815f5260205f209050919050565b5f6020601f8301049050919050565b5f82821b905092915050565b5f60088302613a407fffffffffffffffffffffffffffffffffffffffffffffffffffffffffffffffff82613a05565b613a4a8683613a05565b95508019841693508086168417925050509392505050565b5f819050919050565b5f613a85613a80613a7b84612fc6565b613a62565b612fc6565b9050919050565b5f819050919050565b613a9e83613a6b565b613ab2613aaa82613a8c565b848454613a11565b825550505050565b5f90565b613ac6613aba565b613ad1818484613a95565b505050565b5b81811015613af457613ae95f82613abe565b600181019050613ad7565b5050565b601f821115613b3957613b0a816139e4565b613b13846139f6565b81016020851015613b22578190505b613b36613b2e856139f6565b830182613ad6565b50505b505050565b5f82821c905092915050565b5f613b595f1984600802613b3e565b1980831691505092915050565b5f613b718383613b4a565b9150826002028217905092915050565b613b8a82613244565b67ffffffffffffffff811115613ba357613ba261304a565b5b613bad82546139b4565b613bb8828285613af8565b5f60209050601f831160018114613be9575f8415613bd7578287015190505b613be18582613b66565b865550613c48565b601f198416613bf7866139e4565b5f5b82811015613c1e57848901518255600182019150602085019450602081019050613bf9565b86831015613c3b5784890151613c37601f891682613b4a565b8355505b6001600288020188555050505b505050505050565b5f604082019050613c635f830185612fcf565b613c706020830184612fcf565b9392505050565b7f50726f6a656374206973206e6f74206f70656e20666f72206170706c696361745f8201527f696f6e732e000000000000000000000000000000000000000000000000000000602082015250565b5f613cd160258361324e565b9150613cdc82613c77565b604082019050919050565b5f6020820190508181035f830152613cfe81613cc5565b9050919050565b7f596f7520616c7265616479206170706c69656420666f7220746869732070726f5f8201527f6a6563742e000000000000000000000000000000000000000000000000000000602082015250565b5f613d5f60258361324e565b9150613d6a82613d05565b604082019050919050565b5f6020820190508181035f830152613d8c81613d53565b9050919050565b7f4f6e6c792074686520636c69656e742063616e20706572666f726d20746869735f8201527f20616374696f6e2e000000000000000000000000000000000000000000000000602082015250565b5f613ded60288361324e565b9150613df882613d93565b604082019050919050565b5f6020820190508181035f830152613e1a81613de1565b9050919050565b7f4e487b71000000000000000000000000000000000000000000000000000000005f52601160045260245ffd5b5f613e5882612fc6565b9150613e6383612fc6565b9250828202613e7181612fc6565b91508282048414831517613e8857613e87613e21565b5b5092915050565b7f4e487b71000000000000000000000000000000000000000000000000000000005f52601260045260245ffd5b5f613ec682612fc6565b9150613ed183612fc6565b925082613ee157613ee0613e8f565b5b828204905092915050565b5f613ef682612fc6565b9150613f0183612fc6565b9250828203905081811115613f1957613f18613e21565b5b92915050565b7f46756e64732063616e206f6e6c792062652077697468647261776e2066726f6d5f8201527f20636f6d706c65746564206f72206f70656e2070726f6a656374732e00000000602082015250565b5f613f79603c8361324e565b9150613f8482613f1f565b604082019050919050565b5f6020820190508181035f830152613fa681613f6d565b9050919050565b7f4e6f2066756e647320746f2077697468647261772e00000000000000000000005f82015250565b5f613fe160158361324e565b9150613fec82613fad565b602082019050919050565b5f6020820190508181035f83015261400e81613fd5565b9050919050565b7f50726f6a656374206973206e6f74206f70656e20666f72204170706c696361745f8201527f696f6e2e00000000000000000000000000000000000000000000000000000000602082015250565b5f61406f60248361324e565b915061407a82614015565b604082019050919050565b5f6020820190508181035f83015261409c81614063565b9050919050565b7f496e76616c6964206170706c69636174696f6e20696e6465782e0000000000005f82015250565b5f6140d7601a8361324e565b91506140e2826140a3565b602082019050919050565b5f6020820190508181035f830152614104816140cb565b9050919050565b7f596f7520616c72656164792061636365707465642074686973206170706c69635f8201527f6174696f6e2e0000000000000000000000000000000000000000000000000000602082015250565b5f61416560268361324e565b91506141708261410b565b604082019050919050565b5f6020820190508181035f83015261419281614159565b9050919050565b5f6141b36141ae6141a984613205565b613a62565b613205565b9050919050565b5f6141c482614199565b9050919050565b5f6141d5826141ba565b9050919050565b6141e5816141cb565b82525050565b5f6060820190506141fe5f830186612fcf565b61420b6020830185613235565b61421860408301846141dc565b949350505050565b7f53656e742076616c7565206d757374206d61746368207468652070726f6a65635f8201527f74206275646765742e0000000000000000000000000000000000000000000000602082015250565b5f61427a60298361324e565b915061428582614220565b604082019050919050565b5f6020820190508181035f8301526142a78161426e565b9050919050565b5f6060820190506142c15f830186612fcf565b6142ce6020830185613235565b81810360408301526142e0818461326c565b9050949350505050565b7f596f752068617665206e6f20766f74696e6720706f7765722e000000000000005f82015250565b5f61431e60198361324e565b9150614329826142ea565b602082019050919050565b5f6020820190508181035f83015261434b81614312565b9050919050565b7f4469737075746520616c7265616479207265736f6c7665642e000000000000005f82015250565b5f61438660198361324e565b915061439182614352565b602082019050919050565b5f6020820190508181035f8301526143b38161437a565b9050919050565b7f566f74696e6720646561646c696e6520686173207061737365642e00000000005f82015250565b5f6143ee601b8361324e565b91506143f9826143ba565b602082019050919050565b5f6020820190508181035f83015261441b816143e2565b9050919050565b7f596f75206861766520616c726561647920766f74656420696e207468697320645f8201527f6973707574652e00000000000000000000000000000000000000000000000000602082015250565b5f61447c60278361324e565b915061448782614422565b604082019050919050565b5f6020820190508181035f8301526144a981614470565b9050919050565b5f6144ba82612fc6565b91506144c583612fc6565b92508282019050808211156144dd576144dc613e21565b5b92915050565b5f6060820190506144f65f830186612fcf565b6145036020830185613235565b6145106040830184613467565b949350505050565b7f4f6e6c7920696e766f6c76656420706172746965732063616e207261697365205f8201527f6120646973707574652e00000000000000000000000000000000000000000000602082015250565b5f614572602a8361324e565b915061457d82614518565b604082019050919050565b5f6020820190508181035f83015261459f81614566565b9050919050565b7f44697370757465732063616e206f6e6c792062652072616973656420647572695f8201527f6e6720616e206163746976652070726f6a6563742e0000000000000000000000602082015250565b5f61460060358361324e565b915061460b826145a6565b604082019050919050565b5f6020820190508181035f83015261462d816145f4565b9050919050565b5f61463e82612fc6565b91507fffffffffffffffffffffffffffffffffffffffffffffffffffffffffffffffff82036146705761466f613e21565b5b600182019050919050565b7f566f74696e6720706572696f64206973206e6f74206f766572207965742e00005f82015250565b5f6146af601e8361324e565b91506146ba8261467b565b602082019050919050565b5f6020820190508181035f8301526146dc816146a3565b9050919050565b5f6040820190506146f65f830185612fcf565b61470360208301846141dc565b9392505050565b7f5573657220616c7265616479206578697374732e0000000000000000000000005f82015250565b5f61473e60148361324e565b91506147498261470a565b602082019050919050565b5f6020820190508181035f83015261476b81614732565b9050919050565b5f81549050614780816139b4565b9050919050565b81810361479557505061486a565b61479e82614772565b67ffffffffffffffff8111156147b7576147b661304a565b5b6147c182546139b4565b6147cc828285613af8565b5f601f8311600181146147f9575f84156147e7578287015490505b6147f18582613b66565b865550614863565b601f198416614807876139e4565b9650614812866139e4565b5f5b8281101561483957848901548255600182019150600185019450602081019050614814565b868310156148565784890154614852601f891682613b4a565b8355505b6001600288020188555050505b5050505050505b565b7f4e487b71000000000000000000000000000000000000000000000000000000005f52603160045260245ffd5b7f4f6e6c792074686520636f6e74726163742063616e20757064617465207265705f8201527f75746174696f6e2e000000000000000000000000000000000000000000000000602082015250565b5f6148f360288361324e565b91506148fe82614899565b604082019050919050565b5f6020820190508181035f830152614920816148e7565b905091905056fea2646970667358221220b992b04d16a2552001dfd753be600717251c5ce9404d6326c50bb07ddce2224764736f6c634300081a0033",
					"opcodes": "PUSH1 0x80 PUSH1 0x40 MSTORE CALLVALUE DUP1 ISZERO PUSH1 0xE JUMPI PUSH0 DUP1 REVERT JUMPDEST POP PUSH1 0x40 MLOAD PUSH2 0x4A15 CODESIZE SUB DUP1 PUSH2 0x4A15 DUP4 CODECOPY DUP2 DUP2 ADD PUSH1 0x40 MSTORE DUP2 ADD SWAP1 PUSH1 0x2E SWAP2 SWAP1 PUSH1 0x74 JUMP JUMPDEST DUP2 PUSH1 0xB DUP2 SWAP1 SSTORE POP DUP1 PUSH1 0xC DUP2 SWAP1 SSTORE POP POP POP PUSH1 0xAB JUMP JUMPDEST PUSH0 DUP1 REVERT JUMPDEST PUSH0 DUP2 SWAP1 POP SWAP2 SWAP1 POP JUMP JUMPDEST PUSH1 0x56 DUP2 PUSH1 0x46 JUMP JUMPDEST DUP2 EQ PUSH1 0x5F JUMPI PUSH0 DUP1 REVERT JUMPDEST POP JUMP JUMPDEST PUSH0 DUP2 MLOAD SWAP1 POP PUSH1 0x6E DUP2 PUSH1 0x4F JUMP JUMPDEST SWAP3 SWAP2 POP POP JUMP JUMPDEST PUSH0 DUP1 PUSH1 0x40 DUP4 DUP6 SUB SLT ISZERO PUSH1 0x87 JUMPI PUSH1 0x86 PUSH1 0x42 JUMP JUMPDEST JUMPDEST PUSH0 PUSH1 0x92 DUP6 DUP3 DUP7 ADD PUSH1 0x62 JUMP JUMPDEST SWAP3 POP POP PUSH1 0x20 PUSH1 0xA1 DUP6 DUP3 DUP7 ADD PUSH1 0x62 JUMP JUMPDEST SWAP2 POP POP SWAP3 POP SWAP3 SWAP1 POP JUMP JUMPDEST PUSH2 0x495D DUP1 PUSH2 0xB8 PUSH0 CODECOPY PUSH0 RETURN INVALID PUSH1 0x80 PUSH1 0x40 MSTORE PUSH1 0x4 CALLDATASIZE LT PUSH2 0x165 JUMPI PUSH0 CALLDATALOAD PUSH1 0xE0 SHR DUP1 PUSH4 0x64800185 GT PUSH2 0xD0 JUMPI DUP1 PUSH4 0xA5C1674E GT PUSH2 0x89 JUMPI DUP1 PUSH4 0xC2B7B868 GT PUSH2 0x63 JUMPI DUP1 PUSH4 0xC2B7B868 EQ PUSH2 0x570 JUMPI DUP1 PUSH4 0xD29BCC5C EQ PUSH2 0x598 JUMPI DUP1 PUSH4 0xE32BA8F1 EQ PUSH2 0x5C0 JUMPI DUP1 PUSH4 0xE503BB05 EQ PUSH2 0x5E8 JUMPI PUSH2 0x165 JUMP JUMPDEST DUP1 PUSH4 0xA5C1674E EQ PUSH2 0x4CD JUMPI DUP1 PUSH4 0xA87430BA EQ PUSH2 0x4F5 JUMPI DUP1 PUSH4 0xC07473F6 EQ PUSH2 0x534 JUMPI PUSH2 0x165 JUMP JUMPDEST DUP1 PUSH4 0x64800185 EQ PUSH2 0x3BF JUMPI DUP1 PUSH4 0x6CB0ADBA EQ PUSH2 0x3FB JUMPI DUP1 PUSH4 0x83F67F6E EQ PUSH2 0x437 JUMPI DUP1 PUSH4 0x94BA9709 EQ PUSH2 0x45F JUMPI DUP1 PUSH4 0xA28889E1 EQ PUSH2 0x47B JUMPI DUP1 PUSH4 0xA4F5DF12 EQ PUSH2 0x4A5 JUMPI PUSH2 0x165 JUMP JUMPDEST DUP1 PUSH4 0x20913DA5 GT PUSH2 0x122 JUMPI DUP1 PUSH4 0x20913DA5 EQ PUSH2 0x28B JUMPI DUP1 PUSH4 0x2245F152 EQ PUSH2 0x2B3 JUMPI DUP1 PUSH4 0x2B168EE4 EQ PUSH2 0x2DB JUMPI DUP1 PUSH4 0x40E51B50 EQ PUSH2 0x31A JUMPI DUP1 PUSH4 0x5277B4AE EQ PUSH2 0x342 JUMPI DUP1 PUSH4 0x564A565D EQ PUSH2 0x37E JUMPI PUSH2 0x165 JUMP JUMPDEST DUP1 PUSH4 0x36EE850 EQ PUSH2 0x169 JUMPI DUP1 PUSH4 0x390E07A EQ PUSH2 0x193 JUMPI DUP1 PUSH4 0xD88D409 EQ PUSH2 0x1BB JUMPI DUP1 PUSH4 0x107046BD EQ PUSH2 0x1F7 JUMPI DUP1 PUSH4 0x120EA202 EQ PUSH2 0x239 JUMPI DUP1 PUSH4 0x187548D8 EQ PUSH2 0x263 JUMPI JUMPDEST PUSH0 DUP1 REVERT JUMPDEST CALLVALUE DUP1 ISZERO PUSH2 0x174 JUMPI PUSH0 DUP1 REVERT JUMPDEST POP PUSH2 0x17D PUSH2 0x624 JUMP JUMPDEST PUSH1 0x40 MLOAD PUSH2 0x18A SWAP2 SWAP1 PUSH2 0x2FDE JUMP JUMPDEST PUSH1 0x40 MLOAD DUP1 SWAP2 SUB SWAP1 RETURN JUMPDEST CALLVALUE DUP1 ISZERO PUSH2 0x19E JUMPI PUSH0 DUP1 REVERT JUMPDEST POP PUSH2 0x1B9 PUSH1 0x4 DUP1 CALLDATASIZE SUB DUP2 ADD SWAP1 PUSH2 0x1B4 SWAP2 SWAP1 PUSH2 0x316E JUMP JUMPDEST PUSH2 0x62A JUMP JUMPDEST STOP JUMPDEST CALLVALUE DUP1 ISZERO PUSH2 0x1C6 JUMPI PUSH0 DUP1 REVERT JUMPDEST POP PUSH2 0x1E1 PUSH1 0x4 DUP1 CALLDATASIZE SUB DUP2 ADD SWAP1 PUSH2 0x1DC SWAP2 SWAP1 PUSH2 0x31DA JUMP JUMPDEST PUSH2 0x82D JUMP JUMPDEST PUSH1 0x40 MLOAD PUSH2 0x1EE SWAP2 SWAP1 PUSH2 0x2FDE JUMP JUMPDEST PUSH1 0x40 MLOAD DUP1 SWAP2 SUB SWAP1 RETURN JUMPDEST CALLVALUE DUP1 ISZERO PUSH2 0x202 JUMPI PUSH0 DUP1 REVERT JUMPDEST POP PUSH2 0x21D PUSH1 0x4 DUP1 CALLDATASIZE SUB DUP2 ADD SWAP1 PUSH2 0x218 SWAP2 SWAP1 PUSH2 0x31DA JUMP JUMPDEST PUSH2 0x842 JUMP JUMPDEST PUSH1 0x40 MLOAD PUSH2 0x230 SWAP8 SWAP7 SWAP6 SWAP5 SWAP4 SWAP3 SWAP2 SWAP1 PUSH2 0x3337 JUMP JUMPDEST PUSH1 0x40 MLOAD DUP1 SWAP2 SUB SWAP1 RETURN JUMPDEST CALLVALUE DUP1 ISZERO PUSH2 0x244 JUMPI PUSH0 DUP1 REVERT JUMPDEST POP PUSH2 0x24D PUSH2 0x9E6 JUMP JUMPDEST PUSH1 0x40 MLOAD PUSH2 0x25A SWAP2 SWAP1 PUSH2 0x2FDE JUMP JUMPDEST PUSH1 0x40 MLOAD DUP1 SWAP2 SUB SWAP1 RETURN JUMPDEST CALLVALUE DUP1 ISZERO PUSH2 0x26E JUMPI PUSH0 DUP1 REVERT JUMPDEST POP PUSH2 0x289 PUSH1 0x4 DUP1 CALLDATASIZE SUB DUP2 ADD SWAP1 PUSH2 0x284 SWAP2 SWAP1 PUSH2 0x33B2 JUMP JUMPDEST PUSH2 0x9EC JUMP JUMPDEST STOP JUMPDEST CALLVALUE DUP1 ISZERO PUSH2 0x296 JUMPI PUSH0 DUP1 REVERT JUMPDEST POP PUSH2 0x2B1 PUSH1 0x4 DUP1 CALLDATASIZE SUB DUP2 ADD SWAP1 PUSH2 0x2AC SWAP2 SWAP1 PUSH2 0x341E JUMP JUMPDEST PUSH2 0xC13 JUMP JUMPDEST STOP JUMPDEST CALLVALUE DUP1 ISZERO PUSH2 0x2BE JUMPI PUSH0 DUP1 REVERT JUMPDEST POP PUSH2 0x2D9 PUSH1 0x4 DUP1 CALLDATASIZE SUB DUP2 ADD SWAP1 PUSH2 0x2D4 SWAP2 SWAP1 PUSH2 0x31DA JUMP JUMPDEST PUSH2 0xE95 JUMP JUMPDEST STOP JUMPDEST CALLVALUE DUP1 ISZERO PUSH2 0x2E6 JUMPI PUSH0 DUP1 REVERT JUMPDEST POP PUSH2 0x301 PUSH1 0x4 DUP1 CALLDATASIZE SUB DUP2 ADD SWAP1 PUSH2 0x2FC SWAP2 SWAP1 PUSH2 0x341E JUMP JUMPDEST PUSH2 0x1153 JUMP JUMPDEST PUSH1 0x40 MLOAD PUSH2 0x311 SWAP5 SWAP4 SWAP3 SWAP2 SWAP1 PUSH2 0x3476 JUMP JUMPDEST PUSH1 0x40 MLOAD DUP1 SWAP2 SUB SWAP1 RETURN JUMPDEST CALLVALUE DUP1 ISZERO PUSH2 0x325 JUMPI PUSH0 DUP1 REVERT JUMPDEST POP PUSH2 0x340 PUSH1 0x4 DUP1 CALLDATASIZE SUB DUP2 ADD SWAP1 PUSH2 0x33B SWAP2 SWAP1 PUSH2 0x31DA JUMP JUMPDEST PUSH2 0x124A JUMP JUMPDEST STOP JUMPDEST CALLVALUE DUP1 ISZERO PUSH2 0x34D JUMPI PUSH0 DUP1 REVERT JUMPDEST POP PUSH2 0x368 PUSH1 0x4 DUP1 CALLDATASIZE SUB DUP2 ADD SWAP1 PUSH2 0x363 SWAP2 SWAP1 PUSH2 0x34EA JUMP JUMPDEST PUSH2 0x1489 JUMP JUMPDEST PUSH1 0x40 MLOAD PUSH2 0x375 SWAP2 SWAP1 PUSH2 0x3528 JUMP JUMPDEST PUSH1 0x40 MLOAD DUP1 SWAP2 SUB SWAP1 RETURN JUMPDEST CALLVALUE DUP1 ISZERO PUSH2 0x389 JUMPI PUSH0 DUP1 REVERT JUMPDEST POP PUSH2 0x3A4 PUSH1 0x4 DUP1 CALLDATASIZE SUB DUP2 ADD SWAP1 PUSH2 0x39F SWAP2 SWAP1 PUSH2 0x31DA JUMP JUMPDEST PUSH2 0x14B3 JUMP JUMPDEST PUSH1 0x40 MLOAD PUSH2 0x3B6 SWAP7 SWAP6 SWAP5 SWAP4 SWAP3 SWAP2 SWAP1 PUSH2 0x3541 JUMP JUMPDEST PUSH1 0x40 MLOAD DUP1 SWAP2 SUB SWAP1 RETURN JUMPDEST CALLVALUE DUP1 ISZERO PUSH2 0x3CA JUMPI PUSH0 DUP1 REVERT JUMPDEST POP PUSH2 0x3E5 PUSH1 0x4 DUP1 CALLDATASIZE SUB DUP2 ADD SWAP1 PUSH2 0x3E0 SWAP2 SWAP1 PUSH2 0x31DA JUMP JUMPDEST PUSH2 0x1535 JUMP JUMPDEST PUSH1 0x40 MLOAD PUSH2 0x3F2 SWAP2 SWAP1 PUSH2 0x2FDE JUMP JUMPDEST PUSH1 0x40 MLOAD DUP1 SWAP2 SUB SWAP1 RETURN JUMPDEST CALLVALUE DUP1 ISZERO PUSH2 0x406 JUMPI PUSH0 DUP1 REVERT JUMPDEST POP PUSH2 0x421 PUSH1 0x4 DUP1 CALLDATASIZE SUB DUP2 ADD SWAP1 PUSH2 0x41C SWAP2 SWAP1 PUSH2 0x341E JUMP JUMPDEST PUSH2 0x154A JUMP JUMPDEST PUSH1 0x40 MLOAD PUSH2 0x42E SWAP2 SWAP1 PUSH2 0x35A0 JUMP JUMPDEST PUSH1 0x40 MLOAD DUP1 SWAP2 SUB SWAP1 RETURN JUMPDEST CALLVALUE DUP1 ISZERO PUSH2 0x442 JUMPI PUSH0 DUP1 REVERT JUMPDEST POP PUSH2 0x45D PUSH1 0x4 DUP1 CALLDATASIZE SUB DUP2 ADD SWAP1 PUSH2 0x458 SWAP2 SWAP1 PUSH2 0x341E JUMP JUMPDEST PUSH2 0x15F0 JUMP JUMPDEST STOP JUMPDEST PUSH2 0x479 PUSH1 0x4 DUP1 CALLDATASIZE SUB DUP2 ADD SWAP1 PUSH2 0x474 SWAP2 SWAP1 PUSH2 0x35C0 JUMP JUMPDEST PUSH2 0x199A JUMP JUMPDEST STOP JUMPDEST CALLVALUE DUP1 ISZERO PUSH2 0x486 JUMPI PUSH0 DUP1 REVERT JUMPDEST POP PUSH2 0x48F PUSH2 0x1BDE JUMP JUMPDEST PUSH1 0x40 MLOAD PUSH2 0x49C SWAP2 SWAP1 PUSH2 0x2FDE JUMP JUMPDEST PUSH1 0x40 MLOAD DUP1 SWAP2 SUB SWAP1 RETURN JUMPDEST CALLVALUE DUP1 ISZERO PUSH2 0x4B0 JUMPI PUSH0 DUP1 REVERT JUMPDEST POP PUSH2 0x4CB PUSH1 0x4 DUP1 CALLDATASIZE SUB DUP2 ADD SWAP1 PUSH2 0x4C6 SWAP2 SWAP1 PUSH2 0x3686 JUMP JUMPDEST PUSH2 0x1BE4 JUMP JUMPDEST STOP JUMPDEST CALLVALUE DUP1 ISZERO PUSH2 0x4D8 JUMPI PUSH0 DUP1 REVERT JUMPDEST POP PUSH2 0x4F3 PUSH1 0x4 DUP1 CALLDATASIZE SUB DUP2 ADD SWAP1 PUSH2 0x4EE SWAP2 SWAP1 PUSH2 0x31DA JUMP JUMPDEST PUSH2 0x1EDB JUMP JUMPDEST STOP JUMPDEST CALLVALUE DUP1 ISZERO PUSH2 0x500 JUMPI PUSH0 DUP1 REVERT JUMPDEST POP PUSH2 0x51B PUSH1 0x4 DUP1 CALLDATASIZE SUB DUP2 ADD SWAP1 PUSH2 0x516 SWAP2 SWAP1 PUSH2 0x36C4 JUMP JUMPDEST PUSH2 0x2325 JUMP JUMPDEST PUSH1 0x40 MLOAD PUSH2 0x52B SWAP5 SWAP4 SWAP3 SWAP2 SWAP1 PUSH2 0x3735 JUMP JUMPDEST PUSH1 0x40 MLOAD DUP1 SWAP2 SUB SWAP1 RETURN JUMPDEST CALLVALUE DUP1 ISZERO PUSH2 0x53F JUMPI PUSH0 DUP1 REVERT JUMPDEST POP PUSH2 0x55A PUSH1 0x4 DUP1 CALLDATASIZE SUB DUP2 ADD SWAP1 PUSH2 0x555 SWAP2 SWAP1 PUSH2 0x36C4 JUMP JUMPDEST PUSH2 0x2401 JUMP JUMPDEST PUSH1 0x40 MLOAD PUSH2 0x567 SWAP2 SWAP1 PUSH2 0x2FDE JUMP JUMPDEST PUSH1 0x40 MLOAD DUP1 SWAP2 SUB SWAP1 RETURN JUMPDEST CALLVALUE DUP1 ISZERO PUSH2 0x57B JUMPI PUSH0 DUP1 REVERT JUMPDEST POP PUSH2 0x596 PUSH1 0x4 DUP1 CALLDATASIZE SUB DUP2 ADD SWAP1 PUSH2 0x591 SWAP2 SWAP1 PUSH2 0x31DA JUMP JUMPDEST PUSH2 0x2416 JUMP JUMPDEST STOP JUMPDEST CALLVALUE DUP1 ISZERO PUSH2 0x5A3 JUMPI PUSH0 DUP1 REVERT JUMPDEST POP PUSH2 0x5BE PUSH1 0x4 DUP1 CALLDATASIZE SUB DUP2 ADD SWAP1 PUSH2 0x5B9 SWAP2 SWAP1 PUSH2 0x37A2 JUMP JUMPDEST PUSH2 0x269B JUMP JUMPDEST STOP JUMPDEST CALLVALUE DUP1 ISZERO PUSH2 0x5CB JUMPI PUSH0 DUP1 REVERT JUMPDEST POP PUSH2 0x5E6 PUSH1 0x4 DUP1 CALLDATASIZE SUB DUP2 ADD SWAP1 PUSH2 0x5E1 SWAP2 SWAP1 PUSH2 0x316E JUMP JUMPDEST PUSH2 0x2886 JUMP JUMPDEST STOP JUMPDEST CALLVALUE DUP1 ISZERO PUSH2 0x5F3 JUMPI PUSH0 DUP1 REVERT JUMPDEST POP PUSH2 0x60E PUSH1 0x4 DUP1 CALLDATASIZE SUB DUP2 ADD SWAP1 PUSH2 0x609 SWAP2 SWAP1 PUSH2 0x36C4 JUMP JUMPDEST PUSH2 0x2C6E JUMP JUMPDEST PUSH1 0x40 MLOAD PUSH2 0x61B SWAP2 SWAP1 PUSH2 0x2FDE JUMP JUMPDEST PUSH1 0x40 MLOAD DUP1 SWAP2 SUB SWAP1 RETURN JUMPDEST PUSH1 0xC SLOAD DUP2 JUMP JUMPDEST DUP3 PUSH1 0x2 DUP2 DUP2 SLOAD DUP2 LT PUSH2 0x63F JUMPI PUSH2 0x63E PUSH2 0x37FC JUMP JUMPDEST JUMPDEST SWAP1 PUSH0 MSTORE PUSH1 0x20 PUSH0 KECCAK256 SWAP1 PUSH1 0x6 MUL ADD PUSH1 0x5 ADD PUSH1 0x1 SWAP1 SLOAD SWAP1 PUSH2 0x100 EXP SWAP1 DIV PUSH20 0xFFFFFFFFFFFFFFFFFFFFFFFFFFFFFFFFFFFFFFFF AND PUSH20 0xFFFFFFFFFFFFFFFFFFFFFFFFFFFFFFFFFFFFFFFF AND CALLER PUSH20 0xFFFFFFFFFFFFFFFFFFFFFFFFFFFFFFFFFFFFFFFF AND EQ PUSH2 0x6DC JUMPI PUSH1 0x40 MLOAD PUSH32 0x8C379A000000000000000000000000000000000000000000000000000000000 DUP2 MSTORE PUSH1 0x4 ADD PUSH2 0x6D3 SWAP1 PUSH2 0x3899 JUMP JUMPDEST PUSH1 0x40 MLOAD DUP1 SWAP2 SUB SWAP1 REVERT JUMPDEST DUP4 PUSH1 0x2 DUP1 SLOAD SWAP1 POP DUP2 LT PUSH2 0x724 JUMPI PUSH1 0x40 MLOAD PUSH32 0x8C379A000000000000000000000000000000000000000000000000000000000 DUP2 MSTORE PUSH1 0x4 ADD PUSH2 0x71B SWAP1 PUSH2 0x3901 JUMP JUMPDEST PUSH1 0x40 MLOAD DUP1 SWAP2 SUB SWAP1 REVERT JUMPDEST PUSH0 PUSH1 0x2 DUP7 DUP2 SLOAD DUP2 LT PUSH2 0x739 JUMPI PUSH2 0x738 PUSH2 0x37FC JUMP JUMPDEST JUMPDEST SWAP1 PUSH0 MSTORE PUSH1 0x20 PUSH0 KECCAK256 SWAP1 PUSH1 0x6 MUL ADD SWAP1 POP PUSH1 0x1 PUSH1 0x3 DUP2 GT ISZERO PUSH2 0x75B JUMPI PUSH2 0x75A PUSH2 0x32A4 JUMP JUMPDEST JUMPDEST DUP2 PUSH1 0x5 ADD PUSH0 SWAP1 SLOAD SWAP1 PUSH2 0x100 EXP SWAP1 DIV PUSH1 0xFF AND PUSH1 0x3 DUP2 GT ISZERO PUSH2 0x77E JUMPI PUSH2 0x77D PUSH2 0x32A4 JUMP JUMPDEST JUMPDEST EQ PUSH2 0x7BE JUMPI PUSH1 0x40 MLOAD PUSH32 0x8C379A000000000000000000000000000000000000000000000000000000000 DUP2 MSTORE PUSH1 0x4 ADD PUSH2 0x7B5 SWAP1 PUSH2 0x3969 JUMP JUMPDEST PUSH1 0x40 MLOAD DUP1 SWAP2 SUB SWAP1 REVERT JUMPDEST DUP4 PUSH1 0x4 PUSH0 DUP9 DUP2 MSTORE PUSH1 0x20 ADD SWAP1 DUP2 MSTORE PUSH1 0x20 ADD PUSH0 KECCAK256 PUSH0 DUP8 DUP2 MSTORE PUSH1 0x20 ADD SWAP1 DUP2 MSTORE PUSH1 0x20 ADD PUSH0 KECCAK256 SWAP1 DUP2 PUSH2 0x7EB SWAP2 SWAP1 PUSH2 0x3B81 JUMP JUMPDEST POP PUSH32 0x1B7218C0AC23EA9CBE4DF603D2B340FBF469A115B73EA3D11460727F445D6BE1 DUP7 DUP7 PUSH1 0x40 MLOAD PUSH2 0x81D SWAP3 SWAP2 SWAP1 PUSH2 0x3C50 JUMP JUMPDEST PUSH1 0x40 MLOAD DUP1 SWAP2 SUB SWAP1 LOG1 POP POP POP POP POP POP JUMP JUMPDEST PUSH1 0xA PUSH1 0x20 MSTORE DUP1 PUSH0 MSTORE PUSH1 0x40 PUSH0 KECCAK256 PUSH0 SWAP2 POP SWAP1 POP SLOAD DUP2 JUMP JUMPDEST PUSH1 0x2 DUP2 DUP2 SLOAD DUP2 LT PUSH2 0x851 JUMPI PUSH0 DUP1 REVERT JUMPDEST SWAP1 PUSH0 MSTORE PUSH1 0x20 PUSH0 KECCAK256 SWAP1 PUSH1 0x6 MUL ADD PUSH0 SWAP2 POP SWAP1 POP DUP1 PUSH0 ADD PUSH0 SWAP1 SLOAD SWAP1 PUSH2 0x100 EXP SWAP1 DIV PUSH20 0xFFFFFFFFFFFFFFFFFFFFFFFFFFFFFFFFFFFFFFFF AND SWAP1 DUP1 PUSH1 0x1 ADD DUP1 SLOAD PUSH2 0x895 SWAP1 PUSH2 0x39B4 JUMP JUMPDEST DUP1 PUSH1 0x1F ADD PUSH1 0x20 DUP1 SWAP2 DIV MUL PUSH1 0x20 ADD PUSH1 0x40 MLOAD SWAP1 DUP2 ADD PUSH1 0x40 MSTORE DUP1 SWAP3 SWAP2 SWAP1 DUP2 DUP2 MSTORE PUSH1 0x20 ADD DUP3 DUP1 SLOAD PUSH2 0x8C1 SWAP1 PUSH2 0x39B4 JUMP JUMPDEST DUP1 ISZERO PUSH2 0x90C JUMPI DUP1 PUSH1 0x1F LT PUSH2 0x8E3 JUMPI PUSH2 0x100 DUP1 DUP4 SLOAD DIV MUL DUP4 MSTORE SWAP2 PUSH1 0x20 ADD SWAP2 PUSH2 0x90C JUMP JUMPDEST DUP3 ADD SWAP2 SWAP1 PUSH0 MSTORE PUSH1 0x20 PUSH0 KECCAK256 SWAP1 JUMPDEST DUP2 SLOAD DUP2 MSTORE SWAP1 PUSH1 0x1 ADD SWAP1 PUSH1 0x20 ADD DUP1 DUP4 GT PUSH2 0x8EF JUMPI DUP3 SWAP1 SUB PUSH1 0x1F AND DUP3 ADD SWAP2 JUMPDEST POP POP POP POP POP SWAP1 DUP1 PUSH1 0x2 ADD DUP1 SLOAD PUSH2 0x921 SWAP1 PUSH2 0x39B4 JUMP JUMPDEST DUP1 PUSH1 0x1F ADD PUSH1 0x20 DUP1 SWAP2 DIV MUL PUSH1 0x20 ADD PUSH1 0x40 MLOAD SWAP1 DUP2 ADD PUSH1 0x40 MSTORE DUP1 SWAP3 SWAP2 SWAP1 DUP2 DUP2 MSTORE PUSH1 0x20 ADD DUP3 DUP1 SLOAD PUSH2 0x94D SWAP1 PUSH2 0x39B4 JUMP JUMPDEST DUP1 ISZERO PUSH2 0x998 JUMPI DUP1 PUSH1 0x1F LT PUSH2 0x96F JUMPI PUSH2 0x100 DUP1 DUP4 SLOAD DIV MUL DUP4 MSTORE SWAP2 PUSH1 0x20 ADD SWAP2 PUSH2 0x998 JUMP JUMPDEST DUP3 ADD SWAP2 SWAP1 PUSH0 MSTORE PUSH1 0x20 PUSH0 KECCAK256 SWAP1 JUMPDEST DUP2 SLOAD DUP2 MSTORE SWAP1 PUSH1 0x1 ADD SWAP1 PUSH1 0x20 ADD DUP1 DUP4 GT PUSH2 0x97B JUMPI DUP3 SWAP1 SUB PUSH1 0x1F AND DUP3 ADD SWAP2 JUMPDEST POP POP POP POP POP SWAP1 DUP1 PUSH1 0x3 ADD SLOAD SWAP1 DUP1 PUSH1 0x4 ADD SLOAD SWAP1 DUP1 PUSH1 0x5 ADD PUSH0 SWAP1 SLOAD SWAP1 PUSH2 0x100 EXP SWAP1 DIV PUSH1 0xFF AND SWAP1 DUP1 PUSH1 0x5 ADD PUSH1 0x1 SWAP1 SLOAD SWAP1 PUSH2 0x100 EXP SWAP1 DIV PUSH20 0xFFFFFFFFFFFFFFFFFFFFFFFFFFFFFFFFFFFFFFFF AND SWAP1 POP DUP8 JUMP JUMPDEST PUSH1 0xB SLOAD DUP2 JUMP JUMPDEST DUP3 PUSH1 0x2 DUP1 SLOAD SWAP1 POP DUP2 LT PUSH2 0xA34 JUMPI PUSH1 0x40 MLOAD PUSH32 0x8C379A000000000000000000000000000000000000000000000000000000000 DUP2 MSTORE PUSH1 0x4 ADD PUSH2 0xA2B SWAP1 PUSH2 0x3901 JUMP JUMPDEST PUSH1 0x40 MLOAD DUP1 SWAP2 SUB SWAP1 REVERT JUMPDEST PUSH0 PUSH1 0x2 DUP6 DUP2 SLOAD DUP2 LT PUSH2 0xA49 JUMPI PUSH2 0xA48 PUSH2 0x37FC JUMP JUMPDEST JUMPDEST SWAP1 PUSH0 MSTORE PUSH1 0x20 PUSH0 KECCAK256 SWAP1 PUSH1 0x6 MUL ADD SWAP1 POP PUSH0 PUSH1 0x3 DUP2 GT ISZERO PUSH2 0xA6A JUMPI PUSH2 0xA69 PUSH2 0x32A4 JUMP JUMPDEST JUMPDEST DUP2 PUSH1 0x5 ADD PUSH0 SWAP1 SLOAD SWAP1 PUSH2 0x100 EXP SWAP1 DIV PUSH1 0xFF AND PUSH1 0x3 DUP2 GT ISZERO PUSH2 0xA8D JUMPI PUSH2 0xA8C PUSH2 0x32A4 JUMP JUMPDEST JUMPDEST EQ PUSH2 0xACD JUMPI PUSH1 0x40 MLOAD PUSH32 0x8C379A000000000000000000000000000000000000000000000000000000000 DUP2 MSTORE PUSH1 0x4 ADD PUSH2 0xAC4 SWAP1 PUSH2 0x3CE7 JUMP JUMPDEST PUSH1 0x40 MLOAD DUP1 SWAP2 SUB SWAP1 REVERT JUMPDEST PUSH2 0xAD7 CALLER DUP7 PUSH2 0x2C83 JUMP JUMPDEST ISZERO PUSH2 0xB17 JUMPI PUSH1 0x40 MLOAD PUSH32 0x8C379A000000000000000000000000000000000000000000000000000000000 DUP2 MSTORE PUSH1 0x4 ADD PUSH2 0xB0E SWAP1 PUSH2 0x3D75 JUMP JUMPDEST PUSH1 0x40 MLOAD DUP1 SWAP2 SUB SWAP1 REVERT JUMPDEST PUSH1 0x5 PUSH0 DUP7 DUP2 MSTORE PUSH1 0x20 ADD SWAP1 DUP2 MSTORE PUSH1 0x20 ADD PUSH0 KECCAK256 PUSH1 0x40 MLOAD DUP1 PUSH1 0x80 ADD PUSH1 0x40 MSTORE DUP1 CALLER PUSH20 0xFFFFFFFFFFFFFFFFFFFFFFFFFFFFFFFFFFFFFFFF AND DUP2 MSTORE PUSH1 0x20 ADD DUP7 DUP2 MSTORE PUSH1 0x20 ADD DUP6 DUP2 MSTORE PUSH1 0x20 ADD PUSH0 ISZERO ISZERO DUP2 MSTORE POP SWAP1 DUP1 PUSH1 0x1 DUP2 SLOAD ADD DUP1 DUP3 SSTORE DUP1 SWAP2 POP POP PUSH1 0x1 SWAP1 SUB SWAP1 PUSH0 MSTORE PUSH1 0x20 PUSH0 KECCAK256 SWAP1 PUSH1 0x4 MUL ADD PUSH0 SWAP1 SWAP2 SWAP1 SWAP2 SWAP1 SWAP2 POP PUSH0 DUP3 ADD MLOAD DUP2 PUSH0 ADD PUSH0 PUSH2 0x100 EXP DUP2 SLOAD DUP2 PUSH20 0xFFFFFFFFFFFFFFFFFFFFFFFFFFFFFFFFFFFFFFFF MUL NOT AND SWAP1 DUP4 PUSH20 0xFFFFFFFFFFFFFFFFFFFFFFFFFFFFFFFFFFFFFFFF AND MUL OR SWAP1 SSTORE POP PUSH1 0x20 DUP3 ADD MLOAD DUP2 PUSH1 0x1 ADD SWAP1 DUP2 PUSH2 0xBE0 SWAP2 SWAP1 PUSH2 0x3B81 JUMP JUMPDEST POP PUSH1 0x40 DUP3 ADD MLOAD DUP2 PUSH1 0x2 ADD SSTORE PUSH1 0x60 DUP3 ADD MLOAD DUP2 PUSH1 0x3 ADD PUSH0 PUSH2 0x100 EXP DUP2 SLOAD DUP2 PUSH1 0xFF MUL NOT AND SWAP1 DUP4 ISZERO ISZERO MUL OR SWAP1 SSTORE POP POP POP POP POP POP POP POP JUMP JUMPDEST DUP2 PUSH1 0x2 DUP2 DUP2 SLOAD DUP2 LT PUSH2 0xC28 JUMPI PUSH2 0xC27 PUSH2 0x37FC JUMP JUMPDEST JUMPDEST SWAP1 PUSH0 MSTORE PUSH1 0x20 PUSH0 KECCAK256 SWAP1 PUSH1 0x6 MUL ADD PUSH0 ADD PUSH0 SWAP1 SLOAD SWAP1 PUSH2 0x100 EXP SWAP1 DIV PUSH20 0xFFFFFFFFFFFFFFFFFFFFFFFFFFFFFFFFFFFFFFFF AND PUSH20 0xFFFFFFFFFFFFFFFFFFFFFFFFFFFFFFFFFFFFFFFF AND CALLER PUSH20 0xFFFFFFFFFFFFFFFFFFFFFFFFFFFFFFFFFFFFFFFF AND EQ PUSH2 0xCC3 JUMPI PUSH1 0x40 MLOAD PUSH32 0x8C379A000000000000000000000000000000000000000000000000000000000 DUP2 MSTORE PUSH1 0x4 ADD PUSH2 0xCBA SWAP1 PUSH2 0x3E03 JUMP JUMPDEST PUSH1 0x40 MLOAD DUP1 SWAP2 SUB SWAP1 REVERT JUMPDEST DUP3 PUSH1 0x2 DUP1 SLOAD SWAP1 POP DUP2 LT PUSH2 0xD0B JUMPI PUSH1 0x40 MLOAD PUSH32 0x8C379A000000000000000000000000000000000000000000000000000000000 DUP2 MSTORE PUSH1 0x4 ADD PUSH2 0xD02 SWAP1 PUSH2 0x3901 JUMP JUMPDEST PUSH1 0x40 MLOAD DUP1 SWAP2 SUB SWAP1 REVERT JUMPDEST PUSH0 PUSH1 0x2 DUP6 DUP2 SLOAD DUP2 LT PUSH2 0xD20 JUMPI PUSH2 0xD1F PUSH2 0x37FC JUMP JUMPDEST JUMPDEST SWAP1 PUSH0 MSTORE PUSH1 0x20 PUSH0 KECCAK256 SWAP1 PUSH1 0x6 MUL ADD SWAP1 POP PUSH1 0x1 PUSH1 0x3 DUP2 GT ISZERO PUSH2 0xD42 JUMPI PUSH2 0xD41 PUSH2 0x32A4 JUMP JUMPDEST JUMPDEST DUP2 PUSH1 0x5 ADD PUSH0 SWAP1 SLOAD SWAP1 PUSH2 0x100 EXP SWAP1 DIV PUSH1 0xFF AND PUSH1 0x3 DUP2 GT ISZERO PUSH2 0xD65 JUMPI PUSH2 0xD64 PUSH2 0x32A4 JUMP JUMPDEST JUMPDEST EQ PUSH2 0xDA5 JUMPI PUSH1 0x40 MLOAD PUSH32 0x8C379A000000000000000000000000000000000000000000000000000000000 DUP2 MSTORE PUSH1 0x4 ADD PUSH2 0xD9C SWAP1 PUSH2 0x3969 JUMP JUMPDEST PUSH1 0x40 MLOAD DUP1 SWAP2 SUB SWAP1 REVERT JUMPDEST PUSH0 PUSH1 0x64 PUSH1 0xA DUP4 PUSH1 0x3 ADD SLOAD PUSH2 0xDB9 SWAP2 SWAP1 PUSH2 0x3E4E JUMP JUMPDEST PUSH2 0xDC3 SWAP2 SWAP1 PUSH2 0x3EBC JUMP JUMPDEST SWAP1 POP DUP1 PUSH1 0x3 PUSH0 DUP9 DUP2 MSTORE PUSH1 0x20 ADD SWAP1 DUP2 MSTORE PUSH1 0x20 ADD PUSH0 KECCAK256 PUSH0 DUP3 DUP3 SLOAD PUSH2 0xDE5 SWAP2 SWAP1 PUSH2 0x3EEC JUMP JUMPDEST SWAP3 POP POP DUP2 SWAP1 SSTORE POP DUP2 PUSH1 0x5 ADD PUSH1 0x1 SWAP1 SLOAD SWAP1 PUSH2 0x100 EXP SWAP1 DIV PUSH20 0xFFFFFFFFFFFFFFFFFFFFFFFFFFFFFFFFFFFFFFFF AND PUSH20 0xFFFFFFFFFFFFFFFFFFFFFFFFFFFFFFFFFFFFFFFF AND PUSH2 0x8FC DUP3 SWAP1 DUP2 ISZERO MUL SWAP1 PUSH1 0x40 MLOAD PUSH0 PUSH1 0x40 MLOAD DUP1 DUP4 SUB DUP2 DUP6 DUP9 DUP9 CALL SWAP4 POP POP POP POP ISZERO DUP1 ISZERO PUSH2 0xE53 JUMPI RETURNDATASIZE PUSH0 DUP1 RETURNDATACOPY RETURNDATASIZE PUSH0 REVERT JUMPDEST POP PUSH32 0x1B7218C0AC23EA9CBE4DF603D2B340FBF469A115B73EA3D11460727F445D6BE1 DUP7 DUP7 PUSH1 0x40 MLOAD PUSH2 0xE85 SWAP3 SWAP2 SWAP1 PUSH2 0x3C50 JUMP JUMPDEST PUSH1 0x40 MLOAD DUP1 SWAP2 SUB SWAP1 LOG1 POP POP POP POP POP POP JUMP JUMPDEST DUP1 PUSH1 0x2 DUP2 DUP2 SLOAD DUP2 LT PUSH2 0xEAA JUMPI PUSH2 0xEA9 PUSH2 0x37FC JUMP JUMPDEST JUMPDEST SWAP1 PUSH0 MSTORE PUSH1 0x20 PUSH0 KECCAK256 SWAP1 PUSH1 0x6 MUL ADD PUSH0 ADD PUSH0 SWAP1 SLOAD SWAP1 PUSH2 0x100 EXP SWAP1 DIV PUSH20 0xFFFFFFFFFFFFFFFFFFFFFFFFFFFFFFFFFFFFFFFF AND PUSH20 0xFFFFFFFFFFFFFFFFFFFFFFFFFFFFFFFFFFFFFFFF AND CALLER PUSH20 0xFFFFFFFFFFFFFFFFFFFFFFFFFFFFFFFFFFFFFFFF AND EQ PUSH2 0xF45 JUMPI PUSH1 0x40 MLOAD PUSH32 0x8C379A000000000000000000000000000000000000000000000000000000000 DUP2 MSTORE PUSH1 0x4 ADD PUSH2 0xF3C SWAP1 PUSH2 0x3E03 JUMP JUMPDEST PUSH1 0x40 MLOAD DUP1 SWAP2 SUB SWAP1 REVERT JUMPDEST DUP2 PUSH1 0x2 DUP1 SLOAD SWAP1 POP DUP2 LT PUSH2 0xF8D JUMPI PUSH1 0x40 MLOAD PUSH32 0x8C379A000000000000000000000000000000000000000000000000000000000 DUP2 MSTORE PUSH1 0x4 ADD PUSH2 0xF84 SWAP1 PUSH2 0x3901 JUMP JUMPDEST PUSH1 0x40 MLOAD DUP1 SWAP2 SUB SWAP1 REVERT JUMPDEST PUSH0 PUSH1 0x2 DUP5 DUP2 SLOAD DUP2 LT PUSH2 0xFA2 JUMPI PUSH2 0xFA1 PUSH2 0x37FC JUMP JUMPDEST JUMPDEST SWAP1 PUSH0 MSTORE PUSH1 0x20 PUSH0 KECCAK256 SWAP1 PUSH1 0x6 MUL ADD SWAP1 POP PUSH1 0x1 PUSH1 0x3 DUP2 GT ISZERO PUSH2 0xFC4 JUMPI PUSH2 0xFC3 PUSH2 0x32A4 JUMP JUMPDEST JUMPDEST DUP2 PUSH1 0x5 ADD PUSH0 SWAP1 SLOAD SWAP1 PUSH2 0x100 EXP SWAP1 DIV PUSH1 0xFF AND PUSH1 0x3 DUP2 GT ISZERO PUSH2 0xFE7 JUMPI PUSH2 0xFE6 PUSH2 0x32A4 JUMP JUMPDEST JUMPDEST EQ PUSH2 0x1027 JUMPI PUSH1 0x40 MLOAD PUSH32 0x8C379A000000000000000000000000000000000000000000000000000000000 DUP2 MSTORE PUSH1 0x4 ADD PUSH2 0x101E SWAP1 PUSH2 0x3969 JUMP JUMPDEST PUSH1 0x40 MLOAD DUP1 SWAP2 SUB SWAP1 REVERT JUMPDEST PUSH1 0x2 DUP2 PUSH1 0x5 ADD PUSH0 PUSH2 0x100 EXP DUP2 SLOAD DUP2 PUSH1 0xFF MUL NOT AND SWAP1 DUP4 PUSH1 0x3 DUP2 GT ISZERO PUSH2 0x104E JUMPI PUSH2 0x104D PUSH2 0x32A4 JUMP JUMPDEST JUMPDEST MUL OR SWAP1 SSTORE POP PUSH0 PUSH1 0x3 PUSH0 DUP7 DUP2 MSTORE PUSH1 0x20 ADD SWAP1 DUP2 MSTORE PUSH1 0x20 ADD PUSH0 KECCAK256 SLOAD SWAP1 POP PUSH0 PUSH1 0x3 PUSH0 DUP8 DUP2 MSTORE PUSH1 0x20 ADD SWAP1 DUP2 MSTORE PUSH1 0x20 ADD PUSH0 KECCAK256 DUP2 SWAP1 SSTORE POP DUP2 PUSH1 0x5 ADD PUSH1 0x1 SWAP1 SLOAD SWAP1 PUSH2 0x100 EXP SWAP1 DIV PUSH20 0xFFFFFFFFFFFFFFFFFFFFFFFFFFFFFFFFFFFFFFFF AND PUSH20 0xFFFFFFFFFFFFFFFFFFFFFFFFFFFFFFFFFFFFFFFF AND PUSH2 0x8FC DUP3 SWAP1 DUP2 ISZERO MUL SWAP1 PUSH1 0x40 MLOAD PUSH0 PUSH1 0x40 MLOAD DUP1 DUP4 SUB DUP2 DUP6 DUP9 DUP9 CALL SWAP4 POP POP POP POP ISZERO DUP1 ISZERO PUSH2 0x10E5 JUMPI RETURNDATASIZE PUSH0 DUP1 RETURNDATACOPY RETURNDATASIZE PUSH0 REVERT JUMPDEST POP PUSH2 0x1115 DUP3 PUSH1 0x5 ADD PUSH1 0x1 SWAP1 SLOAD SWAP1 PUSH2 0x100 EXP SWAP1 DIV PUSH20 0xFFFFFFFFFFFFFFFFFFFFFFFFFFFFFFFFFFFFFFFF AND PUSH1 0xA PUSH2 0x2E72 JUMP JUMPDEST PUSH32 0x60D8DF137E489B6216738E436244CA4700BD6D0C8371D3C8D9C80B54538111B9 DUP6 PUSH1 0x40 MLOAD PUSH2 0x1144 SWAP2 SWAP1 PUSH2 0x2FDE JUMP JUMPDEST PUSH1 0x40 MLOAD DUP1 SWAP2 SUB SWAP1 LOG1 POP POP POP POP POP JUMP JUMPDEST PUSH1 0x5 PUSH1 0x20 MSTORE DUP2 PUSH0 MSTORE PUSH1 0x40 PUSH0 KECCAK256 DUP2 DUP2 SLOAD DUP2 LT PUSH2 0x116C JUMPI PUSH0 DUP1 REVERT JUMPDEST SWAP1 PUSH0 MSTORE PUSH1 0x20 PUSH0 KECCAK256 SWAP1 PUSH1 0x4 MUL ADD PUSH0 SWAP2 POP SWAP2 POP POP DUP1 PUSH0 ADD PUSH0 SWAP1 SLOAD SWAP1 PUSH2 0x100 EXP SWAP1 DIV PUSH20 0xFFFFFFFFFFFFFFFFFFFFFFFFFFFFFFFFFFFFFFFF AND SWAP1 DUP1 PUSH1 0x1 ADD DUP1 SLOAD PUSH2 0x11B1 SWAP1 PUSH2 0x39B4 JUMP JUMPDEST DUP1 PUSH1 0x1F ADD PUSH1 0x20 DUP1 SWAP2 DIV MUL PUSH1 0x20 ADD PUSH1 0x40 MLOAD SWAP1 DUP2 ADD PUSH1 0x40 MSTORE DUP1 SWAP3 SWAP2 SWAP1 DUP2 DUP2 MSTORE PUSH1 0x20 ADD DUP3 DUP1 SLOAD PUSH2 0x11DD SWAP1 PUSH2 0x39B4 JUMP JUMPDEST DUP1 ISZERO PUSH2 0x1228 JUMPI DUP1 PUSH1 0x1F LT PUSH2 0x11FF JUMPI PUSH2 0x100 DUP1 DUP4 SLOAD DIV MUL DUP4 MSTORE SWAP2 PUSH1 0x20 ADD SWAP2 PUSH2 0x1228 JUMP JUMPDEST DUP3 ADD SWAP2 SWAP1 PUSH0 MSTORE PUSH1 0x20 PUSH0 KECCAK256 SWAP1 JUMPDEST DUP2 SLOAD DUP2 MSTORE SWAP1 PUSH1 0x1 ADD SWAP1 PUSH1 0x20 ADD DUP1 DUP4 GT PUSH2 0x120B JUMPI DUP3 SWAP1 SUB PUSH1 0x1F AND DUP3 ADD SWAP2 JUMPDEST POP POP POP POP POP SWAP1 DUP1 PUSH1 0x2 ADD SLOAD SWAP1 DUP1 PUSH1 0x3 ADD PUSH0 SWAP1 SLOAD SWAP1 PUSH2 0x100 EXP SWAP1 DIV PUSH1 0xFF AND SWAP1 POP DUP5 JUMP JUMPDEST DUP1 PUSH1 0x2 DUP2 DUP2 SLOAD DUP2 LT PUSH2 0x125F JUMPI PUSH2 0x125E PUSH2 0x37FC JUMP JUMPDEST JUMPDEST SWAP1 PUSH0 MSTORE PUSH1 0x20 PUSH0 KECCAK256 SWAP1 PUSH1 0x6 MUL ADD PUSH0 ADD PUSH0 SWAP1 SLOAD SWAP1 PUSH2 0x100 EXP SWAP1 DIV PUSH20 0xFFFFFFFFFFFFFFFFFFFFFFFFFFFFFFFFFFFFFFFF AND PUSH20 0xFFFFFFFFFFFFFFFFFFFFFFFFFFFFFFFFFFFFFFFF AND CALLER PUSH20 0xFFFFFFFFFFFFFFFFFFFFFFFFFFFFFFFFFFFFFFFF AND EQ PUSH2 0x12FA JUMPI PUSH1 0x40 MLOAD PUSH32 0x8C379A000000000000000000000000000000000000000000000000000000000 DUP2 MSTORE PUSH1 0x4 ADD PUSH2 0x12F1 SWAP1 PUSH2 0x3E03 JUMP JUMPDEST PUSH1 0x40 MLOAD DUP1 SWAP2 SUB SWAP1 REVERT JUMPDEST PUSH0 PUSH1 0x2 DUP4 DUP2 SLOAD DUP2 LT PUSH2 0x130F JUMPI PUSH2 0x130E PUSH2 0x37FC JUMP JUMPDEST JUMPDEST SWAP1 PUSH0 MSTORE PUSH1 0x20 PUSH0 KECCAK256 SWAP1 PUSH1 0x6 MUL ADD SWAP1 POP PUSH1 0x2 PUSH1 0x3 DUP2 GT ISZERO PUSH2 0x1331 JUMPI PUSH2 0x1330 PUSH2 0x32A4 JUMP JUMPDEST JUMPDEST DUP2 PUSH1 0x5 ADD PUSH0 SWAP1 SLOAD SWAP1 PUSH2 0x100 EXP SWAP1 DIV PUSH1 0xFF AND PUSH1 0x3 DUP2 GT ISZERO PUSH2 0x1354 JUMPI PUSH2 0x1353 PUSH2 0x32A4 JUMP JUMPDEST JUMPDEST EQ DUP1 PUSH2 0x1393 JUMPI POP PUSH0 PUSH1 0x3 DUP2 GT ISZERO PUSH2 0x136E JUMPI PUSH2 0x136D PUSH2 0x32A4 JUMP JUMPDEST JUMPDEST DUP2 PUSH1 0x5 ADD PUSH0 SWAP1 SLOAD SWAP1 PUSH2 0x100 EXP SWAP1 DIV PUSH1 0xFF AND PUSH1 0x3 DUP2 GT ISZERO PUSH2 0x1391 JUMPI PUSH2 0x1390 PUSH2 0x32A4 JUMP JUMPDEST JUMPDEST EQ JUMPDEST PUSH2 0x13D2 JUMPI PUSH1 0x40 MLOAD PUSH32 0x8C379A000000000000000000000000000000000000000000000000000000000 DUP2 MSTORE PUSH1 0x4 ADD PUSH2 0x13C9 SWAP1 PUSH2 0x3F8F JUMP JUMPDEST PUSH1 0x40 MLOAD DUP1 SWAP2 SUB SWAP1 REVERT JUMPDEST PUSH0 PUSH1 0x3 PUSH0 DUP6 DUP2 MSTORE PUSH1 0x20 ADD SWAP1 DUP2 MSTORE PUSH1 0x20 ADD PUSH0 KECCAK256 SLOAD SWAP1 POP PUSH0 DUP2 GT PUSH2 0x1429 JUMPI PUSH1 0x40 MLOAD PUSH32 0x8C379A000000000000000000000000000000000000000000000000000000000 DUP2 MSTORE PUSH1 0x4 ADD PUSH2 0x1420 SWAP1 PUSH2 0x3FF7 JUMP JUMPDEST PUSH1 0x40 MLOAD DUP1 SWAP2 SUB SWAP1 REVERT JUMPDEST PUSH0 PUSH1 0x3 PUSH0 DUP7 DUP2 MSTORE PUSH1 0x20 ADD SWAP1 DUP2 MSTORE PUSH1 0x20 ADD PUSH0 KECCAK256 DUP2 SWAP1 SSTORE POP CALLER PUSH20 0xFFFFFFFFFFFFFFFFFFFFFFFFFFFFFFFFFFFFFFFF AND PUSH2 0x8FC DUP3 SWAP1 DUP2 ISZERO MUL SWAP1 PUSH1 0x40 MLOAD PUSH0 PUSH1 0x40 MLOAD DUP1 DUP4 SUB DUP2 DUP6 DUP9 DUP9 CALL SWAP4 POP POP POP POP ISZERO DUP1 ISZERO PUSH2 0x1482 JUMPI RETURNDATASIZE PUSH0 DUP1 RETURNDATACOPY RETURNDATASIZE PUSH0 REVERT JUMPDEST POP POP POP POP POP JUMP JUMPDEST PUSH1 0x9 PUSH1 0x20 MSTORE DUP2 PUSH0 MSTORE PUSH1 0x40 PUSH0 KECCAK256 PUSH1 0x20 MSTORE DUP1 PUSH0 MSTORE PUSH1 0x40 PUSH0 KECCAK256 PUSH0 SWAP2 POP SWAP2 POP SWAP1 SLOAD SWAP1 PUSH2 0x100 EXP SWAP1 DIV PUSH1 0xFF AND DUP2 JUMP JUMPDEST PUSH1 0x6 PUSH1 0x20 MSTORE DUP1 PUSH0 MSTORE PUSH1 0x40 PUSH0 KECCAK256 PUSH0 SWAP2 POP SWAP1 POP DUP1 PUSH0 ADD SLOAD SWAP1 DUP1 PUSH1 0x1 ADD PUSH0 SWAP1 SLOAD SWAP1 PUSH2 0x100 EXP SWAP1 DIV PUSH20 0xFFFFFFFFFFFFFFFFFFFFFFFFFFFFFFFFFFFFFFFF AND SWAP1 DUP1 PUSH1 0x2 ADD PUSH0 SWAP1 SLOAD SWAP1 PUSH2 0x100 EXP SWAP1 DIV PUSH20 0xFFFFFFFFFFFFFFFFFFFFFFFFFFFFFFFFFFFFFFFF AND SWAP1 DUP1 PUSH1 0x3 ADD SLOAD SWAP1 DUP1 PUSH1 0x4 ADD SLOAD SWAP1 DUP1 PUSH1 0x5 ADD PUSH0 SWAP1 SLOAD SWAP1 PUSH2 0x100 EXP SWAP1 DIV PUSH1 0xFF AND SWAP1 POP DUP7 JUMP JUMPDEST PUSH1 0x3 PUSH1 0x20 MSTORE DUP1 PUSH0 MSTORE PUSH1 0x40 PUSH0 KECCAK256 PUSH0 SWAP2 POP SWAP1 POP SLOAD DUP2 JUMP JUMPDEST PUSH1 0x4 PUSH1 0x20 MSTORE DUP2 PUSH0 MSTORE PUSH1 0x40 PUSH0 KECCAK256 PUSH1 0x20 MSTORE DUP1 PUSH0 MSTORE PUSH1 0x40 PUSH0 KECCAK256 PUSH0 SWAP2 POP SWAP2 POP POP DUP1 SLOAD PUSH2 0x1571 SWAP1 PUSH2 0x39B4 JUMP JUMPDEST DUP1 PUSH1 0x1F ADD PUSH1 0x20 DUP1 SWAP2 DIV MUL PUSH1 0x20 ADD PUSH1 0x40 MLOAD SWAP1 DUP2 ADD PUSH1 0x40 MSTORE DUP1 SWAP3 SWAP2 SWAP1 DUP2 DUP2 MSTORE PUSH1 0x20 ADD DUP3 DUP1 SLOAD PUSH2 0x159D SWAP1 PUSH2 0x39B4 JUMP JUMPDEST DUP1 ISZERO PUSH2 0x15E8 JUMPI DUP1 PUSH1 0x1F LT PUSH2 0x15BF JUMPI PUSH2 0x100 DUP1 DUP4 SLOAD DIV MUL DUP4 MSTORE SWAP2 PUSH1 0x20 ADD SWAP2 PUSH2 0x15E8 JUMP JUMPDEST DUP3 ADD SWAP2 SWAP1 PUSH0 MSTORE PUSH1 0x20 PUSH0 KECCAK256 SWAP1 JUMPDEST DUP2 SLOAD DUP2 MSTORE SWAP1 PUSH1 0x1 ADD SWAP1 PUSH1 0x20 ADD DUP1 DUP4 GT PUSH2 0x15CB JUMPI DUP3 SWAP1 SUB PUSH1 0x1F AND DUP3 ADD SWAP2 JUMPDEST POP POP POP POP POP DUP2 JUMP JUMPDEST DUP2 PUSH1 0x2 DUP2 DUP2 SLOAD DUP2 LT PUSH2 0x1605 JUMPI PUSH2 0x1604 PUSH2 0x37FC JUMP JUMPDEST JUMPDEST SWAP1 PUSH0 MSTORE PUSH1 0x20 PUSH0 KECCAK256 SWAP1 PUSH1 0x6 MUL ADD PUSH0 ADD PUSH0 SWAP1 SLOAD SWAP1 PUSH2 0x100 EXP SWAP1 DIV PUSH20 0xFFFFFFFFFFFFFFFFFFFFFFFFFFFFFFFFFFFFFFFF AND PUSH20 0xFFFFFFFFFFFFFFFFFFFFFFFFFFFFFFFFFFFFFFFF AND CALLER PUSH20 0xFFFFFFFFFFFFFFFFFFFFFFFFFFFFFFFFFFFFFFFF AND EQ PUSH2 0x16A0 JUMPI PUSH1 0x40 MLOAD PUSH32 0x8C379A000000000000000000000000000000000000000000000000000000000 DUP2 MSTORE PUSH1 0x4 ADD PUSH2 0x1697 SWAP1 PUSH2 0x3E03 JUMP JUMPDEST PUSH1 0x40 MLOAD DUP1 SWAP2 SUB SWAP1 REVERT JUMPDEST DUP3 PUSH1 0x2 DUP1 SLOAD SWAP1 POP DUP2 LT PUSH2 0x16E8 JUMPI PUSH1 0x40 MLOAD PUSH32 0x8C379A000000000000000000000000000000000000000000000000000000000 DUP2 MSTORE PUSH1 0x4 ADD PUSH2 0x16DF SWAP1 PUSH2 0x3901 JUMP JUMPDEST PUSH1 0x40 MLOAD DUP1 SWAP2 SUB SWAP1 REVERT JUMPDEST PUSH0 PUSH1 0x2 DUP6 DUP2 SLOAD DUP2 LT PUSH2 0x16FD JUMPI PUSH2 0x16FC PUSH2 0x37FC JUMP JUMPDEST JUMPDEST SWAP1 PUSH0 MSTORE PUSH1 0x20 PUSH0 KECCAK256 SWAP1 PUSH1 0x6 MUL ADD SWAP1 POP PUSH0 PUSH1 0x3 DUP2 GT ISZERO PUSH2 0x171E JUMPI PUSH2 0x171D PUSH2 0x32A4 JUMP JUMPDEST JUMPDEST DUP2 PUSH1 0x5 ADD PUSH0 SWAP1 SLOAD SWAP1 PUSH2 0x100 EXP SWAP1 DIV PUSH1 0xFF AND PUSH1 0x3 DUP2 GT ISZERO PUSH2 0x1741 JUMPI PUSH2 0x1740 PUSH2 0x32A4 JUMP JUMPDEST JUMPDEST EQ PUSH2 0x1781 JUMPI PUSH1 0x40 MLOAD PUSH32 0x8C379A000000000000000000000000000000000000000000000000000000000 DUP2 MSTORE PUSH1 0x4 ADD PUSH2 0x1778 SWAP1 PUSH2 0x4085 JUMP JUMPDEST PUSH1 0x40 MLOAD DUP1 SWAP2 SUB SWAP1 REVERT JUMPDEST PUSH0 PUSH1 0x5 PUSH0 DUP8 DUP2 MSTORE PUSH1 0x20 ADD SWAP1 DUP2 MSTORE PUSH1 0x20 ADD PUSH0 KECCAK256 SWAP1 POP DUP1 DUP1 SLOAD SWAP1 POP DUP6 LT PUSH2 0x17DB JUMPI PUSH1 0x40 MLOAD PUSH32 0x8C379A000000000000000000000000000000000000000000000000000000000 DUP2 MSTORE PUSH1 0x4 ADD PUSH2 0x17D2 SWAP1 PUSH2 0x40ED JUMP JUMPDEST PUSH1 0x40 MLOAD DUP1 SWAP2 SUB SWAP1 REVERT JUMPDEST DUP1 DUP6 DUP2 SLOAD DUP2 LT PUSH2 0x17EE JUMPI PUSH2 0x17ED PUSH2 0x37FC JUMP JUMPDEST JUMPDEST SWAP1 PUSH0 MSTORE PUSH1 0x20 PUSH0 KECCAK256 SWAP1 PUSH1 0x4 MUL ADD PUSH1 0x3 ADD PUSH0 SWAP1 SLOAD SWAP1 PUSH2 0x100 EXP SWAP1 DIV PUSH1 0xFF AND ISZERO PUSH2 0x184A JUMPI PUSH1 0x40 MLOAD PUSH32 0x8C379A000000000000000000000000000000000000000000000000000000000 DUP2 MSTORE PUSH1 0x4 ADD PUSH2 0x1841 SWAP1 PUSH2 0x417B JUMP JUMPDEST PUSH1 0x40 MLOAD DUP1 SWAP2 SUB SWAP1 REVERT JUMPDEST PUSH1 0x1 DUP2 DUP7 DUP2 SLOAD DUP2 LT PUSH2 0x185F JUMPI PUSH2 0x185E PUSH2 0x37FC JUMP JUMPDEST JUMPDEST SWAP1 PUSH0 MSTORE PUSH1 0x20 PUSH0 KECCAK256 SWAP1 PUSH1 0x4 MUL ADD PUSH1 0x3 ADD PUSH0 PUSH2 0x100 EXP DUP2 SLOAD DUP2 PUSH1 0xFF MUL NOT AND SWAP1 DUP4 ISZERO ISZERO MUL OR SWAP1 SSTORE POP DUP1 DUP6 DUP2 SLOAD DUP2 LT PUSH2 0x1897 JUMPI PUSH2 0x1896 PUSH2 0x37FC JUMP JUMPDEST JUMPDEST SWAP1 PUSH0 MSTORE PUSH1 0x20 PUSH0 KECCAK256 SWAP1 PUSH1 0x4 MUL ADD PUSH0 ADD PUSH0 SWAP1 SLOAD SWAP1 PUSH2 0x100 EXP SWAP1 DIV PUSH20 0xFFFFFFFFFFFFFFFFFFFFFFFFFFFFFFFFFFFFFFFF AND DUP3 PUSH1 0x5 ADD PUSH1 0x1 PUSH2 0x100 EXP DUP2 SLOAD DUP2 PUSH20 0xFFFFFFFFFFFFFFFFFFFFFFFFFFFFFFFFFFFFFFFF MUL NOT AND SWAP1 DUP4 PUSH20 0xFFFFFFFFFFFFFFFFFFFFFFFFFFFFFFFFFFFFFFFF AND MUL OR SWAP1 SSTORE POP PUSH1 0x1 DUP3 PUSH1 0x5 ADD PUSH0 PUSH2 0x100 EXP DUP2 SLOAD DUP2 PUSH1 0xFF MUL NOT AND SWAP1 DUP4 PUSH1 0x3 DUP2 GT ISZERO PUSH2 0x192E JUMPI PUSH2 0x192D PUSH2 0x32A4 JUMP JUMPDEST JUMPDEST MUL OR SWAP1 SSTORE POP PUSH32 0x77133D03A3AF396C0EA6B4FC24922B1F419245875A326F5F112B8F34CAD01C8D DUP7 CALLER DUP5 PUSH1 0x5 ADD PUSH1 0x1 SWAP1 SLOAD SWAP1 PUSH2 0x100 EXP SWAP1 DIV PUSH20 0xFFFFFFFFFFFFFFFFFFFFFFFFFFFFFFFFFFFFFFFF AND PUSH1 0x40 MLOAD PUSH2 0x198A SWAP4 SWAP3 SWAP2 SWAP1 PUSH2 0x41EB JUMP JUMPDEST PUSH1 0x40 MLOAD DUP1 SWAP2 SUB SWAP1 LOG1 POP POP POP POP POP POP JUMP JUMPDEST DUP2 CALLVALUE EQ PUSH2 0x19DC JUMPI PUSH1 0x40 MLOAD PUSH32 0x8C379A000000000000000000000000000000000000000000000000000000000 DUP2 MSTORE PUSH1 0x4 ADD PUSH2 0x19D3 SWAP1 PUSH2 0x4290 JUMP JUMPDEST PUSH1 0x40 MLOAD DUP1 SWAP2 SUB SWAP1 REVERT JUMPDEST PUSH1 0x2 PUSH1 0x40 MLOAD DUP1 PUSH1 0xE0 ADD PUSH1 0x40 MSTORE DUP1 CALLER PUSH20 0xFFFFFFFFFFFFFFFFFFFFFFFFFFFFFFFFFFFFFFFF AND DUP2 MSTORE PUSH1 0x20 ADD DUP7 DUP2 MSTORE PUSH1 0x20 ADD DUP6 DUP2 MSTORE PUSH1 0x20 ADD DUP5 DUP2 MSTORE PUSH1 0x20 ADD DUP4 DUP2 MSTORE PUSH1 0x20 ADD PUSH0 PUSH1 0x3 DUP2 GT ISZERO PUSH2 0x1A30 JUMPI PUSH2 0x1A2F PUSH2 0x32A4 JUMP JUMPDEST JUMPDEST DUP2 MSTORE PUSH1 0x20 ADD PUSH0 PUSH20 0xFFFFFFFFFFFFFFFFFFFFFFFFFFFFFFFFFFFFFFFF AND DUP2 MSTORE POP SWAP1 DUP1 PUSH1 0x1 DUP2 SLOAD ADD DUP1 DUP3 SSTORE DUP1 SWAP2 POP POP PUSH1 0x1 SWAP1 SUB SWAP1 PUSH0 MSTORE PUSH1 0x20 PUSH0 KECCAK256 SWAP1 PUSH1 0x6 MUL ADD PUSH0 SWAP1 SWAP2 SWAP1 SWAP2 SWAP1 SWAP2 POP PUSH0 DUP3 ADD MLOAD DUP2 PUSH0 ADD PUSH0 PUSH2 0x100 EXP DUP2 SLOAD DUP2 PUSH20 0xFFFFFFFFFFFFFFFFFFFFFFFFFFFFFFFFFFFFFFFF MUL NOT AND SWAP1 DUP4 PUSH20 0xFFFFFFFFFFFFFFFFFFFFFFFFFFFFFFFFFFFFFFFF AND MUL OR SWAP1 SSTORE POP PUSH1 0x20 DUP3 ADD MLOAD DUP2 PUSH1 0x1 ADD SWAP1 DUP2 PUSH2 0x1ACE SWAP2 SWAP1 PUSH2 0x3B81 JUMP JUMPDEST POP PUSH1 0x40 DUP3 ADD MLOAD DUP2 PUSH1 0x2 ADD SWAP1 DUP2 PUSH2 0x1AE4 SWAP2 SWAP1 PUSH2 0x3B81 JUMP JUMPDEST POP PUSH1 0x60 DUP3 ADD MLOAD DUP2 PUSH1 0x3 ADD SSTORE PUSH1 0x80 DUP3 ADD MLOAD DUP2 PUSH1 0x4 ADD SSTORE PUSH1 0xA0 DUP3 ADD MLOAD DUP2 PUSH1 0x5 ADD PUSH0 PUSH2 0x100 EXP DUP2 SLOAD DUP2 PUSH1 0xFF MUL NOT AND SWAP1 DUP4 PUSH1 0x3 DUP2 GT ISZERO PUSH2 0x1B23 JUMPI PUSH2 0x1B22 PUSH2 0x32A4 JUMP JUMPDEST JUMPDEST MUL OR SWAP1 SSTORE POP PUSH1 0xC0 DUP3 ADD MLOAD DUP2 PUSH1 0x5 ADD PUSH1 0x1 PUSH2 0x100 EXP DUP2 SLOAD DUP2 PUSH20 0xFFFFFFFFFFFFFFFFFFFFFFFFFFFFFFFFFFFFFFFF MUL NOT AND SWAP1 DUP4 PUSH20 0xFFFFFFFFFFFFFFFFFFFFFFFFFFFFFFFFFFFFFFFF AND MUL OR SWAP1 SSTORE POP POP POP PUSH0 PUSH1 0x1 PUSH1 0x2 DUP1 SLOAD SWAP1 POP PUSH2 0x1B84 SWAP2 SWAP1 PUSH2 0x3EEC JUMP JUMPDEST SWAP1 POP DUP3 PUSH1 0x3 PUSH0 DUP4 DUP2 MSTORE PUSH1 0x20 ADD SWAP1 DUP2 MSTORE PUSH1 0x20 ADD PUSH0 KECCAK256 DUP2 SWAP1 SSTORE POP PUSH32 0x9D9EC461F162F3F4FDB9F6D189BFE13C59E48D8ACD23A4C3BFCF7CC0FE4E84ED DUP2 CALLER DUP8 PUSH1 0x40 MLOAD PUSH2 0x1BCF SWAP4 SWAP3 SWAP2 SWAP1 PUSH2 0x42AE JUMP JUMPDEST PUSH1 0x40 MLOAD DUP1 SWAP2 SUB SWAP1 LOG1 POP POP POP POP POP JUMP JUMPDEST PUSH1 0x7 SLOAD DUP2 JUMP JUMPDEST PUSH0 PUSH1 0x1 PUSH0 CALLER PUSH20 0xFFFFFFFFFFFFFFFFFFFFFFFFFFFFFFFFFFFFFFFF AND PUSH20 0xFFFFFFFFFFFFFFFFFFFFFFFFFFFFFFFFFFFFFFFF AND DUP2 MSTORE PUSH1 0x20 ADD SWAP1 DUP2 MSTORE PUSH1 0x20 ADD PUSH0 KECCAK256 SLOAD GT PUSH2 0x1C63 JUMPI PUSH1 0x40 MLOAD PUSH32 0x8C379A000000000000000000000000000000000000000000000000000000000 DUP2 MSTORE PUSH1 0x4 ADD PUSH2 0x1C5A SWAP1 PUSH2 0x4334 JUMP JUMPDEST PUSH1 0x40 MLOAD DUP1 SWAP2 SUB SWAP1 REVERT JUMPDEST PUSH0 PUSH1 0x6 PUSH0 DUP5 DUP2 MSTORE PUSH1 0x20 ADD SWAP1 DUP2 MSTORE PUSH1 0x20 ADD PUSH0 KECCAK256 SWAP1 POP DUP1 PUSH1 0x5 ADD PUSH0 SWAP1 SLOAD SWAP1 PUSH2 0x100 EXP SWAP1 DIV PUSH1 0xFF AND ISZERO PUSH2 0x1CC8 JUMPI PUSH1 0x40 MLOAD PUSH32 0x8C379A000000000000000000000000000000000000000000000000000000000 DUP2 MSTORE PUSH1 0x4 ADD PUSH2 0x1CBF SWAP1 PUSH2 0x439C JUMP JUMPDEST PUSH1 0x40 MLOAD DUP1 SWAP2 SUB SWAP1 REVERT JUMPDEST PUSH1 0xA PUSH0 DUP5 DUP2 MSTORE PUSH1 0x20 ADD SWAP1 DUP2 MSTORE PUSH1 0x20 ADD PUSH0 KECCAK256 SLOAD TIMESTAMP GT ISZERO PUSH2 0x1D1C JUMPI PUSH1 0x40 MLOAD PUSH32 0x8C379A000000000000000000000000000000000000000000000000000000000 DUP2 MSTORE PUSH1 0x4 ADD PUSH2 0x1D13 SWAP1 PUSH2 0x4404 JUMP JUMPDEST PUSH1 0x40 MLOAD DUP1 SWAP2 SUB SWAP1 REVERT JUMPDEST PUSH1 0x9 PUSH0 DUP5 DUP2 MSTORE PUSH1 0x20 ADD SWAP1 DUP2 MSTORE PUSH1 0x20 ADD PUSH0 KECCAK256 PUSH0 CALLER PUSH20 0xFFFFFFFFFFFFFFFFFFFFFFFFFFFFFFFFFFFFFFFF AND PUSH20 0xFFFFFFFFFFFFFFFFFFFFFFFFFFFFFFFFFFFFFFFF AND DUP2 MSTORE PUSH1 0x20 ADD SWAP1 DUP2 MSTORE PUSH1 0x20 ADD PUSH0 KECCAK256 PUSH0 SWAP1 SLOAD SWAP1 PUSH2 0x100 EXP SWAP1 DIV PUSH1 0xFF AND ISZERO PUSH2 0x1DB5 JUMPI PUSH1 0x40 MLOAD PUSH32 0x8C379A000000000000000000000000000000000000000000000000000000000 DUP2 MSTORE PUSH1 0x4 ADD PUSH2 0x1DAC SWAP1 PUSH2 0x4492 JUMP JUMPDEST PUSH1 0x40 MLOAD DUP1 SWAP2 SUB SWAP1 REVERT JUMPDEST PUSH1 0x1 PUSH1 0x9 PUSH0 DUP6 DUP2 MSTORE PUSH1 0x20 ADD SWAP1 DUP2 MSTORE PUSH1 0x20 ADD PUSH0 KECCAK256 PUSH0 CALLER PUSH20 0xFFFFFFFFFFFFFFFFFFFFFFFFFFFFFFFFFFFFFFFF AND PUSH20 0xFFFFFFFFFFFFFFFFFFFFFFFFFFFFFFFFFFFFFFFF AND DUP2 MSTORE PUSH1 0x20 ADD SWAP1 DUP2 MSTORE PUSH1 0x20 ADD PUSH0 KECCAK256 PUSH0 PUSH2 0x100 EXP DUP2 SLOAD DUP2 PUSH1 0xFF MUL NOT AND SWAP1 DUP4 ISZERO ISZERO MUL OR SWAP1 SSTORE POP PUSH0 PUSH1 0x1 PUSH0 CALLER PUSH20 0xFFFFFFFFFFFFFFFFFFFFFFFFFFFFFFFFFFFFFFFF AND PUSH20 0xFFFFFFFFFFFFFFFFFFFFFFFFFFFFFFFFFFFFFFFF AND DUP2 MSTORE PUSH1 0x20 ADD SWAP1 DUP2 MSTORE PUSH1 0x20 ADD PUSH0 KECCAK256 SLOAD SWAP1 POP DUP3 ISZERO PUSH2 0x1E7F JUMPI DUP1 DUP3 PUSH1 0x3 ADD PUSH0 DUP3 DUP3 SLOAD PUSH2 0x1E73 SWAP2 SWAP1 PUSH2 0x44B0 JUMP JUMPDEST SWAP3 POP POP DUP2 SWAP1 SSTORE POP PUSH2 0x1E9A JUMP JUMPDEST DUP1 DUP3 PUSH1 0x4 ADD PUSH0 DUP3 DUP3 SLOAD PUSH2 0x1E92 SWAP2 SWAP1 PUSH2 0x44B0 JUMP JUMPDEST SWAP3 POP POP DUP2 SWAP1 SSTORE POP JUMPDEST PUSH32 0xE71FCDAC32DF1877C1700E7BDA2A03157E20993363A28FC35AC495CEFC76E4D4 DUP5 CALLER DUP6 PUSH1 0x40 MLOAD PUSH2 0x1ECD SWAP4 SWAP3 SWAP2 SWAP1 PUSH2 0x44E3 JUMP JUMPDEST PUSH1 0x40 MLOAD DUP1 SWAP2 SUB SWAP1 LOG1 POP POP POP POP JUMP JUMPDEST DUP1 PUSH1 0x2 DUP1 SLOAD SWAP1 POP DUP2 LT PUSH2 0x1F23 JUMPI PUSH1 0x40 MLOAD PUSH32 0x8C379A000000000000000000000000000000000000000000000000000000000 DUP2 MSTORE PUSH1 0x4 ADD PUSH2 0x1F1A SWAP1 PUSH2 0x3901 JUMP JUMPDEST PUSH1 0x40 MLOAD DUP1 SWAP2 SUB SWAP1 REVERT JUMPDEST PUSH0 PUSH1 0x2 DUP4 DUP2 SLOAD DUP2 LT PUSH2 0x1F38 JUMPI PUSH2 0x1F37 PUSH2 0x37FC JUMP JUMPDEST JUMPDEST SWAP1 PUSH0 MSTORE PUSH1 0x20 PUSH0 KECCAK256 SWAP1 PUSH1 0x6 MUL ADD SWAP1 POP DUP1 PUSH0 ADD PUSH0 SWAP1 SLOAD SWAP1 PUSH2 0x100 EXP SWAP1 DIV PUSH20 0xFFFFFFFFFFFFFFFFFFFFFFFFFFFFFFFFFFFFFFFF AND PUSH20 0xFFFFFFFFFFFFFFFFFFFFFFFFFFFFFFFFFFFFFFFF AND CALLER PUSH20 0xFFFFFFFFFFFFFFFFFFFFFFFFFFFFFFFFFFFFFFFF AND EQ DUP1 PUSH2 0x1FF1 JUMPI POP DUP1 PUSH1 0x5 ADD PUSH1 0x1 SWAP1 SLOAD SWAP1 PUSH2 0x100 EXP SWAP1 DIV PUSH20 0xFFFFFFFFFFFFFFFFFFFFFFFFFFFFFFFFFFFFFFFF AND PUSH20 0xFFFFFFFFFFFFFFFFFFFFFFFFFFFFFFFFFFFFFFFF AND CALLER PUSH20 0xFFFFFFFFFFFFFFFFFFFFFFFFFFFFFFFFFFFFFFFF AND EQ JUMPDEST PUSH2 0x2030 JUMPI PUSH1 0x40 MLOAD PUSH32 0x8C379A000000000000000000000000000000000000000000000000000000000 DUP2 MSTORE PUSH1 0x4 ADD PUSH2 0x2027 SWAP1 PUSH2 0x4588 JUMP JUMPDEST PUSH1 0x40 MLOAD DUP1 SWAP2 SUB SWAP1 REVERT JUMPDEST PUSH1 0x1 PUSH1 0x3 DUP2 GT ISZERO PUSH2 0x2044 JUMPI PUSH2 0x2043 PUSH2 0x32A4 JUMP JUMPDEST JUMPDEST DUP2 PUSH1 0x5 ADD PUSH0 SWAP1 SLOAD SWAP1 PUSH2 0x100 EXP SWAP1 DIV PUSH1 0xFF AND PUSH1 0x3 DUP2 GT ISZERO PUSH2 0x2067 JUMPI PUSH2 0x2066 PUSH2 0x32A4 JUMP JUMPDEST JUMPDEST EQ PUSH2 0x20A7 JUMPI PUSH1 0x40 MLOAD PUSH32 0x8C379A000000000000000000000000000000000000000000000000000000000 DUP2 MSTORE PUSH1 0x4 ADD PUSH2 0x209E SWAP1 PUSH2 0x4616 JUMP JUMPDEST PUSH1 0x40 MLOAD DUP1 SWAP2 SUB SWAP1 REVERT JUMPDEST PUSH1 0x3 DUP2 PUSH1 0x5 ADD PUSH0 PUSH2 0x100 EXP DUP2 SLOAD DUP2 PUSH1 0xFF MUL NOT AND SWAP1 DUP4 PUSH1 0x3 DUP2 GT ISZERO PUSH2 0x20CE JUMPI PUSH2 0x20CD PUSH2 0x32A4 JUMP JUMPDEST JUMPDEST MUL OR SWAP1 SSTORE POP PUSH1 0x7 PUSH0 DUP2 SLOAD DUP1 SWAP3 SWAP2 SWAP1 PUSH2 0x20E5 SWAP1 PUSH2 0x4634 JUMP JUMPDEST SWAP2 SWAP1 POP SSTORE POP PUSH1 0x40 MLOAD DUP1 PUSH1 0xC0 ADD PUSH1 0x40 MSTORE DUP1 DUP5 DUP2 MSTORE PUSH1 0x20 ADD CALLER PUSH20 0xFFFFFFFFFFFFFFFFFFFFFFFFFFFFFFFFFFFFFFFF AND DUP2 MSTORE PUSH1 0x20 ADD DUP3 PUSH0 ADD PUSH0 SWAP1 SLOAD SWAP1 PUSH2 0x100 EXP SWAP1 DIV PUSH20 0xFFFFFFFFFFFFFFFFFFFFFFFFFFFFFFFFFFFFFFFF AND PUSH20 0xFFFFFFFFFFFFFFFFFFFFFFFFFFFFFFFFFFFFFFFF AND CALLER PUSH20 0xFFFFFFFFFFFFFFFFFFFFFFFFFFFFFFFFFFFFFFFF AND EQ PUSH2 0x2194 JUMPI DUP3 PUSH0 ADD PUSH0 SWAP1 SLOAD SWAP1 PUSH2 0x100 EXP SWAP1 DIV PUSH20 0xFFFFFFFFFFFFFFFFFFFFFFFFFFFFFFFFFFFFFFFF AND PUSH2 0x21BA JUMP JUMPDEST DUP3 PUSH1 0x5 ADD PUSH1 0x1 SWAP1 SLOAD SWAP1 PUSH2 0x100 EXP SWAP1 DIV PUSH20 0xFFFFFFFFFFFFFFFFFFFFFFFFFFFFFFFFFFFFFFFF AND JUMPDEST PUSH20 0xFFFFFFFFFFFFFFFFFFFFFFFFFFFFFFFFFFFFFFFF AND DUP2 MSTORE PUSH1 0x20 ADD PUSH0 DUP2 MSTORE PUSH1 0x20 ADD PUSH0 DUP2 MSTORE PUSH1 0x20 ADD PUSH0 ISZERO ISZERO DUP2 MSTORE POP PUSH1 0x6 PUSH0 PUSH1 0x7 SLOAD DUP2 MSTORE PUSH1 0x20 ADD SWAP1 DUP2 MSTORE PUSH1 0x20 ADD PUSH0 KECCAK256 PUSH0 DUP3 ADD MLOAD DUP2 PUSH0 ADD SSTORE PUSH1 0x20 DUP3 ADD MLOAD DUP2 PUSH1 0x1 ADD PUSH0 PUSH2 0x100 EXP DUP2 SLOAD DUP2 PUSH20 0xFFFFFFFFFFFFFFFFFFFFFFFFFFFFFFFFFFFFFFFF MUL NOT AND SWAP1 DUP4 PUSH20 0xFFFFFFFFFFFFFFFFFFFFFFFFFFFFFFFFFFFFFFFF AND MUL OR SWAP1 SSTORE POP PUSH1 0x40 DUP3 ADD MLOAD DUP2 PUSH1 0x2 ADD PUSH0 PUSH2 0x100 EXP DUP2 SLOAD DUP2 PUSH20 0xFFFFFFFFFFFFFFFFFFFFFFFFFFFFFFFFFFFFFFFF MUL NOT AND SWAP1 DUP4 PUSH20 0xFFFFFFFFFFFFFFFFFFFFFFFFFFFFFFFFFFFFFFFF AND MUL OR SWAP1 SSTORE POP PUSH1 0x60 DUP3 ADD MLOAD DUP2 PUSH1 0x3 ADD SSTORE PUSH1 0x80 DUP3 ADD MLOAD DUP2 PUSH1 0x4 ADD SSTORE PUSH1 0xA0 DUP3 ADD MLOAD DUP2 PUSH1 0x5 ADD PUSH0 PUSH2 0x100 EXP DUP2 SLOAD DUP2 PUSH1 0xFF MUL NOT AND SWAP1 DUP4 ISZERO ISZERO MUL OR SWAP1 SSTORE POP SWAP1 POP POP PUSH1 0xC SLOAD TIMESTAMP PUSH2 0x22D2 SWAP2 SWAP1 PUSH2 0x44B0 JUMP JUMPDEST PUSH1 0xA PUSH0 PUSH1 0x7 SLOAD DUP2 MSTORE PUSH1 0x20 ADD SWAP1 DUP2 MSTORE PUSH1 0x20 ADD PUSH0 KECCAK256 DUP2 SWAP1 SSTORE POP PUSH32 0x4901F83201C8724EADF084436DB8AA391820BAE6D11F9F78A17EDB6F2EEF3CF DUP4 PUSH1 0x40 MLOAD PUSH2 0x2318 SWAP2 SWAP1 PUSH2 0x2FDE JUMP JUMPDEST PUSH1 0x40 MLOAD DUP1 SWAP2 SUB SWAP1 LOG1 POP POP POP JUMP JUMPDEST PUSH0 PUSH1 0x20 MSTORE DUP1 PUSH0 MSTORE PUSH1 0x40 PUSH0 KECCAK256 PUSH0 SWAP2 POP SWAP1 POP DUP1 PUSH0 ADD PUSH0 SWAP1 SLOAD SWAP1 PUSH2 0x100 EXP SWAP1 DIV PUSH1 0xFF AND SWAP1 DUP1 PUSH1 0x1 ADD DUP1 SLOAD PUSH2 0x2355 SWAP1 PUSH2 0x39B4 JUMP JUMPDEST DUP1 PUSH1 0x1F ADD PUSH1 0x20 DUP1 SWAP2 DIV MUL PUSH1 0x20 ADD PUSH1 0x40 MLOAD SWAP1 DUP2 ADD PUSH1 0x40 MSTORE DUP1 SWAP3 SWAP2 SWAP1 DUP2 DUP2 MSTORE PUSH1 0x20 ADD DUP3 DUP1 SLOAD PUSH2 0x2381 SWAP1 PUSH2 0x39B4 JUMP JUMPDEST DUP1 ISZERO PUSH2 0x23CC JUMPI DUP1 PUSH1 0x1F LT PUSH2 0x23A3 JUMPI PUSH2 0x100 DUP1 DUP4 SLOAD DIV MUL DUP4 MSTORE SWAP2 PUSH1 0x20 ADD SWAP2 PUSH2 0x23CC JUMP JUMPDEST DUP3 ADD SWAP2 SWAP1 PUSH0 MSTORE PUSH1 0x20 PUSH0 KECCAK256 SWAP1 JUMPDEST DUP2 SLOAD DUP2 MSTORE SWAP1 PUSH1 0x1 ADD SWAP1 PUSH1 0x20 ADD DUP1 DUP4 GT PUSH2 0x23AF JUMPI DUP3 SWAP1 SUB PUSH1 0x1F AND DUP3 ADD SWAP2 JUMPDEST POP POP POP POP POP SWAP1 DUP1 PUSH1 0x2 ADD SLOAD SWAP1 DUP1 PUSH1 0x3 ADD PUSH0 SWAP1 SLOAD SWAP1 PUSH2 0x100 EXP SWAP1 DIV PUSH20 0xFFFFFFFFFFFFFFFFFFFFFFFFFFFFFFFFFFFFFFFF AND SWAP1 POP DUP5 JUMP JUMPDEST PUSH1 0x8 PUSH1 0x20 MSTORE DUP1 PUSH0 MSTORE PUSH1 0x40 PUSH0 KECCAK256 PUSH0 SWAP2 POP SWAP1 POP SLOAD DUP2 JUMP JUMPDEST PUSH0 PUSH1 0x6 PUSH0 DUP4 DUP2 MSTORE PUSH1 0x20 ADD SWAP1 DUP2 MSTORE PUSH1 0x20 ADD PUSH0 KECCAK256 SWAP1 POP DUP1 PUSH1 0x5 ADD PUSH0 SWAP1 SLOAD SWAP1 PUSH2 0x100 EXP SWAP1 DIV PUSH1 0xFF AND ISZERO PUSH2 0x247B JUMPI PUSH1 0x40 MLOAD PUSH32 0x8C379A000000000000000000000000000000000000000000000000000000000 DUP2 MSTORE PUSH1 0x4 ADD PUSH2 0x2472 SWAP1 PUSH2 0x439C JUMP JUMPDEST PUSH1 0x40 MLOAD DUP1 SWAP2 SUB SWAP1 REVERT JUMPDEST PUSH1 0xA PUSH0 DUP4 DUP2 MSTORE PUSH1 0x20 ADD SWAP1 DUP2 MSTORE PUSH1 0x20 ADD PUSH0 KECCAK256 SLOAD TIMESTAMP GT PUSH2 0x24CE JUMPI PUSH1 0x40 MLOAD PUSH32 0x8C379A000000000000000000000000000000000000000000000000000000000 DUP2 MSTORE PUSH1 0x4 ADD PUSH2 0x24C5 SWAP1 PUSH2 0x46C5 JUMP JUMPDEST PUSH1 0x40 MLOAD DUP1 SWAP2 SUB SWAP1 REVERT JUMPDEST PUSH0 DUP2 PUSH1 0x4 ADD SLOAD DUP3 PUSH1 0x3 ADD SLOAD GT ISZERO PUSH2 0x250A JUMPI DUP2 PUSH1 0x1 ADD PUSH0 SWAP1 SLOAD SWAP1 PUSH2 0x100 EXP SWAP1 DIV PUSH20 0xFFFFFFFFFFFFFFFFFFFFFFFFFFFFFFFFFFFFFFFF AND SWAP1 POP PUSH2 0x2547 JUMP JUMPDEST DUP2 PUSH1 0x3 ADD SLOAD DUP3 PUSH1 0x4 ADD SLOAD GT ISZERO PUSH2 0x2545 JUMPI DUP2 PUSH1 0x2 ADD PUSH0 SWAP1 SLOAD SWAP1 PUSH2 0x100 EXP SWAP1 DIV PUSH20 0xFFFFFFFFFFFFFFFFFFFFFFFFFFFFFFFFFFFFFFFF AND SWAP1 POP PUSH2 0x2546 JUMP JUMPDEST JUMPDEST JUMPDEST PUSH0 PUSH1 0x3 PUSH0 DUP5 PUSH0 ADD SLOAD DUP2 MSTORE PUSH1 0x20 ADD SWAP1 DUP2 MSTORE PUSH1 0x20 ADD PUSH0 KECCAK256 SLOAD SWAP1 POP PUSH0 PUSH1 0x3 PUSH0 DUP6 PUSH0 ADD SLOAD DUP2 MSTORE PUSH1 0x20 ADD SWAP1 DUP2 MSTORE PUSH1 0x20 ADD PUSH0 KECCAK256 DUP2 SWAP1 SSTORE POP PUSH0 PUSH20 0xFFFFFFFFFFFFFFFFFFFFFFFFFFFFFFFFFFFFFFFF AND DUP3 PUSH20 0xFFFFFFFFFFFFFFFFFFFFFFFFFFFFFFFFFFFFFFFF AND EQ PUSH2 0x25F0 JUMPI DUP2 PUSH20 0xFFFFFFFFFFFFFFFFFFFFFFFFFFFFFFFFFFFFFFFF AND PUSH2 0x8FC DUP3 SWAP1 DUP2 ISZERO MUL SWAP1 PUSH1 0x40 MLOAD PUSH0 PUSH1 0x40 MLOAD DUP1 DUP4 SUB DUP2 DUP6 DUP9 DUP9 CALL SWAP4 POP POP POP POP ISZERO DUP1 ISZERO PUSH2 0x25EE JUMPI RETURNDATASIZE PUSH0 DUP1 RETURNDATACOPY RETURNDATASIZE PUSH0 REVERT JUMPDEST POP JUMPDEST PUSH1 0x1 DUP4 PUSH1 0x5 ADD PUSH0 PUSH2 0x100 EXP DUP2 SLOAD DUP2 PUSH1 0xFF MUL NOT AND SWAP1 DUP4 ISZERO ISZERO MUL OR SWAP1 SSTORE POP PUSH1 0x2 DUP1 DUP5 PUSH0 ADD SLOAD DUP2 SLOAD DUP2 LT PUSH2 0x2624 JUMPI PUSH2 0x2623 PUSH2 0x37FC JUMP JUMPDEST JUMPDEST SWAP1 PUSH0 MSTORE PUSH1 0x20 PUSH0 KECCAK256 SWAP1 PUSH1 0x6 MUL ADD PUSH1 0x5 ADD PUSH0 PUSH2 0x100 EXP DUP2 SLOAD DUP2 PUSH1 0xFF MUL NOT AND SWAP1 DUP4 PUSH1 0x3 DUP2 GT ISZERO PUSH2 0x2654 JUMPI PUSH2 0x2653 PUSH2 0x32A4 JUMP JUMPDEST JUMPDEST MUL OR SWAP1 SSTORE POP PUSH32 0xF77CEB5E091D2DA041BC760667F9D5FE7A756949EAF29250AD0E60CA6F4C27D9 DUP4 PUSH0 ADD SLOAD DUP4 PUSH1 0x40 MLOAD PUSH2 0x268D SWAP3 SWAP2 SWAP1 PUSH2 0x46E3 JUMP JUMPDEST PUSH1 0x40 MLOAD DUP1 SWAP2 SUB SWAP1 LOG1 POP POP POP POP JUMP JUMPDEST PUSH0 PUSH20 0xFFFFFFFFFFFFFFFFFFFFFFFFFFFFFFFFFFFFFFFF AND PUSH0 DUP1 CALLER PUSH20 0xFFFFFFFFFFFFFFFFFFFFFFFFFFFFFFFFFFFFFFFF AND PUSH20 0xFFFFFFFFFFFFFFFFFFFFFFFFFFFFFFFFFFFFFFFF AND DUP2 MSTORE PUSH1 0x20 ADD SWAP1 DUP2 MSTORE PUSH1 0x20 ADD PUSH0 KECCAK256 PUSH1 0x3 ADD PUSH0 SWAP1 SLOAD SWAP1 PUSH2 0x100 EXP SWAP1 DIV PUSH20 0xFFFFFFFFFFFFFFFFFFFFFFFFFFFFFFFFFFFFFFFF AND PUSH20 0xFFFFFFFFFFFFFFFFFFFFFFFFFFFFFFFFFFFFFFFF AND EQ PUSH2 0x2767 JUMPI PUSH1 0x40 MLOAD PUSH32 0x8C379A000000000000000000000000000000000000000000000000000000000 DUP2 MSTORE PUSH1 0x4 ADD PUSH2 0x275E SWAP1 PUSH2 0x4754 JUMP JUMPDEST PUSH1 0x40 MLOAD DUP1 SWAP2 SUB SWAP1 REVERT JUMPDEST PUSH1 0x40 MLOAD DUP1 PUSH1 0x80 ADD PUSH1 0x40 MSTORE DUP1 DUP4 PUSH1 0x1 DUP2 GT ISZERO PUSH2 0x2785 JUMPI PUSH2 0x2784 PUSH2 0x32A4 JUMP JUMPDEST JUMPDEST DUP2 MSTORE PUSH1 0x20 ADD DUP3 DUP2 MSTORE PUSH1 0x20 ADD PUSH0 DUP2 MSTORE PUSH1 0x20 ADD CALLER PUSH20 0xFFFFFFFFFFFFFFFFFFFFFFFFFFFFFFFFFFFFFFFF AND DUP2 MSTORE POP PUSH0 DUP1 CALLER PUSH20 0xFFFFFFFFFFFFFFFFFFFFFFFFFFFFFFFFFFFFFFFF AND PUSH20 0xFFFFFFFFFFFFFFFFFFFFFFFFFFFFFFFFFFFFFFFF AND DUP2 MSTORE PUSH1 0x20 ADD SWAP1 DUP2 MSTORE PUSH1 0x20 ADD PUSH0 KECCAK256 PUSH0 DUP3 ADD MLOAD DUP2 PUSH0 ADD PUSH0 PUSH2 0x100 EXP DUP2 SLOAD DUP2 PUSH1 0xFF MUL NOT AND SWAP1 DUP4 PUSH1 0x1 DUP2 GT ISZERO PUSH2 0x2814 JUMPI PUSH2 0x2813 PUSH2 0x32A4 JUMP JUMPDEST JUMPDEST MUL OR SWAP1 SSTORE POP PUSH1 0x20 DUP3 ADD MLOAD DUP2 PUSH1 0x1 ADD SWAP1 DUP2 PUSH2 0x282E SWAP2 SWAP1 PUSH2 0x3B81 JUMP JUMPDEST POP PUSH1 0x40 DUP3 ADD MLOAD DUP2 PUSH1 0x2 ADD SSTORE PUSH1 0x60 DUP3 ADD MLOAD DUP2 PUSH1 0x3 ADD PUSH0 PUSH2 0x100 EXP DUP2 SLOAD DUP2 PUSH20 0xFFFFFFFFFFFFFFFFFFFFFFFFFFFFFFFFFFFFFFFF MUL NOT AND SWAP1 DUP4 PUSH20 0xFFFFFFFFFFFFFFFFFFFFFFFFFFFFFFFFFFFFFFFF AND MUL OR SWAP1 SSTORE POP SWAP1 POP POP POP POP JUMP JUMPDEST DUP3 PUSH1 0x2 DUP2 DUP2 SLOAD DUP2 LT PUSH2 0x289B JUMPI PUSH2 0x289A PUSH2 0x37FC JUMP JUMPDEST JUMPDEST SWAP1 PUSH0 MSTORE PUSH1 0x20 PUSH0 KECCAK256 SWAP1 PUSH1 0x6 MUL ADD PUSH0 ADD PUSH0 SWAP1 SLOAD SWAP1 PUSH2 0x100 EXP SWAP1 DIV PUSH20 0xFFFFFFFFFFFFFFFFFFFFFFFFFFFFFFFFFFFFFFFF AND PUSH20 0xFFFFFFFFFFFFFFFFFFFFFFFFFFFFFFFFFFFFFFFF AND CALLER PUSH20 0xFFFFFFFFFFFFFFFFFFFFFFFFFFFFFFFFFFFFFFFF AND EQ PUSH2 0x2936 JUMPI PUSH1 0x40 MLOAD PUSH32 0x8C379A000000000000000000000000000000000000000000000000000000000 DUP2 MSTORE PUSH1 0x4 ADD PUSH2 0x292D SWAP1 PUSH2 0x3E03 JUMP JUMPDEST PUSH1 0x40 MLOAD DUP1 SWAP2 SUB SWAP1 REVERT JUMPDEST DUP4 PUSH1 0x2 DUP1 SLOAD SWAP1 POP DUP2 LT PUSH2 0x297E JUMPI PUSH1 0x40 MLOAD PUSH32 0x8C379A000000000000000000000000000000000000000000000000000000000 DUP2 MSTORE PUSH1 0x4 ADD PUSH2 0x2975 SWAP1 PUSH2 0x3901 JUMP JUMPDEST PUSH1 0x40 MLOAD DUP1 SWAP2 SUB SWAP1 REVERT JUMPDEST PUSH0 PUSH1 0x2 DUP7 DUP2 SLOAD DUP2 LT PUSH2 0x2993 JUMPI PUSH2 0x2992 PUSH2 0x37FC JUMP JUMPDEST JUMPDEST SWAP1 PUSH0 MSTORE PUSH1 0x20 PUSH0 KECCAK256 SWAP1 PUSH1 0x6 MUL ADD SWAP1 POP PUSH0 PUSH1 0x3 DUP2 GT ISZERO PUSH2 0x29B4 JUMPI PUSH2 0x29B3 PUSH2 0x32A4 JUMP JUMPDEST JUMPDEST DUP2 PUSH1 0x5 ADD PUSH0 SWAP1 SLOAD SWAP1 PUSH2 0x100 EXP SWAP1 DIV PUSH1 0xFF AND PUSH1 0x3 DUP2 GT ISZERO PUSH2 0x29D7 JUMPI PUSH2 0x29D6 PUSH2 0x32A4 JUMP JUMPDEST JUMPDEST EQ PUSH2 0x2A17 JUMPI PUSH1 0x40 MLOAD PUSH32 0x8C379A000000000000000000000000000000000000000000000000000000000 DUP2 MSTORE PUSH1 0x4 ADD PUSH2 0x2A0E SWAP1 PUSH2 0x4085 JUMP JUMPDEST PUSH1 0x40 MLOAD DUP1 SWAP2 SUB SWAP1 REVERT JUMPDEST PUSH0 PUSH1 0x5 PUSH0 DUP9 DUP2 MSTORE PUSH1 0x20 ADD SWAP1 DUP2 MSTORE PUSH1 0x20 ADD PUSH0 KECCAK256 SWAP1 POP DUP1 DUP1 SLOAD SWAP1 POP DUP7 LT PUSH2 0x2A71 JUMPI PUSH1 0x40 MLOAD PUSH32 0x8C379A000000000000000000000000000000000000000000000000000000000 DUP2 MSTORE PUSH1 0x4 ADD PUSH2 0x2A68 SWAP1 PUSH2 0x40ED JUMP JUMPDEST PUSH1 0x40 MLOAD DUP1 SWAP2 SUB SWAP1 REVERT JUMPDEST PUSH0 DUP2 DUP8 DUP2 SLOAD DUP2 LT PUSH2 0x2A85 JUMPI PUSH2 0x2A84 PUSH2 0x37FC JUMP JUMPDEST JUMPDEST SWAP1 PUSH0 MSTORE PUSH1 0x20 PUSH0 KECCAK256 SWAP1 PUSH1 0x4 MUL ADD PUSH0 ADD PUSH0 SWAP1 SLOAD SWAP1 PUSH2 0x100 EXP SWAP1 DIV PUSH20 0xFFFFFFFFFFFFFFFFFFFFFFFFFFFFFFFFFFFFFFFF AND SWAP1 POP DUP2 PUSH1 0x1 DUP4 DUP1 SLOAD SWAP1 POP PUSH2 0x2AC7 SWAP2 SWAP1 PUSH2 0x3EEC JUMP JUMPDEST DUP2 SLOAD DUP2 LT PUSH2 0x2AD8 JUMPI PUSH2 0x2AD7 PUSH2 0x37FC JUMP JUMPDEST JUMPDEST SWAP1 PUSH0 MSTORE PUSH1 0x20 PUSH0 KECCAK256 SWAP1 PUSH1 0x4 MUL ADD DUP3 DUP9 DUP2 SLOAD DUP2 LT PUSH2 0x2AF7 JUMPI PUSH2 0x2AF6 PUSH2 0x37FC JUMP JUMPDEST JUMPDEST SWAP1 PUSH0 MSTORE PUSH1 0x20 PUSH0 KECCAK256 SWAP1 PUSH1 0x4 MUL ADD PUSH0 DUP3 ADD PUSH0 SWAP1 SLOAD SWAP1 PUSH2 0x100 EXP SWAP1 DIV PUSH20 0xFFFFFFFFFFFFFFFFFFFFFFFFFFFFFFFFFFFFFFFF AND DUP2 PUSH0 ADD PUSH0 PUSH2 0x100 EXP DUP2 SLOAD DUP2 PUSH20 0xFFFFFFFFFFFFFFFFFFFFFFFFFFFFFFFFFFFFFFFF MUL NOT AND SWAP1 DUP4 PUSH20 0xFFFFFFFFFFFFFFFFFFFFFFFFFFFFFFFFFFFFFFFF AND MUL OR SWAP1 SSTORE POP PUSH1 0x1 DUP3 ADD DUP2 PUSH1 0x1 ADD SWAP1 DUP2 PUSH2 0x2B7A SWAP2 SWAP1 PUSH2 0x4787 JUMP JUMPDEST POP PUSH1 0x2 DUP3 ADD SLOAD DUP2 PUSH1 0x2 ADD SSTORE PUSH1 0x3 DUP3 ADD PUSH0 SWAP1 SLOAD SWAP1 PUSH2 0x100 EXP SWAP1 DIV PUSH1 0xFF AND DUP2 PUSH1 0x3 ADD PUSH0 PUSH2 0x100 EXP DUP2 SLOAD DUP2 PUSH1 0xFF MUL NOT AND SWAP1 DUP4 ISZERO ISZERO MUL OR SWAP1 SSTORE POP SWAP1 POP POP DUP2 DUP1 SLOAD DUP1 PUSH2 0x2BC4 JUMPI PUSH2 0x2BC3 PUSH2 0x486C JUMP JUMPDEST JUMPDEST PUSH1 0x1 SWAP1 SUB DUP2 DUP2 SWAP1 PUSH0 MSTORE PUSH1 0x20 PUSH0 KECCAK256 SWAP1 PUSH1 0x4 MUL ADD PUSH0 DUP1 DUP3 ADD PUSH0 PUSH2 0x100 EXP DUP2 SLOAD SWAP1 PUSH20 0xFFFFFFFFFFFFFFFFFFFFFFFFFFFFFFFFFFFFFFFF MUL NOT AND SWAP1 SSTORE PUSH1 0x1 DUP3 ADD PUSH0 PUSH2 0x2C0B SWAP2 SWAP1 PUSH2 0x2F6E JUMP JUMPDEST PUSH1 0x2 DUP3 ADD PUSH0 SWAP1 SSTORE PUSH1 0x3 DUP3 ADD PUSH0 PUSH2 0x100 EXP DUP2 SLOAD SWAP1 PUSH1 0xFF MUL NOT AND SWAP1 SSTORE POP POP SWAP1 SSTORE PUSH32 0x4AD7BFAB548392DEE7BDF6CB08DF8F67651B96AD45562116ED0C305D6267C730 DUP9 DUP3 DUP9 PUSH1 0x40 MLOAD PUSH2 0x2C5C SWAP4 SWAP3 SWAP2 SWAP1 PUSH2 0x42AE JUMP JUMPDEST PUSH1 0x40 MLOAD DUP1 SWAP2 SUB SWAP1 LOG1 POP POP POP POP POP POP POP POP JUMP JUMPDEST PUSH1 0x1 PUSH1 0x20 MSTORE DUP1 PUSH0 MSTORE PUSH1 0x40 PUSH0 KECCAK256 PUSH0 SWAP2 POP SWAP1 POP SLOAD DUP2 JUMP JUMPDEST PUSH0 DUP1 PUSH1 0x5 PUSH0 DUP5 DUP2 MSTORE PUSH1 0x20 ADD SWAP1 DUP2 MSTORE PUSH1 0x20 ADD PUSH0 KECCAK256 DUP1 SLOAD DUP1 PUSH1 0x20 MUL PUSH1 0x20 ADD PUSH1 0x40 MLOAD SWAP1 DUP2 ADD PUSH1 0x40 MSTORE DUP1 SWAP3 SWAP2 SWAP1 DUP2 DUP2 MSTORE PUSH1 0x20 ADD PUSH0 SWAP1 JUMPDEST DUP3 DUP3 LT ISZERO PUSH2 0x2DED JUMPI DUP4 DUP3 SWAP1 PUSH0 MSTORE PUSH1 0x20 PUSH0 KECCAK256 SWAP1 PUSH1 0x4 MUL ADD PUSH1 0x40 MLOAD DUP1 PUSH1 0x80 ADD PUSH1 0x40 MSTORE SWAP1 DUP2 PUSH0 DUP3 ADD PUSH0 SWAP1 SLOAD SWAP1 PUSH2 0x100 EXP SWAP1 DIV PUSH20 0xFFFFFFFFFFFFFFFFFFFFFFFFFFFFFFFFFFFFFFFF AND PUSH20 0xFFFFFFFFFFFFFFFFFFFFFFFFFFFFFFFFFFFFFFFF AND PUSH20 0xFFFFFFFFFFFFFFFFFFFFFFFFFFFFFFFFFFFFFFFF AND DUP2 MSTORE PUSH1 0x20 ADD PUSH1 0x1 DUP3 ADD DUP1 SLOAD PUSH2 0x2D3A SWAP1 PUSH2 0x39B4 JUMP JUMPDEST DUP1 PUSH1 0x1F ADD PUSH1 0x20 DUP1 SWAP2 DIV MUL PUSH1 0x20 ADD PUSH1 0x40 MLOAD SWAP1 DUP2 ADD PUSH1 0x40 MSTORE DUP1 SWAP3 SWAP2 SWAP1 DUP2 DUP2 MSTORE PUSH1 0x20 ADD DUP3 DUP1 SLOAD PUSH2 0x2D66 SWAP1 PUSH2 0x39B4 JUMP JUMPDEST DUP1 ISZERO PUSH2 0x2DB1 JUMPI DUP1 PUSH1 0x1F LT PUSH2 0x2D88 JUMPI PUSH2 0x100 DUP1 DUP4 SLOAD DIV MUL DUP4 MSTORE SWAP2 PUSH1 0x20 ADD SWAP2 PUSH2 0x2DB1 JUMP JUMPDEST DUP3 ADD SWAP2 SWAP1 PUSH0 MSTORE PUSH1 0x20 PUSH0 KECCAK256 SWAP1 JUMPDEST DUP2 SLOAD DUP2 MSTORE SWAP1 PUSH1 0x1 ADD SWAP1 PUSH1 0x20 ADD DUP1 DUP4 GT PUSH2 0x2D94 JUMPI DUP3 SWAP1 SUB PUSH1 0x1F AND DUP3 ADD SWAP2 JUMPDEST POP POP POP POP POP DUP2 MSTORE PUSH1 0x20 ADD PUSH1 0x2 DUP3 ADD SLOAD DUP2 MSTORE PUSH1 0x20 ADD PUSH1 0x3 DUP3 ADD PUSH0 SWAP1 SLOAD SWAP1 PUSH2 0x100 EXP SWAP1 DIV PUSH1 0xFF AND ISZERO ISZERO ISZERO ISZERO DUP2 MSTORE POP POP DUP2 MSTORE PUSH1 0x20 ADD SWAP1 PUSH1 0x1 ADD SWAP1 PUSH2 0x2CB5 JUMP JUMPDEST POP POP POP POP SWAP1 POP PUSH0 JUMPDEST DUP2 MLOAD DUP2 LT ISZERO PUSH2 0x2E66 JUMPI DUP5 PUSH20 0xFFFFFFFFFFFFFFFFFFFFFFFFFFFFFFFFFFFFFFFF AND DUP3 DUP3 DUP2 MLOAD DUP2 LT PUSH2 0x2E28 JUMPI PUSH2 0x2E27 PUSH2 0x37FC JUMP JUMPDEST JUMPDEST PUSH1 0x20 MUL PUSH1 0x20 ADD ADD MLOAD PUSH0 ADD MLOAD PUSH20 0xFFFFFFFFFFFFFFFFFFFFFFFFFFFFFFFFFFFFFFFF AND SUB PUSH2 0x2E59 JUMPI PUSH1 0x1 SWAP3 POP POP POP PUSH2 0x2E6C JUMP JUMPDEST DUP1 DUP1 PUSH1 0x1 ADD SWAP2 POP POP PUSH2 0x2DF5 JUMP JUMPDEST POP PUSH0 SWAP2 POP POP JUMPDEST SWAP3 SWAP2 POP POP JUMP JUMPDEST ADDRESS PUSH20 0xFFFFFFFFFFFFFFFFFFFFFFFFFFFFFFFFFFFFFFFF AND CALLER PUSH20 0xFFFFFFFFFFFFFFFFFFFFFFFFFFFFFFFFFFFFFFFF AND EQ PUSH2 0x2EE0 JUMPI PUSH1 0x40 MLOAD PUSH32 0x8C379A000000000000000000000000000000000000000000000000000000000 DUP2 MSTORE PUSH1 0x4 ADD PUSH2 0x2ED7 SWAP1 PUSH2 0x4909 JUMP JUMPDEST PUSH1 0x40 MLOAD DUP1 SWAP2 SUB SWAP1 REVERT JUMPDEST DUP1 PUSH1 0x1 PUSH0 DUP5 PUSH20 0xFFFFFFFFFFFFFFFFFFFFFFFFFFFFFFFFFFFFFFFF AND PUSH20 0xFFFFFFFFFFFFFFFFFFFFFFFFFFFFFFFFFFFFFFFF AND DUP2 MSTORE PUSH1 0x20 ADD SWAP1 DUP2 MSTORE PUSH1 0x20 ADD PUSH0 KECCAK256 SLOAD PUSH2 0x2F29 SWAP2 SWAP1 PUSH2 0x44B0 JUMP JUMPDEST PUSH1 0x1 PUSH0 DUP5 PUSH20 0xFFFFFFFFFFFFFFFFFFFFFFFFFFFFFFFFFFFFFFFF AND PUSH20 0xFFFFFFFFFFFFFFFFFFFFFFFFFFFFFFFFFFFFFFFF AND DUP2 MSTORE PUSH1 0x20 ADD SWAP1 DUP2 MSTORE PUSH1 0x20 ADD PUSH0 KECCAK256 DUP2 SWAP1 SSTORE POP POP POP JUMP JUMPDEST POP DUP1 SLOAD PUSH2 0x2F7A SWAP1 PUSH2 0x39B4 JUMP JUMPDEST PUSH0 DUP3 SSTORE DUP1 PUSH1 0x1F LT PUSH2 0x2F8B JUMPI POP PUSH2 0x2FA8 JUMP JUMPDEST PUSH1 0x1F ADD PUSH1 0x20 SWAP1 DIV SWAP1 PUSH0 MSTORE PUSH1 0x20 PUSH0 KECCAK256 SWAP1 DUP2 ADD SWAP1 PUSH2 0x2FA7 SWAP2 SWAP1 PUSH2 0x2FAB JUMP JUMPDEST JUMPDEST POP JUMP JUMPDEST JUMPDEST DUP1 DUP3 GT ISZERO PUSH2 0x2FC2 JUMPI PUSH0 DUP2 PUSH0 SWAP1 SSTORE POP PUSH1 0x1 ADD PUSH2 0x2FAC JUMP JUMPDEST POP SWAP1 JUMP JUMPDEST PUSH0 DUP2 SWAP1 POP SWAP2 SWAP1 POP JUMP JUMPDEST PUSH2 0x2FD8 DUP2 PUSH2 0x2FC6 JUMP JUMPDEST DUP3 MSTORE POP POP JUMP JUMPDEST PUSH0 PUSH1 0x20 DUP3 ADD SWAP1 POP PUSH2 0x2FF1 PUSH0 DUP4 ADD DUP5 PUSH2 0x2FCF JUMP JUMPDEST SWAP3 SWAP2 POP POP JUMP JUMPDEST PUSH0 PUSH1 0x40 MLOAD SWAP1 POP SWAP1 JUMP JUMPDEST PUSH0 DUP1 REVERT JUMPDEST PUSH0 DUP1 REVERT JUMPDEST PUSH2 0x3011 DUP2 PUSH2 0x2FC6 JUMP JUMPDEST DUP2 EQ PUSH2 0x301B JUMPI PUSH0 DUP1 REVERT JUMPDEST POP JUMP JUMPDEST PUSH0 DUP2 CALLDATALOAD SWAP1 POP PUSH2 0x302C DUP2 PUSH2 0x3008 JUMP JUMPDEST SWAP3 SWAP2 POP POP JUMP JUMPDEST PUSH0 DUP1 REVERT JUMPDEST PUSH0 DUP1 REVERT JUMPDEST PUSH0 PUSH1 0x1F NOT PUSH1 0x1F DUP4 ADD AND SWAP1 POP SWAP2 SWAP1 POP JUMP JUMPDEST PUSH32 0x4E487B7100000000000000000000000000000000000000000000000000000000 PUSH0 MSTORE PUSH1 0x41 PUSH1 0x4 MSTORE PUSH1 0x24 PUSH0 REVERT JUMPDEST PUSH2 0x3080 DUP3 PUSH2 0x303A JUMP JUMPDEST DUP2 ADD DUP2 DUP2 LT PUSH8 0xFFFFFFFFFFFFFFFF DUP3 GT OR ISZERO PUSH2 0x309F JUMPI PUSH2 0x309E PUSH2 0x304A JUMP JUMPDEST JUMPDEST DUP1 PUSH1 0x40 MSTORE POP POP POP JUMP JUMPDEST PUSH0 PUSH2 0x30B1 PUSH2 0x2FF7 JUMP JUMPDEST SWAP1 POP PUSH2 0x30BD DUP3 DUP3 PUSH2 0x3077 JUMP JUMPDEST SWAP2 SWAP1 POP JUMP JUMPDEST PUSH0 PUSH8 0xFFFFFFFFFFFFFFFF DUP3 GT ISZERO PUSH2 0x30DC JUMPI PUSH2 0x30DB PUSH2 0x304A JUMP JUMPDEST JUMPDEST PUSH2 0x30E5 DUP3 PUSH2 0x303A JUMP JUMPDEST SWAP1 POP PUSH1 0x20 DUP2 ADD SWAP1 POP SWAP2 SWAP1 POP JUMP JUMPDEST DUP3 DUP2 DUP4 CALLDATACOPY PUSH0 DUP4 DUP4 ADD MSTORE POP POP POP JUMP JUMPDEST PUSH0 PUSH2 0x3112 PUSH2 0x310D DUP5 PUSH2 0x30C2 JUMP JUMPDEST PUSH2 0x30A8 JUMP JUMPDEST SWAP1 POP DUP3 DUP2 MSTORE PUSH1 0x20 DUP2 ADD DUP5 DUP5 DUP5 ADD GT ISZERO PUSH2 0x312E JUMPI PUSH2 0x312D PUSH2 0x3036 JUMP JUMPDEST JUMPDEST PUSH2 0x3139 DUP5 DUP3 DUP6 PUSH2 0x30F2 JUMP JUMPDEST POP SWAP4 SWAP3 POP POP POP JUMP JUMPDEST PUSH0 DUP3 PUSH1 0x1F DUP4 ADD SLT PUSH2 0x3155 JUMPI PUSH2 0x3154 PUSH2 0x3032 JUMP JUMPDEST JUMPDEST DUP2 CALLDATALOAD PUSH2 0x3165 DUP5 DUP3 PUSH1 0x20 DUP7 ADD PUSH2 0x3100 JUMP JUMPDEST SWAP2 POP POP SWAP3 SWAP2 POP POP JUMP JUMPDEST PUSH0 DUP1 PUSH0 PUSH1 0x60 DUP5 DUP7 SUB SLT ISZERO PUSH2 0x3185 JUMPI PUSH2 0x3184 PUSH2 0x3000 JUMP JUMPDEST JUMPDEST PUSH0 PUSH2 0x3192 DUP7 DUP3 DUP8 ADD PUSH2 0x301E JUMP JUMPDEST SWAP4 POP POP PUSH1 0x20 PUSH2 0x31A3 DUP7 DUP3 DUP8 ADD PUSH2 0x301E JUMP JUMPDEST SWAP3 POP POP PUSH1 0x40 DUP5 ADD CALLDATALOAD PUSH8 0xFFFFFFFFFFFFFFFF DUP2 GT ISZERO PUSH2 0x31C4 JUMPI PUSH2 0x31C3 PUSH2 0x3004 JUMP JUMPDEST JUMPDEST PUSH2 0x31D0 DUP7 DUP3 DUP8 ADD PUSH2 0x3141 JUMP JUMPDEST SWAP2 POP POP SWAP3 POP SWAP3 POP SWAP3 JUMP JUMPDEST PUSH0 PUSH1 0x20 DUP3 DUP5 SUB SLT ISZERO PUSH2 0x31EF JUMPI PUSH2 0x31EE PUSH2 0x3000 JUMP JUMPDEST JUMPDEST PUSH0 PUSH2 0x31FC DUP5 DUP3 DUP6 ADD PUSH2 0x301E JUMP JUMPDEST SWAP2 POP POP SWAP3 SWAP2 POP POP JUMP JUMPDEST PUSH0 PUSH20 0xFFFFFFFFFFFFFFFFFFFFFFFFFFFFFFFFFFFFFFFF DUP3 AND SWAP1 POP SWAP2 SWAP1 POP JUMP JUMPDEST PUSH0 PUSH2 0x322E DUP3 PUSH2 0x3205 JUMP JUMPDEST SWAP1 POP SWAP2 SWAP1 POP JUMP JUMPDEST PUSH2 0x323E DUP2 PUSH2 0x3224 JUMP JUMPDEST DUP3 MSTORE POP POP JUMP JUMPDEST PUSH0 DUP2 MLOAD SWAP1 POP SWAP2 SWAP1 POP JUMP JUMPDEST PUSH0 DUP3 DUP3 MSTORE PUSH1 0x20 DUP3 ADD SWAP1 POP SWAP3 SWAP2 POP POP JUMP JUMPDEST DUP3 DUP2 DUP4 MCOPY PUSH0 DUP4 DUP4 ADD MSTORE POP POP POP JUMP JUMPDEST PUSH0 PUSH2 0x3276 DUP3 PUSH2 0x3244 JUMP JUMPDEST PUSH2 0x3280 DUP2 DUP6 PUSH2 0x324E JUMP JUMPDEST SWAP4 POP PUSH2 0x3290 DUP2 DUP6 PUSH1 0x20 DUP7 ADD PUSH2 0x325E JUMP JUMPDEST PUSH2 0x3299 DUP2 PUSH2 0x303A JUMP JUMPDEST DUP5 ADD SWAP2 POP POP SWAP3 SWAP2 POP POP JUMP JUMPDEST PUSH32 0x4E487B7100000000000000000000000000000000000000000000000000000000 PUSH0 MSTORE PUSH1 0x21 PUSH1 0x4 MSTORE PUSH1 0x24 PUSH0 REVERT JUMPDEST PUSH1 0x4 DUP2 LT PUSH2 0x32E2 JUMPI PUSH2 0x32E1 PUSH2 0x32A4 JUMP JUMPDEST JUMPDEST POP JUMP JUMPDEST PUSH0 DUP2 SWAP1 POP PUSH2 0x32F2 DUP3 PUSH2 0x32D1 JUMP JUMPDEST SWAP2 SWAP1 POP JUMP JUMPDEST PUSH0 PUSH2 0x3301 DUP3 PUSH2 0x32E5 JUMP JUMPDEST SWAP1 POP SWAP2 SWAP1 POP JUMP JUMPDEST PUSH2 0x3311 DUP2 PUSH2 0x32F7 JUMP JUMPDEST DUP3 MSTORE POP POP JUMP JUMPDEST PUSH0 PUSH2 0x3321 DUP3 PUSH2 0x3205 JUMP JUMPDEST SWAP1 POP SWAP2 SWAP1 POP JUMP JUMPDEST PUSH2 0x3331 DUP2 PUSH2 0x3317 JUMP JUMPDEST DUP3 MSTORE POP POP JUMP JUMPDEST PUSH0 PUSH1 0xE0 DUP3 ADD SWAP1 POP PUSH2 0x334A PUSH0 DUP4 ADD DUP11 PUSH2 0x3235 JUMP JUMPDEST DUP2 DUP2 SUB PUSH1 0x20 DUP4 ADD MSTORE PUSH2 0x335C DUP2 DUP10 PUSH2 0x326C JUMP JUMPDEST SWAP1 POP DUP2 DUP2 SUB PUSH1 0x40 DUP4 ADD MSTORE PUSH2 0x3370 DUP2 DUP9 PUSH2 0x326C JUMP JUMPDEST SWAP1 POP PUSH2 0x337F PUSH1 0x60 DUP4 ADD DUP8 PUSH2 0x2FCF JUMP JUMPDEST PUSH2 0x338C PUSH1 0x80 DUP4 ADD DUP7 PUSH2 0x2FCF JUMP JUMPDEST PUSH2 0x3399 PUSH1 0xA0 DUP4 ADD DUP6 PUSH2 0x3308 JUMP JUMPDEST PUSH2 0x33A6 PUSH1 0xC0 DUP4 ADD DUP5 PUSH2 0x3328 JUMP JUMPDEST SWAP9 SWAP8 POP POP POP POP POP POP POP POP JUMP JUMPDEST PUSH0 DUP1 PUSH0 PUSH1 0x60 DUP5 DUP7 SUB SLT ISZERO PUSH2 0x33C9 JUMPI PUSH2 0x33C8 PUSH2 0x3000 JUMP JUMPDEST JUMPDEST PUSH0 PUSH2 0x33D6 DUP7 DUP3 DUP8 ADD PUSH2 0x301E JUMP JUMPDEST SWAP4 POP POP PUSH1 0x20 DUP5 ADD CALLDATALOAD PUSH8 0xFFFFFFFFFFFFFFFF DUP2 GT ISZERO PUSH2 0x33F7 JUMPI PUSH2 0x33F6 PUSH2 0x3004 JUMP JUMPDEST JUMPDEST PUSH2 0x3403 DUP7 DUP3 DUP8 ADD PUSH2 0x3141 JUMP JUMPDEST SWAP3 POP POP PUSH1 0x40 PUSH2 0x3414 DUP7 DUP3 DUP8 ADD PUSH2 0x301E JUMP JUMPDEST SWAP2 POP POP SWAP3 POP SWAP3 POP SWAP3 JUMP JUMPDEST PUSH0 DUP1 PUSH1 0x40 DUP4 DUP6 SUB SLT ISZERO PUSH2 0x3434 JUMPI PUSH2 0x3433 PUSH2 0x3000 JUMP JUMPDEST JUMPDEST PUSH0 PUSH2 0x3441 DUP6 DUP3 DUP7 ADD PUSH2 0x301E JUMP JUMPDEST SWAP3 POP POP PUSH1 0x20 PUSH2 0x3452 DUP6 DUP3 DUP7 ADD PUSH2 0x301E JUMP JUMPDEST SWAP2 POP POP SWAP3 POP SWAP3 SWAP1 POP JUMP JUMPDEST PUSH0 DUP2 ISZERO ISZERO SWAP1 POP SWAP2 SWAP1 POP JUMP JUMPDEST PUSH2 0x3470 DUP2 PUSH2 0x345C JUMP JUMPDEST DUP3 MSTORE POP POP JUMP JUMPDEST PUSH0 PUSH1 0x80 DUP3 ADD SWAP1 POP PUSH2 0x3489 PUSH0 DUP4 ADD DUP8 PUSH2 0x3235 JUMP JUMPDEST DUP2 DUP2 SUB PUSH1 0x20 DUP4 ADD MSTORE PUSH2 0x349B DUP2 DUP7 PUSH2 0x326C JUMP JUMPDEST SWAP1 POP PUSH2 0x34AA PUSH1 0x40 DUP4 ADD DUP6 PUSH2 0x2FCF JUMP JUMPDEST PUSH2 0x34B7 PUSH1 0x60 DUP4 ADD DUP5 PUSH2 0x3467 JUMP JUMPDEST SWAP6 SWAP5 POP POP POP POP POP JUMP JUMPDEST PUSH2 0x34C9 DUP2 PUSH2 0x3224 JUMP JUMPDEST DUP2 EQ PUSH2 0x34D3 JUMPI PUSH0 DUP1 REVERT JUMPDEST POP JUMP JUMPDEST PUSH0 DUP2 CALLDATALOAD SWAP1 POP PUSH2 0x34E4 DUP2 PUSH2 0x34C0 JUMP JUMPDEST SWAP3 SWAP2 POP POP JUMP JUMPDEST PUSH0 DUP1 PUSH1 0x40 DUP4 DUP6 SUB SLT ISZERO PUSH2 0x3500 JUMPI PUSH2 0x34FF PUSH2 0x3000 JUMP JUMPDEST JUMPDEST PUSH0 PUSH2 0x350D DUP6 DUP3 DUP7 ADD PUSH2 0x301E JUMP JUMPDEST SWAP3 POP POP PUSH1 0x20 PUSH2 0x351E DUP6 DUP3 DUP7 ADD PUSH2 0x34D6 JUMP JUMPDEST SWAP2 POP POP SWAP3 POP SWAP3 SWAP1 POP JUMP JUMPDEST PUSH0 PUSH1 0x20 DUP3 ADD SWAP1 POP PUSH2 0x353B PUSH0 DUP4 ADD DUP5 PUSH2 0x3467 JUMP JUMPDEST SWAP3 SWAP2 POP POP JUMP JUMPDEST PUSH0 PUSH1 0xC0 DUP3 ADD SWAP1 POP PUSH2 0x3554 PUSH0 DUP4 ADD DUP10 PUSH2 0x2FCF JUMP JUMPDEST PUSH2 0x3561 PUSH1 0x20 DUP4 ADD DUP9 PUSH2 0x3235 JUMP JUMPDEST PUSH2 0x356E PUSH1 0x40 DUP4 ADD DUP8 PUSH2 0x3235 JUMP JUMPDEST PUSH2 0x357B PUSH1 0x60 DUP4 ADD DUP7 PUSH2 0x2FCF JUMP JUMPDEST PUSH2 0x3588 PUSH1 0x80 DUP4 ADD DUP6 PUSH2 0x2FCF JUMP JUMPDEST PUSH2 0x3595 PUSH1 0xA0 DUP4 ADD DUP5 PUSH2 0x3467 JUMP JUMPDEST SWAP8 SWAP7 POP POP POP POP POP POP POP JUMP JUMPDEST PUSH0 PUSH1 0x20 DUP3 ADD SWAP1 POP DUP2 DUP2 SUB PUSH0 DUP4 ADD MSTORE PUSH2 0x35B8 DUP2 DUP5 PUSH2 0x326C JUMP JUMPDEST SWAP1 POP SWAP3 SWAP2 POP POP JUMP JUMPDEST PUSH0 DUP1 PUSH0 DUP1 PUSH1 0x80 DUP6 DUP8 SUB SLT ISZERO PUSH2 0x35D8 JUMPI PUSH2 0x35D7 PUSH2 0x3000 JUMP JUMPDEST JUMPDEST PUSH0 DUP6 ADD CALLDATALOAD PUSH8 0xFFFFFFFFFFFFFFFF DUP2 GT ISZERO PUSH2 0x35F5 JUMPI PUSH2 0x35F4 PUSH2 0x3004 JUMP JUMPDEST JUMPDEST PUSH2 0x3601 DUP8 DUP3 DUP9 ADD PUSH2 0x3141 JUMP JUMPDEST SWAP5 POP POP PUSH1 0x20 DUP6 ADD CALLDATALOAD PUSH8 0xFFFFFFFFFFFFFFFF DUP2 GT ISZERO PUSH2 0x3622 JUMPI PUSH2 0x3621 PUSH2 0x3004 JUMP JUMPDEST JUMPDEST PUSH2 0x362E DUP8 DUP3 DUP9 ADD PUSH2 0x3141 JUMP JUMPDEST SWAP4 POP POP PUSH1 0x40 PUSH2 0x363F DUP8 DUP3 DUP9 ADD PUSH2 0x301E JUMP JUMPDEST SWAP3 POP POP PUSH1 0x60 PUSH2 0x3650 DUP8 DUP3 DUP9 ADD PUSH2 0x301E JUMP JUMPDEST SWAP2 POP POP SWAP3 SWAP6 SWAP2 SWAP5 POP SWAP3 POP JUMP JUMPDEST PUSH2 0x3665 DUP2 PUSH2 0x345C JUMP JUMPDEST DUP2 EQ PUSH2 0x366F JUMPI PUSH0 DUP1 REVERT JUMPDEST POP JUMP JUMPDEST PUSH0 DUP2 CALLDATALOAD SWAP1 POP PUSH2 0x3680 DUP2 PUSH2 0x365C JUMP JUMPDEST SWAP3 SWAP2 POP POP JUMP JUMPDEST PUSH0 DUP1 PUSH1 0x40 DUP4 DUP6 SUB SLT ISZERO PUSH2 0x369C JUMPI PUSH2 0x369B PUSH2 0x3000 JUMP JUMPDEST JUMPDEST PUSH0 PUSH2 0x36A9 DUP6 DUP3 DUP7 ADD PUSH2 0x301E JUMP JUMPDEST SWAP3 POP POP PUSH1 0x20 PUSH2 0x36BA DUP6 DUP3 DUP7 ADD PUSH2 0x3672 JUMP JUMPDEST SWAP2 POP POP SWAP3 POP SWAP3 SWAP1 POP JUMP JUMPDEST PUSH0 PUSH1 0x20 DUP3 DUP5 SUB SLT ISZERO PUSH2 0x36D9 JUMPI PUSH2 0x36D8 PUSH2 0x3000 JUMP JUMPDEST JUMPDEST PUSH0 PUSH2 0x36E6 DUP5 DUP3 DUP6 ADD PUSH2 0x34D6 JUMP JUMPDEST SWAP2 POP POP SWAP3 SWAP2 POP POP JUMP JUMPDEST PUSH1 0x2 DUP2 LT PUSH2 0x3700 JUMPI PUSH2 0x36FF PUSH2 0x32A4 JUMP JUMPDEST JUMPDEST POP JUMP JUMPDEST PUSH0 DUP2 SWAP1 POP PUSH2 0x3710 DUP3 PUSH2 0x36EF JUMP JUMPDEST SWAP2 SWAP1 POP JUMP JUMPDEST PUSH0 PUSH2 0x371F DUP3 PUSH2 0x3703 JUMP JUMPDEST SWAP1 POP SWAP2 SWAP1 POP JUMP JUMPDEST PUSH2 0x372F DUP2 PUSH2 0x3715 JUMP JUMPDEST DUP3 MSTORE POP POP JUMP JUMPDEST PUSH0 PUSH1 0x80 DUP3 ADD SWAP1 POP PUSH2 0x3748 PUSH0 DUP4 ADD DUP8 PUSH2 0x3726 JUMP JUMPDEST DUP2 DUP2 SUB PUSH1 0x20 DUP4 ADD MSTORE PUSH2 0x375A DUP2 DUP7 PUSH2 0x326C JUMP JUMPDEST SWAP1 POP PUSH2 0x3769 PUSH1 0x40 DUP4 ADD DUP6 PUSH2 0x2FCF JUMP JUMPDEST PUSH2 0x3776 PUSH1 0x60 DUP4 ADD DUP5 PUSH2 0x3328 JUMP JUMPDEST SWAP6 SWAP5 POP POP POP POP POP JUMP JUMPDEST PUSH1 0x2 DUP2 LT PUSH2 0x378B JUMPI PUSH0 DUP1 REVERT JUMPDEST POP JUMP JUMPDEST PUSH0 DUP2 CALLDATALOAD SWAP1 POP PUSH2 0x379C DUP2 PUSH2 0x377F JUMP JUMPDEST SWAP3 SWAP2 POP POP JUMP JUMPDEST PUSH0 DUP1 PUSH1 0x40 DUP4 DUP6 SUB SLT ISZERO PUSH2 0x37B8 JUMPI PUSH2 0x37B7 PUSH2 0x3000 JUMP JUMPDEST JUMPDEST PUSH0 PUSH2 0x37C5 DUP6 DUP3 DUP7 ADD PUSH2 0x378E JUMP JUMPDEST SWAP3 POP POP PUSH1 0x20 DUP4 ADD CALLDATALOAD PUSH8 0xFFFFFFFFFFFFFFFF DUP2 GT ISZERO PUSH2 0x37E6 JUMPI PUSH2 0x37E5 PUSH2 0x3004 JUMP JUMPDEST JUMPDEST PUSH2 0x37F2 DUP6 DUP3 DUP7 ADD PUSH2 0x3141 JUMP JUMPDEST SWAP2 POP POP SWAP3 POP SWAP3 SWAP1 POP JUMP JUMPDEST PUSH32 0x4E487B7100000000000000000000000000000000000000000000000000000000 PUSH0 MSTORE PUSH1 0x32 PUSH1 0x4 MSTORE PUSH1 0x24 PUSH0 REVERT JUMPDEST PUSH32 0x4F6E6C79207468652061737369676E656420667265656C616E6365722063616E PUSH0 DUP3 ADD MSTORE PUSH32 0x20706572666F726D207468697320616374696F6E2E0000000000000000000000 PUSH1 0x20 DUP3 ADD MSTORE POP JUMP JUMPDEST PUSH0 PUSH2 0x3883 PUSH1 0x35 DUP4 PUSH2 0x324E JUMP JUMPDEST SWAP2 POP PUSH2 0x388E DUP3 PUSH2 0x3829 JUMP JUMPDEST PUSH1 0x40 DUP3 ADD SWAP1 POP SWAP2 SWAP1 POP JUMP JUMPDEST PUSH0 PUSH1 0x20 DUP3 ADD SWAP1 POP DUP2 DUP2 SUB PUSH0 DUP4 ADD MSTORE PUSH2 0x38B0 DUP2 PUSH2 0x3877 JUMP JUMPDEST SWAP1 POP SWAP2 SWAP1 POP JUMP JUMPDEST PUSH32 0x50726F6A65637420646F6573206E6F742065786973742E000000000000000000 PUSH0 DUP3 ADD MSTORE POP JUMP JUMPDEST PUSH0 PUSH2 0x38EB PUSH1 0x17 DUP4 PUSH2 0x324E JUMP JUMPDEST SWAP2 POP PUSH2 0x38F6 DUP3 PUSH2 0x38B7 JUMP JUMPDEST PUSH1 0x20 DUP3 ADD SWAP1 POP SWAP2 SWAP1 POP JUMP JUMPDEST PUSH0 PUSH1 0x20 DUP3 ADD SWAP1 POP DUP2 DUP2 SUB PUSH0 DUP4 ADD MSTORE PUSH2 0x3918 DUP2 PUSH2 0x38DF JUMP JUMPDEST SWAP1 POP SWAP2 SWAP1 POP JUMP JUMPDEST PUSH32 0x50726F6A656374206973206E6F7420696E2070726F67726573732E0000000000 PUSH0 DUP3 ADD MSTORE POP JUMP JUMPDEST PUSH0 PUSH2 0x3953 PUSH1 0x1B DUP4 PUSH2 0x324E JUMP JUMPDEST SWAP2 POP PUSH2 0x395E DUP3 PUSH2 0x391F JUMP JUMPDEST PUSH1 0x20 DUP3 ADD SWAP1 POP SWAP2 SWAP1 POP JUMP JUMPDEST PUSH0 PUSH1 0x20 DUP3 ADD SWAP1 POP DUP2 DUP2 SUB PUSH0 DUP4 ADD MSTORE PUSH2 0x3980 DUP2 PUSH2 0x3947 JUMP JUMPDEST SWAP1 POP SWAP2 SWAP1 POP JUMP JUMPDEST PUSH32 0x4E487B7100000000000000000000000000000000000000000000000000000000 PUSH0 MSTORE PUSH1 0x22 PUSH1 0x4 MSTORE PUSH1 0x24 PUSH0 REVERT JUMPDEST PUSH0 PUSH1 0x2 DUP3 DIV SWAP1 POP PUSH1 0x1 DUP3 AND DUP1 PUSH2 0x39CB JUMPI PUSH1 0x7F DUP3 AND SWAP2 POP JUMPDEST PUSH1 0x20 DUP3 LT DUP2 SUB PUSH2 0x39DE JUMPI PUSH2 0x39DD PUSH2 0x3987 JUMP JUMPDEST JUMPDEST POP SWAP2 SWAP1 POP JUMP JUMPDEST PUSH0 DUP2 SWAP1 POP DUP2 PUSH0 MSTORE PUSH1 0x20 PUSH0 KECCAK256 SWAP1 POP SWAP2 SWAP1 POP JUMP JUMPDEST PUSH0 PUSH1 0x20 PUSH1 0x1F DUP4 ADD DIV SWAP1 POP SWAP2 SWAP1 POP JUMP JUMPDEST PUSH0 DUP3 DUP3 SHL SWAP1 POP SWAP3 SWAP2 POP POP JUMP JUMPDEST PUSH0 PUSH1 0x8 DUP4 MUL PUSH2 0x3A40 PUSH32 0xFFFFFFFFFFFFFFFFFFFFFFFFFFFFFFFFFFFFFFFFFFFFFFFFFFFFFFFFFFFFFFFF DUP3 PUSH2 0x3A05 JUMP JUMPDEST PUSH2 0x3A4A DUP7 DUP4 PUSH2 0x3A05 JUMP JUMPDEST SWAP6 POP DUP1 NOT DUP5 AND SWAP4 POP DUP1 DUP7 AND DUP5 OR SWAP3 POP POP POP SWAP4 SWAP3 POP POP POP JUMP JUMPDEST PUSH0 DUP2 SWAP1 POP SWAP2 SWAP1 POP JUMP JUMPDEST PUSH0 PUSH2 0x3A85 PUSH2 0x3A80 PUSH2 0x3A7B DUP5 PUSH2 0x2FC6 JUMP JUMPDEST PUSH2 0x3A62 JUMP JUMPDEST PUSH2 0x2FC6 JUMP JUMPDEST SWAP1 POP SWAP2 SWAP1 POP JUMP JUMPDEST PUSH0 DUP2 SWAP1 POP SWAP2 SWAP1 POP JUMP JUMPDEST PUSH2 0x3A9E DUP4 PUSH2 0x3A6B JUMP JUMPDEST PUSH2 0x3AB2 PUSH2 0x3AAA DUP3 PUSH2 0x3A8C JUMP JUMPDEST DUP5 DUP5 SLOAD PUSH2 0x3A11 JUMP JUMPDEST DUP3 SSTORE POP POP POP POP JUMP JUMPDEST PUSH0 SWAP1 JUMP JUMPDEST PUSH2 0x3AC6 PUSH2 0x3ABA JUMP JUMPDEST PUSH2 0x3AD1 DUP2 DUP5 DUP5 PUSH2 0x3A95 JUMP JUMPDEST POP POP POP JUMP JUMPDEST JUMPDEST DUP2 DUP2 LT ISZERO PUSH2 0x3AF4 JUMPI PUSH2 0x3AE9 PUSH0 DUP3 PUSH2 0x3ABE JUMP JUMPDEST PUSH1 0x1 DUP2 ADD SWAP1 POP PUSH2 0x3AD7 JUMP JUMPDEST POP POP JUMP JUMPDEST PUSH1 0x1F DUP3 GT ISZERO PUSH2 0x3B39 JUMPI PUSH2 0x3B0A DUP2 PUSH2 0x39E4 JUMP JUMPDEST PUSH2 0x3B13 DUP5 PUSH2 0x39F6 JUMP JUMPDEST DUP2 ADD PUSH1 0x20 DUP6 LT ISZERO PUSH2 0x3B22 JUMPI DUP2 SWAP1 POP JUMPDEST PUSH2 0x3B36 PUSH2 0x3B2E DUP6 PUSH2 0x39F6 JUMP JUMPDEST DUP4 ADD DUP3 PUSH2 0x3AD6 JUMP JUMPDEST POP POP JUMPDEST POP POP POP JUMP JUMPDEST PUSH0 DUP3 DUP3 SHR SWAP1 POP SWAP3 SWAP2 POP POP JUMP JUMPDEST PUSH0 PUSH2 0x3B59 PUSH0 NOT DUP5 PUSH1 0x8 MUL PUSH2 0x3B3E JUMP JUMPDEST NOT DUP1 DUP4 AND SWAP2 POP POP SWAP3 SWAP2 POP POP JUMP JUMPDEST PUSH0 PUSH2 0x3B71 DUP4 DUP4 PUSH2 0x3B4A JUMP JUMPDEST SWAP2 POP DUP3 PUSH1 0x2 MUL DUP3 OR SWAP1 POP SWAP3 SWAP2 POP POP JUMP JUMPDEST PUSH2 0x3B8A DUP3 PUSH2 0x3244 JUMP JUMPDEST PUSH8 0xFFFFFFFFFFFFFFFF DUP2 GT ISZERO PUSH2 0x3BA3 JUMPI PUSH2 0x3BA2 PUSH2 0x304A JUMP JUMPDEST JUMPDEST PUSH2 0x3BAD DUP3 SLOAD PUSH2 0x39B4 JUMP JUMPDEST PUSH2 0x3BB8 DUP3 DUP3 DUP6 PUSH2 0x3AF8 JUMP JUMPDEST PUSH0 PUSH1 0x20 SWAP1 POP PUSH1 0x1F DUP4 GT PUSH1 0x1 DUP2 EQ PUSH2 0x3BE9 JUMPI PUSH0 DUP5 ISZERO PUSH2 0x3BD7 JUMPI DUP3 DUP8 ADD MLOAD SWAP1 POP JUMPDEST PUSH2 0x3BE1 DUP6 DUP3 PUSH2 0x3B66 JUMP JUMPDEST DUP7 SSTORE POP PUSH2 0x3C48 JUMP JUMPDEST PUSH1 0x1F NOT DUP5 AND PUSH2 0x3BF7 DUP7 PUSH2 0x39E4 JUMP JUMPDEST PUSH0 JUMPDEST DUP3 DUP2 LT ISZERO PUSH2 0x3C1E JUMPI DUP5 DUP10 ADD MLOAD DUP3 SSTORE PUSH1 0x1 DUP3 ADD SWAP2 POP PUSH1 0x20 DUP6 ADD SWAP5 POP PUSH1 0x20 DUP2 ADD SWAP1 POP PUSH2 0x3BF9 JUMP JUMPDEST DUP7 DUP4 LT ISZERO PUSH2 0x3C3B JUMPI DUP5 DUP10 ADD MLOAD PUSH2 0x3C37 PUSH1 0x1F DUP10 AND DUP3 PUSH2 0x3B4A JUMP JUMPDEST DUP4 SSTORE POP JUMPDEST PUSH1 0x1 PUSH1 0x2 DUP9 MUL ADD DUP9 SSTORE POP POP POP JUMPDEST POP POP POP POP POP POP JUMP JUMPDEST PUSH0 PUSH1 0x40 DUP3 ADD SWAP1 POP PUSH2 0x3C63 PUSH0 DUP4 ADD DUP6 PUSH2 0x2FCF JUMP JUMPDEST PUSH2 0x3C70 PUSH1 0x20 DUP4 ADD DUP5 PUSH2 0x2FCF JUMP JUMPDEST SWAP4 SWAP3 POP POP POP JUMP JUMPDEST PUSH32 0x50726F6A656374206973206E6F74206F70656E20666F72206170706C69636174 PUSH0 DUP3 ADD MSTORE PUSH32 0x696F6E732E000000000000000000000000000000000000000000000000000000 PUSH1 0x20 DUP3 ADD MSTORE POP JUMP JUMPDEST PUSH0 PUSH2 0x3CD1 PUSH1 0x25 DUP4 PUSH2 0x324E JUMP JUMPDEST SWAP2 POP PUSH2 0x3CDC DUP3 PUSH2 0x3C77 JUMP JUMPDEST PUSH1 0x40 DUP3 ADD SWAP1 POP SWAP2 SWAP1 POP JUMP JUMPDEST PUSH0 PUSH1 0x20 DUP3 ADD SWAP1 POP DUP2 DUP2 SUB PUSH0 DUP4 ADD MSTORE PUSH2 0x3CFE DUP2 PUSH2 0x3CC5 JUMP JUMPDEST SWAP1 POP SWAP2 SWAP1 POP JUMP JUMPDEST PUSH32 0x596F7520616C7265616479206170706C69656420666F7220746869732070726F PUSH0 DUP3 ADD MSTORE PUSH32 0x6A6563742E000000000000000000000000000000000000000000000000000000 PUSH1 0x20 DUP3 ADD MSTORE POP JUMP JUMPDEST PUSH0 PUSH2 0x3D5F PUSH1 0x25 DUP4 PUSH2 0x324E JUMP JUMPDEST SWAP2 POP PUSH2 0x3D6A DUP3 PUSH2 0x3D05 JUMP JUMPDEST PUSH1 0x40 DUP3 ADD SWAP1 POP SWAP2 SWAP1 POP JUMP JUMPDEST PUSH0 PUSH1 0x20 DUP3 ADD SWAP1 POP DUP2 DUP2 SUB PUSH0 DUP4 ADD MSTORE PUSH2 0x3D8C DUP2 PUSH2 0x3D53 JUMP JUMPDEST SWAP1 POP SWAP2 SWAP1 POP JUMP JUMPDEST PUSH32 0x4F6E6C792074686520636C69656E742063616E20706572666F726D2074686973 PUSH0 DUP3 ADD MSTORE PUSH32 0x20616374696F6E2E000000000000000000000000000000000000000000000000 PUSH1 0x20 DUP3 ADD MSTORE POP JUMP JUMPDEST PUSH0 PUSH2 0x3DED PUSH1 0x28 DUP4 PUSH2 0x324E JUMP JUMPDEST SWAP2 POP PUSH2 0x3DF8 DUP3 PUSH2 0x3D93 JUMP JUMPDEST PUSH1 0x40 DUP3 ADD SWAP1 POP SWAP2 SWAP1 POP JUMP JUMPDEST PUSH0 PUSH1 0x20 DUP3 ADD SWAP1 POP DUP2 DUP2 SUB PUSH0 DUP4 ADD MSTORE PUSH2 0x3E1A DUP2 PUSH2 0x3DE1 JUMP JUMPDEST SWAP1 POP SWAP2 SWAP1 POP JUMP JUMPDEST PUSH32 0x4E487B7100000000000000000000000000000000000000000000000000000000 PUSH0 MSTORE PUSH1 0x11 PUSH1 0x4 MSTORE PUSH1 0x24 PUSH0 REVERT JUMPDEST PUSH0 PUSH2 0x3E58 DUP3 PUSH2 0x2FC6 JUMP JUMPDEST SWAP2 POP PUSH2 0x3E63 DUP4 PUSH2 0x2FC6 JUMP JUMPDEST SWAP3 POP DUP3 DUP3 MUL PUSH2 0x3E71 DUP2 PUSH2 0x2FC6 JUMP JUMPDEST SWAP2 POP DUP3 DUP3 DIV DUP5 EQ DUP4 ISZERO OR PUSH2 0x3E88 JUMPI PUSH2 0x3E87 PUSH2 0x3E21 JUMP JUMPDEST JUMPDEST POP SWAP3 SWAP2 POP POP JUMP JUMPDEST PUSH32 0x4E487B7100000000000000000000000000000000000000000000000000000000 PUSH0 MSTORE PUSH1 0x12 PUSH1 0x4 MSTORE PUSH1 0x24 PUSH0 REVERT JUMPDEST PUSH0 PUSH2 0x3EC6 DUP3 PUSH2 0x2FC6 JUMP JUMPDEST SWAP2 POP PUSH2 0x3ED1 DUP4 PUSH2 0x2FC6 JUMP JUMPDEST SWAP3 POP DUP3 PUSH2 0x3EE1 JUMPI PUSH2 0x3EE0 PUSH2 0x3E8F JUMP JUMPDEST JUMPDEST DUP3 DUP3 DIV SWAP1 POP SWAP3 SWAP2 POP POP JUMP JUMPDEST PUSH0 PUSH2 0x3EF6 DUP3 PUSH2 0x2FC6 JUMP JUMPDEST SWAP2 POP PUSH2 0x3F01 DUP4 PUSH2 0x2FC6 JUMP JUMPDEST SWAP3 POP DUP3 DUP3 SUB SWAP1 POP DUP2 DUP2 GT ISZERO PUSH2 0x3F19 JUMPI PUSH2 0x3F18 PUSH2 0x3E21 JUMP JUMPDEST JUMPDEST SWAP3 SWAP2 POP POP JUMP JUMPDEST PUSH32 0x46756E64732063616E206F6E6C792062652077697468647261776E2066726F6D PUSH0 DUP3 ADD MSTORE PUSH32 0x20636F6D706C65746564206F72206F70656E2070726F6A656374732E00000000 PUSH1 0x20 DUP3 ADD MSTORE POP JUMP JUMPDEST PUSH0 PUSH2 0x3F79 PUSH1 0x3C DUP4 PUSH2 0x324E JUMP JUMPDEST SWAP2 POP PUSH2 0x3F84 DUP3 PUSH2 0x3F1F JUMP JUMPDEST PUSH1 0x40 DUP3 ADD SWAP1 POP SWAP2 SWAP1 POP JUMP JUMPDEST PUSH0 PUSH1 0x20 DUP3 ADD SWAP1 POP DUP2 DUP2 SUB PUSH0 DUP4 ADD MSTORE PUSH2 0x3FA6 DUP2 PUSH2 0x3F6D JUMP JUMPDEST SWAP1 POP SWAP2 SWAP1 POP JUMP JUMPDEST PUSH32 0x4E6F2066756E647320746F2077697468647261772E0000000000000000000000 PUSH0 DUP3 ADD MSTORE POP JUMP JUMPDEST PUSH0 PUSH2 0x3FE1 PUSH1 0x15 DUP4 PUSH2 0x324E JUMP JUMPDEST SWAP2 POP PUSH2 0x3FEC DUP3 PUSH2 0x3FAD JUMP JUMPDEST PUSH1 0x20 DUP3 ADD SWAP1 POP SWAP2 SWAP1 POP JUMP JUMPDEST PUSH0 PUSH1 0x20 DUP3 ADD SWAP1 POP DUP2 DUP2 SUB PUSH0 DUP4 ADD MSTORE PUSH2 0x400E DUP2 PUSH2 0x3FD5 JUMP JUMPDEST SWAP1 POP SWAP2 SWAP1 POP JUMP JUMPDEST PUSH32 0x50726F6A656374206973206E6F74206F70656E20666F72204170706C69636174 PUSH0 DUP3 ADD MSTORE PUSH32 0x696F6E2E00000000000000000000000000000000000000000000000000000000 PUSH1 0x20 DUP3 ADD MSTORE POP JUMP JUMPDEST PUSH0 PUSH2 0x406F PUSH1 0x24 DUP4 PUSH2 0x324E JUMP JUMPDEST SWAP2 POP PUSH2 0x407A DUP3 PUSH2 0x4015 JUMP JUMPDEST PUSH1 0x40 DUP3 ADD SWAP1 POP SWAP2 SWAP1 POP JUMP JUMPDEST PUSH0 PUSH1 0x20 DUP3 ADD SWAP1 POP DUP2 DUP2 SUB PUSH0 DUP4 ADD MSTORE PUSH2 0x409C DUP2 PUSH2 0x4063 JUMP JUMPDEST SWAP1 POP SWAP2 SWAP1 POP JUMP JUMPDEST PUSH32 0x496E76616C6964206170706C69636174696F6E20696E6465782E000000000000 PUSH0 DUP3 ADD MSTORE POP JUMP JUMPDEST PUSH0 PUSH2 0x40D7 PUSH1 0x1A DUP4 PUSH2 0x324E JUMP JUMPDEST SWAP2 POP PUSH2 0x40E2 DUP3 PUSH2 0x40A3 JUMP JUMPDEST PUSH1 0x20 DUP3 ADD SWAP1 POP SWAP2 SWAP1 POP JUMP JUMPDEST PUSH0 PUSH1 0x20 DUP3 ADD SWAP1 POP DUP2 DUP2 SUB PUSH0 DUP4 ADD MSTORE PUSH2 0x4104 DUP2 PUSH2 0x40CB JUMP JUMPDEST SWAP1 POP SWAP2 SWAP1 POP JUMP JUMPDEST PUSH32 0x596F7520616C72656164792061636365707465642074686973206170706C6963 PUSH0 DUP3 ADD MSTORE PUSH32 0x6174696F6E2E0000000000000000000000000000000000000000000000000000 PUSH1 0x20 DUP3 ADD MSTORE POP JUMP JUMPDEST PUSH0 PUSH2 0x4165 PUSH1 0x26 DUP4 PUSH2 0x324E JUMP JUMPDEST SWAP2 POP PUSH2 0x4170 DUP3 PUSH2 0x410B JUMP JUMPDEST PUSH1 0x40 DUP3 ADD SWAP1 POP SWAP2 SWAP1 POP JUMP JUMPDEST PUSH0 PUSH1 0x20 DUP3 ADD SWAP1 POP DUP2 DUP2 SUB PUSH0 DUP4 ADD MSTORE PUSH2 0x4192 DUP2 PUSH2 0x4159 JUMP JUMPDEST SWAP1 POP SWAP2 SWAP1 POP JUMP JUMPDEST PUSH0 PUSH2 0x41B3 PUSH2 0x41AE PUSH2 0x41A9 DUP5 PUSH2 0x3205 JUMP JUMPDEST PUSH2 0x3A62 JUMP JUMPDEST PUSH2 0x3205 JUMP JUMPDEST SWAP1 POP SWAP2 SWAP1 POP JUMP JUMPDEST PUSH0 PUSH2 0x41C4 DUP3 PUSH2 0x4199 JUMP JUMPDEST SWAP1 POP SWAP2 SWAP1 POP JUMP JUMPDEST PUSH0 PUSH2 0x41D5 DUP3 PUSH2 0x41BA JUMP JUMPDEST SWAP1 POP SWAP2 SWAP1 POP JUMP JUMPDEST PUSH2 0x41E5 DUP2 PUSH2 0x41CB JUMP JUMPDEST DUP3 MSTORE POP POP JUMP JUMPDEST PUSH0 PUSH1 0x60 DUP3 ADD SWAP1 POP PUSH2 0x41FE PUSH0 DUP4 ADD DUP7 PUSH2 0x2FCF JUMP JUMPDEST PUSH2 0x420B PUSH1 0x20 DUP4 ADD DUP6 PUSH2 0x3235 JUMP JUMPDEST PUSH2 0x4218 PUSH1 0x40 DUP4 ADD DUP5 PUSH2 0x41DC JUMP JUMPDEST SWAP5 SWAP4 POP POP POP POP JUMP JUMPDEST PUSH32 0x53656E742076616C7565206D757374206D61746368207468652070726F6A6563 PUSH0 DUP3 ADD MSTORE PUSH32 0x74206275646765742E0000000000000000000000000000000000000000000000 PUSH1 0x20 DUP3 ADD MSTORE POP JUMP JUMPDEST PUSH0 PUSH2 0x427A PUSH1 0x29 DUP4 PUSH2 0x324E JUMP JUMPDEST SWAP2 POP PUSH2 0x4285 DUP3 PUSH2 0x4220 JUMP JUMPDEST PUSH1 0x40 DUP3 ADD SWAP1 POP SWAP2 SWAP1 POP JUMP JUMPDEST PUSH0 PUSH1 0x20 DUP3 ADD SWAP1 POP DUP2 DUP2 SUB PUSH0 DUP4 ADD MSTORE PUSH2 0x42A7 DUP2 PUSH2 0x426E JUMP JUMPDEST SWAP1 POP SWAP2 SWAP1 POP JUMP JUMPDEST PUSH0 PUSH1 0x60 DUP3 ADD SWAP1 POP PUSH2 0x42C1 PUSH0 DUP4 ADD DUP7 PUSH2 0x2FCF JUMP JUMPDEST PUSH2 0x42CE PUSH1 0x20 DUP4 ADD DUP6 PUSH2 0x3235 JUMP JUMPDEST DUP2 DUP2 SUB PUSH1 0x40 DUP4 ADD MSTORE PUSH2 0x42E0 DUP2 DUP5 PUSH2 0x326C JUMP JUMPDEST SWAP1 POP SWAP5 SWAP4 POP POP POP POP JUMP JUMPDEST PUSH32 0x596F752068617665206E6F20766F74696E6720706F7765722E00000000000000 PUSH0 DUP3 ADD MSTORE POP JUMP JUMPDEST PUSH0 PUSH2 0x431E PUSH1 0x19 DUP4 PUSH2 0x324E JUMP JUMPDEST SWAP2 POP PUSH2 0x4329 DUP3 PUSH2 0x42EA JUMP JUMPDEST PUSH1 0x20 DUP3 ADD SWAP1 POP SWAP2 SWAP1 POP JUMP JUMPDEST PUSH0 PUSH1 0x20 DUP3 ADD SWAP1 POP DUP2 DUP2 SUB PUSH0 DUP4 ADD MSTORE PUSH2 0x434B DUP2 PUSH2 0x4312 JUMP JUMPDEST SWAP1 POP SWAP2 SWAP1 POP JUMP JUMPDEST PUSH32 0x4469737075746520616C7265616479207265736F6C7665642E00000000000000 PUSH0 DUP3 ADD MSTORE POP JUMP JUMPDEST PUSH0 PUSH2 0x4386 PUSH1 0x19 DUP4 PUSH2 0x324E JUMP JUMPDEST SWAP2 POP PUSH2 0x4391 DUP3 PUSH2 0x4352 JUMP JUMPDEST PUSH1 0x20 DUP3 ADD SWAP1 POP SWAP2 SWAP1 POP JUMP JUMPDEST PUSH0 PUSH1 0x20 DUP3 ADD SWAP1 POP DUP2 DUP2 SUB PUSH0 DUP4 ADD MSTORE PUSH2 0x43B3 DUP2 PUSH2 0x437A JUMP JUMPDEST SWAP1 POP SWAP2 SWAP1 POP JUMP JUMPDEST PUSH32 0x566F74696E6720646561646C696E6520686173207061737365642E0000000000 PUSH0 DUP3 ADD MSTORE POP JUMP JUMPDEST PUSH0 PUSH2 0x43EE PUSH1 0x1B DUP4 PUSH2 0x324E JUMP JUMPDEST SWAP2 POP PUSH2 0x43F9 DUP3 PUSH2 0x43BA JUMP JUMPDEST PUSH1 0x20 DUP3 ADD SWAP1 POP SWAP2 SWAP1 POP JUMP JUMPDEST PUSH0 PUSH1 0x20 DUP3 ADD SWAP1 POP DUP2 DUP2 SUB PUSH0 DUP4 ADD MSTORE PUSH2 0x441B DUP2 PUSH2 0x43E2 JUMP JUMPDEST SWAP1 POP SWAP2 SWAP1 POP JUMP JUMPDEST PUSH32 0x596F75206861766520616C726561647920766F74656420696E20746869732064 PUSH0 DUP3 ADD MSTORE PUSH32 0x6973707574652E00000000000000000000000000000000000000000000000000 PUSH1 0x20 DUP3 ADD MSTORE POP JUMP JUMPDEST PUSH0 PUSH2 0x447C PUSH1 0x27 DUP4 PUSH2 0x324E JUMP JUMPDEST SWAP2 POP PUSH2 0x4487 DUP3 PUSH2 0x4422 JUMP JUMPDEST PUSH1 0x40 DUP3 ADD SWAP1 POP SWAP2 SWAP1 POP JUMP JUMPDEST PUSH0 PUSH1 0x20 DUP3 ADD SWAP1 POP DUP2 DUP2 SUB PUSH0 DUP4 ADD MSTORE PUSH2 0x44A9 DUP2 PUSH2 0x4470 JUMP JUMPDEST SWAP1 POP SWAP2 SWAP1 POP JUMP JUMPDEST PUSH0 PUSH2 0x44BA DUP3 PUSH2 0x2FC6 JUMP JUMPDEST SWAP2 POP PUSH2 0x44C5 DUP4 PUSH2 0x2FC6 JUMP JUMPDEST SWAP3 POP DUP3 DUP3 ADD SWAP1 POP DUP1 DUP3 GT ISZERO PUSH2 0x44DD JUMPI PUSH2 0x44DC PUSH2 0x3E21 JUMP JUMPDEST JUMPDEST SWAP3 SWAP2 POP POP JUMP JUMPDEST PUSH0 PUSH1 0x60 DUP3 ADD SWAP1 POP PUSH2 0x44F6 PUSH0 DUP4 ADD DUP7 PUSH2 0x2FCF JUMP JUMPDEST PUSH2 0x4503 PUSH1 0x20 DUP4 ADD DUP6 PUSH2 0x3235 JUMP JUMPDEST PUSH2 0x4510 PUSH1 0x40 DUP4 ADD DUP5 PUSH2 0x3467 JUMP JUMPDEST SWAP5 SWAP4 POP POP POP POP JUMP JUMPDEST PUSH32 0x4F6E6C7920696E766F6C76656420706172746965732063616E20726169736520 PUSH0 DUP3 ADD MSTORE PUSH32 0x6120646973707574652E00000000000000000000000000000000000000000000 PUSH1 0x20 DUP3 ADD MSTORE POP JUMP JUMPDEST PUSH0 PUSH2 0x4572 PUSH1 0x2A DUP4 PUSH2 0x324E JUMP JUMPDEST SWAP2 POP PUSH2 0x457D DUP3 PUSH2 0x4518 JUMP JUMPDEST PUSH1 0x40 DUP3 ADD SWAP1 POP SWAP2 SWAP1 POP JUMP JUMPDEST PUSH0 PUSH1 0x20 DUP3 ADD SWAP1 POP DUP2 DUP2 SUB PUSH0 DUP4 ADD MSTORE PUSH2 0x459F DUP2 PUSH2 0x4566 JUMP JUMPDEST SWAP1 POP SWAP2 SWAP1 POP JUMP JUMPDEST PUSH32 0x44697370757465732063616E206F6E6C79206265207261697365642064757269 PUSH0 DUP3 ADD MSTORE PUSH32 0x6E6720616E206163746976652070726F6A6563742E0000000000000000000000 PUSH1 0x20 DUP3 ADD MSTORE POP JUMP JUMPDEST PUSH0 PUSH2 0x4600 PUSH1 0x35 DUP4 PUSH2 0x324E JUMP JUMPDEST SWAP2 POP PUSH2 0x460B DUP3 PUSH2 0x45A6 JUMP JUMPDEST PUSH1 0x40 DUP3 ADD SWAP1 POP SWAP2 SWAP1 POP JUMP JUMPDEST PUSH0 PUSH1 0x20 DUP3 ADD SWAP1 POP DUP2 DUP2 SUB PUSH0 DUP4 ADD MSTORE PUSH2 0x462D DUP2 PUSH2 0x45F4 JUMP JUMPDEST SWAP1 POP SWAP2 SWAP1 POP JUMP JUMPDEST PUSH0 PUSH2 0x463E DUP3 PUSH2 0x2FC6 JUMP JUMPDEST SWAP2 POP PUSH32 0xFFFFFFFFFFFFFFFFFFFFFFFFFFFFFFFFFFFFFFFFFFFFFFFFFFFFFFFFFFFFFFFF DUP3 SUB PUSH2 0x4670 JUMPI PUSH2 0x466F PUSH2 0x3E21 JUMP JUMPDEST JUMPDEST PUSH1 0x1 DUP3 ADD SWAP1 POP SWAP2 SWAP1 POP JUMP JUMPDEST PUSH32 0x566F74696E6720706572696F64206973206E6F74206F766572207965742E0000 PUSH0 DUP3 ADD MSTORE POP JUMP JUMPDEST PUSH0 PUSH2 0x46AF PUSH1 0x1E DUP4 PUSH2 0x324E JUMP JUMPDEST SWAP2 POP PUSH2 0x46BA DUP3 PUSH2 0x467B JUMP JUMPDEST PUSH1 0x20 DUP3 ADD SWAP1 POP SWAP2 SWAP1 POP JUMP JUMPDEST PUSH0 PUSH1 0x20 DUP3 ADD SWAP1 POP DUP2 DUP2 SUB PUSH0 DUP4 ADD MSTORE PUSH2 0x46DC DUP2 PUSH2 0x46A3 JUMP JUMPDEST SWAP1 POP SWAP2 SWAP1 POP JUMP JUMPDEST PUSH0 PUSH1 0x40 DUP3 ADD SWAP1 POP PUSH2 0x46F6 PUSH0 DUP4 ADD DUP6 PUSH2 0x2FCF JUMP JUMPDEST PUSH2 0x4703 PUSH1 0x20 DUP4 ADD DUP5 PUSH2 0x41DC JUMP JUMPDEST SWAP4 SWAP3 POP POP POP JUMP JUMPDEST PUSH32 0x5573657220616C7265616479206578697374732E000000000000000000000000 PUSH0 DUP3 ADD MSTORE POP JUMP JUMPDEST PUSH0 PUSH2 0x473E PUSH1 0x14 DUP4 PUSH2 0x324E JUMP JUMPDEST SWAP2 POP PUSH2 0x4749 DUP3 PUSH2 0x470A JUMP JUMPDEST PUSH1 0x20 DUP3 ADD SWAP1 POP SWAP2 SWAP1 POP JUMP JUMPDEST PUSH0 PUSH1 0x20 DUP3 ADD SWAP1 POP DUP2 DUP2 SUB PUSH0 DUP4 ADD MSTORE PUSH2 0x476B DUP2 PUSH2 0x4732 JUMP JUMPDEST SWAP1 POP SWAP2 SWAP1 POP JUMP JUMPDEST PUSH0 DUP2 SLOAD SWAP1 POP PUSH2 0x4780 DUP2 PUSH2 0x39B4 JUMP JUMPDEST SWAP1 POP SWAP2 SWAP1 POP JUMP JUMPDEST DUP2 DUP2 SUB PUSH2 0x4795 JUMPI POP POP PUSH2 0x486A JUMP JUMPDEST PUSH2 0x479E DUP3 PUSH2 0x4772 JUMP JUMPDEST PUSH8 0xFFFFFFFFFFFFFFFF DUP2 GT ISZERO PUSH2 0x47B7 JUMPI PUSH2 0x47B6 PUSH2 0x304A JUMP JUMPDEST JUMPDEST PUSH2 0x47C1 DUP3 SLOAD PUSH2 0x39B4 JUMP JUMPDEST PUSH2 0x47CC DUP3 DUP3 DUP6 PUSH2 0x3AF8 JUMP JUMPDEST PUSH0 PUSH1 0x1F DUP4 GT PUSH1 0x1 DUP2 EQ PUSH2 0x47F9 JUMPI PUSH0 DUP5 ISZERO PUSH2 0x47E7 JUMPI DUP3 DUP8 ADD SLOAD SWAP1 POP JUMPDEST PUSH2 0x47F1 DUP6 DUP3 PUSH2 0x3B66 JUMP JUMPDEST DUP7 SSTORE POP PUSH2 0x4863 JUMP JUMPDEST PUSH1 0x1F NOT DUP5 AND PUSH2 0x4807 DUP8 PUSH2 0x39E4 JUMP JUMPDEST SWAP7 POP PUSH2 0x4812 DUP7 PUSH2 0x39E4 JUMP JUMPDEST PUSH0 JUMPDEST DUP3 DUP2 LT ISZERO PUSH2 0x4839 JUMPI DUP5 DUP10 ADD SLOAD DUP3 SSTORE PUSH1 0x1 DUP3 ADD SWAP2 POP PUSH1 0x1 DUP6 ADD SWAP5 POP PUSH1 0x20 DUP2 ADD SWAP1 POP PUSH2 0x4814 JUMP JUMPDEST DUP7 DUP4 LT ISZERO PUSH2 0x4856 JUMPI DUP5 DUP10 ADD SLOAD PUSH2 0x4852 PUSH1 0x1F DUP10 AND DUP3 PUSH2 0x3B4A JUMP JUMPDEST DUP4 SSTORE POP JUMPDEST PUSH1 0x1 PUSH1 0x2 DUP9 MUL ADD DUP9 SSTORE POP POP POP JUMPDEST POP POP POP POP POP POP JUMPDEST JUMP JUMPDEST PUSH32 0x4E487B7100000000000000000000000000000000000000000000000000000000 PUSH0 MSTORE PUSH1 0x31 PUSH1 0x4 MSTORE PUSH1 0x24 PUSH0 REVERT JUMPDEST PUSH32 0x4F6E6C792074686520636F6E74726163742063616E2075706461746520726570 PUSH0 DUP3 ADD MSTORE PUSH32 0x75746174696F6E2E000000000000000000000000000000000000000000000000 PUSH1 0x20 DUP3 ADD MSTORE POP JUMP JUMPDEST PUSH0 PUSH2 0x48F3 PUSH1 0x28 DUP4 PUSH2 0x324E JUMP JUMPDEST SWAP2 POP PUSH2 0x48FE DUP3 PUSH2 0x4899 JUMP JUMPDEST PUSH1 0x40 DUP3 ADD SWAP1 POP SWAP2 SWAP1 POP JUMP JUMPDEST PUSH0 PUSH1 0x20 DUP3 ADD SWAP1 POP DUP2 DUP2 SUB PUSH0 DUP4 ADD MSTORE PUSH2 0x4920 DUP2 PUSH2 0x48E7 JUMP JUMPDEST SWAP1 POP SWAP2 SWAP1 POP JUMP INVALID LOG2 PUSH5 0x6970667358 0x22 SLT KECCAK256 0xB9 SWAP3 0xB0 0x4D AND LOG2 SSTORE KECCAK256 ADD 0xDF 0xD7 MSTORE8 0xBE PUSH1 0x7 OR 0x25 SHR TLOAD 0xE9 BLOCKHASH 0x4D PUSH4 0x26C50BB0 PUSH30 0xDCE2224764736F6C634300081A0033000000000000000000000000000000 "
				},
				"gasEstimates": {
					"creation": {
						"codeDepositCost": "3756200",
						"executionCost": "infinite",
						"totalCost": "infinite"
					},
					"external": {
						"acceptApplication(uint256,uint256)": "infinite",
						"applyForProject(uint256,string,uint256)": "infinite",
						"approveMilestone(uint256,uint256)": "infinite",
						"completeProject(uint256)": "infinite",
						"createProject(string,string,uint256,uint256)": "infinite",
						"disputeCount()": "2536",
						"disputeDeadlines(uint256)": "infinite",
						"disputes(uint256)": "infinite",
						"minimumVotingPower()": "2537",
						"projectApplications(uint256,uint256)": "infinite",
						"projectEscrow(uint256)": "infinite",
						"projectMilestones(uint256,uint256)": "infinite",
						"projects(uint256)": "infinite",
						"raiseDispute(uint256)": "infinite",
						"registerUser(uint8,string)": "infinite",
						"rejectApplication(uint256,uint256,string)": "infinite",
						"resolveDispute(uint256)": "infinite",
						"submitMilestone(uint256,uint256,string)": "infinite",
						"userReputation(address)": "2912",
						"users(address)": "infinite",
						"voteOnDispute(uint256,bool)": "infinite",
						"voted(uint256,address)": "3182",
						"votingDeadline()": "2449",
						"votingPower(address)": "2891",
						"withdrawClientFunds(uint256)": "infinite"
					},
					"internal": {
						"_canComplete(uint256)": "infinite",
						"_canDispute(uint256)": "infinite",
						"_hasAccepted(uint256)": "infinite",
						"_hasApplied(address,uint256)": "infinite",
						"updateUserReputation(address,int256)": "infinite"
					}
				},
				"methodIdentifiers": {
					"acceptApplication(uint256,uint256)": "83f67f6e",
					"applyForProject(uint256,string,uint256)": "187548d8",
					"approveMilestone(uint256,uint256)": "20913da5",
					"completeProject(uint256)": "2245f152",
					"createProject(string,string,uint256,uint256)": "94ba9709",
					"disputeCount()": "a28889e1",
					"disputeDeadlines(uint256)": "0d88d409",
					"disputes(uint256)": "564a565d",
					"minimumVotingPower()": "120ea202",
					"projectApplications(uint256,uint256)": "2b168ee4",
					"projectEscrow(uint256)": "64800185",
					"projectMilestones(uint256,uint256)": "6cb0adba",
					"projects(uint256)": "107046bd",
					"raiseDispute(uint256)": "a5c1674e",
					"registerUser(uint8,string)": "d29bcc5c",
					"rejectApplication(uint256,uint256,string)": "e32ba8f1",
					"resolveDispute(uint256)": "c2b7b868",
					"submitMilestone(uint256,uint256,string)": "0390e07a",
					"userReputation(address)": "e503bb05",
					"users(address)": "a87430ba",
					"voteOnDispute(uint256,bool)": "a4f5df12",
					"voted(uint256,address)": "5277b4ae",
					"votingDeadline()": "036ee850",
					"votingPower(address)": "c07473f6",
					"withdrawClientFunds(uint256)": "40e51b50"
				}
			},
			"storageLayout": {
				"storage": [
					{
						"astId": 114,
						"contract": "contracts/Freelance_Marketplace.sol:FreelanceMarketplace",
						"label": "users",
						"offset": 0,
						"slot": "0",
						"type": "t_mapping(t_address,t_struct(User)19_storage)"
					},
					{
						"astId": 118,
						"contract": "contracts/Freelance_Marketplace.sol:FreelanceMarketplace",
						"label": "userReputation",
						"offset": 0,
						"slot": "1",
						"type": "t_mapping(t_address,t_uint256)"
					},
					{
						"astId": 122,
						"contract": "contracts/Freelance_Marketplace.sol:FreelanceMarketplace",
						"label": "projects",
						"offset": 0,
						"slot": "2",
						"type": "t_array(t_struct(Project)35_storage)dyn_storage"
					},
					{
						"astId": 126,
						"contract": "contracts/Freelance_Marketplace.sol:FreelanceMarketplace",
						"label": "projectEscrow",
						"offset": 0,
						"slot": "3",
						"type": "t_mapping(t_uint256,t_uint256)"
					},
					{
						"astId": 132,
						"contract": "contracts/Freelance_Marketplace.sol:FreelanceMarketplace",
						"label": "projectMilestones",
						"offset": 0,
						"slot": "4",
						"type": "t_mapping(t_uint256,t_mapping(t_uint256,t_string_storage))"
					},
					{
						"astId": 138,
						"contract": "contracts/Freelance_Marketplace.sol:FreelanceMarketplace",
						"label": "projectApplications",
						"offset": 0,
						"slot": "5",
						"type": "t_mapping(t_uint256,t_array(t_struct(Application)44_storage)dyn_storage)"
					},
					{
						"astId": 143,
						"contract": "contracts/Freelance_Marketplace.sol:FreelanceMarketplace",
						"label": "disputes",
						"offset": 0,
						"slot": "6",
						"type": "t_mapping(t_uint256,t_struct(Dispute)57_storage)"
					},
					{
						"astId": 145,
						"contract": "contracts/Freelance_Marketplace.sol:FreelanceMarketplace",
						"label": "disputeCount",
						"offset": 0,
						"slot": "7",
						"type": "t_uint256"
					},
					{
						"astId": 149,
						"contract": "contracts/Freelance_Marketplace.sol:FreelanceMarketplace",
						"label": "votingPower",
						"offset": 0,
						"slot": "8",
						"type": "t_mapping(t_address,t_uint256)"
					},
					{
						"astId": 155,
						"contract": "contracts/Freelance_Marketplace.sol:FreelanceMarketplace",
						"label": "voted",
						"offset": 0,
						"slot": "9",
						"type": "t_mapping(t_uint256,t_mapping(t_address,t_bool))"
					},
					{
						"astId": 159,
						"contract": "contracts/Freelance_Marketplace.sol:FreelanceMarketplace",
						"label": "disputeDeadlines",
						"offset": 0,
						"slot": "10",
						"type": "t_mapping(t_uint256,t_uint256)"
					},
					{
						"astId": 161,
						"contract": "contracts/Freelance_Marketplace.sol:FreelanceMarketplace",
						"label": "minimumVotingPower",
						"offset": 0,
						"slot": "11",
						"type": "t_uint256"
					},
					{
						"astId": 163,
						"contract": "contracts/Freelance_Marketplace.sol:FreelanceMarketplace",
						"label": "votingDeadline",
						"offset": 0,
						"slot": "12",
						"type": "t_uint256"
					}
				],
				"types": {
					"t_address": {
						"encoding": "inplace",
						"label": "address",
						"numberOfBytes": "20"
					},
					"t_address_payable": {
						"encoding": "inplace",
						"label": "address payable",
						"numberOfBytes": "20"
					},
					"t_array(t_struct(Application)44_storage)dyn_storage": {
						"base": "t_struct(Application)44_storage",
						"encoding": "dynamic_array",
						"label": "struct FreelanceMarketplace.Application[]",
						"numberOfBytes": "32"
					},
					"t_array(t_struct(Project)35_storage)dyn_storage": {
						"base": "t_struct(Project)35_storage",
						"encoding": "dynamic_array",
						"label": "struct FreelanceMarketplace.Project[]",
						"numberOfBytes": "32"
					},
					"t_bool": {
						"encoding": "inplace",
						"label": "bool",
						"numberOfBytes": "1"
					},
					"t_enum(ProjectStatus)6": {
						"encoding": "inplace",
						"label": "enum FreelanceMarketplace.ProjectStatus",
						"numberOfBytes": "1"
					},
					"t_enum(UserRole)9": {
						"encoding": "inplace",
						"label": "enum FreelanceMarketplace.UserRole",
						"numberOfBytes": "1"
					},
					"t_mapping(t_address,t_bool)": {
						"encoding": "mapping",
						"key": "t_address",
						"label": "mapping(address => bool)",
						"numberOfBytes": "32",
						"value": "t_bool"
					},
					"t_mapping(t_address,t_struct(User)19_storage)": {
						"encoding": "mapping",
						"key": "t_address",
						"label": "mapping(address => struct FreelanceMarketplace.User)",
						"numberOfBytes": "32",
						"value": "t_struct(User)19_storage"
					},
					"t_mapping(t_address,t_uint256)": {
						"encoding": "mapping",
						"key": "t_address",
						"label": "mapping(address => uint256)",
						"numberOfBytes": "32",
						"value": "t_uint256"
					},
					"t_mapping(t_uint256,t_array(t_struct(Application)44_storage)dyn_storage)": {
						"encoding": "mapping",
						"key": "t_uint256",
						"label": "mapping(uint256 => struct FreelanceMarketplace.Application[])",
						"numberOfBytes": "32",
						"value": "t_array(t_struct(Application)44_storage)dyn_storage"
					},
					"t_mapping(t_uint256,t_mapping(t_address,t_bool))": {
						"encoding": "mapping",
						"key": "t_uint256",
						"label": "mapping(uint256 => mapping(address => bool))",
						"numberOfBytes": "32",
						"value": "t_mapping(t_address,t_bool)"
					},
					"t_mapping(t_uint256,t_mapping(t_uint256,t_string_storage))": {
						"encoding": "mapping",
						"key": "t_uint256",
						"label": "mapping(uint256 => mapping(uint256 => string))",
						"numberOfBytes": "32",
						"value": "t_mapping(t_uint256,t_string_storage)"
					},
					"t_mapping(t_uint256,t_string_storage)": {
						"encoding": "mapping",
						"key": "t_uint256",
						"label": "mapping(uint256 => string)",
						"numberOfBytes": "32",
						"value": "t_string_storage"
					},
					"t_mapping(t_uint256,t_struct(Dispute)57_storage)": {
						"encoding": "mapping",
						"key": "t_uint256",
						"label": "mapping(uint256 => struct FreelanceMarketplace.Dispute)",
						"numberOfBytes": "32",
						"value": "t_struct(Dispute)57_storage"
					},
					"t_mapping(t_uint256,t_uint256)": {
						"encoding": "mapping",
						"key": "t_uint256",
						"label": "mapping(uint256 => uint256)",
						"numberOfBytes": "32",
						"value": "t_uint256"
					},
					"t_string_storage": {
						"encoding": "bytes",
						"label": "string",
						"numberOfBytes": "32"
					},
					"t_struct(Application)44_storage": {
						"encoding": "inplace",
						"label": "struct FreelanceMarketplace.Application",
						"members": [
							{
								"astId": 37,
								"contract": "contracts/Freelance_Marketplace.sol:FreelanceMarketplace",
								"label": "freelancer",
								"offset": 0,
								"slot": "0",
								"type": "t_address"
							},
							{
								"astId": 39,
								"contract": "contracts/Freelance_Marketplace.sol:FreelanceMarketplace",
								"label": "proposal",
								"offset": 0,
								"slot": "1",
								"type": "t_string_storage"
							},
							{
								"astId": 41,
								"contract": "contracts/Freelance_Marketplace.sol:FreelanceMarketplace",
								"label": "bid",
								"offset": 0,
								"slot": "2",
								"type": "t_uint256"
							},
							{
								"astId": 43,
								"contract": "contracts/Freelance_Marketplace.sol:FreelanceMarketplace",
								"label": "isAccepted",
								"offset": 0,
								"slot": "3",
								"type": "t_bool"
							}
						],
						"numberOfBytes": "128"
					},
					"t_struct(Dispute)57_storage": {
						"encoding": "inplace",
						"label": "struct FreelanceMarketplace.Dispute",
						"members": [
							{
								"astId": 46,
								"contract": "contracts/Freelance_Marketplace.sol:FreelanceMarketplace",
								"label": "projectId",
								"offset": 0,
								"slot": "0",
								"type": "t_uint256"
							},
							{
								"astId": 48,
								"contract": "contracts/Freelance_Marketplace.sol:FreelanceMarketplace",
								"label": "partyA",
								"offset": 0,
								"slot": "1",
								"type": "t_address"
							},
							{
								"astId": 50,
								"contract": "contracts/Freelance_Marketplace.sol:FreelanceMarketplace",
								"label": "partyB",
								"offset": 0,
								"slot": "2",
								"type": "t_address"
							},
							{
								"astId": 52,
								"contract": "contracts/Freelance_Marketplace.sol:FreelanceMarketplace",
								"label": "votesForA",
								"offset": 0,
								"slot": "3",
								"type": "t_uint256"
							},
							{
								"astId": 54,
								"contract": "contracts/Freelance_Marketplace.sol:FreelanceMarketplace",
								"label": "votesForB",
								"offset": 0,
								"slot": "4",
								"type": "t_uint256"
							},
							{
								"astId": 56,
								"contract": "contracts/Freelance_Marketplace.sol:FreelanceMarketplace",
								"label": "resolved",
								"offset": 0,
								"slot": "5",
								"type": "t_bool"
							}
						],
						"numberOfBytes": "192"
					},
					"t_struct(Project)35_storage": {
						"encoding": "inplace",
						"label": "struct FreelanceMarketplace.Project",
						"members": [
							{
								"astId": 21,
								"contract": "contracts/Freelance_Marketplace.sol:FreelanceMarketplace",
								"label": "client",
								"offset": 0,
								"slot": "0",
								"type": "t_address"
							},
							{
								"astId": 23,
								"contract": "contracts/Freelance_Marketplace.sol:FreelanceMarketplace",
								"label": "title",
								"offset": 0,
								"slot": "1",
								"type": "t_string_storage"
							},
							{
								"astId": 25,
								"contract": "contracts/Freelance_Marketplace.sol:FreelanceMarketplace",
								"label": "description",
								"offset": 0,
								"slot": "2",
								"type": "t_string_storage"
							},
							{
								"astId": 27,
								"contract": "contracts/Freelance_Marketplace.sol:FreelanceMarketplace",
								"label": "budget",
								"offset": 0,
								"slot": "3",
								"type": "t_uint256"
							},
							{
								"astId": 29,
								"contract": "contracts/Freelance_Marketplace.sol:FreelanceMarketplace",
								"label": "deadline",
								"offset": 0,
								"slot": "4",
								"type": "t_uint256"
							},
							{
								"astId": 32,
								"contract": "contracts/Freelance_Marketplace.sol:FreelanceMarketplace",
								"label": "status",
								"offset": 0,
								"slot": "5",
								"type": "t_enum(ProjectStatus)6"
							},
							{
								"astId": 34,
								"contract": "contracts/Freelance_Marketplace.sol:FreelanceMarketplace",
								"label": "freelancer",
								"offset": 1,
								"slot": "5",
								"type": "t_address_payable"
							}
						],
						"numberOfBytes": "192"
					},
					"t_struct(User)19_storage": {
						"encoding": "inplace",
						"label": "struct FreelanceMarketplace.User",
						"members": [
							{
								"astId": 12,
								"contract": "contracts/Freelance_Marketplace.sol:FreelanceMarketplace",
								"label": "role",
								"offset": 0,
								"slot": "0",
								"type": "t_enum(UserRole)9"
							},
							{
								"astId": 14,
								"contract": "contracts/Freelance_Marketplace.sol:FreelanceMarketplace",
								"label": "name",
								"offset": 0,
								"slot": "1",
								"type": "t_string_storage"
							},
							{
								"astId": 16,
								"contract": "contracts/Freelance_Marketplace.sol:FreelanceMarketplace",
								"label": "reputationScore",
								"offset": 0,
								"slot": "2",
								"type": "t_uint256"
							},
							{
								"astId": 18,
								"contract": "contracts/Freelance_Marketplace.sol:FreelanceMarketplace",
								"label": "ethAddress",
								"offset": 0,
								"slot": "3",
								"type": "t_address_payable"
							}
						],
						"numberOfBytes": "128"
					},
					"t_uint256": {
						"encoding": "inplace",
						"label": "uint256",
						"numberOfBytes": "32"
					}
				}
			},
			"userdoc": {
				"kind": "user",
				"methods": {},
				"version": 1
			}
		}
	}
}